{
	"contracts/verifier.sol": {
		"Verifier": {
			"abi": [
				{
					"inputs": [
						{
							"components": [
								{
									"components": [
										{
											"internalType": "uint256",
											"name": "X",
											"type": "uint256"
										},
										{
											"internalType": "uint256",
											"name": "Y",
											"type": "uint256"
										}
									],
									"internalType": "struct Pairing.G1Point",
									"name": "a",
									"type": "tuple"
								},
								{
									"components": [
										{
											"internalType": "uint256[2]",
											"name": "X",
											"type": "uint256[2]"
										},
										{
											"internalType": "uint256[2]",
											"name": "Y",
											"type": "uint256[2]"
										}
									],
									"internalType": "struct Pairing.G2Point",
									"name": "b",
									"type": "tuple"
								},
								{
									"components": [
										{
											"internalType": "uint256",
											"name": "X",
											"type": "uint256"
										},
										{
											"internalType": "uint256",
											"name": "Y",
											"type": "uint256"
										}
									],
									"internalType": "struct Pairing.G1Point",
									"name": "c",
									"type": "tuple"
								}
							],
							"internalType": "struct Verifier.Proof",
							"name": "proof",
							"type": "tuple"
						}
					],
					"name": "verifyTx",
					"outputs": [
						{
							"internalType": "bool",
							"name": "r",
							"type": "bool"
						}
					],
					"stateMutability": "view",
					"type": "function"
				}
			],
			"devdoc": {
				"kind": "dev",
				"methods": {},
				"version": 1
			},
			"evm": {
				"assembly": "    /* \"contracts/verifier.sol\":6234:9352  contract Verifier {... */\n  mstore(0x40, 0x80)\n  callvalue\n  dup1\n  iszero\n  tag_1\n  jumpi\n  0x00\n  dup1\n  revert\ntag_1:\n  pop\n  dataSize(sub_0)\n  dup1\n  dataOffset(sub_0)\n  0x00\n  codecopy\n  0x00\n  return\nstop\n\nsub_0: assembly {\n        /* \"contracts/verifier.sol\":6234:9352  contract Verifier {... */\n      mstore(0x40, 0x80)\n      callvalue\n      dup1\n      iszero\n      tag_1\n      jumpi\n      0x00\n      dup1\n      revert\n    tag_1:\n      pop\n      jumpi(tag_2, lt(calldatasize, 0x04))\n      shr(0xe0, calldataload(0x00))\n      dup1\n      0xf6af0311\n      eq\n      tag_3\n      jumpi\n    tag_2:\n      0x00\n      dup1\n      revert\n        /* \"contracts/verifier.sol\":9069:9350  function verifyTx(... */\n    tag_3:\n      tag_4\n      0x04\n      dup1\n      calldatasize\n      sub\n      dup2\n      add\n      swap1\n      tag_5\n      swap2\n      swap1\n      tag_6\n      jump\t// in\n    tag_5:\n      tag_7\n      jump\t// in\n    tag_4:\n      mload(0x40)\n      tag_8\n      swap2\n      swap1\n      tag_9\n      jump\t// in\n    tag_8:\n      mload(0x40)\n      dup1\n      swap2\n      sub\n      swap1\n      return\n    tag_7:\n        /* \"contracts/verifier.sol\":9150:9156  bool r */\n      0x00\n        /* \"contracts/verifier.sol\":9168:9193  uint[] memory inputValues */\n      dup1\n        /* \"contracts/verifier.sol\":9207:9208  0 */\n      0x00\n        /* \"contracts/verifier.sol\":9196:9209  new uint[](0) */\n      0xffffffffffffffff\n      dup2\n      gt\n      iszero\n      tag_11\n      jumpi\n      tag_12\n      tag_13\n      jump\t// in\n    tag_12:\n    tag_11:\n      mload(0x40)\n      swap1\n      dup1\n      dup3\n      mstore\n      dup1\n      0x20\n      mul\n      0x20\n      add\n      dup3\n      add\n      0x40\n      mstore\n      dup1\n      iszero\n      tag_14\n      jumpi\n      dup2\n      0x20\n      add\n      0x20\n      dup3\n      mul\n      dup1\n      calldatasize\n      dup4\n      calldatacopy\n      dup1\n      dup3\n      add\n      swap2\n      pop\n      pop\n      swap1\n      pop\n    tag_14:\n      pop\n        /* \"contracts/verifier.sol\":9168:9209  uint[] memory inputValues = new uint[](0) */\n      swap1\n      pop\n        /* \"contracts/verifier.sol\":9262:9263  0 */\n      0x00\n        /* \"contracts/verifier.sol\":9232:9258  verify(inputValues, proof) */\n      tag_15\n        /* \"contracts/verifier.sol\":9239:9250  inputValues */\n      dup3\n        /* \"contracts/verifier.sol\":9252:9257  proof */\n      dup6\n        /* \"contracts/verifier.sol\":9232:9238  verify */\n      tag_16\n        /* \"contracts/verifier.sol\":9232:9258  verify(inputValues, proof) */\n      jump\t// in\n    tag_15:\n        /* \"contracts/verifier.sol\":9232:9263  verify(inputValues, proof) == 0 */\n      eq\n        /* \"contracts/verifier.sol\":9228:9344  if (verify(inputValues, proof) == 0) {... */\n      iszero\n      tag_17\n      jumpi\n        /* \"contracts/verifier.sol\":9286:9290  true */\n      0x01\n        /* \"contracts/verifier.sol\":9279:9290  return true */\n      swap2\n      pop\n      pop\n      jump(tag_10)\n        /* \"contracts/verifier.sol\":9228:9344  if (verify(inputValues, proof) == 0) {... */\n    tag_17:\n        /* \"contracts/verifier.sol\":9328:9333  false */\n      0x00\n        /* \"contracts/verifier.sol\":9321:9333  return false */\n      swap2\n      pop\n      pop\n        /* \"contracts/verifier.sol\":9069:9350  function verifyTx(... */\n    tag_10:\n      swap2\n      swap1\n      pop\n      jump\t// out\n        /* \"contracts/verifier.sol\":8143:9064  function verify(uint[] memory input, Proof memory proof) internal view returns (uint) {... */\n    tag_16:\n        /* \"contracts/verifier.sol\":8223:8227  uint */\n      0x00\n        /* \"contracts/verifier.sol\":8239:8265  uint256 snark_scalar_field */\n      dup1\n        /* \"contracts/verifier.sol\":8268:8345  21888242871839275222246405745257275088548364400416034343698204186575808495617 */\n      0x30644e72e131a029b85045b68181585d2833e84879b9709143e1f593f0000001\n        /* \"contracts/verifier.sol\":8239:8345  uint256 snark_scalar_field = 21888242871839275222246405745257275088548364400416034343698204186575808495617 */\n      swap1\n      pop\n        /* \"contracts/verifier.sol\":8355:8377  VerifyingKey memory vk */\n      0x00\n        /* \"contracts/verifier.sol\":8380:8394  verifyingKey() */\n      tag_20\n        /* \"contracts/verifier.sol\":8380:8392  verifyingKey */\n      tag_21\n        /* \"contracts/verifier.sol\":8380:8394  verifyingKey() */\n      jump\t// in\n    tag_20:\n        /* \"contracts/verifier.sol\":8355:8394  VerifyingKey memory vk = verifyingKey() */\n      swap1\n      pop\n        /* \"contracts/verifier.sol\":8432:8434  vk */\n      dup1\n        /* \"contracts/verifier.sol\":8432:8444  vk.gamma_abc */\n      0x80\n      add\n      mload\n        /* \"contracts/verifier.sol\":8432:8451  vk.gamma_abc.length */\n      mload\n        /* \"contracts/verifier.sol\":8427:8428  1 */\n      0x01\n        /* \"contracts/verifier.sol\":8412:8417  input */\n      dup7\n        /* \"contracts/verifier.sol\":8412:8424  input.length */\n      mload\n        /* \"contracts/verifier.sol\":8412:8428  input.length + 1 */\n      tag_22\n      swap2\n      swap1\n      tag_23\n      jump\t// in\n    tag_22:\n        /* \"contracts/verifier.sol\":8412:8451  input.length + 1 == vk.gamma_abc.length */\n      eq\n        /* \"contracts/verifier.sol\":8404:8452  require(input.length + 1 == vk.gamma_abc.length) */\n      tag_24\n      jumpi\n      0x00\n      dup1\n      revert\n    tag_24:\n        /* \"contracts/verifier.sol\":8509:8536  Pairing.G1Point memory vk_x */\n      0x00\n        /* \"contracts/verifier.sol\":8539:8560  Pairing.G1Point(0, 0) */\n      mload(0x40)\n      dup1\n      0x40\n      add\n      0x40\n      mstore\n      dup1\n        /* \"contracts/verifier.sol\":8555:8556  0 */\n      0x00\n        /* \"contracts/verifier.sol\":8539:8560  Pairing.G1Point(0, 0) */\n      dup2\n      mstore\n      0x20\n      add\n        /* \"contracts/verifier.sol\":8558:8559  0 */\n      0x00\n        /* \"contracts/verifier.sol\":8539:8560  Pairing.G1Point(0, 0) */\n      dup2\n      mstore\n      pop\n        /* \"contracts/verifier.sol\":8509:8560  Pairing.G1Point memory vk_x = Pairing.G1Point(0, 0) */\n      swap1\n      pop\n        /* \"contracts/verifier.sol\":8575:8581  uint i */\n      0x00\n        /* \"contracts/verifier.sol\":8570:8767  for (uint i = 0; i < input.length; i++) {... */\n    tag_25:\n        /* \"contracts/verifier.sol\":8591:8596  input */\n      dup7\n        /* \"contracts/verifier.sol\":8591:8603  input.length */\n      mload\n        /* \"contracts/verifier.sol\":8587:8588  i */\n      dup2\n        /* \"contracts/verifier.sol\":8587:8603  i < input.length */\n      lt\n        /* \"contracts/verifier.sol\":8570:8767  for (uint i = 0; i < input.length; i++) {... */\n      iszero\n      tag_26\n      jumpi\n        /* \"contracts/verifier.sol\":8643:8661  snark_scalar_field */\n      dup4\n        /* \"contracts/verifier.sol\":8632:8637  input */\n      dup8\n        /* \"contracts/verifier.sol\":8638:8639  i */\n      dup3\n        /* \"contracts/verifier.sol\":8632:8640  input[i] */\n      dup2\n      mload\n      dup2\n      lt\n      tag_28\n      jumpi\n      tag_29\n      tag_30\n      jump\t// in\n    tag_29:\n    tag_28:\n      0x20\n      mul\n      0x20\n      add\n      add\n      mload\n        /* \"contracts/verifier.sol\":8632:8661  input[i] < snark_scalar_field */\n      lt\n        /* \"contracts/verifier.sol\":8624:8662  require(input[i] < snark_scalar_field) */\n      tag_31\n      jumpi\n      0x00\n      dup1\n      revert\n    tag_31:\n        /* \"contracts/verifier.sol\":8683:8756  Pairing.addition(vk_x, Pairing.scalar_mul(vk.gamma_abc[i + 1], input[i])) */\n      tag_32\n        /* \"contracts/verifier.sol\":8700:8704  vk_x */\n      dup3\n        /* \"contracts/verifier.sol\":8706:8755  Pairing.scalar_mul(vk.gamma_abc[i + 1], input[i]) */\n      tag_33\n        /* \"contracts/verifier.sol\":8725:8727  vk */\n      dup6\n        /* \"contracts/verifier.sol\":8725:8737  vk.gamma_abc */\n      0x80\n      add\n      mload\n        /* \"contracts/verifier.sol\":8742:8743  1 */\n      0x01\n        /* \"contracts/verifier.sol\":8738:8739  i */\n      dup6\n        /* \"contracts/verifier.sol\":8738:8743  i + 1 */\n      tag_34\n      swap2\n      swap1\n      tag_23\n      jump\t// in\n    tag_34:\n        /* \"contracts/verifier.sol\":8725:8744  vk.gamma_abc[i + 1] */\n      dup2\n      mload\n      dup2\n      lt\n      tag_35\n      jumpi\n      tag_36\n      tag_30\n      jump\t// in\n    tag_36:\n    tag_35:\n      0x20\n      mul\n      0x20\n      add\n      add\n      mload\n        /* \"contracts/verifier.sol\":8746:8751  input */\n      dup11\n        /* \"contracts/verifier.sol\":8752:8753  i */\n      dup6\n        /* \"contracts/verifier.sol\":8746:8754  input[i] */\n      dup2\n      mload\n      dup2\n      lt\n      tag_37\n      jumpi\n      tag_38\n      tag_30\n      jump\t// in\n    tag_38:\n    tag_37:\n      0x20\n      mul\n      0x20\n      add\n      add\n      mload\n        /* \"contracts/verifier.sol\":8706:8724  Pairing.scalar_mul */\n      tag_39\n        /* \"contracts/verifier.sol\":8706:8755  Pairing.scalar_mul(vk.gamma_abc[i + 1], input[i]) */\n      jump\t// in\n    tag_33:\n        /* \"contracts/verifier.sol\":8683:8699  Pairing.addition */\n      tag_40\n        /* \"contracts/verifier.sol\":8683:8756  Pairing.addition(vk_x, Pairing.scalar_mul(vk.gamma_abc[i + 1], input[i])) */\n      jump\t// in\n    tag_32:\n        /* \"contracts/verifier.sol\":8676:8756  vk_x = Pairing.addition(vk_x, Pairing.scalar_mul(vk.gamma_abc[i + 1], input[i])) */\n      swap2\n      pop\n        /* \"contracts/verifier.sol\":8605:8608  i++ */\n      dup1\n      dup1\n      tag_41\n      swap1\n      tag_42\n      jump\t// in\n    tag_41:\n      swap2\n      pop\n      pop\n        /* \"contracts/verifier.sol\":8570:8767  for (uint i = 0; i < input.length; i++) {... */\n      jump(tag_25)\n    tag_26:\n      pop\n        /* \"contracts/verifier.sol\":8783:8822  Pairing.addition(vk_x, vk.gamma_abc[0]) */\n      tag_43\n        /* \"contracts/verifier.sol\":8800:8804  vk_x */\n      dup2\n        /* \"contracts/verifier.sol\":8806:8808  vk */\n      dup4\n        /* \"contracts/verifier.sol\":8806:8818  vk.gamma_abc */\n      0x80\n      add\n      mload\n        /* \"contracts/verifier.sol\":8819:8820  0 */\n      0x00\n        /* \"contracts/verifier.sol\":8806:8821  vk.gamma_abc[0] */\n      dup2\n      mload\n      dup2\n      lt\n      tag_44\n      jumpi\n      tag_45\n      tag_30\n      jump\t// in\n    tag_45:\n    tag_44:\n      0x20\n      mul\n      0x20\n      add\n      add\n      mload\n        /* \"contracts/verifier.sol\":8783:8799  Pairing.addition */\n      tag_40\n        /* \"contracts/verifier.sol\":8783:8822  Pairing.addition(vk_x, vk.gamma_abc[0]) */\n      jump\t// in\n    tag_43:\n        /* \"contracts/verifier.sol\":8776:8822  vk_x = Pairing.addition(vk_x, vk.gamma_abc[0]) */\n      swap1\n      pop\n        /* \"contracts/verifier.sol\":8836:9029  Pairing.pairingProd4(... */\n      tag_46\n        /* \"contracts/verifier.sol\":8871:8876  proof */\n      dup6\n        /* \"contracts/verifier.sol\":8871:8878  proof.a */\n      0x00\n      add\n      mload\n        /* \"contracts/verifier.sol\":8880:8885  proof */\n      dup7\n        /* \"contracts/verifier.sol\":8880:8887  proof.b */\n      0x20\n      add\n      mload\n        /* \"contracts/verifier.sol\":8902:8922  Pairing.negate(vk_x) */\n      tag_47\n        /* \"contracts/verifier.sol\":8917:8921  vk_x */\n      dup5\n        /* \"contracts/verifier.sol\":8902:8916  Pairing.negate */\n      tag_48\n        /* \"contracts/verifier.sol\":8902:8922  Pairing.negate(vk_x) */\n      jump\t// in\n    tag_47:\n        /* \"contracts/verifier.sol\":8924:8926  vk */\n      dup6\n        /* \"contracts/verifier.sol\":8924:8932  vk.gamma */\n      0x40\n      add\n      mload\n        /* \"contracts/verifier.sol\":8947:8970  Pairing.negate(proof.c) */\n      tag_49\n        /* \"contracts/verifier.sol\":8962:8967  proof */\n      dup11\n        /* \"contracts/verifier.sol\":8962:8969  proof.c */\n      0x40\n      add\n      mload\n        /* \"contracts/verifier.sol\":8947:8961  Pairing.negate */\n      tag_48\n        /* \"contracts/verifier.sol\":8947:8970  Pairing.negate(proof.c) */\n      jump\t// in\n    tag_49:\n        /* \"contracts/verifier.sol\":8972:8974  vk */\n      dup8\n        /* \"contracts/verifier.sol\":8972:8980  vk.delta */\n      0x60\n      add\n      mload\n        /* \"contracts/verifier.sol\":8995:9019  Pairing.negate(vk.alpha) */\n      tag_50\n        /* \"contracts/verifier.sol\":9010:9012  vk */\n      dup10\n        /* \"contracts/verifier.sol\":9010:9018  vk.alpha */\n      0x00\n      add\n      mload\n        /* \"contracts/verifier.sol\":8995:9009  Pairing.negate */\n      tag_48\n        /* \"contracts/verifier.sol\":8995:9019  Pairing.negate(vk.alpha) */\n      jump\t// in\n    tag_50:\n        /* \"contracts/verifier.sol\":9021:9023  vk */\n      dup10\n        /* \"contracts/verifier.sol\":9021:9028  vk.beta */\n      0x20\n      add\n      mload\n        /* \"contracts/verifier.sol\":8836:8856  Pairing.pairingProd4 */\n      tag_51\n        /* \"contracts/verifier.sol\":8836:9029  Pairing.pairingProd4(... */\n      jump\t// in\n    tag_46:\n        /* \"contracts/verifier.sol\":8832:9039  if(!Pairing.pairingProd4(... */\n      tag_52\n      jumpi\n        /* \"contracts/verifier.sol\":9038:9039  1 */\n      0x01\n        /* \"contracts/verifier.sol\":9031:9039  return 1 */\n      swap4\n      pop\n      pop\n      pop\n      pop\n      jump(tag_19)\n        /* \"contracts/verifier.sol\":8832:9039  if(!Pairing.pairingProd4(... */\n    tag_52:\n        /* \"contracts/verifier.sol\":9056:9057  0 */\n      0x00\n        /* \"contracts/verifier.sol\":9049:9057  return 0 */\n      swap4\n      pop\n      pop\n      pop\n      pop\n        /* \"contracts/verifier.sol\":8143:9064  function verify(uint[] memory input, Proof memory proof) internal view returns (uint) {... */\n    tag_19:\n      swap3\n      swap2\n      pop\n      pop\n      jump\t// out\n        /* \"contracts/verifier.sol\":6581:8138  function verifyingKey() pure internal returns (VerifyingKey memory vk) {... */\n    tag_21:\n        /* \"contracts/verifier.sol\":6628:6650  VerifyingKey memory vk */\n      tag_53\n      tag_54\n      jump\t// in\n    tag_53:\n        /* \"contracts/verifier.sol\":6673:6842  Pairing.G1Point(uint256(0x1402c5cb4c9b9d4b9897e41173da5194498ad922a44bac81254172d4a2541364), uint256(0x02b5c69f0533a1e57b946f9280621fc6b5101f9cc5b6da3cf839de954e00ebe8)) */\n      mload(0x40)\n      dup1\n      0x40\n      add\n      0x40\n      mstore\n      dup1\n        /* \"contracts/verifier.sol\":6697:6763  0x1402c5cb4c9b9d4b9897e41173da5194498ad922a44bac81254172d4a2541364 */\n      0x1402c5cb4c9b9d4b9897e41173da5194498ad922a44bac81254172d4a2541364\n        /* \"contracts/verifier.sol\":6673:6842  Pairing.G1Point(uint256(0x1402c5cb4c9b9d4b9897e41173da5194498ad922a44bac81254172d4a2541364), uint256(0x02b5c69f0533a1e57b946f9280621fc6b5101f9cc5b6da3cf839de954e00ebe8)) */\n      dup2\n      mstore\n      0x20\n      add\n        /* \"contracts/verifier.sol\":6774:6840  0x02b5c69f0533a1e57b946f9280621fc6b5101f9cc5b6da3cf839de954e00ebe8 */\n      0x02b5c69f0533a1e57b946f9280621fc6b5101f9cc5b6da3cf839de954e00ebe8\n        /* \"contracts/verifier.sol\":6673:6842  Pairing.G1Point(uint256(0x1402c5cb4c9b9d4b9897e41173da5194498ad922a44bac81254172d4a2541364), uint256(0x02b5c69f0533a1e57b946f9280621fc6b5101f9cc5b6da3cf839de954e00ebe8)) */\n      dup2\n      mstore\n      pop\n        /* \"contracts/verifier.sol\":6662:6664  vk */\n      dup2\n        /* \"contracts/verifier.sol\":6662:6670  vk.alpha */\n      0x00\n      add\n        /* \"contracts/verifier.sol\":6662:6842  vk.alpha = Pairing.G1Point(uint256(0x1402c5cb4c9b9d4b9897e41173da5194498ad922a44bac81254172d4a2541364), uint256(0x02b5c69f0533a1e57b946f9280621fc6b5101f9cc5b6da3cf839de954e00ebe8)) */\n      dup2\n      swap1\n      mstore\n      pop\n        /* \"contracts/verifier.sol\":6862:7189  Pairing.G2Point([uint256(0x12f7100bae3b7d360edbe469b207764280033f3afbc5ad2fd8eeb13b4f5e8290), uint256(0x2017a2fdaf733204ed1bf4fa24b351ea5621c9295043f2812d91ef2b0c4cab13)], [uint256(0x2c4b13e7cd9d5449814deb807174683739f7c2f319ca51217387e84c20d4a984), uint256(0x1c22430af88bebc36a0b945a804bd96cf68188871e4d2c8b26dc5156388594b7)]) */\n      mload(0x40)\n      dup1\n      0x40\n      add\n      0x40\n      mstore\n      dup1\n      mload(0x40)\n      dup1\n      0x40\n      add\n      0x40\n      mstore\n      dup1\n        /* \"contracts/verifier.sol\":6887:6953  0x12f7100bae3b7d360edbe469b207764280033f3afbc5ad2fd8eeb13b4f5e8290 */\n      0x12f7100bae3b7d360edbe469b207764280033f3afbc5ad2fd8eeb13b4f5e8290\n        /* \"contracts/verifier.sol\":6862:7189  Pairing.G2Point([uint256(0x12f7100bae3b7d360edbe469b207764280033f3afbc5ad2fd8eeb13b4f5e8290), uint256(0x2017a2fdaf733204ed1bf4fa24b351ea5621c9295043f2812d91ef2b0c4cab13)], [uint256(0x2c4b13e7cd9d5449814deb807174683739f7c2f319ca51217387e84c20d4a984), uint256(0x1c22430af88bebc36a0b945a804bd96cf68188871e4d2c8b26dc5156388594b7)]) */\n      dup2\n      mstore\n      0x20\n      add\n        /* \"contracts/verifier.sol\":6964:7030  0x2017a2fdaf733204ed1bf4fa24b351ea5621c9295043f2812d91ef2b0c4cab13 */\n      0x2017a2fdaf733204ed1bf4fa24b351ea5621c9295043f2812d91ef2b0c4cab13\n        /* \"contracts/verifier.sol\":6862:7189  Pairing.G2Point([uint256(0x12f7100bae3b7d360edbe469b207764280033f3afbc5ad2fd8eeb13b4f5e8290), uint256(0x2017a2fdaf733204ed1bf4fa24b351ea5621c9295043f2812d91ef2b0c4cab13)], [uint256(0x2c4b13e7cd9d5449814deb807174683739f7c2f319ca51217387e84c20d4a984), uint256(0x1c22430af88bebc36a0b945a804bd96cf68188871e4d2c8b26dc5156388594b7)]) */\n      dup2\n      mstore\n      pop\n      dup2\n      mstore\n      0x20\n      add\n      mload(0x40)\n      dup1\n      0x40\n      add\n      0x40\n      mstore\n      dup1\n        /* \"contracts/verifier.sol\":7043:7109  0x2c4b13e7cd9d5449814deb807174683739f7c2f319ca51217387e84c20d4a984 */\n      0x2c4b13e7cd9d5449814deb807174683739f7c2f319ca51217387e84c20d4a984\n        /* \"contracts/verifier.sol\":6862:7189  Pairing.G2Point([uint256(0x12f7100bae3b7d360edbe469b207764280033f3afbc5ad2fd8eeb13b4f5e8290), uint256(0x2017a2fdaf733204ed1bf4fa24b351ea5621c9295043f2812d91ef2b0c4cab13)], [uint256(0x2c4b13e7cd9d5449814deb807174683739f7c2f319ca51217387e84c20d4a984), uint256(0x1c22430af88bebc36a0b945a804bd96cf68188871e4d2c8b26dc5156388594b7)]) */\n      dup2\n      mstore\n      0x20\n      add\n        /* \"contracts/verifier.sol\":7120:7186  0x1c22430af88bebc36a0b945a804bd96cf68188871e4d2c8b26dc5156388594b7 */\n      0x1c22430af88bebc36a0b945a804bd96cf68188871e4d2c8b26dc5156388594b7\n        /* \"contracts/verifier.sol\":6862:7189  Pairing.G2Point([uint256(0x12f7100bae3b7d360edbe469b207764280033f3afbc5ad2fd8eeb13b4f5e8290), uint256(0x2017a2fdaf733204ed1bf4fa24b351ea5621c9295043f2812d91ef2b0c4cab13)], [uint256(0x2c4b13e7cd9d5449814deb807174683739f7c2f319ca51217387e84c20d4a984), uint256(0x1c22430af88bebc36a0b945a804bd96cf68188871e4d2c8b26dc5156388594b7)]) */\n      dup2\n      mstore\n      pop\n      dup2\n      mstore\n      pop\n        /* \"contracts/verifier.sol\":6852:6854  vk */\n      dup2\n        /* \"contracts/verifier.sol\":6852:6859  vk.beta */\n      0x20\n      add\n        /* \"contracts/verifier.sol\":6852:7189  vk.beta = Pairing.G2Point([uint256(0x12f7100bae3b7d360edbe469b207764280033f3afbc5ad2fd8eeb13b4f5e8290), uint256(0x2017a2fdaf733204ed1bf4fa24b351ea5621c9295043f2812d91ef2b0c4cab13)], [uint256(0x2c4b13e7cd9d5449814deb807174683739f7c2f319ca51217387e84c20d4a984), uint256(0x1c22430af88bebc36a0b945a804bd96cf68188871e4d2c8b26dc5156388594b7)]) */\n      dup2\n      swap1\n      mstore\n      pop\n        /* \"contracts/verifier.sol\":7210:7537  Pairing.G2Point([uint256(0x2f2c3cdcaaae4cd4e92ff5b84cbe3536481e0cc332eee8f70d9ca7430b9289ad), uint256(0x0aa29ddc242c2a65b8bdb0f303fe5f22300fcbee6fb6d7db768920c4014a8097)], [uint256(0x0c350f8c2d5258ecf856208a91658c3f860b83304b6883d94ae0f9be15826a06), uint256(0x02927024997c8144ae82b62e0c3445593a68ab59d12225f833690e7bac9f0717)]) */\n      mload(0x40)\n      dup1\n      0x40\n      add\n      0x40\n      mstore\n      dup1\n      mload(0x40)\n      dup1\n      0x40\n      add\n      0x40\n      mstore\n      dup1\n        /* \"contracts/verifier.sol\":7235:7301  0x2f2c3cdcaaae4cd4e92ff5b84cbe3536481e0cc332eee8f70d9ca7430b9289ad */\n      0x2f2c3cdcaaae4cd4e92ff5b84cbe3536481e0cc332eee8f70d9ca7430b9289ad\n        /* \"contracts/verifier.sol\":7210:7537  Pairing.G2Point([uint256(0x2f2c3cdcaaae4cd4e92ff5b84cbe3536481e0cc332eee8f70d9ca7430b9289ad), uint256(0x0aa29ddc242c2a65b8bdb0f303fe5f22300fcbee6fb6d7db768920c4014a8097)], [uint256(0x0c350f8c2d5258ecf856208a91658c3f860b83304b6883d94ae0f9be15826a06), uint256(0x02927024997c8144ae82b62e0c3445593a68ab59d12225f833690e7bac9f0717)]) */\n      dup2\n      mstore\n      0x20\n      add\n        /* \"contracts/verifier.sol\":7312:7378  0x0aa29ddc242c2a65b8bdb0f303fe5f22300fcbee6fb6d7db768920c4014a8097 */\n      0x0aa29ddc242c2a65b8bdb0f303fe5f22300fcbee6fb6d7db768920c4014a8097\n        /* \"contracts/verifier.sol\":7210:7537  Pairing.G2Point([uint256(0x2f2c3cdcaaae4cd4e92ff5b84cbe3536481e0cc332eee8f70d9ca7430b9289ad), uint256(0x0aa29ddc242c2a65b8bdb0f303fe5f22300fcbee6fb6d7db768920c4014a8097)], [uint256(0x0c350f8c2d5258ecf856208a91658c3f860b83304b6883d94ae0f9be15826a06), uint256(0x02927024997c8144ae82b62e0c3445593a68ab59d12225f833690e7bac9f0717)]) */\n      dup2\n      mstore\n      pop\n      dup2\n      mstore\n      0x20\n      add\n      mload(0x40)\n      dup1\n      0x40\n      add\n      0x40\n      mstore\n      dup1\n        /* \"contracts/verifier.sol\":7391:7457  0x0c350f8c2d5258ecf856208a91658c3f860b83304b6883d94ae0f9be15826a06 */\n      0x0c350f8c2d5258ecf856208a91658c3f860b83304b6883d94ae0f9be15826a06\n        /* \"contracts/verifier.sol\":7210:7537  Pairing.G2Point([uint256(0x2f2c3cdcaaae4cd4e92ff5b84cbe3536481e0cc332eee8f70d9ca7430b9289ad), uint256(0x0aa29ddc242c2a65b8bdb0f303fe5f22300fcbee6fb6d7db768920c4014a8097)], [uint256(0x0c350f8c2d5258ecf856208a91658c3f860b83304b6883d94ae0f9be15826a06), uint256(0x02927024997c8144ae82b62e0c3445593a68ab59d12225f833690e7bac9f0717)]) */\n      dup2\n      mstore\n      0x20\n      add\n        /* \"contracts/verifier.sol\":7468:7534  0x02927024997c8144ae82b62e0c3445593a68ab59d12225f833690e7bac9f0717 */\n      0x02927024997c8144ae82b62e0c3445593a68ab59d12225f833690e7bac9f0717\n        /* \"contracts/verifier.sol\":7210:7537  Pairing.G2Point([uint256(0x2f2c3cdcaaae4cd4e92ff5b84cbe3536481e0cc332eee8f70d9ca7430b9289ad), uint256(0x0aa29ddc242c2a65b8bdb0f303fe5f22300fcbee6fb6d7db768920c4014a8097)], [uint256(0x0c350f8c2d5258ecf856208a91658c3f860b83304b6883d94ae0f9be15826a06), uint256(0x02927024997c8144ae82b62e0c3445593a68ab59d12225f833690e7bac9f0717)]) */\n      dup2\n      mstore\n      pop\n      dup2\n      mstore\n      pop\n        /* \"contracts/verifier.sol\":7199:7201  vk */\n      dup2\n        /* \"contracts/verifier.sol\":7199:7207  vk.gamma */\n      0x40\n      add\n        /* \"contracts/verifier.sol\":7199:7537  vk.gamma = Pairing.G2Point([uint256(0x2f2c3cdcaaae4cd4e92ff5b84cbe3536481e0cc332eee8f70d9ca7430b9289ad), uint256(0x0aa29ddc242c2a65b8bdb0f303fe5f22300fcbee6fb6d7db768920c4014a8097)], [uint256(0x0c350f8c2d5258ecf856208a91658c3f860b83304b6883d94ae0f9be15826a06), uint256(0x02927024997c8144ae82b62e0c3445593a68ab59d12225f833690e7bac9f0717)]) */\n      dup2\n      swap1\n      mstore\n      pop\n        /* \"contracts/verifier.sol\":7558:7885  Pairing.G2Point([uint256(0x07dfcd3d944d80afdb0bec57ccb9d04d6c6d5b3221957595c522949cb4d33dd1), uint256(0x106a4d2fe3a06358271aadfdc982c98e50c30f4366a3ba792e644c09510872e5)], [uint256(0x2285d2244ea2773739aa1ad066a9d6195b158f68d226a07afc3e1465f0d508f9), uint256(0x0545db41ef8611342e9d1659eea122f43a88ee60c7e0d1a99a22e6eb332e2b18)]) */\n      mload(0x40)\n      dup1\n      0x40\n      add\n      0x40\n      mstore\n      dup1\n      mload(0x40)\n      dup1\n      0x40\n      add\n      0x40\n      mstore\n      dup1\n        /* \"contracts/verifier.sol\":7583:7649  0x07dfcd3d944d80afdb0bec57ccb9d04d6c6d5b3221957595c522949cb4d33dd1 */\n      0x07dfcd3d944d80afdb0bec57ccb9d04d6c6d5b3221957595c522949cb4d33dd1\n        /* \"contracts/verifier.sol\":7558:7885  Pairing.G2Point([uint256(0x07dfcd3d944d80afdb0bec57ccb9d04d6c6d5b3221957595c522949cb4d33dd1), uint256(0x106a4d2fe3a06358271aadfdc982c98e50c30f4366a3ba792e644c09510872e5)], [uint256(0x2285d2244ea2773739aa1ad066a9d6195b158f68d226a07afc3e1465f0d508f9), uint256(0x0545db41ef8611342e9d1659eea122f43a88ee60c7e0d1a99a22e6eb332e2b18)]) */\n      dup2\n      mstore\n      0x20\n      add\n        /* \"contracts/verifier.sol\":7660:7726  0x106a4d2fe3a06358271aadfdc982c98e50c30f4366a3ba792e644c09510872e5 */\n      0x106a4d2fe3a06358271aadfdc982c98e50c30f4366a3ba792e644c09510872e5\n        /* \"contracts/verifier.sol\":7558:7885  Pairing.G2Point([uint256(0x07dfcd3d944d80afdb0bec57ccb9d04d6c6d5b3221957595c522949cb4d33dd1), uint256(0x106a4d2fe3a06358271aadfdc982c98e50c30f4366a3ba792e644c09510872e5)], [uint256(0x2285d2244ea2773739aa1ad066a9d6195b158f68d226a07afc3e1465f0d508f9), uint256(0x0545db41ef8611342e9d1659eea122f43a88ee60c7e0d1a99a22e6eb332e2b18)]) */\n      dup2\n      mstore\n      pop\n      dup2\n      mstore\n      0x20\n      add\n      mload(0x40)\n      dup1\n      0x40\n      add\n      0x40\n      mstore\n      dup1\n        /* \"contracts/verifier.sol\":7739:7805  0x2285d2244ea2773739aa1ad066a9d6195b158f68d226a07afc3e1465f0d508f9 */\n      0x2285d2244ea2773739aa1ad066a9d6195b158f68d226a07afc3e1465f0d508f9\n        /* \"contracts/verifier.sol\":7558:7885  Pairing.G2Point([uint256(0x07dfcd3d944d80afdb0bec57ccb9d04d6c6d5b3221957595c522949cb4d33dd1), uint256(0x106a4d2fe3a06358271aadfdc982c98e50c30f4366a3ba792e644c09510872e5)], [uint256(0x2285d2244ea2773739aa1ad066a9d6195b158f68d226a07afc3e1465f0d508f9), uint256(0x0545db41ef8611342e9d1659eea122f43a88ee60c7e0d1a99a22e6eb332e2b18)]) */\n      dup2\n      mstore\n      0x20\n      add\n        /* \"contracts/verifier.sol\":7816:7882  0x0545db41ef8611342e9d1659eea122f43a88ee60c7e0d1a99a22e6eb332e2b18 */\n      0x0545db41ef8611342e9d1659eea122f43a88ee60c7e0d1a99a22e6eb332e2b18\n        /* \"contracts/verifier.sol\":7558:7885  Pairing.G2Point([uint256(0x07dfcd3d944d80afdb0bec57ccb9d04d6c6d5b3221957595c522949cb4d33dd1), uint256(0x106a4d2fe3a06358271aadfdc982c98e50c30f4366a3ba792e644c09510872e5)], [uint256(0x2285d2244ea2773739aa1ad066a9d6195b158f68d226a07afc3e1465f0d508f9), uint256(0x0545db41ef8611342e9d1659eea122f43a88ee60c7e0d1a99a22e6eb332e2b18)]) */\n      dup2\n      mstore\n      pop\n      dup2\n      mstore\n      pop\n        /* \"contracts/verifier.sol\":7547:7549  vk */\n      dup2\n        /* \"contracts/verifier.sol\":7547:7555  vk.delta */\n      0x60\n      add\n        /* \"contracts/verifier.sol\":7547:7885  vk.delta = Pairing.G2Point([uint256(0x07dfcd3d944d80afdb0bec57ccb9d04d6c6d5b3221957595c522949cb4d33dd1), uint256(0x106a4d2fe3a06358271aadfdc982c98e50c30f4366a3ba792e644c09510872e5)], [uint256(0x2285d2244ea2773739aa1ad066a9d6195b158f68d226a07afc3e1465f0d508f9), uint256(0x0545db41ef8611342e9d1659eea122f43a88ee60c7e0d1a99a22e6eb332e2b18)]) */\n      dup2\n      swap1\n      mstore\n      pop\n        /* \"contracts/verifier.sol\":7932:7933  1 */\n      0x01\n        /* \"contracts/verifier.sol\":7910:7934  new Pairing.G1Point[](1) */\n      0xffffffffffffffff\n      dup2\n      gt\n      iszero\n      tag_56\n      jumpi\n      tag_57\n      tag_13\n      jump\t// in\n    tag_57:\n    tag_56:\n      mload(0x40)\n      swap1\n      dup1\n      dup3\n      mstore\n      dup1\n      0x20\n      mul\n      0x20\n      add\n      dup3\n      add\n      0x40\n      mstore\n      dup1\n      iszero\n      tag_58\n      jumpi\n      dup2\n      0x20\n      add\n    tag_59:\n      tag_60\n      tag_61\n      jump\t// in\n    tag_60:\n      dup2\n      mstore\n      0x20\n      add\n      swap1\n      0x01\n      swap1\n      sub\n      swap1\n      dup2\n      tag_59\n      jumpi\n      swap1\n      pop\n    tag_58:\n      pop\n        /* \"contracts/verifier.sol\":7895:7897  vk */\n      dup2\n        /* \"contracts/verifier.sol\":7895:7907  vk.gamma_abc */\n      0x80\n      add\n        /* \"contracts/verifier.sol\":7895:7934  vk.gamma_abc = new Pairing.G1Point[](1) */\n      dup2\n      swap1\n      mstore\n      pop\n        /* \"contracts/verifier.sol\":7962:8131  Pairing.G1Point(uint256(0x02bff00548d8dc51b8d2c639bfd0cd69269ca402871b884b149c1d3c23ac7deb), uint256(0x2726d38bda2ef37cc2dfc0a6aafbec54b5af6483bc3ec35f1f8f82065088f6ff)) */\n      mload(0x40)\n      dup1\n      0x40\n      add\n      0x40\n      mstore\n      dup1\n        /* \"contracts/verifier.sol\":7986:8052  0x02bff00548d8dc51b8d2c639bfd0cd69269ca402871b884b149c1d3c23ac7deb */\n      0x02bff00548d8dc51b8d2c639bfd0cd69269ca402871b884b149c1d3c23ac7deb\n        /* \"contracts/verifier.sol\":7962:8131  Pairing.G1Point(uint256(0x02bff00548d8dc51b8d2c639bfd0cd69269ca402871b884b149c1d3c23ac7deb), uint256(0x2726d38bda2ef37cc2dfc0a6aafbec54b5af6483bc3ec35f1f8f82065088f6ff)) */\n      dup2\n      mstore\n      0x20\n      add\n        /* \"contracts/verifier.sol\":8063:8129  0x2726d38bda2ef37cc2dfc0a6aafbec54b5af6483bc3ec35f1f8f82065088f6ff */\n      0x2726d38bda2ef37cc2dfc0a6aafbec54b5af6483bc3ec35f1f8f82065088f6ff\n        /* \"contracts/verifier.sol\":7962:8131  Pairing.G1Point(uint256(0x02bff00548d8dc51b8d2c639bfd0cd69269ca402871b884b149c1d3c23ac7deb), uint256(0x2726d38bda2ef37cc2dfc0a6aafbec54b5af6483bc3ec35f1f8f82065088f6ff)) */\n      dup2\n      mstore\n      pop\n        /* \"contracts/verifier.sol\":7944:7946  vk */\n      dup2\n        /* \"contracts/verifier.sol\":7944:7956  vk.gamma_abc */\n      0x80\n      add\n      mload\n        /* \"contracts/verifier.sol\":7957:7958  0 */\n      0x00\n        /* \"contracts/verifier.sol\":7944:7959  vk.gamma_abc[0] */\n      dup2\n      mload\n      dup2\n      lt\n      tag_62\n      jumpi\n      tag_63\n      tag_30\n      jump\t// in\n    tag_63:\n    tag_62:\n      0x20\n      mul\n      0x20\n      add\n      add\n        /* \"contracts/verifier.sol\":7944:8131  vk.gamma_abc[0] = Pairing.G1Point(uint256(0x02bff00548d8dc51b8d2c639bfd0cd69269ca402871b884b149c1d3c23ac7deb), uint256(0x2726d38bda2ef37cc2dfc0a6aafbec54b5af6483bc3ec35f1f8f82065088f6ff)) */\n      dup2\n      swap1\n      mstore\n      pop\n        /* \"contracts/verifier.sol\":6581:8138  function verifyingKey() pure internal returns (VerifyingKey memory vk) {... */\n      swap1\n      jump\t// out\n        /* \"contracts/verifier.sol\":3082:3536  function scalar_mul(G1Point memory p, uint s) internal view returns (G1Point memory r) {... */\n    tag_39:\n        /* \"contracts/verifier.sol\":3151:3167  G1Point memory r */\n      tag_64\n      tag_61\n      jump\t// in\n    tag_64:\n        /* \"contracts/verifier.sol\":3179:3199  uint[3] memory input */\n      tag_66\n      tag_67\n      jump\t// in\n    tag_66:\n        /* \"contracts/verifier.sol\":3220:3221  p */\n      dup4\n        /* \"contracts/verifier.sol\":3220:3223  p.X */\n      0x00\n      add\n      mload\n        /* \"contracts/verifier.sol\":3209:3214  input */\n      dup2\n        /* \"contracts/verifier.sol\":3215:3216  0 */\n      0x00\n        /* \"contracts/verifier.sol\":3209:3217  input[0] */\n      0x03\n      dup2\n      lt\n      tag_68\n      jumpi\n      tag_69\n      tag_30\n      jump\t// in\n    tag_69:\n    tag_68:\n      0x20\n      mul\n      add\n        /* \"contracts/verifier.sol\":3209:3223  input[0] = p.X */\n      dup2\n      dup2\n      mstore\n      pop\n      pop\n        /* \"contracts/verifier.sol\":3244:3245  p */\n      dup4\n        /* \"contracts/verifier.sol\":3244:3247  p.Y */\n      0x20\n      add\n      mload\n        /* \"contracts/verifier.sol\":3233:3238  input */\n      dup2\n        /* \"contracts/verifier.sol\":3239:3240  1 */\n      0x01\n        /* \"contracts/verifier.sol\":3233:3241  input[1] */\n      0x03\n      dup2\n      lt\n      tag_70\n      jumpi\n      tag_71\n      tag_30\n      jump\t// in\n    tag_71:\n    tag_70:\n      0x20\n      mul\n      add\n        /* \"contracts/verifier.sol\":3233:3247  input[1] = p.Y */\n      dup2\n      dup2\n      mstore\n      pop\n      pop\n        /* \"contracts/verifier.sol\":3268:3269  s */\n      dup3\n        /* \"contracts/verifier.sol\":3257:3262  input */\n      dup2\n        /* \"contracts/verifier.sol\":3263:3264  2 */\n      0x02\n        /* \"contracts/verifier.sol\":3257:3265  input[2] */\n      0x03\n      dup2\n      lt\n      tag_72\n      jumpi\n      tag_73\n      tag_30\n      jump\t// in\n    tag_73:\n    tag_72:\n      0x20\n      mul\n      add\n        /* \"contracts/verifier.sol\":3257:3269  input[2] = s */\n      dup2\n      dup2\n      mstore\n      pop\n      pop\n        /* \"contracts/verifier.sol\":3279:3291  bool success */\n      0x00\n        /* \"contracts/verifier.sol\":3383:3387  0x60 */\n      0x60\n        /* \"contracts/verifier.sol\":3380:3381  r */\n      dup4\n        /* \"contracts/verifier.sol\":3374:3378  0x80 */\n      0x80\n        /* \"contracts/verifier.sol\":3367:3372  input */\n      dup5\n        /* \"contracts/verifier.sol\":3364:3365  7 */\n      0x07\n        /* \"contracts/verifier.sol\":3357:3361  2000 */\n      0x07d0\n        /* \"contracts/verifier.sol\":3350:3355  gas() */\n      gas\n        /* \"contracts/verifier.sol\":3346:3362  sub(gas(), 2000) */\n      sub\n        /* \"contracts/verifier.sol\":3335:3388  staticcall(sub(gas(), 2000), 7, input, 0x80, r, 0x60) */\n      staticcall\n        /* \"contracts/verifier.sol\":3324:3388  success := staticcall(sub(gas(), 2000), 7, input, 0x80, r, 0x60) */\n      swap1\n      pop\n        /* \"contracts/verifier.sol\":3465:3472  success */\n      dup1\n        /* \"contracts/verifier.sol\":3478:3479  0 */\n      0x00\n        /* \"contracts/verifier.sol\":3473:3493  case 0 { invalid() } */\n      dup2\n      eq\n      tag_75\n      jumpi\n        /* \"contracts/verifier.sol\":3458:3493  switch success case 0 { invalid() } */\n      jump(tag_74)\n        /* \"contracts/verifier.sol\":3473:3493  case 0 { invalid() } */\n    tag_75:\n        /* \"contracts/verifier.sol\":3482:3491  invalid() */\n      invalid\n        /* \"contracts/verifier.sol\":3458:3493  switch success case 0 { invalid() } */\n    tag_74:\n      pop\n        /* \"contracts/verifier.sol\":3521:3528  success */\n      dup1\n        /* \"contracts/verifier.sol\":3512:3529  require (success) */\n      tag_76\n      jumpi\n      0x00\n      dup1\n      revert\n    tag_76:\n        /* \"contracts/verifier.sol\":3169:3536  {... */\n      pop\n      pop\n        /* \"contracts/verifier.sol\":3082:3536  function scalar_mul(G1Point memory p, uint s) internal view returns (G1Point memory r) {... */\n      swap3\n      swap2\n      pop\n      pop\n      jump\t// out\n        /* \"contracts/verifier.sol\":2432:2925  function addition(G1Point memory p1, G1Point memory p2) internal view returns (G1Point memory r) {... */\n    tag_40:\n        /* \"contracts/verifier.sol\":2511:2527  G1Point memory r */\n      tag_77\n      tag_61\n      jump\t// in\n    tag_77:\n        /* \"contracts/verifier.sol\":2539:2559  uint[4] memory input */\n      tag_79\n      tag_80\n      jump\t// in\n    tag_79:\n        /* \"contracts/verifier.sol\":2580:2582  p1 */\n      dup4\n        /* \"contracts/verifier.sol\":2580:2584  p1.X */\n      0x00\n      add\n      mload\n        /* \"contracts/verifier.sol\":2569:2574  input */\n      dup2\n        /* \"contracts/verifier.sol\":2575:2576  0 */\n      0x00\n        /* \"contracts/verifier.sol\":2569:2577  input[0] */\n      0x04\n      dup2\n      lt\n      tag_81\n      jumpi\n      tag_82\n      tag_30\n      jump\t// in\n    tag_82:\n    tag_81:\n      0x20\n      mul\n      add\n        /* \"contracts/verifier.sol\":2569:2584  input[0] = p1.X */\n      dup2\n      dup2\n      mstore\n      pop\n      pop\n        /* \"contracts/verifier.sol\":2605:2607  p1 */\n      dup4\n        /* \"contracts/verifier.sol\":2605:2609  p1.Y */\n      0x20\n      add\n      mload\n        /* \"contracts/verifier.sol\":2594:2599  input */\n      dup2\n        /* \"contracts/verifier.sol\":2600:2601  1 */\n      0x01\n        /* \"contracts/verifier.sol\":2594:2602  input[1] */\n      0x04\n      dup2\n      lt\n      tag_83\n      jumpi\n      tag_84\n      tag_30\n      jump\t// in\n    tag_84:\n    tag_83:\n      0x20\n      mul\n      add\n        /* \"contracts/verifier.sol\":2594:2609  input[1] = p1.Y */\n      dup2\n      dup2\n      mstore\n      pop\n      pop\n        /* \"contracts/verifier.sol\":2630:2632  p2 */\n      dup3\n        /* \"contracts/verifier.sol\":2630:2634  p2.X */\n      0x00\n      add\n      mload\n        /* \"contracts/verifier.sol\":2619:2624  input */\n      dup2\n        /* \"contracts/verifier.sol\":2625:2626  2 */\n      0x02\n        /* \"contracts/verifier.sol\":2619:2627  input[2] */\n      0x04\n      dup2\n      lt\n      tag_85\n      jumpi\n      tag_86\n      tag_30\n      jump\t// in\n    tag_86:\n    tag_85:\n      0x20\n      mul\n      add\n        /* \"contracts/verifier.sol\":2619:2634  input[2] = p2.X */\n      dup2\n      dup2\n      mstore\n      pop\n      pop\n        /* \"contracts/verifier.sol\":2655:2657  p2 */\n      dup3\n        /* \"contracts/verifier.sol\":2655:2659  p2.Y */\n      0x20\n      add\n      mload\n        /* \"contracts/verifier.sol\":2644:2649  input */\n      dup2\n        /* \"contracts/verifier.sol\":2650:2651  3 */\n      0x03\n        /* \"contracts/verifier.sol\":2644:2652  input[3] */\n      0x04\n      dup2\n      lt\n      tag_87\n      jumpi\n      tag_88\n      tag_30\n      jump\t// in\n    tag_88:\n    tag_87:\n      0x20\n      mul\n      add\n        /* \"contracts/verifier.sol\":2644:2659  input[3] = p2.Y */\n      dup2\n      dup2\n      mstore\n      pop\n      pop\n        /* \"contracts/verifier.sol\":2669:2681  bool success */\n      0x00\n        /* \"contracts/verifier.sol\":2773:2777  0x60 */\n      0x60\n        /* \"contracts/verifier.sol\":2770:2771  r */\n      dup4\n        /* \"contracts/verifier.sol\":2764:2768  0xc0 */\n      0xc0\n        /* \"contracts/verifier.sol\":2757:2762  input */\n      dup5\n        /* \"contracts/verifier.sol\":2754:2755  6 */\n      0x06\n        /* \"contracts/verifier.sol\":2747:2751  2000 */\n      0x07d0\n        /* \"contracts/verifier.sol\":2740:2745  gas() */\n      gas\n        /* \"contracts/verifier.sol\":2736:2752  sub(gas(), 2000) */\n      sub\n        /* \"contracts/verifier.sol\":2725:2778  staticcall(sub(gas(), 2000), 6, input, 0xc0, r, 0x60) */\n      staticcall\n        /* \"contracts/verifier.sol\":2714:2778  success := staticcall(sub(gas(), 2000), 6, input, 0xc0, r, 0x60) */\n      swap1\n      pop\n        /* \"contracts/verifier.sol\":2855:2862  success */\n      dup1\n        /* \"contracts/verifier.sol\":2868:2869  0 */\n      0x00\n        /* \"contracts/verifier.sol\":2863:2883  case 0 { invalid() } */\n      dup2\n      eq\n      tag_90\n      jumpi\n        /* \"contracts/verifier.sol\":2848:2883  switch success case 0 { invalid() } */\n      jump(tag_89)\n        /* \"contracts/verifier.sol\":2863:2883  case 0 { invalid() } */\n    tag_90:\n        /* \"contracts/verifier.sol\":2872:2881  invalid() */\n      invalid\n        /* \"contracts/verifier.sol\":2848:2883  switch success case 0 { invalid() } */\n    tag_89:\n      pop\n        /* \"contracts/verifier.sol\":2910:2917  success */\n      dup1\n        /* \"contracts/verifier.sol\":2902:2918  require(success) */\n      tag_91\n      jumpi\n      0x00\n      dup1\n      revert\n    tag_91:\n        /* \"contracts/verifier.sol\":2529:2925  {... */\n      pop\n      pop\n        /* \"contracts/verifier.sol\":2432:2925  function addition(G1Point memory p1, G1Point memory p2) internal view returns (G1Point memory r) {... */\n      swap3\n      swap2\n      pop\n      pop\n      jump\t// out\n        /* \"contracts/verifier.sol\":2041:2381  function negate(G1Point memory p) pure internal returns (G1Point memory) {... */\n    tag_48:\n        /* \"contracts/verifier.sol\":2098:2112  G1Point memory */\n      tag_92\n      tag_61\n      jump\t// in\n    tag_92:\n        /* \"contracts/verifier.sol\":2176:2182  uint q */\n      0x00\n        /* \"contracts/verifier.sol\":2185:2262  21888242871839275222246405745257275088696311157297823662689037894645226208583 */\n      0x30644e72e131a029b85045b68181585d97816a916871ca8d3c208c16d87cfd47\n        /* \"contracts/verifier.sol\":2176:2262  uint q = 21888242871839275222246405745257275088696311157297823662689037894645226208583 */\n      swap1\n      pop\n        /* \"contracts/verifier.sol\":2283:2284  0 */\n      0x00\n        /* \"contracts/verifier.sol\":2276:2277  p */\n      dup4\n        /* \"contracts/verifier.sol\":2276:2279  p.X */\n      0x00\n      add\n      mload\n        /* \"contracts/verifier.sol\":2276:2284  p.X == 0 */\n      eq\n        /* \"contracts/verifier.sol\":2276:2296  p.X == 0 && p.Y == 0 */\n      dup1\n      iszero\n      tag_94\n      jumpi\n      pop\n        /* \"contracts/verifier.sol\":2295:2296  0 */\n      0x00\n        /* \"contracts/verifier.sol\":2288:2289  p */\n      dup4\n        /* \"contracts/verifier.sol\":2288:2291  p.Y */\n      0x20\n      add\n      mload\n        /* \"contracts/verifier.sol\":2288:2296  p.Y == 0 */\n      eq\n        /* \"contracts/verifier.sol\":2276:2296  p.X == 0 && p.Y == 0 */\n    tag_94:\n        /* \"contracts/verifier.sol\":2272:2330  if (p.X == 0 && p.Y == 0)... */\n      iszero\n      tag_95\n      jumpi\n        /* \"contracts/verifier.sol\":2317:2330  G1Point(0, 0) */\n      mload(0x40)\n      dup1\n      0x40\n      add\n      0x40\n      mstore\n      dup1\n        /* \"contracts/verifier.sol\":2325:2326  0 */\n      0x00\n        /* \"contracts/verifier.sol\":2317:2330  G1Point(0, 0) */\n      dup2\n      mstore\n      0x20\n      add\n        /* \"contracts/verifier.sol\":2328:2329  0 */\n      0x00\n        /* \"contracts/verifier.sol\":2317:2330  G1Point(0, 0) */\n      dup2\n      mstore\n      pop\n        /* \"contracts/verifier.sol\":2310:2330  return G1Point(0, 0) */\n      swap2\n      pop\n      pop\n      jump(tag_93)\n        /* \"contracts/verifier.sol\":2272:2330  if (p.X == 0 && p.Y == 0)... */\n    tag_95:\n        /* \"contracts/verifier.sol\":2347:2374  G1Point(p.X, q - (p.Y % q)) */\n      mload(0x40)\n      dup1\n      0x40\n      add\n      0x40\n      mstore\n      dup1\n        /* \"contracts/verifier.sol\":2355:2356  p */\n      dup5\n        /* \"contracts/verifier.sol\":2355:2358  p.X */\n      0x00\n      add\n      mload\n        /* \"contracts/verifier.sol\":2347:2374  G1Point(p.X, q - (p.Y % q)) */\n      dup2\n      mstore\n      0x20\n      add\n        /* \"contracts/verifier.sol\":2371:2372  q */\n      dup3\n        /* \"contracts/verifier.sol\":2365:2366  p */\n      dup6\n        /* \"contracts/verifier.sol\":2365:2368  p.Y */\n      0x20\n      add\n      mload\n        /* \"contracts/verifier.sol\":2365:2372  p.Y % q */\n      tag_96\n      swap2\n      swap1\n      tag_97\n      jump\t// in\n    tag_96:\n        /* \"contracts/verifier.sol\":2360:2361  q */\n      dup4\n        /* \"contracts/verifier.sol\":2360:2373  q - (p.Y % q) */\n      tag_98\n      swap2\n      swap1\n      tag_99\n      jump\t// in\n    tag_98:\n        /* \"contracts/verifier.sol\":2347:2374  G1Point(p.X, q - (p.Y % q)) */\n      dup2\n      mstore\n      pop\n        /* \"contracts/verifier.sol\":2340:2374  return G1Point(p.X, q - (p.Y % q)) */\n      swap2\n      pop\n      pop\n        /* \"contracts/verifier.sol\":2041:2381  function negate(G1Point memory p) pure internal returns (G1Point memory) {... */\n    tag_93:\n      swap2\n      swap1\n      pop\n      jump\t// out\n        /* \"contracts/verifier.sol\":5678:6230  function pairingProd4(... */\n    tag_51:\n        /* \"contracts/verifier.sol\":5929:5933  bool */\n      0x00\n        /* \"contracts/verifier.sol\":5945:5964  G1Point[] memory p1 */\n      dup1\n        /* \"contracts/verifier.sol\":5981:5982  4 */\n      0x04\n        /* \"contracts/verifier.sol\":5967:5983  new G1Point[](4) */\n      0xffffffffffffffff\n      dup2\n      gt\n      iszero\n      tag_101\n      jumpi\n      tag_102\n      tag_13\n      jump\t// in\n    tag_102:\n    tag_101:\n      mload(0x40)\n      swap1\n      dup1\n      dup3\n      mstore\n      dup1\n      0x20\n      mul\n      0x20\n      add\n      dup3\n      add\n      0x40\n      mstore\n      dup1\n      iszero\n      tag_103\n      jumpi\n      dup2\n      0x20\n      add\n    tag_104:\n      tag_105\n      tag_61\n      jump\t// in\n    tag_105:\n      dup2\n      mstore\n      0x20\n      add\n      swap1\n      0x01\n      swap1\n      sub\n      swap1\n      dup2\n      tag_104\n      jumpi\n      swap1\n      pop\n    tag_103:\n      pop\n        /* \"contracts/verifier.sol\":5945:5983  G1Point[] memory p1 = new G1Point[](4) */\n      swap1\n      pop\n        /* \"contracts/verifier.sol\":5993:6012  G2Point[] memory p2 */\n      0x00\n        /* \"contracts/verifier.sol\":6029:6030  4 */\n      0x04\n        /* \"contracts/verifier.sol\":6015:6031  new G2Point[](4) */\n      0xffffffffffffffff\n      dup2\n      gt\n      iszero\n      tag_106\n      jumpi\n      tag_107\n      tag_13\n      jump\t// in\n    tag_107:\n    tag_106:\n      mload(0x40)\n      swap1\n      dup1\n      dup3\n      mstore\n      dup1\n      0x20\n      mul\n      0x20\n      add\n      dup3\n      add\n      0x40\n      mstore\n      dup1\n      iszero\n      tag_108\n      jumpi\n      dup2\n      0x20\n      add\n    tag_109:\n      tag_110\n      tag_111\n      jump\t// in\n    tag_110:\n      dup2\n      mstore\n      0x20\n      add\n      swap1\n      0x01\n      swap1\n      sub\n      swap1\n      dup2\n      tag_109\n      jumpi\n      swap1\n      pop\n    tag_108:\n      pop\n        /* \"contracts/verifier.sol\":5993:6031  G2Point[] memory p2 = new G2Point[](4) */\n      swap1\n      pop\n        /* \"contracts/verifier.sol\":6049:6051  a1 */\n      dup11\n        /* \"contracts/verifier.sol\":6041:6043  p1 */\n      dup3\n        /* \"contracts/verifier.sol\":6044:6045  0 */\n      0x00\n        /* \"contracts/verifier.sol\":6041:6046  p1[0] */\n      dup2\n      mload\n      dup2\n      lt\n      tag_112\n      jumpi\n      tag_113\n      tag_30\n      jump\t// in\n    tag_113:\n    tag_112:\n      0x20\n      mul\n      0x20\n      add\n      add\n        /* \"contracts/verifier.sol\":6041:6051  p1[0] = a1 */\n      dup2\n      swap1\n      mstore\n      pop\n        /* \"contracts/verifier.sol\":6069:6071  b1 */\n      dup9\n        /* \"contracts/verifier.sol\":6061:6063  p1 */\n      dup3\n        /* \"contracts/verifier.sol\":6064:6065  1 */\n      0x01\n        /* \"contracts/verifier.sol\":6061:6066  p1[1] */\n      dup2\n      mload\n      dup2\n      lt\n      tag_114\n      jumpi\n      tag_115\n      tag_30\n      jump\t// in\n    tag_115:\n    tag_114:\n      0x20\n      mul\n      0x20\n      add\n      add\n        /* \"contracts/verifier.sol\":6061:6071  p1[1] = b1 */\n      dup2\n      swap1\n      mstore\n      pop\n        /* \"contracts/verifier.sol\":6089:6091  c1 */\n      dup7\n        /* \"contracts/verifier.sol\":6081:6083  p1 */\n      dup3\n        /* \"contracts/verifier.sol\":6084:6085  2 */\n      0x02\n        /* \"contracts/verifier.sol\":6081:6086  p1[2] */\n      dup2\n      mload\n      dup2\n      lt\n      tag_116\n      jumpi\n      tag_117\n      tag_30\n      jump\t// in\n    tag_117:\n    tag_116:\n      0x20\n      mul\n      0x20\n      add\n      add\n        /* \"contracts/verifier.sol\":6081:6091  p1[2] = c1 */\n      dup2\n      swap1\n      mstore\n      pop\n        /* \"contracts/verifier.sol\":6109:6111  d1 */\n      dup5\n        /* \"contracts/verifier.sol\":6101:6103  p1 */\n      dup3\n        /* \"contracts/verifier.sol\":6104:6105  3 */\n      0x03\n        /* \"contracts/verifier.sol\":6101:6106  p1[3] */\n      dup2\n      mload\n      dup2\n      lt\n      tag_118\n      jumpi\n      tag_119\n      tag_30\n      jump\t// in\n    tag_119:\n    tag_118:\n      0x20\n      mul\n      0x20\n      add\n      add\n        /* \"contracts/verifier.sol\":6101:6111  p1[3] = d1 */\n      dup2\n      swap1\n      mstore\n      pop\n        /* \"contracts/verifier.sol\":6129:6131  a2 */\n      dup10\n        /* \"contracts/verifier.sol\":6121:6123  p2 */\n      dup2\n        /* \"contracts/verifier.sol\":6124:6125  0 */\n      0x00\n        /* \"contracts/verifier.sol\":6121:6126  p2[0] */\n      dup2\n      mload\n      dup2\n      lt\n      tag_120\n      jumpi\n      tag_121\n      tag_30\n      jump\t// in\n    tag_121:\n    tag_120:\n      0x20\n      mul\n      0x20\n      add\n      add\n        /* \"contracts/verifier.sol\":6121:6131  p2[0] = a2 */\n      dup2\n      swap1\n      mstore\n      pop\n        /* \"contracts/verifier.sol\":6149:6151  b2 */\n      dup8\n        /* \"contracts/verifier.sol\":6141:6143  p2 */\n      dup2\n        /* \"contracts/verifier.sol\":6144:6145  1 */\n      0x01\n        /* \"contracts/verifier.sol\":6141:6146  p2[1] */\n      dup2\n      mload\n      dup2\n      lt\n      tag_122\n      jumpi\n      tag_123\n      tag_30\n      jump\t// in\n    tag_123:\n    tag_122:\n      0x20\n      mul\n      0x20\n      add\n      add\n        /* \"contracts/verifier.sol\":6141:6151  p2[1] = b2 */\n      dup2\n      swap1\n      mstore\n      pop\n        /* \"contracts/verifier.sol\":6169:6171  c2 */\n      dup6\n        /* \"contracts/verifier.sol\":6161:6163  p2 */\n      dup2\n        /* \"contracts/verifier.sol\":6164:6165  2 */\n      0x02\n        /* \"contracts/verifier.sol\":6161:6166  p2[2] */\n      dup2\n      mload\n      dup2\n      lt\n      tag_124\n      jumpi\n      tag_125\n      tag_30\n      jump\t// in\n    tag_125:\n    tag_124:\n      0x20\n      mul\n      0x20\n      add\n      add\n        /* \"contracts/verifier.sol\":6161:6171  p2[2] = c2 */\n      dup2\n      swap1\n      mstore\n      pop\n        /* \"contracts/verifier.sol\":6189:6191  d2 */\n      dup4\n        /* \"contracts/verifier.sol\":6181:6183  p2 */\n      dup2\n        /* \"contracts/verifier.sol\":6184:6185  3 */\n      0x03\n        /* \"contracts/verifier.sol\":6181:6186  p2[3] */\n      dup2\n      mload\n      dup2\n      lt\n      tag_126\n      jumpi\n      tag_127\n      tag_30\n      jump\t// in\n    tag_127:\n    tag_126:\n      0x20\n      mul\n      0x20\n      add\n      add\n        /* \"contracts/verifier.sol\":6181:6191  p2[3] = d2 */\n      dup2\n      swap1\n      mstore\n      pop\n        /* \"contracts/verifier.sol\":6208:6223  pairing(p1, p2) */\n      tag_128\n        /* \"contracts/verifier.sol\":6216:6218  p1 */\n      dup3\n        /* \"contracts/verifier.sol\":6220:6222  p2 */\n      dup3\n        /* \"contracts/verifier.sol\":6208:6215  pairing */\n      tag_129\n        /* \"contracts/verifier.sol\":6208:6223  pairing(p1, p2) */\n      jump\t// in\n    tag_128:\n        /* \"contracts/verifier.sol\":6201:6223  return pairing(p1, p2) */\n      swap3\n      pop\n      pop\n      pop\n        /* \"contracts/verifier.sol\":5678:6230  function pairingProd4(... */\n      swap9\n      swap8\n      pop\n      pop\n      pop\n      pop\n      pop\n      pop\n      pop\n      pop\n      jump\t// out\n        /* \"contracts/verifier.sol\":3747:4670  function pairing(G1Point[] memory p1, G2Point[] memory p2) internal view returns (bool) {... */\n    tag_129:\n        /* \"contracts/verifier.sol\":3829:3833  bool */\n      0x00\n        /* \"contracts/verifier.sol\":3866:3868  p2 */\n      dup2\n        /* \"contracts/verifier.sol\":3866:3875  p2.length */\n      mload\n        /* \"contracts/verifier.sol\":3853:3855  p1 */\n      dup4\n        /* \"contracts/verifier.sol\":3853:3862  p1.length */\n      mload\n        /* \"contracts/verifier.sol\":3853:3875  p1.length == p2.length */\n      eq\n        /* \"contracts/verifier.sol\":3845:3876  require(p1.length == p2.length) */\n      tag_131\n      jumpi\n      0x00\n      dup1\n      revert\n    tag_131:\n        /* \"contracts/verifier.sol\":3886:3899  uint elements */\n      0x00\n        /* \"contracts/verifier.sol\":3902:3904  p1 */\n      dup4\n        /* \"contracts/verifier.sol\":3902:3911  p1.length */\n      mload\n        /* \"contracts/verifier.sol\":3886:3911  uint elements = p1.length */\n      swap1\n      pop\n        /* \"contracts/verifier.sol\":3921:3935  uint inputSize */\n      0x00\n        /* \"contracts/verifier.sol\":3949:3950  6 */\n      0x06\n        /* \"contracts/verifier.sol\":3938:3946  elements */\n      dup3\n        /* \"contracts/verifier.sol\":3938:3950  elements * 6 */\n      tag_132\n      swap2\n      swap1\n      tag_133\n      jump\t// in\n    tag_132:\n        /* \"contracts/verifier.sol\":3921:3950  uint inputSize = elements * 6 */\n      swap1\n      pop\n        /* \"contracts/verifier.sol\":3960:3979  uint[] memory input */\n      0x00\n        /* \"contracts/verifier.sol\":3993:4002  inputSize */\n      dup2\n        /* \"contracts/verifier.sol\":3982:4003  new uint[](inputSize) */\n      0xffffffffffffffff\n      dup2\n      gt\n      iszero\n      tag_134\n      jumpi\n      tag_135\n      tag_13\n      jump\t// in\n    tag_135:\n    tag_134:\n      mload(0x40)\n      swap1\n      dup1\n      dup3\n      mstore\n      dup1\n      0x20\n      mul\n      0x20\n      add\n      dup3\n      add\n      0x40\n      mstore\n      dup1\n      iszero\n      tag_136\n      jumpi\n      dup2\n      0x20\n      add\n      0x20\n      dup3\n      mul\n      dup1\n      calldatasize\n      dup4\n      calldatacopy\n      dup1\n      dup3\n      add\n      swap2\n      pop\n      pop\n      swap1\n      pop\n    tag_136:\n      pop\n        /* \"contracts/verifier.sol\":3960:4003  uint[] memory input = new uint[](inputSize) */\n      swap1\n      pop\n        /* \"contracts/verifier.sol\":4018:4024  uint i */\n      0x00\n        /* \"contracts/verifier.sol\":4013:4320  for (uint i = 0; i < elements; i++)... */\n    tag_137:\n        /* \"contracts/verifier.sol\":4034:4042  elements */\n      dup4\n        /* \"contracts/verifier.sol\":4030:4031  i */\n      dup2\n        /* \"contracts/verifier.sol\":4030:4042  i < elements */\n      lt\n        /* \"contracts/verifier.sol\":4013:4320  for (uint i = 0; i < elements; i++)... */\n      iszero\n      tag_138\n      jumpi\n        /* \"contracts/verifier.sol\":4090:4092  p1 */\n      dup7\n        /* \"contracts/verifier.sol\":4093:4094  i */\n      dup2\n        /* \"contracts/verifier.sol\":4090:4095  p1[i] */\n      dup2\n      mload\n      dup2\n      lt\n      tag_140\n      jumpi\n      tag_141\n      tag_30\n      jump\t// in\n    tag_141:\n    tag_140:\n      0x20\n      mul\n      0x20\n      add\n      add\n      mload\n        /* \"contracts/verifier.sol\":4090:4097  p1[i].X */\n      0x00\n      add\n      mload\n        /* \"contracts/verifier.sol\":4071:4076  input */\n      dup3\n        /* \"contracts/verifier.sol\":4085:4086  0 */\n      0x00\n        /* \"contracts/verifier.sol\":4081:4082  6 */\n      0x06\n        /* \"contracts/verifier.sol\":4077:4078  i */\n      dup5\n        /* \"contracts/verifier.sol\":4077:4082  i * 6 */\n      tag_142\n      swap2\n      swap1\n      tag_133\n      jump\t// in\n    tag_142:\n        /* \"contracts/verifier.sol\":4077:4086  i * 6 + 0 */\n      tag_143\n      swap2\n      swap1\n      tag_23\n      jump\t// in\n    tag_143:\n        /* \"contracts/verifier.sol\":4071:4087  input[i * 6 + 0] */\n      dup2\n      mload\n      dup2\n      lt\n      tag_144\n      jumpi\n      tag_145\n      tag_30\n      jump\t// in\n    tag_145:\n    tag_144:\n      0x20\n      mul\n      0x20\n      add\n      add\n        /* \"contracts/verifier.sol\":4071:4097  input[i * 6 + 0] = p1[i].X */\n      dup2\n      dup2\n      mstore\n      pop\n      pop\n        /* \"contracts/verifier.sol\":4130:4132  p1 */\n      dup7\n        /* \"contracts/verifier.sol\":4133:4134  i */\n      dup2\n        /* \"contracts/verifier.sol\":4130:4135  p1[i] */\n      dup2\n      mload\n      dup2\n      lt\n      tag_146\n      jumpi\n      tag_147\n      tag_30\n      jump\t// in\n    tag_147:\n    tag_146:\n      0x20\n      mul\n      0x20\n      add\n      add\n      mload\n        /* \"contracts/verifier.sol\":4130:4137  p1[i].Y */\n      0x20\n      add\n      mload\n        /* \"contracts/verifier.sol\":4111:4116  input */\n      dup3\n        /* \"contracts/verifier.sol\":4125:4126  1 */\n      0x01\n        /* \"contracts/verifier.sol\":4121:4122  6 */\n      0x06\n        /* \"contracts/verifier.sol\":4117:4118  i */\n      dup5\n        /* \"contracts/verifier.sol\":4117:4122  i * 6 */\n      tag_148\n      swap2\n      swap1\n      tag_133\n      jump\t// in\n    tag_148:\n        /* \"contracts/verifier.sol\":4117:4126  i * 6 + 1 */\n      tag_149\n      swap2\n      swap1\n      tag_23\n      jump\t// in\n    tag_149:\n        /* \"contracts/verifier.sol\":4111:4127  input[i * 6 + 1] */\n      dup2\n      mload\n      dup2\n      lt\n      tag_150\n      jumpi\n      tag_151\n      tag_30\n      jump\t// in\n    tag_151:\n    tag_150:\n      0x20\n      mul\n      0x20\n      add\n      add\n        /* \"contracts/verifier.sol\":4111:4137  input[i * 6 + 1] = p1[i].Y */\n      dup2\n      dup2\n      mstore\n      pop\n      pop\n        /* \"contracts/verifier.sol\":4170:4172  p2 */\n      dup6\n        /* \"contracts/verifier.sol\":4173:4174  i */\n      dup2\n        /* \"contracts/verifier.sol\":4170:4175  p2[i] */\n      dup2\n      mload\n      dup2\n      lt\n      tag_152\n      jumpi\n      tag_153\n      tag_30\n      jump\t// in\n    tag_153:\n    tag_152:\n      0x20\n      mul\n      0x20\n      add\n      add\n      mload\n        /* \"contracts/verifier.sol\":4170:4177  p2[i].X */\n      0x00\n      add\n      mload\n        /* \"contracts/verifier.sol\":4178:4179  1 */\n      0x01\n        /* \"contracts/verifier.sol\":4170:4180  p2[i].X[1] */\n      0x02\n      dup2\n      lt\n      tag_154\n      jumpi\n      tag_155\n      tag_30\n      jump\t// in\n    tag_155:\n    tag_154:\n      0x20\n      mul\n      add\n      mload\n        /* \"contracts/verifier.sol\":4151:4156  input */\n      dup3\n        /* \"contracts/verifier.sol\":4165:4166  2 */\n      0x02\n        /* \"contracts/verifier.sol\":4161:4162  6 */\n      0x06\n        /* \"contracts/verifier.sol\":4157:4158  i */\n      dup5\n        /* \"contracts/verifier.sol\":4157:4162  i * 6 */\n      tag_156\n      swap2\n      swap1\n      tag_133\n      jump\t// in\n    tag_156:\n        /* \"contracts/verifier.sol\":4157:4166  i * 6 + 2 */\n      tag_157\n      swap2\n      swap1\n      tag_23\n      jump\t// in\n    tag_157:\n        /* \"contracts/verifier.sol\":4151:4167  input[i * 6 + 2] */\n      dup2\n      mload\n      dup2\n      lt\n      tag_158\n      jumpi\n      tag_159\n      tag_30\n      jump\t// in\n    tag_159:\n    tag_158:\n      0x20\n      mul\n      0x20\n      add\n      add\n        /* \"contracts/verifier.sol\":4151:4180  input[i * 6 + 2] = p2[i].X[1] */\n      dup2\n      dup2\n      mstore\n      pop\n      pop\n        /* \"contracts/verifier.sol\":4213:4215  p2 */\n      dup6\n        /* \"contracts/verifier.sol\":4216:4217  i */\n      dup2\n        /* \"contracts/verifier.sol\":4213:4218  p2[i] */\n      dup2\n      mload\n      dup2\n      lt\n      tag_160\n      jumpi\n      tag_161\n      tag_30\n      jump\t// in\n    tag_161:\n    tag_160:\n      0x20\n      mul\n      0x20\n      add\n      add\n      mload\n        /* \"contracts/verifier.sol\":4213:4220  p2[i].X */\n      0x00\n      add\n      mload\n        /* \"contracts/verifier.sol\":4221:4222  0 */\n      0x00\n        /* \"contracts/verifier.sol\":4213:4223  p2[i].X[0] */\n      0x02\n      dup2\n      lt\n      tag_162\n      jumpi\n      tag_163\n      tag_30\n      jump\t// in\n    tag_163:\n    tag_162:\n      0x20\n      mul\n      add\n      mload\n        /* \"contracts/verifier.sol\":4194:4199  input */\n      dup3\n        /* \"contracts/verifier.sol\":4208:4209  3 */\n      0x03\n        /* \"contracts/verifier.sol\":4204:4205  6 */\n      0x06\n        /* \"contracts/verifier.sol\":4200:4201  i */\n      dup5\n        /* \"contracts/verifier.sol\":4200:4205  i * 6 */\n      tag_164\n      swap2\n      swap1\n      tag_133\n      jump\t// in\n    tag_164:\n        /* \"contracts/verifier.sol\":4200:4209  i * 6 + 3 */\n      tag_165\n      swap2\n      swap1\n      tag_23\n      jump\t// in\n    tag_165:\n        /* \"contracts/verifier.sol\":4194:4210  input[i * 6 + 3] */\n      dup2\n      mload\n      dup2\n      lt\n      tag_166\n      jumpi\n      tag_167\n      tag_30\n      jump\t// in\n    tag_167:\n    tag_166:\n      0x20\n      mul\n      0x20\n      add\n      add\n        /* \"contracts/verifier.sol\":4194:4223  input[i * 6 + 3] = p2[i].X[0] */\n      dup2\n      dup2\n      mstore\n      pop\n      pop\n        /* \"contracts/verifier.sol\":4256:4258  p2 */\n      dup6\n        /* \"contracts/verifier.sol\":4259:4260  i */\n      dup2\n        /* \"contracts/verifier.sol\":4256:4261  p2[i] */\n      dup2\n      mload\n      dup2\n      lt\n      tag_168\n      jumpi\n      tag_169\n      tag_30\n      jump\t// in\n    tag_169:\n    tag_168:\n      0x20\n      mul\n      0x20\n      add\n      add\n      mload\n        /* \"contracts/verifier.sol\":4256:4263  p2[i].Y */\n      0x20\n      add\n      mload\n        /* \"contracts/verifier.sol\":4264:4265  1 */\n      0x01\n        /* \"contracts/verifier.sol\":4256:4266  p2[i].Y[1] */\n      0x02\n      dup2\n      lt\n      tag_170\n      jumpi\n      tag_171\n      tag_30\n      jump\t// in\n    tag_171:\n    tag_170:\n      0x20\n      mul\n      add\n      mload\n        /* \"contracts/verifier.sol\":4237:4242  input */\n      dup3\n        /* \"contracts/verifier.sol\":4251:4252  4 */\n      0x04\n        /* \"contracts/verifier.sol\":4247:4248  6 */\n      0x06\n        /* \"contracts/verifier.sol\":4243:4244  i */\n      dup5\n        /* \"contracts/verifier.sol\":4243:4248  i * 6 */\n      tag_172\n      swap2\n      swap1\n      tag_133\n      jump\t// in\n    tag_172:\n        /* \"contracts/verifier.sol\":4243:4252  i * 6 + 4 */\n      tag_173\n      swap2\n      swap1\n      tag_23\n      jump\t// in\n    tag_173:\n        /* \"contracts/verifier.sol\":4237:4253  input[i * 6 + 4] */\n      dup2\n      mload\n      dup2\n      lt\n      tag_174\n      jumpi\n      tag_175\n      tag_30\n      jump\t// in\n    tag_175:\n    tag_174:\n      0x20\n      mul\n      0x20\n      add\n      add\n        /* \"contracts/verifier.sol\":4237:4266  input[i * 6 + 4] = p2[i].Y[1] */\n      dup2\n      dup2\n      mstore\n      pop\n      pop\n        /* \"contracts/verifier.sol\":4299:4301  p2 */\n      dup6\n        /* \"contracts/verifier.sol\":4302:4303  i */\n      dup2\n        /* \"contracts/verifier.sol\":4299:4304  p2[i] */\n      dup2\n      mload\n      dup2\n      lt\n      tag_176\n      jumpi\n      tag_177\n      tag_30\n      jump\t// in\n    tag_177:\n    tag_176:\n      0x20\n      mul\n      0x20\n      add\n      add\n      mload\n        /* \"contracts/verifier.sol\":4299:4306  p2[i].Y */\n      0x20\n      add\n      mload\n        /* \"contracts/verifier.sol\":4307:4308  0 */\n      0x00\n        /* \"contracts/verifier.sol\":4299:4309  p2[i].Y[0] */\n      0x02\n      dup2\n      lt\n      tag_178\n      jumpi\n      tag_179\n      tag_30\n      jump\t// in\n    tag_179:\n    tag_178:\n      0x20\n      mul\n      add\n      mload\n        /* \"contracts/verifier.sol\":4280:4285  input */\n      dup3\n        /* \"contracts/verifier.sol\":4294:4295  5 */\n      0x05\n        /* \"contracts/verifier.sol\":4290:4291  6 */\n      0x06\n        /* \"contracts/verifier.sol\":4286:4287  i */\n      dup5\n        /* \"contracts/verifier.sol\":4286:4291  i * 6 */\n      tag_180\n      swap2\n      swap1\n      tag_133\n      jump\t// in\n    tag_180:\n        /* \"contracts/verifier.sol\":4286:4295  i * 6 + 5 */\n      tag_181\n      swap2\n      swap1\n      tag_23\n      jump\t// in\n    tag_181:\n        /* \"contracts/verifier.sol\":4280:4296  input[i * 6 + 5] */\n      dup2\n      mload\n      dup2\n      lt\n      tag_182\n      jumpi\n      tag_183\n      tag_30\n      jump\t// in\n    tag_183:\n    tag_182:\n      0x20\n      mul\n      0x20\n      add\n      add\n        /* \"contracts/verifier.sol\":4280:4309  input[i * 6 + 5] = p2[i].Y[0] */\n      dup2\n      dup2\n      mstore\n      pop\n      pop\n        /* \"contracts/verifier.sol\":4044:4047  i++ */\n      dup1\n      dup1\n      tag_184\n      swap1\n      tag_42\n      jump\t// in\n    tag_184:\n      swap2\n      pop\n      pop\n        /* \"contracts/verifier.sol\":4013:4320  for (uint i = 0; i < elements; i++)... */\n      jump(tag_137)\n    tag_138:\n      pop\n        /* \"contracts/verifier.sol\":4329:4347  uint[1] memory out */\n      tag_185\n      tag_186\n      jump\t// in\n    tag_185:\n        /* \"contracts/verifier.sol\":4357:4369  bool success */\n      0x00\n        /* \"contracts/verifier.sol\":4490:4494  0x20 */\n      0x20\n        /* \"contracts/verifier.sol\":4485:4488  out */\n      dup3\n        /* \"contracts/verifier.sol\":4478:4482  0x20 */\n      0x20\n        /* \"contracts/verifier.sol\":4467:4476  inputSize */\n      dup7\n        /* \"contracts/verifier.sol\":4463:4483  mul(inputSize, 0x20) */\n      mul\n        /* \"contracts/verifier.sol\":4456:4460  0x20 */\n      0x20\n        /* \"contracts/verifier.sol\":4449:4454  input */\n      dup7\n        /* \"contracts/verifier.sol\":4445:4461  add(input, 0x20) */\n      add\n        /* \"contracts/verifier.sol\":4442:4443  8 */\n      0x08\n        /* \"contracts/verifier.sol\":4435:4439  2000 */\n      0x07d0\n        /* \"contracts/verifier.sol\":4428:4433  gas() */\n      gas\n        /* \"contracts/verifier.sol\":4424:4440  sub(gas(), 2000) */\n      sub\n        /* \"contracts/verifier.sol\":4413:4495  staticcall(sub(gas(), 2000), 8, add(input, 0x20), mul(inputSize, 0x20), out, 0x20) */\n      staticcall\n        /* \"contracts/verifier.sol\":4402:4495  success := staticcall(sub(gas(), 2000), 8, add(input, 0x20), mul(inputSize, 0x20), out, 0x20) */\n      swap1\n      pop\n        /* \"contracts/verifier.sol\":4572:4579  success */\n      dup1\n        /* \"contracts/verifier.sol\":4585:4586  0 */\n      0x00\n        /* \"contracts/verifier.sol\":4580:4600  case 0 { invalid() } */\n      dup2\n      eq\n      tag_188\n      jumpi\n        /* \"contracts/verifier.sol\":4565:4600  switch success case 0 { invalid() } */\n      jump(tag_187)\n        /* \"contracts/verifier.sol\":4580:4600  case 0 { invalid() } */\n    tag_188:\n        /* \"contracts/verifier.sol\":4589:4598  invalid() */\n      invalid\n        /* \"contracts/verifier.sol\":4565:4600  switch success case 0 { invalid() } */\n    tag_187:\n      pop\n        /* \"contracts/verifier.sol\":4627:4634  success */\n      dup1\n        /* \"contracts/verifier.sol\":4619:4635  require(success) */\n      tag_189\n      jumpi\n      0x00\n      dup1\n      revert\n    tag_189:\n        /* \"contracts/verifier.sol\":4662:4663  0 */\n      0x00\n        /* \"contracts/verifier.sol\":4652:4655  out */\n      dup3\n        /* \"contracts/verifier.sol\":4656:4657  0 */\n      0x00\n        /* \"contracts/verifier.sol\":4652:4658  out[0] */\n      0x01\n      dup2\n      lt\n      tag_190\n      jumpi\n      tag_191\n      tag_30\n      jump\t// in\n    tag_191:\n    tag_190:\n      0x20\n      mul\n      add\n      mload\n        /* \"contracts/verifier.sol\":4652:4663  out[0] != 0 */\n      eq\n      iszero\n        /* \"contracts/verifier.sol\":4645:4663  return out[0] != 0 */\n      swap6\n      pop\n      pop\n      pop\n      pop\n      pop\n      pop\n        /* \"contracts/verifier.sol\":3747:4670  function pairing(G1Point[] memory p1, G2Point[] memory p2) internal view returns (bool) {... */\n      swap3\n      swap2\n      pop\n      pop\n      jump\t// out\n    tag_54:\n      mload(0x40)\n      dup1\n      0xa0\n      add\n      0x40\n      mstore\n      dup1\n      tag_192\n      tag_61\n      jump\t// in\n    tag_192:\n      dup2\n      mstore\n      0x20\n      add\n      tag_193\n      tag_111\n      jump\t// in\n    tag_193:\n      dup2\n      mstore\n      0x20\n      add\n      tag_194\n      tag_111\n      jump\t// in\n    tag_194:\n      dup2\n      mstore\n      0x20\n      add\n      tag_195\n      tag_111\n      jump\t// in\n    tag_195:\n      dup2\n      mstore\n      0x20\n      add\n      0x60\n      dup2\n      mstore\n      pop\n      swap1\n      jump\t// out\n    tag_61:\n      mload(0x40)\n      dup1\n      0x40\n      add\n      0x40\n      mstore\n      dup1\n      0x00\n      dup2\n      mstore\n      0x20\n      add\n      0x00\n      dup2\n      mstore\n      pop\n      swap1\n      jump\t// out\n    tag_67:\n      mload(0x40)\n      dup1\n      0x60\n      add\n      0x40\n      mstore\n      dup1\n      0x03\n      swap1\n      0x20\n      dup3\n      mul\n      dup1\n      calldatasize\n      dup4\n      calldatacopy\n      dup1\n      dup3\n      add\n      swap2\n      pop\n      pop\n      swap1\n      pop\n      pop\n      swap1\n      jump\t// out\n    tag_80:\n      mload(0x40)\n      dup1\n      0x80\n      add\n      0x40\n      mstore\n      dup1\n      0x04\n      swap1\n      0x20\n      dup3\n      mul\n      dup1\n      calldatasize\n      dup4\n      calldatacopy\n      dup1\n      dup3\n      add\n      swap2\n      pop\n      pop\n      swap1\n      pop\n      pop\n      swap1\n      jump\t// out\n    tag_111:\n      mload(0x40)\n      dup1\n      0x40\n      add\n      0x40\n      mstore\n      dup1\n      tag_196\n      tag_197\n      jump\t// in\n    tag_196:\n      dup2\n      mstore\n      0x20\n      add\n      tag_198\n      tag_197\n      jump\t// in\n    tag_198:\n      dup2\n      mstore\n      pop\n      swap1\n      jump\t// out\n    tag_186:\n      mload(0x40)\n      dup1\n      0x20\n      add\n      0x40\n      mstore\n      dup1\n      0x01\n      swap1\n      0x20\n      dup3\n      mul\n      dup1\n      calldatasize\n      dup4\n      calldatacopy\n      dup1\n      dup3\n      add\n      swap2\n      pop\n      pop\n      swap1\n      pop\n      pop\n      swap1\n      jump\t// out\n    tag_197:\n      mload(0x40)\n      dup1\n      0x40\n      add\n      0x40\n      mstore\n      dup1\n      0x02\n      swap1\n      0x20\n      dup3\n      mul\n      dup1\n      calldatasize\n      dup4\n      calldatacopy\n      dup1\n      dup3\n      add\n      swap2\n      pop\n      pop\n      swap1\n      pop\n      pop\n      swap1\n      jump\t// out\n        /* \"#utility.yul\":25:680   */\n    tag_200:\n        /* \"#utility.yul\":119:124   */\n      0x00\n        /* \"#utility.yul\":144:223   */\n      tag_202\n        /* \"#utility.yul\":160:222   */\n      tag_203\n        /* \"#utility.yul\":215:221   */\n      dup5\n        /* \"#utility.yul\":160:222   */\n      tag_204\n      jump\t// in\n    tag_203:\n        /* \"#utility.yul\":144:223   */\n      tag_205\n      jump\t// in\n    tag_202:\n        /* \"#utility.yul\":135:223   */\n      swap1\n      pop\n        /* \"#utility.yul\":243:248   */\n      dup1\n        /* \"#utility.yul\":269:275   */\n      dup3\n        /* \"#utility.yul\":319:322   */\n      dup6\n        /* \"#utility.yul\":311:315   */\n      0x20\n        /* \"#utility.yul\":303:309   */\n      dup7\n        /* \"#utility.yul\":299:316   */\n      mul\n        /* \"#utility.yul\":294:297   */\n      dup3\n        /* \"#utility.yul\":290:317   */\n      add\n        /* \"#utility.yul\":287:323   */\n      gt\n        /* \"#utility.yul\":284:427   */\n      iszero\n      tag_206\n      jumpi\n        /* \"#utility.yul\":338:417   */\n      tag_207\n      tag_208\n      jump\t// in\n    tag_207:\n        /* \"#utility.yul\":284:427   */\n    tag_206:\n        /* \"#utility.yul\":451:452   */\n      0x00\n        /* \"#utility.yul\":436:674   */\n    tag_209:\n        /* \"#utility.yul\":461:467   */\n      dup6\n        /* \"#utility.yul\":458:459   */\n      dup2\n        /* \"#utility.yul\":455:468   */\n      lt\n        /* \"#utility.yul\":436:674   */\n      iszero\n      tag_211\n      jumpi\n        /* \"#utility.yul\":529:532   */\n      dup2\n        /* \"#utility.yul\":558:595   */\n      tag_212\n        /* \"#utility.yul\":591:594   */\n      dup9\n        /* \"#utility.yul\":579:589   */\n      dup3\n        /* \"#utility.yul\":558:595   */\n      tag_213\n      jump\t// in\n    tag_212:\n        /* \"#utility.yul\":553:556   */\n      dup5\n        /* \"#utility.yul\":546:596   */\n      mstore\n        /* \"#utility.yul\":625:629   */\n      0x20\n        /* \"#utility.yul\":620:623   */\n      dup5\n        /* \"#utility.yul\":616:630   */\n      add\n        /* \"#utility.yul\":609:630   */\n      swap4\n      pop\n        /* \"#utility.yul\":659:663   */\n      0x20\n        /* \"#utility.yul\":654:657   */\n      dup4\n        /* \"#utility.yul\":650:664   */\n      add\n        /* \"#utility.yul\":643:664   */\n      swap3\n      pop\n        /* \"#utility.yul\":496:674   */\n      pop\n        /* \"#utility.yul\":483:484   */\n      0x01\n        /* \"#utility.yul\":480:481   */\n      dup2\n        /* \"#utility.yul\":476:485   */\n      add\n        /* \"#utility.yul\":471:485   */\n      swap1\n      pop\n        /* \"#utility.yul\":436:674   */\n      jump(tag_209)\n    tag_211:\n        /* \"#utility.yul\":440:454   */\n      pop\n        /* \"#utility.yul\":125:680   */\n      pop\n      pop\n        /* \"#utility.yul\":25:680   */\n      swap4\n      swap3\n      pop\n      pop\n      pop\n      jump\t// out\n        /* \"#utility.yul\":704:1043   */\n    tag_214:\n        /* \"#utility.yul\":773:778   */\n      0x00\n        /* \"#utility.yul\":822:825   */\n      dup3\n        /* \"#utility.yul\":815:819   */\n      0x1f\n        /* \"#utility.yul\":807:813   */\n      dup4\n        /* \"#utility.yul\":803:820   */\n      add\n        /* \"#utility.yul\":799:826   */\n      slt\n        /* \"#utility.yul\":789:911   */\n      tag_216\n      jumpi\n        /* \"#utility.yul\":830:909   */\n      tag_217\n      tag_218\n      jump\t// in\n    tag_217:\n        /* \"#utility.yul\":789:911   */\n    tag_216:\n        /* \"#utility.yul\":934:938   */\n      0x02\n        /* \"#utility.yul\":956:1037   */\n      tag_219\n        /* \"#utility.yul\":1033:1036   */\n      dup5\n        /* \"#utility.yul\":1025:1031   */\n      dup3\n        /* \"#utility.yul\":1017:1023   */\n      dup6\n        /* \"#utility.yul\":956:1037   */\n      tag_200\n      jump\t// in\n    tag_219:\n        /* \"#utility.yul\":947:1037   */\n      swap2\n      pop\n        /* \"#utility.yul\":779:1043   */\n      pop\n        /* \"#utility.yul\":704:1043   */\n      swap3\n      swap2\n      pop\n      pop\n      jump\t// out\n        /* \"#utility.yul\":1079:1644   */\n    tag_220:\n        /* \"#utility.yul\":1150:1155   */\n      0x00\n        /* \"#utility.yul\":1194:1198   */\n      0x40\n        /* \"#utility.yul\":1182:1191   */\n      dup3\n        /* \"#utility.yul\":1177:1180   */\n      dup5\n        /* \"#utility.yul\":1173:1192   */\n      sub\n        /* \"#utility.yul\":1169:1199   */\n      slt\n        /* \"#utility.yul\":1166:1283   */\n      iszero\n      tag_222\n      jumpi\n        /* \"#utility.yul\":1202:1281   */\n      tag_223\n      tag_224\n      jump\t// in\n    tag_223:\n        /* \"#utility.yul\":1166:1283   */\n    tag_222:\n        /* \"#utility.yul\":1301:1322   */\n      tag_225\n        /* \"#utility.yul\":1317:1321   */\n      0x40\n        /* \"#utility.yul\":1301:1322   */\n      tag_205\n      jump\t// in\n    tag_225:\n        /* \"#utility.yul\":1292:1322   */\n      swap1\n      pop\n        /* \"#utility.yul\":1378:1379   */\n      0x00\n        /* \"#utility.yul\":1418:1467   */\n      tag_226\n        /* \"#utility.yul\":1463:1466   */\n      dup5\n        /* \"#utility.yul\":1454:1460   */\n      dup3\n        /* \"#utility.yul\":1443:1452   */\n      dup6\n        /* \"#utility.yul\":1439:1461   */\n      add\n        /* \"#utility.yul\":1418:1467   */\n      tag_213\n      jump\t// in\n    tag_226:\n        /* \"#utility.yul\":1411:1415   */\n      0x00\n        /* \"#utility.yul\":1404:1409   */\n      dup4\n        /* \"#utility.yul\":1400:1416   */\n      add\n        /* \"#utility.yul\":1393:1468   */\n      mstore\n        /* \"#utility.yul\":1332:1479   */\n      pop\n        /* \"#utility.yul\":1535:1537   */\n      0x20\n        /* \"#utility.yul\":1576:1625   */\n      tag_227\n        /* \"#utility.yul\":1621:1624   */\n      dup5\n        /* \"#utility.yul\":1612:1618   */\n      dup3\n        /* \"#utility.yul\":1601:1610   */\n      dup6\n        /* \"#utility.yul\":1597:1619   */\n      add\n        /* \"#utility.yul\":1576:1625   */\n      tag_213\n      jump\t// in\n    tag_227:\n        /* \"#utility.yul\":1569:1573   */\n      0x20\n        /* \"#utility.yul\":1562:1567   */\n      dup4\n        /* \"#utility.yul\":1558:1574   */\n      add\n        /* \"#utility.yul\":1551:1626   */\n      mstore\n        /* \"#utility.yul\":1489:1637   */\n      pop\n        /* \"#utility.yul\":1079:1644   */\n      swap3\n      swap2\n      pop\n      pop\n      jump\t// out\n        /* \"#utility.yul\":1680:2292   */\n    tag_228:\n        /* \"#utility.yul\":1752:1757   */\n      0x00\n        /* \"#utility.yul\":1796:1800   */\n      0x80\n        /* \"#utility.yul\":1784:1793   */\n      dup3\n        /* \"#utility.yul\":1779:1782   */\n      dup5\n        /* \"#utility.yul\":1775:1794   */\n      sub\n        /* \"#utility.yul\":1771:1801   */\n      slt\n        /* \"#utility.yul\":1768:1885   */\n      iszero\n      tag_230\n      jumpi\n        /* \"#utility.yul\":1804:1883   */\n      tag_231\n      tag_224\n      jump\t// in\n    tag_231:\n        /* \"#utility.yul\":1768:1885   */\n    tag_230:\n        /* \"#utility.yul\":1903:1924   */\n      tag_232\n        /* \"#utility.yul\":1919:1923   */\n      0x40\n        /* \"#utility.yul\":1903:1924   */\n      tag_205\n      jump\t// in\n    tag_232:\n        /* \"#utility.yul\":1894:1924   */\n      swap1\n      pop\n        /* \"#utility.yul\":1980:1981   */\n      0x00\n        /* \"#utility.yul\":2020:2092   */\n      tag_233\n        /* \"#utility.yul\":2088:2091   */\n      dup5\n        /* \"#utility.yul\":2079:2085   */\n      dup3\n        /* \"#utility.yul\":2068:2077   */\n      dup6\n        /* \"#utility.yul\":2064:2086   */\n      add\n        /* \"#utility.yul\":2020:2092   */\n      tag_214\n      jump\t// in\n    tag_233:\n        /* \"#utility.yul\":2013:2017   */\n      0x00\n        /* \"#utility.yul\":2006:2011   */\n      dup4\n        /* \"#utility.yul\":2002:2018   */\n      add\n        /* \"#utility.yul\":1995:2093   */\n      mstore\n        /* \"#utility.yul\":1934:2104   */\n      pop\n        /* \"#utility.yul\":2160:2162   */\n      0x40\n        /* \"#utility.yul\":2201:2273   */\n      tag_234\n        /* \"#utility.yul\":2269:2272   */\n      dup5\n        /* \"#utility.yul\":2260:2266   */\n      dup3\n        /* \"#utility.yul\":2249:2258   */\n      dup6\n        /* \"#utility.yul\":2245:2267   */\n      add\n        /* \"#utility.yul\":2201:2273   */\n      tag_214\n      jump\t// in\n    tag_234:\n        /* \"#utility.yul\":2194:2198   */\n      0x20\n        /* \"#utility.yul\":2187:2192   */\n      dup4\n        /* \"#utility.yul\":2183:2199   */\n      add\n        /* \"#utility.yul\":2176:2274   */\n      mstore\n        /* \"#utility.yul\":2114:2285   */\n      pop\n        /* \"#utility.yul\":1680:2292   */\n      swap3\n      swap2\n      pop\n      pop\n      jump\t// out\n        /* \"#utility.yul\":2327:3120   */\n    tag_235:\n        /* \"#utility.yul\":2398:2403   */\n      0x00\n        /* \"#utility.yul\":2442:2448   */\n      0x0100\n        /* \"#utility.yul\":2430:2439   */\n      dup3\n        /* \"#utility.yul\":2425:2428   */\n      dup5\n        /* \"#utility.yul\":2421:2440   */\n      sub\n        /* \"#utility.yul\":2417:2449   */\n      slt\n        /* \"#utility.yul\":2414:2533   */\n      iszero\n      tag_237\n      jumpi\n        /* \"#utility.yul\":2452:2531   */\n      tag_238\n      tag_224\n      jump\t// in\n    tag_238:\n        /* \"#utility.yul\":2414:2533   */\n    tag_237:\n        /* \"#utility.yul\":2551:2572   */\n      tag_239\n        /* \"#utility.yul\":2567:2571   */\n      0x60\n        /* \"#utility.yul\":2551:2572   */\n      tag_205\n      jump\t// in\n    tag_239:\n        /* \"#utility.yul\":2542:2572   */\n      swap1\n      pop\n        /* \"#utility.yul\":2628:2629   */\n      0x00\n        /* \"#utility.yul\":2668:2739   */\n      tag_240\n        /* \"#utility.yul\":2735:2738   */\n      dup5\n        /* \"#utility.yul\":2726:2732   */\n      dup3\n        /* \"#utility.yul\":2715:2724   */\n      dup6\n        /* \"#utility.yul\":2711:2733   */\n      add\n        /* \"#utility.yul\":2668:2739   */\n      tag_220\n      jump\t// in\n    tag_240:\n        /* \"#utility.yul\":2661:2665   */\n      0x00\n        /* \"#utility.yul\":2654:2659   */\n      dup4\n        /* \"#utility.yul\":2650:2666   */\n      add\n        /* \"#utility.yul\":2643:2740   */\n      mstore\n        /* \"#utility.yul\":2582:2751   */\n      pop\n        /* \"#utility.yul\":2807:2809   */\n      0x40\n        /* \"#utility.yul\":2848:2920   */\n      tag_241\n        /* \"#utility.yul\":2916:2919   */\n      dup5\n        /* \"#utility.yul\":2907:2913   */\n      dup3\n        /* \"#utility.yul\":2896:2905   */\n      dup6\n        /* \"#utility.yul\":2892:2914   */\n      add\n        /* \"#utility.yul\":2848:2920   */\n      tag_228\n      jump\t// in\n    tag_241:\n        /* \"#utility.yul\":2841:2845   */\n      0x20\n        /* \"#utility.yul\":2834:2839   */\n      dup4\n        /* \"#utility.yul\":2830:2846   */\n      add\n        /* \"#utility.yul\":2823:2921   */\n      mstore\n        /* \"#utility.yul\":2761:2932   */\n      pop\n        /* \"#utility.yul\":2988:2991   */\n      0xc0\n        /* \"#utility.yul\":3030:3101   */\n      tag_242\n        /* \"#utility.yul\":3097:3100   */\n      dup5\n        /* \"#utility.yul\":3088:3094   */\n      dup3\n        /* \"#utility.yul\":3077:3086   */\n      dup6\n        /* \"#utility.yul\":3073:3095   */\n      add\n        /* \"#utility.yul\":3030:3101   */\n      tag_220\n      jump\t// in\n    tag_242:\n        /* \"#utility.yul\":3023:3027   */\n      0x40\n        /* \"#utility.yul\":3016:3021   */\n      dup4\n        /* \"#utility.yul\":3012:3028   */\n      add\n        /* \"#utility.yul\":3005:3102   */\n      mstore\n        /* \"#utility.yul\":2942:3113   */\n      pop\n        /* \"#utility.yul\":2327:3120   */\n      swap3\n      swap2\n      pop\n      pop\n      jump\t// out\n        /* \"#utility.yul\":3126:3265   */\n    tag_213:\n        /* \"#utility.yul\":3172:3177   */\n      0x00\n        /* \"#utility.yul\":3210:3216   */\n      dup2\n        /* \"#utility.yul\":3197:3217   */\n      calldataload\n        /* \"#utility.yul\":3188:3217   */\n      swap1\n      pop\n        /* \"#utility.yul\":3226:3259   */\n      tag_244\n        /* \"#utility.yul\":3253:3258   */\n      dup2\n        /* \"#utility.yul\":3226:3259   */\n      tag_245\n      jump\t// in\n    tag_244:\n        /* \"#utility.yul\":3126:3265   */\n      swap3\n      swap2\n      pop\n      pop\n      jump\t// out\n        /* \"#utility.yul\":3271:3645   */\n    tag_6:\n        /* \"#utility.yul\":3352:3358   */\n      0x00\n        /* \"#utility.yul\":3401:3404   */\n      0x0100\n        /* \"#utility.yul\":3389:3398   */\n      dup3\n        /* \"#utility.yul\":3380:3387   */\n      dup5\n        /* \"#utility.yul\":3376:3399   */\n      sub\n        /* \"#utility.yul\":3372:3405   */\n      slt\n        /* \"#utility.yul\":3369:3489   */\n      iszero\n      tag_247\n      jumpi\n        /* \"#utility.yul\":3408:3487   */\n      tag_248\n      tag_249\n      jump\t// in\n    tag_248:\n        /* \"#utility.yul\":3369:3489   */\n    tag_247:\n        /* \"#utility.yul\":3528:3529   */\n      0x00\n        /* \"#utility.yul\":3553:3628   */\n      tag_250\n        /* \"#utility.yul\":3620:3627   */\n      dup5\n        /* \"#utility.yul\":3611:3617   */\n      dup3\n        /* \"#utility.yul\":3600:3609   */\n      dup6\n        /* \"#utility.yul\":3596:3618   */\n      add\n        /* \"#utility.yul\":3553:3628   */\n      tag_235\n      jump\t// in\n    tag_250:\n        /* \"#utility.yul\":3543:3628   */\n      swap2\n      pop\n        /* \"#utility.yul\":3499:3638   */\n      pop\n        /* \"#utility.yul\":3271:3645   */\n      swap3\n      swap2\n      pop\n      pop\n      jump\t// out\n        /* \"#utility.yul\":3651:3760   */\n    tag_251:\n        /* \"#utility.yul\":3732:3753   */\n      tag_253\n        /* \"#utility.yul\":3747:3752   */\n      dup2\n        /* \"#utility.yul\":3732:3753   */\n      tag_254\n      jump\t// in\n    tag_253:\n        /* \"#utility.yul\":3727:3730   */\n      dup3\n        /* \"#utility.yul\":3720:3754   */\n      mstore\n        /* \"#utility.yul\":3651:3760   */\n      pop\n      pop\n      jump\t// out\n        /* \"#utility.yul\":3766:3976   */\n    tag_9:\n        /* \"#utility.yul\":3853:3857   */\n      0x00\n        /* \"#utility.yul\":3891:3893   */\n      0x20\n        /* \"#utility.yul\":3880:3889   */\n      dup3\n        /* \"#utility.yul\":3876:3894   */\n      add\n        /* \"#utility.yul\":3868:3894   */\n      swap1\n      pop\n        /* \"#utility.yul\":3904:3969   */\n      tag_256\n        /* \"#utility.yul\":3966:3967   */\n      0x00\n        /* \"#utility.yul\":3955:3964   */\n      dup4\n        /* \"#utility.yul\":3951:3968   */\n      add\n        /* \"#utility.yul\":3942:3948   */\n      dup5\n        /* \"#utility.yul\":3904:3969   */\n      tag_251\n      jump\t// in\n    tag_256:\n        /* \"#utility.yul\":3766:3976   */\n      swap3\n      swap2\n      pop\n      pop\n      jump\t// out\n        /* \"#utility.yul\":3982:4111   */\n    tag_205:\n        /* \"#utility.yul\":4016:4022   */\n      0x00\n        /* \"#utility.yul\":4043:4063   */\n      tag_258\n      tag_259\n      jump\t// in\n    tag_258:\n        /* \"#utility.yul\":4033:4063   */\n      swap1\n      pop\n        /* \"#utility.yul\":4072:4105   */\n      tag_260\n        /* \"#utility.yul\":4100:4104   */\n      dup3\n        /* \"#utility.yul\":4092:4098   */\n      dup3\n        /* \"#utility.yul\":4072:4105   */\n      tag_261\n      jump\t// in\n    tag_260:\n        /* \"#utility.yul\":3982:4111   */\n      swap2\n      swap1\n      pop\n      jump\t// out\n        /* \"#utility.yul\":4117:4192   */\n    tag_259:\n        /* \"#utility.yul\":4150:4156   */\n      0x00\n        /* \"#utility.yul\":4183:4185   */\n      0x40\n        /* \"#utility.yul\":4177:4186   */\n      mload\n        /* \"#utility.yul\":4167:4186   */\n      swap1\n      pop\n        /* \"#utility.yul\":4117:4192   */\n      swap1\n      jump\t// out\n        /* \"#utility.yul\":4198:4447   */\n    tag_204:\n        /* \"#utility.yul\":4273:4277   */\n      0x00\n        /* \"#utility.yul\":4363:4381   */\n      0xffffffffffffffff\n        /* \"#utility.yul\":4355:4361   */\n      dup3\n        /* \"#utility.yul\":4352:4382   */\n      gt\n        /* \"#utility.yul\":4349:4405   */\n      iszero\n      tag_264\n      jumpi\n        /* \"#utility.yul\":4385:4403   */\n      tag_265\n      tag_13\n      jump\t// in\n    tag_265:\n        /* \"#utility.yul\":4349:4405   */\n    tag_264:\n        /* \"#utility.yul\":4435:4439   */\n      0x20\n        /* \"#utility.yul\":4427:4433   */\n      dup3\n        /* \"#utility.yul\":4423:4440   */\n      mul\n        /* \"#utility.yul\":4415:4440   */\n      swap1\n      pop\n        /* \"#utility.yul\":4198:4447   */\n      swap2\n      swap1\n      pop\n      jump\t// out\n        /* \"#utility.yul\":4453:4758   */\n    tag_23:\n        /* \"#utility.yul\":4493:4496   */\n      0x00\n        /* \"#utility.yul\":4512:4532   */\n      tag_267\n        /* \"#utility.yul\":4530:4531   */\n      dup3\n        /* \"#utility.yul\":4512:4532   */\n      tag_268\n      jump\t// in\n    tag_267:\n        /* \"#utility.yul\":4507:4532   */\n      swap2\n      pop\n        /* \"#utility.yul\":4546:4566   */\n      tag_269\n        /* \"#utility.yul\":4564:4565   */\n      dup4\n        /* \"#utility.yul\":4546:4566   */\n      tag_268\n      jump\t// in\n    tag_269:\n        /* \"#utility.yul\":4541:4566   */\n      swap3\n      pop\n        /* \"#utility.yul\":4700:4701   */\n      dup3\n        /* \"#utility.yul\":4632:4698   */\n      0xffffffffffffffffffffffffffffffffffffffffffffffffffffffffffffffff\n        /* \"#utility.yul\":4628:4702   */\n      sub\n        /* \"#utility.yul\":4625:4626   */\n      dup3\n        /* \"#utility.yul\":4622:4703   */\n      gt\n        /* \"#utility.yul\":4619:4726   */\n      iszero\n      tag_270\n      jumpi\n        /* \"#utility.yul\":4706:4724   */\n      tag_271\n      tag_272\n      jump\t// in\n    tag_271:\n        /* \"#utility.yul\":4619:4726   */\n    tag_270:\n        /* \"#utility.yul\":4750:4751   */\n      dup3\n        /* \"#utility.yul\":4747:4748   */\n      dup3\n        /* \"#utility.yul\":4743:4752   */\n      add\n        /* \"#utility.yul\":4736:4752   */\n      swap1\n      pop\n        /* \"#utility.yul\":4453:4758   */\n      swap3\n      swap2\n      pop\n      pop\n      jump\t// out\n        /* \"#utility.yul\":4764:5112   */\n    tag_133:\n        /* \"#utility.yul\":4804:4811   */\n      0x00\n        /* \"#utility.yul\":4827:4847   */\n      tag_274\n        /* \"#utility.yul\":4845:4846   */\n      dup3\n        /* \"#utility.yul\":4827:4847   */\n      tag_268\n      jump\t// in\n    tag_274:\n        /* \"#utility.yul\":4822:4847   */\n      swap2\n      pop\n        /* \"#utility.yul\":4861:4881   */\n      tag_275\n        /* \"#utility.yul\":4879:4880   */\n      dup4\n        /* \"#utility.yul\":4861:4881   */\n      tag_268\n      jump\t// in\n    tag_275:\n        /* \"#utility.yul\":4856:4881   */\n      swap3\n      pop\n        /* \"#utility.yul\":5049:5050   */\n      dup2\n        /* \"#utility.yul\":4981:5047   */\n      0xffffffffffffffffffffffffffffffffffffffffffffffffffffffffffffffff\n        /* \"#utility.yul\":4977:5051   */\n      div\n        /* \"#utility.yul\":4974:4975   */\n      dup4\n        /* \"#utility.yul\":4971:5052   */\n      gt\n        /* \"#utility.yul\":4966:4967   */\n      dup3\n        /* \"#utility.yul\":4959:4968   */\n      iszero\n        /* \"#utility.yul\":4952:4969   */\n      iszero\n        /* \"#utility.yul\":4948:5053   */\n      and\n        /* \"#utility.yul\":4945:5076   */\n      iszero\n      tag_276\n      jumpi\n        /* \"#utility.yul\":5056:5074   */\n      tag_277\n      tag_272\n      jump\t// in\n    tag_277:\n        /* \"#utility.yul\":4945:5076   */\n    tag_276:\n        /* \"#utility.yul\":5104:5105   */\n      dup3\n        /* \"#utility.yul\":5101:5102   */\n      dup3\n        /* \"#utility.yul\":5097:5106   */\n      mul\n        /* \"#utility.yul\":5086:5106   */\n      swap1\n      pop\n        /* \"#utility.yul\":4764:5112   */\n      swap3\n      swap2\n      pop\n      pop\n      jump\t// out\n        /* \"#utility.yul\":5118:5309   */\n    tag_99:\n        /* \"#utility.yul\":5158:5162   */\n      0x00\n        /* \"#utility.yul\":5178:5198   */\n      tag_279\n        /* \"#utility.yul\":5196:5197   */\n      dup3\n        /* \"#utility.yul\":5178:5198   */\n      tag_268\n      jump\t// in\n    tag_279:\n        /* \"#utility.yul\":5173:5198   */\n      swap2\n      pop\n        /* \"#utility.yul\":5212:5232   */\n      tag_280\n        /* \"#utility.yul\":5230:5231   */\n      dup4\n        /* \"#utility.yul\":5212:5232   */\n      tag_268\n      jump\t// in\n    tag_280:\n        /* \"#utility.yul\":5207:5232   */\n      swap3\n      pop\n        /* \"#utility.yul\":5251:5252   */\n      dup3\n        /* \"#utility.yul\":5248:5249   */\n      dup3\n        /* \"#utility.yul\":5245:5253   */\n      lt\n        /* \"#utility.yul\":5242:5276   */\n      iszero\n      tag_281\n      jumpi\n        /* \"#utility.yul\":5256:5274   */\n      tag_282\n      tag_272\n      jump\t// in\n    tag_282:\n        /* \"#utility.yul\":5242:5276   */\n    tag_281:\n        /* \"#utility.yul\":5301:5302   */\n      dup3\n        /* \"#utility.yul\":5298:5299   */\n      dup3\n        /* \"#utility.yul\":5294:5303   */\n      sub\n        /* \"#utility.yul\":5286:5303   */\n      swap1\n      pop\n        /* \"#utility.yul\":5118:5309   */\n      swap3\n      swap2\n      pop\n      pop\n      jump\t// out\n        /* \"#utility.yul\":5315:5405   */\n    tag_254:\n        /* \"#utility.yul\":5349:5356   */\n      0x00\n        /* \"#utility.yul\":5392:5397   */\n      dup2\n        /* \"#utility.yul\":5385:5398   */\n      iszero\n        /* \"#utility.yul\":5378:5399   */\n      iszero\n        /* \"#utility.yul\":5367:5399   */\n      swap1\n      pop\n        /* \"#utility.yul\":5315:5405   */\n      swap2\n      swap1\n      pop\n      jump\t// out\n        /* \"#utility.yul\":5411:5488   */\n    tag_268:\n        /* \"#utility.yul\":5448:5455   */\n      0x00\n        /* \"#utility.yul\":5477:5482   */\n      dup2\n        /* \"#utility.yul\":5466:5482   */\n      swap1\n      pop\n        /* \"#utility.yul\":5411:5488   */\n      swap2\n      swap1\n      pop\n      jump\t// out\n        /* \"#utility.yul\":5494:5775   */\n    tag_261:\n        /* \"#utility.yul\":5577:5604   */\n      tag_286\n        /* \"#utility.yul\":5599:5603   */\n      dup3\n        /* \"#utility.yul\":5577:5604   */\n      tag_287\n      jump\t// in\n    tag_286:\n        /* \"#utility.yul\":5569:5575   */\n      dup2\n        /* \"#utility.yul\":5565:5605   */\n      add\n        /* \"#utility.yul\":5707:5713   */\n      dup2\n        /* \"#utility.yul\":5695:5705   */\n      dup2\n        /* \"#utility.yul\":5692:5714   */\n      lt\n        /* \"#utility.yul\":5671:5689   */\n      0xffffffffffffffff\n        /* \"#utility.yul\":5659:5669   */\n      dup3\n        /* \"#utility.yul\":5656:5690   */\n      gt\n        /* \"#utility.yul\":5653:5715   */\n      or\n        /* \"#utility.yul\":5650:5738   */\n      iszero\n      tag_288\n      jumpi\n        /* \"#utility.yul\":5718:5736   */\n      tag_289\n      tag_13\n      jump\t// in\n    tag_289:\n        /* \"#utility.yul\":5650:5738   */\n    tag_288:\n        /* \"#utility.yul\":5758:5768   */\n      dup1\n        /* \"#utility.yul\":5754:5756   */\n      0x40\n        /* \"#utility.yul\":5747:5769   */\n      mstore\n        /* \"#utility.yul\":5537:5775   */\n      pop\n        /* \"#utility.yul\":5494:5775   */\n      pop\n      pop\n      jump\t// out\n        /* \"#utility.yul\":5781:6014   */\n    tag_42:\n        /* \"#utility.yul\":5820:5823   */\n      0x00\n        /* \"#utility.yul\":5843:5867   */\n      tag_291\n        /* \"#utility.yul\":5861:5866   */\n      dup3\n        /* \"#utility.yul\":5843:5867   */\n      tag_268\n      jump\t// in\n    tag_291:\n        /* \"#utility.yul\":5834:5867   */\n      swap2\n      pop\n        /* \"#utility.yul\":5889:5955   */\n      0xffffffffffffffffffffffffffffffffffffffffffffffffffffffffffffffff\n        /* \"#utility.yul\":5882:5887   */\n      dup3\n        /* \"#utility.yul\":5879:5956   */\n      eq\n        /* \"#utility.yul\":5876:5979   */\n      iszero\n      tag_292\n      jumpi\n        /* \"#utility.yul\":5959:5977   */\n      tag_293\n      tag_272\n      jump\t// in\n    tag_293:\n        /* \"#utility.yul\":5876:5979   */\n    tag_292:\n        /* \"#utility.yul\":6006:6007   */\n      0x01\n        /* \"#utility.yul\":5999:6004   */\n      dup3\n        /* \"#utility.yul\":5995:6008   */\n      add\n        /* \"#utility.yul\":5988:6008   */\n      swap1\n      pop\n        /* \"#utility.yul\":5781:6014   */\n      swap2\n      swap1\n      pop\n      jump\t// out\n        /* \"#utility.yul\":6020:6196   */\n    tag_97:\n        /* \"#utility.yul\":6052:6053   */\n      0x00\n        /* \"#utility.yul\":6069:6089   */\n      tag_295\n        /* \"#utility.yul\":6087:6088   */\n      dup3\n        /* \"#utility.yul\":6069:6089   */\n      tag_268\n      jump\t// in\n    tag_295:\n        /* \"#utility.yul\":6064:6089   */\n      swap2\n      pop\n        /* \"#utility.yul\":6103:6123   */\n      tag_296\n        /* \"#utility.yul\":6121:6122   */\n      dup4\n        /* \"#utility.yul\":6103:6123   */\n      tag_268\n      jump\t// in\n    tag_296:\n        /* \"#utility.yul\":6098:6123   */\n      swap3\n      pop\n        /* \"#utility.yul\":6142:6143   */\n      dup3\n        /* \"#utility.yul\":6132:6167   */\n      tag_297\n      jumpi\n        /* \"#utility.yul\":6147:6165   */\n      tag_298\n      tag_299\n      jump\t// in\n    tag_298:\n        /* \"#utility.yul\":6132:6167   */\n    tag_297:\n        /* \"#utility.yul\":6188:6189   */\n      dup3\n        /* \"#utility.yul\":6185:6186   */\n      dup3\n        /* \"#utility.yul\":6181:6190   */\n      mod\n        /* \"#utility.yul\":6176:6190   */\n      swap1\n      pop\n        /* \"#utility.yul\":6020:6196   */\n      swap3\n      swap2\n      pop\n      pop\n      jump\t// out\n        /* \"#utility.yul\":6202:6382   */\n    tag_272:\n        /* \"#utility.yul\":6250:6327   */\n      0x4e487b7100000000000000000000000000000000000000000000000000000000\n        /* \"#utility.yul\":6247:6248   */\n      0x00\n        /* \"#utility.yul\":6240:6328   */\n      mstore\n        /* \"#utility.yul\":6347:6351   */\n      0x11\n        /* \"#utility.yul\":6344:6345   */\n      0x04\n        /* \"#utility.yul\":6337:6352   */\n      mstore\n        /* \"#utility.yul\":6371:6375   */\n      0x24\n        /* \"#utility.yul\":6368:6369   */\n      0x00\n        /* \"#utility.yul\":6361:6376   */\n      revert\n        /* \"#utility.yul\":6388:6568   */\n    tag_299:\n        /* \"#utility.yul\":6436:6513   */\n      0x4e487b7100000000000000000000000000000000000000000000000000000000\n        /* \"#utility.yul\":6433:6434   */\n      0x00\n        /* \"#utility.yul\":6426:6514   */\n      mstore\n        /* \"#utility.yul\":6533:6537   */\n      0x12\n        /* \"#utility.yul\":6530:6531   */\n      0x04\n        /* \"#utility.yul\":6523:6538   */\n      mstore\n        /* \"#utility.yul\":6557:6561   */\n      0x24\n        /* \"#utility.yul\":6554:6555   */\n      0x00\n        /* \"#utility.yul\":6547:6562   */\n      revert\n        /* \"#utility.yul\":6574:6754   */\n    tag_30:\n        /* \"#utility.yul\":6622:6699   */\n      0x4e487b7100000000000000000000000000000000000000000000000000000000\n        /* \"#utility.yul\":6619:6620   */\n      0x00\n        /* \"#utility.yul\":6612:6700   */\n      mstore\n        /* \"#utility.yul\":6719:6723   */\n      0x32\n        /* \"#utility.yul\":6716:6717   */\n      0x04\n        /* \"#utility.yul\":6709:6724   */\n      mstore\n        /* \"#utility.yul\":6743:6747   */\n      0x24\n        /* \"#utility.yul\":6740:6741   */\n      0x00\n        /* \"#utility.yul\":6733:6748   */\n      revert\n        /* \"#utility.yul\":6760:6940   */\n    tag_13:\n        /* \"#utility.yul\":6808:6885   */\n      0x4e487b7100000000000000000000000000000000000000000000000000000000\n        /* \"#utility.yul\":6805:6806   */\n      0x00\n        /* \"#utility.yul\":6798:6886   */\n      mstore\n        /* \"#utility.yul\":6905:6909   */\n      0x41\n        /* \"#utility.yul\":6902:6903   */\n      0x04\n        /* \"#utility.yul\":6895:6910   */\n      mstore\n        /* \"#utility.yul\":6929:6933   */\n      0x24\n        /* \"#utility.yul\":6926:6927   */\n      0x00\n        /* \"#utility.yul\":6919:6934   */\n      revert\n        /* \"#utility.yul\":6946:7063   */\n    tag_218:\n        /* \"#utility.yul\":7055:7056   */\n      0x00\n        /* \"#utility.yul\":7052:7053   */\n      dup1\n        /* \"#utility.yul\":7045:7057   */\n      revert\n        /* \"#utility.yul\":7069:7186   */\n    tag_224:\n        /* \"#utility.yul\":7178:7179   */\n      0x00\n        /* \"#utility.yul\":7175:7176   */\n      dup1\n        /* \"#utility.yul\":7168:7180   */\n      revert\n        /* \"#utility.yul\":7315:7432   */\n    tag_208:\n        /* \"#utility.yul\":7424:7425   */\n      0x00\n        /* \"#utility.yul\":7421:7422   */\n      dup1\n        /* \"#utility.yul\":7414:7426   */\n      revert\n        /* \"#utility.yul\":7561:7678   */\n    tag_249:\n        /* \"#utility.yul\":7670:7671   */\n      0x00\n        /* \"#utility.yul\":7667:7668   */\n      dup1\n        /* \"#utility.yul\":7660:7672   */\n      revert\n        /* \"#utility.yul\":7684:7786   */\n    tag_287:\n        /* \"#utility.yul\":7725:7731   */\n      0x00\n        /* \"#utility.yul\":7776:7778   */\n      0x1f\n        /* \"#utility.yul\":7772:7779   */\n      not\n        /* \"#utility.yul\":7767:7769   */\n      0x1f\n        /* \"#utility.yul\":7760:7765   */\n      dup4\n        /* \"#utility.yul\":7756:7770   */\n      add\n        /* \"#utility.yul\":7752:7780   */\n      and\n        /* \"#utility.yul\":7742:7780   */\n      swap1\n      pop\n        /* \"#utility.yul\":7684:7786   */\n      swap2\n      swap1\n      pop\n      jump\t// out\n        /* \"#utility.yul\":7792:7914   */\n    tag_245:\n        /* \"#utility.yul\":7865:7889   */\n      tag_314\n        /* \"#utility.yul\":7883:7888   */\n      dup2\n        /* \"#utility.yul\":7865:7889   */\n      tag_268\n      jump\t// in\n    tag_314:\n        /* \"#utility.yul\":7858:7863   */\n      dup2\n        /* \"#utility.yul\":7855:7890   */\n      eq\n        /* \"#utility.yul\":7845:7908   */\n      tag_315\n      jumpi\n        /* \"#utility.yul\":7904:7905   */\n      0x00\n        /* \"#utility.yul\":7901:7902   */\n      dup1\n        /* \"#utility.yul\":7894:7906   */\n      revert\n        /* \"#utility.yul\":7845:7908   */\n    tag_315:\n        /* \"#utility.yul\":7792:7914   */\n      pop\n      jump\t// out\n\n    auxdata: 0xa2646970667358221220bb0d0adccd2816f30c06ba9b345c1241c8072dbd92ad2c30b9a7343f0f54010164736f6c63430008070033\n}\n",
				"bytecode": {
					"linkReferences": {},
					"object": "608060405234801561001057600080fd5b5061136b806100206000396000f3fe608060405234801561001057600080fd5b506004361061002b5760003560e01c8063f6af031114610030575b600080fd5b61004a60048036038101906100459190610ff5565b610060565b6040516100579190611032565b60405180910390f35b600080600067ffffffffffffffff81111561007e5761007d6112ca565b5b6040519080825280602002602001820160405280156100ac5781602001602082028036833780820191505090505b50905060006100bb82856100d6565b14156100cb5760019150506100d1565b60009150505b919050565b6000807f30644e72e131a029b85045b68181585d2833e84879b9709143e1f593f00000019050600061010661026d565b90508060800151516001865161011c9190611098565b1461012657600080fd5b60006040518060400160405280600081526020016000815250905060005b86518110156101df57838782815181106101615761016061129b565b5b60200260200101511061017357600080fd5b6101ca826101c5856080015160018561018c9190611098565b8151811061019d5761019c61129b565b5b60200260200101518a85815181106101b8576101b761129b565b5b60200260200101516105f9565b6106a0565b915080806101d7906111c3565b915050610144565b506102098183608001516000815181106101fc576101fb61129b565b5b60200260200101516106a0565b905061024f856000015186602001516102218461076d565b85604001516102338a6040015161076d565b8760600151610245896000015161076d565b8960200151610812565b61025f5760019350505050610267565b600093505050505b92915050565b610275610d3a565b60405180604001604052807f1402c5cb4c9b9d4b9897e41173da5194498ad922a44bac81254172d4a254136481526020017f02b5c69f0533a1e57b946f9280621fc6b5101f9cc5b6da3cf839de954e00ebe88152508160000181905250604051806040016040528060405180604001604052807f12f7100bae3b7d360edbe469b207764280033f3afbc5ad2fd8eeb13b4f5e829081526020017f2017a2fdaf733204ed1bf4fa24b351ea5621c9295043f2812d91ef2b0c4cab13815250815260200160405180604001604052807f2c4b13e7cd9d5449814deb807174683739f7c2f319ca51217387e84c20d4a98481526020017f1c22430af88bebc36a0b945a804bd96cf68188871e4d2c8b26dc5156388594b78152508152508160200181905250604051806040016040528060405180604001604052807f2f2c3cdcaaae4cd4e92ff5b84cbe3536481e0cc332eee8f70d9ca7430b9289ad81526020017f0aa29ddc242c2a65b8bdb0f303fe5f22300fcbee6fb6d7db768920c4014a8097815250815260200160405180604001604052807f0c350f8c2d5258ecf856208a91658c3f860b83304b6883d94ae0f9be15826a0681526020017f02927024997c8144ae82b62e0c3445593a68ab59d12225f833690e7bac9f07178152508152508160400181905250604051806040016040528060405180604001604052807f07dfcd3d944d80afdb0bec57ccb9d04d6c6d5b3221957595c522949cb4d33dd181526020017f106a4d2fe3a06358271aadfdc982c98e50c30f4366a3ba792e644c09510872e5815250815260200160405180604001604052807f2285d2244ea2773739aa1ad066a9d6195b158f68d226a07afc3e1465f0d508f981526020017f0545db41ef8611342e9d1659eea122f43a88ee60c7e0d1a99a22e6eb332e2b188152508152508160600181905250600167ffffffffffffffff81111561053c5761053b6112ca565b5b60405190808252806020026020018201604052801561057557816020015b610562610d81565b81526020019060019003908161055a5790505b50816080018190525060405180604001604052807f02bff00548d8dc51b8d2c639bfd0cd69269ca402871b884b149c1d3c23ac7deb81526020017f2726d38bda2ef37cc2dfc0a6aafbec54b5af6483bc3ec35f1f8f82065088f6ff81525081608001516000815181106105eb576105ea61129b565b5b602002602001018190525090565b610601610d81565b610609610d9b565b8360000151816000600381106106225761062161129b565b5b6020020181815250508360200151816001600381106106445761064361129b565b5b60200201818152505082816002600381106106625761066161129b565b5b602002018181525050600060608360808460076107d05a03fa9050806000811461068b5761068d565bfe5b508061069857600080fd5b505092915050565b6106a8610d81565b6106b0610dbd565b8360000151816000600481106106c9576106c861129b565b5b6020020181815250508360200151816001600481106106eb576106ea61129b565b5b60200201818152505082600001518160026004811061070d5761070c61129b565b5b60200201818152505082602001518160036004811061072f5761072e61129b565b5b602002018181525050600060608360c08460066107d05a03fa905080600081146107585761075a565bfe5b508061076557600080fd5b505092915050565b610775610d81565b60007f30644e72e131a029b85045b68181585d97816a916871ca8d3c208c16d87cfd479050600083600001511480156107b2575060008360200151145b156107d657604051806040016040528060008152602001600081525091505061080d565b6040518060400160405280846000015181526020018285602001516107fb919061120c565b836108069190611148565b8152509150505b919050565b600080600467ffffffffffffffff8111156108305761082f6112ca565b5b60405190808252806020026020018201604052801561086957816020015b610856610d81565b81526020019060019003908161084e5790505b5090506000600467ffffffffffffffff811115610889576108886112ca565b5b6040519080825280602002602001820160405280156108c257816020015b6108af610ddf565b8152602001906001900390816108a75790505b5090508a826000815181106108da576108d961129b565b5b602002602001018190525088826001815181106108fa576108f961129b565b5b6020026020010181905250868260028151811061091a5761091961129b565b5b6020026020010181905250848260038151811061093a5761093961129b565b5b6020026020010181905250898160008151811061095a5761095961129b565b5b6020026020010181905250878160018151811061097a5761097961129b565b5b6020026020010181905250858160028151811061099a5761099961129b565b5b602002602001018190525083816003815181106109ba576109b961129b565b5b60200260200101819052506109cf82826109df565b9250505098975050505050505050565b600081518351146109ef57600080fd5b6000835190506000600682610a0491906110ee565b905060008167ffffffffffffffff811115610a2257610a216112ca565b5b604051908082528060200260200182016040528015610a505781602001602082028036833780820191505090505b50905060005b83811015610cd557868181518110610a7157610a7061129b565b5b602002602001015160000151826000600684610a8d91906110ee565b610a979190611098565b81518110610aa857610aa761129b565b5b602002602001018181525050868181518110610ac757610ac661129b565b5b602002602001015160200151826001600684610ae391906110ee565b610aed9190611098565b81518110610afe57610afd61129b565b5b602002602001018181525050858181518110610b1d57610b1c61129b565b5b602002602001015160000151600160028110610b3c57610b3b61129b565b5b6020020151826002600684610b5191906110ee565b610b5b9190611098565b81518110610b6c57610b6b61129b565b5b602002602001018181525050858181518110610b8b57610b8a61129b565b5b602002602001015160000151600060028110610baa57610ba961129b565b5b6020020151826003600684610bbf91906110ee565b610bc99190611098565b81518110610bda57610bd961129b565b5b602002602001018181525050858181518110610bf957610bf861129b565b5b602002602001015160200151600160028110610c1857610c1761129b565b5b6020020151826004600684610c2d91906110ee565b610c379190611098565b81518110610c4857610c4761129b565b5b602002602001018181525050858181518110610c6757610c6661129b565b5b602002602001015160200151600060028110610c8657610c8561129b565b5b6020020151826005600684610c9b91906110ee565b610ca59190611098565b81518110610cb657610cb561129b565b5b6020026020010181815250508080610ccd906111c3565b915050610a56565b50610cde610e05565b6000602082602086026020860160086107d05a03fa90508060008114610d0357610d05565bfe5b5080610d1057600080fd5b600082600060018110610d2657610d2561129b565b5b602002015114159550505050505092915050565b6040518060a00160405280610d4d610d81565b8152602001610d5a610ddf565b8152602001610d67610ddf565b8152602001610d74610ddf565b8152602001606081525090565b604051806040016040528060008152602001600081525090565b6040518060600160405280600390602082028036833780820191505090505090565b6040518060800160405280600490602082028036833780820191505090505090565b6040518060400160405280610df2610e27565b8152602001610dff610e27565b81525090565b6040518060200160405280600190602082028036833780820191505090505090565b6040518060400160405280600290602082028036833780820191505090505090565b6000610e5c610e5784611072565b61104d565b90508082856020860282011115610e7657610e75611303565b5b60005b85811015610ea65781610e8c8882610fe0565b845260208401935060208301925050600181019050610e79565b5050509392505050565b600082601f830112610ec557610ec46112f9565b5b6002610ed2848285610e49565b91505092915050565b600060408284031215610ef157610ef06112fe565b5b610efb604061104d565b90506000610f0b84828501610fe0565b6000830152506020610f1f84828501610fe0565b60208301525092915050565b600060808284031215610f4157610f406112fe565b5b610f4b604061104d565b90506000610f5b84828501610eb0565b6000830152506040610f6f84828501610eb0565b60208301525092915050565b60006101008284031215610f9257610f916112fe565b5b610f9c606061104d565b90506000610fac84828501610edb565b6000830152506040610fc084828501610f2b565b60208301525060c0610fd484828501610edb565b60408301525092915050565b600081359050610fef8161131e565b92915050565b6000610100828403121561100c5761100b611308565b5b600061101a84828501610f7b565b91505092915050565b61102c8161117c565b82525050565b60006020820190506110476000830184611023565b92915050565b6000611057611068565b90506110638282611192565b919050565b6000604051905090565b600067ffffffffffffffff82111561108d5761108c6112ca565b5b602082029050919050565b60006110a382611188565b91506110ae83611188565b9250827fffffffffffffffffffffffffffffffffffffffffffffffffffffffffffffffff038211156110e3576110e261123d565b5b828201905092915050565b60006110f982611188565b915061110483611188565b9250817fffffffffffffffffffffffffffffffffffffffffffffffffffffffffffffffff048311821515161561113d5761113c61123d565b5b828202905092915050565b600061115382611188565b915061115e83611188565b9250828210156111715761117061123d565b5b828203905092915050565b60008115159050919050565b6000819050919050565b61119b8261130d565b810181811067ffffffffffffffff821117156111ba576111b96112ca565b5b80604052505050565b60006111ce82611188565b91507fffffffffffffffffffffffffffffffffffffffffffffffffffffffffffffffff8214156112015761120061123d565b5b600182019050919050565b600061121782611188565b915061122283611188565b9250826112325761123161126c565b5b828206905092915050565b7f4e487b7100000000000000000000000000000000000000000000000000000000600052601160045260246000fd5b7f4e487b7100000000000000000000000000000000000000000000000000000000600052601260045260246000fd5b7f4e487b7100000000000000000000000000000000000000000000000000000000600052603260045260246000fd5b7f4e487b7100000000000000000000000000000000000000000000000000000000600052604160045260246000fd5b600080fd5b600080fd5b600080fd5b600080fd5b6000601f19601f8301169050919050565b61132781611188565b811461133257600080fd5b5056fea2646970667358221220bb0d0adccd2816f30c06ba9b345c1241c8072dbd92ad2c30b9a7343f0f54010164736f6c63430008070033",
					"opcodes": "PUSH1 0x80 PUSH1 0x40 MSTORE CALLVALUE DUP1 ISZERO PUSH2 0x10 JUMPI PUSH1 0x0 DUP1 REVERT JUMPDEST POP PUSH2 0x136B DUP1 PUSH2 0x20 PUSH1 0x0 CODECOPY PUSH1 0x0 RETURN INVALID PUSH1 0x80 PUSH1 0x40 MSTORE CALLVALUE DUP1 ISZERO PUSH2 0x10 JUMPI PUSH1 0x0 DUP1 REVERT JUMPDEST POP PUSH1 0x4 CALLDATASIZE LT PUSH2 0x2B JUMPI PUSH1 0x0 CALLDATALOAD PUSH1 0xE0 SHR DUP1 PUSH4 0xF6AF0311 EQ PUSH2 0x30 JUMPI JUMPDEST PUSH1 0x0 DUP1 REVERT JUMPDEST PUSH2 0x4A PUSH1 0x4 DUP1 CALLDATASIZE SUB DUP2 ADD SWAP1 PUSH2 0x45 SWAP2 SWAP1 PUSH2 0xFF5 JUMP JUMPDEST PUSH2 0x60 JUMP JUMPDEST PUSH1 0x40 MLOAD PUSH2 0x57 SWAP2 SWAP1 PUSH2 0x1032 JUMP JUMPDEST PUSH1 0x40 MLOAD DUP1 SWAP2 SUB SWAP1 RETURN JUMPDEST PUSH1 0x0 DUP1 PUSH1 0x0 PUSH8 0xFFFFFFFFFFFFFFFF DUP2 GT ISZERO PUSH2 0x7E JUMPI PUSH2 0x7D PUSH2 0x12CA JUMP JUMPDEST JUMPDEST PUSH1 0x40 MLOAD SWAP1 DUP1 DUP3 MSTORE DUP1 PUSH1 0x20 MUL PUSH1 0x20 ADD DUP3 ADD PUSH1 0x40 MSTORE DUP1 ISZERO PUSH2 0xAC JUMPI DUP2 PUSH1 0x20 ADD PUSH1 0x20 DUP3 MUL DUP1 CALLDATASIZE DUP4 CALLDATACOPY DUP1 DUP3 ADD SWAP2 POP POP SWAP1 POP JUMPDEST POP SWAP1 POP PUSH1 0x0 PUSH2 0xBB DUP3 DUP6 PUSH2 0xD6 JUMP JUMPDEST EQ ISZERO PUSH2 0xCB JUMPI PUSH1 0x1 SWAP2 POP POP PUSH2 0xD1 JUMP JUMPDEST PUSH1 0x0 SWAP2 POP POP JUMPDEST SWAP2 SWAP1 POP JUMP JUMPDEST PUSH1 0x0 DUP1 PUSH32 0x30644E72E131A029B85045B68181585D2833E84879B9709143E1F593F0000001 SWAP1 POP PUSH1 0x0 PUSH2 0x106 PUSH2 0x26D JUMP JUMPDEST SWAP1 POP DUP1 PUSH1 0x80 ADD MLOAD MLOAD PUSH1 0x1 DUP7 MLOAD PUSH2 0x11C SWAP2 SWAP1 PUSH2 0x1098 JUMP JUMPDEST EQ PUSH2 0x126 JUMPI PUSH1 0x0 DUP1 REVERT JUMPDEST PUSH1 0x0 PUSH1 0x40 MLOAD DUP1 PUSH1 0x40 ADD PUSH1 0x40 MSTORE DUP1 PUSH1 0x0 DUP2 MSTORE PUSH1 0x20 ADD PUSH1 0x0 DUP2 MSTORE POP SWAP1 POP PUSH1 0x0 JUMPDEST DUP7 MLOAD DUP2 LT ISZERO PUSH2 0x1DF JUMPI DUP4 DUP8 DUP3 DUP2 MLOAD DUP2 LT PUSH2 0x161 JUMPI PUSH2 0x160 PUSH2 0x129B JUMP JUMPDEST JUMPDEST PUSH1 0x20 MUL PUSH1 0x20 ADD ADD MLOAD LT PUSH2 0x173 JUMPI PUSH1 0x0 DUP1 REVERT JUMPDEST PUSH2 0x1CA DUP3 PUSH2 0x1C5 DUP6 PUSH1 0x80 ADD MLOAD PUSH1 0x1 DUP6 PUSH2 0x18C SWAP2 SWAP1 PUSH2 0x1098 JUMP JUMPDEST DUP2 MLOAD DUP2 LT PUSH2 0x19D JUMPI PUSH2 0x19C PUSH2 0x129B JUMP JUMPDEST JUMPDEST PUSH1 0x20 MUL PUSH1 0x20 ADD ADD MLOAD DUP11 DUP6 DUP2 MLOAD DUP2 LT PUSH2 0x1B8 JUMPI PUSH2 0x1B7 PUSH2 0x129B JUMP JUMPDEST JUMPDEST PUSH1 0x20 MUL PUSH1 0x20 ADD ADD MLOAD PUSH2 0x5F9 JUMP JUMPDEST PUSH2 0x6A0 JUMP JUMPDEST SWAP2 POP DUP1 DUP1 PUSH2 0x1D7 SWAP1 PUSH2 0x11C3 JUMP JUMPDEST SWAP2 POP POP PUSH2 0x144 JUMP JUMPDEST POP PUSH2 0x209 DUP2 DUP4 PUSH1 0x80 ADD MLOAD PUSH1 0x0 DUP2 MLOAD DUP2 LT PUSH2 0x1FC JUMPI PUSH2 0x1FB PUSH2 0x129B JUMP JUMPDEST JUMPDEST PUSH1 0x20 MUL PUSH1 0x20 ADD ADD MLOAD PUSH2 0x6A0 JUMP JUMPDEST SWAP1 POP PUSH2 0x24F DUP6 PUSH1 0x0 ADD MLOAD DUP7 PUSH1 0x20 ADD MLOAD PUSH2 0x221 DUP5 PUSH2 0x76D JUMP JUMPDEST DUP6 PUSH1 0x40 ADD MLOAD PUSH2 0x233 DUP11 PUSH1 0x40 ADD MLOAD PUSH2 0x76D JUMP JUMPDEST DUP8 PUSH1 0x60 ADD MLOAD PUSH2 0x245 DUP10 PUSH1 0x0 ADD MLOAD PUSH2 0x76D JUMP JUMPDEST DUP10 PUSH1 0x20 ADD MLOAD PUSH2 0x812 JUMP JUMPDEST PUSH2 0x25F JUMPI PUSH1 0x1 SWAP4 POP POP POP POP PUSH2 0x267 JUMP JUMPDEST PUSH1 0x0 SWAP4 POP POP POP POP JUMPDEST SWAP3 SWAP2 POP POP JUMP JUMPDEST PUSH2 0x275 PUSH2 0xD3A JUMP JUMPDEST PUSH1 0x40 MLOAD DUP1 PUSH1 0x40 ADD PUSH1 0x40 MSTORE DUP1 PUSH32 0x1402C5CB4C9B9D4B9897E41173DA5194498AD922A44BAC81254172D4A2541364 DUP2 MSTORE PUSH1 0x20 ADD PUSH32 0x2B5C69F0533A1E57B946F9280621FC6B5101F9CC5B6DA3CF839DE954E00EBE8 DUP2 MSTORE POP DUP2 PUSH1 0x0 ADD DUP2 SWAP1 MSTORE POP PUSH1 0x40 MLOAD DUP1 PUSH1 0x40 ADD PUSH1 0x40 MSTORE DUP1 PUSH1 0x40 MLOAD DUP1 PUSH1 0x40 ADD PUSH1 0x40 MSTORE DUP1 PUSH32 0x12F7100BAE3B7D360EDBE469B207764280033F3AFBC5AD2FD8EEB13B4F5E8290 DUP2 MSTORE PUSH1 0x20 ADD PUSH32 0x2017A2FDAF733204ED1BF4FA24B351EA5621C9295043F2812D91EF2B0C4CAB13 DUP2 MSTORE POP DUP2 MSTORE PUSH1 0x20 ADD PUSH1 0x40 MLOAD DUP1 PUSH1 0x40 ADD PUSH1 0x40 MSTORE DUP1 PUSH32 0x2C4B13E7CD9D5449814DEB807174683739F7C2F319CA51217387E84C20D4A984 DUP2 MSTORE PUSH1 0x20 ADD PUSH32 0x1C22430AF88BEBC36A0B945A804BD96CF68188871E4D2C8B26DC5156388594B7 DUP2 MSTORE POP DUP2 MSTORE POP DUP2 PUSH1 0x20 ADD DUP2 SWAP1 MSTORE POP PUSH1 0x40 MLOAD DUP1 PUSH1 0x40 ADD PUSH1 0x40 MSTORE DUP1 PUSH1 0x40 MLOAD DUP1 PUSH1 0x40 ADD PUSH1 0x40 MSTORE DUP1 PUSH32 0x2F2C3CDCAAAE4CD4E92FF5B84CBE3536481E0CC332EEE8F70D9CA7430B9289AD DUP2 MSTORE PUSH1 0x20 ADD PUSH32 0xAA29DDC242C2A65B8BDB0F303FE5F22300FCBEE6FB6D7DB768920C4014A8097 DUP2 MSTORE POP DUP2 MSTORE PUSH1 0x20 ADD PUSH1 0x40 MLOAD DUP1 PUSH1 0x40 ADD PUSH1 0x40 MSTORE DUP1 PUSH32 0xC350F8C2D5258ECF856208A91658C3F860B83304B6883D94AE0F9BE15826A06 DUP2 MSTORE PUSH1 0x20 ADD PUSH32 0x2927024997C8144AE82B62E0C3445593A68AB59D12225F833690E7BAC9F0717 DUP2 MSTORE POP DUP2 MSTORE POP DUP2 PUSH1 0x40 ADD DUP2 SWAP1 MSTORE POP PUSH1 0x40 MLOAD DUP1 PUSH1 0x40 ADD PUSH1 0x40 MSTORE DUP1 PUSH1 0x40 MLOAD DUP1 PUSH1 0x40 ADD PUSH1 0x40 MSTORE DUP1 PUSH32 0x7DFCD3D944D80AFDB0BEC57CCB9D04D6C6D5B3221957595C522949CB4D33DD1 DUP2 MSTORE PUSH1 0x20 ADD PUSH32 0x106A4D2FE3A06358271AADFDC982C98E50C30F4366A3BA792E644C09510872E5 DUP2 MSTORE POP DUP2 MSTORE PUSH1 0x20 ADD PUSH1 0x40 MLOAD DUP1 PUSH1 0x40 ADD PUSH1 0x40 MSTORE DUP1 PUSH32 0x2285D2244EA2773739AA1AD066A9D6195B158F68D226A07AFC3E1465F0D508F9 DUP2 MSTORE PUSH1 0x20 ADD PUSH32 0x545DB41EF8611342E9D1659EEA122F43A88EE60C7E0D1A99A22E6EB332E2B18 DUP2 MSTORE POP DUP2 MSTORE POP DUP2 PUSH1 0x60 ADD DUP2 SWAP1 MSTORE POP PUSH1 0x1 PUSH8 0xFFFFFFFFFFFFFFFF DUP2 GT ISZERO PUSH2 0x53C JUMPI PUSH2 0x53B PUSH2 0x12CA JUMP JUMPDEST JUMPDEST PUSH1 0x40 MLOAD SWAP1 DUP1 DUP3 MSTORE DUP1 PUSH1 0x20 MUL PUSH1 0x20 ADD DUP3 ADD PUSH1 0x40 MSTORE DUP1 ISZERO PUSH2 0x575 JUMPI DUP2 PUSH1 0x20 ADD JUMPDEST PUSH2 0x562 PUSH2 0xD81 JUMP JUMPDEST DUP2 MSTORE PUSH1 0x20 ADD SWAP1 PUSH1 0x1 SWAP1 SUB SWAP1 DUP2 PUSH2 0x55A JUMPI SWAP1 POP JUMPDEST POP DUP2 PUSH1 0x80 ADD DUP2 SWAP1 MSTORE POP PUSH1 0x40 MLOAD DUP1 PUSH1 0x40 ADD PUSH1 0x40 MSTORE DUP1 PUSH32 0x2BFF00548D8DC51B8D2C639BFD0CD69269CA402871B884B149C1D3C23AC7DEB DUP2 MSTORE PUSH1 0x20 ADD PUSH32 0x2726D38BDA2EF37CC2DFC0A6AAFBEC54B5AF6483BC3EC35F1F8F82065088F6FF DUP2 MSTORE POP DUP2 PUSH1 0x80 ADD MLOAD PUSH1 0x0 DUP2 MLOAD DUP2 LT PUSH2 0x5EB JUMPI PUSH2 0x5EA PUSH2 0x129B JUMP JUMPDEST JUMPDEST PUSH1 0x20 MUL PUSH1 0x20 ADD ADD DUP2 SWAP1 MSTORE POP SWAP1 JUMP JUMPDEST PUSH2 0x601 PUSH2 0xD81 JUMP JUMPDEST PUSH2 0x609 PUSH2 0xD9B JUMP JUMPDEST DUP4 PUSH1 0x0 ADD MLOAD DUP2 PUSH1 0x0 PUSH1 0x3 DUP2 LT PUSH2 0x622 JUMPI PUSH2 0x621 PUSH2 0x129B JUMP JUMPDEST JUMPDEST PUSH1 0x20 MUL ADD DUP2 DUP2 MSTORE POP POP DUP4 PUSH1 0x20 ADD MLOAD DUP2 PUSH1 0x1 PUSH1 0x3 DUP2 LT PUSH2 0x644 JUMPI PUSH2 0x643 PUSH2 0x129B JUMP JUMPDEST JUMPDEST PUSH1 0x20 MUL ADD DUP2 DUP2 MSTORE POP POP DUP3 DUP2 PUSH1 0x2 PUSH1 0x3 DUP2 LT PUSH2 0x662 JUMPI PUSH2 0x661 PUSH2 0x129B JUMP JUMPDEST JUMPDEST PUSH1 0x20 MUL ADD DUP2 DUP2 MSTORE POP POP PUSH1 0x0 PUSH1 0x60 DUP4 PUSH1 0x80 DUP5 PUSH1 0x7 PUSH2 0x7D0 GAS SUB STATICCALL SWAP1 POP DUP1 PUSH1 0x0 DUP2 EQ PUSH2 0x68B JUMPI PUSH2 0x68D JUMP JUMPDEST INVALID JUMPDEST POP DUP1 PUSH2 0x698 JUMPI PUSH1 0x0 DUP1 REVERT JUMPDEST POP POP SWAP3 SWAP2 POP POP JUMP JUMPDEST PUSH2 0x6A8 PUSH2 0xD81 JUMP JUMPDEST PUSH2 0x6B0 PUSH2 0xDBD JUMP JUMPDEST DUP4 PUSH1 0x0 ADD MLOAD DUP2 PUSH1 0x0 PUSH1 0x4 DUP2 LT PUSH2 0x6C9 JUMPI PUSH2 0x6C8 PUSH2 0x129B JUMP JUMPDEST JUMPDEST PUSH1 0x20 MUL ADD DUP2 DUP2 MSTORE POP POP DUP4 PUSH1 0x20 ADD MLOAD DUP2 PUSH1 0x1 PUSH1 0x4 DUP2 LT PUSH2 0x6EB JUMPI PUSH2 0x6EA PUSH2 0x129B JUMP JUMPDEST JUMPDEST PUSH1 0x20 MUL ADD DUP2 DUP2 MSTORE POP POP DUP3 PUSH1 0x0 ADD MLOAD DUP2 PUSH1 0x2 PUSH1 0x4 DUP2 LT PUSH2 0x70D JUMPI PUSH2 0x70C PUSH2 0x129B JUMP JUMPDEST JUMPDEST PUSH1 0x20 MUL ADD DUP2 DUP2 MSTORE POP POP DUP3 PUSH1 0x20 ADD MLOAD DUP2 PUSH1 0x3 PUSH1 0x4 DUP2 LT PUSH2 0x72F JUMPI PUSH2 0x72E PUSH2 0x129B JUMP JUMPDEST JUMPDEST PUSH1 0x20 MUL ADD DUP2 DUP2 MSTORE POP POP PUSH1 0x0 PUSH1 0x60 DUP4 PUSH1 0xC0 DUP5 PUSH1 0x6 PUSH2 0x7D0 GAS SUB STATICCALL SWAP1 POP DUP1 PUSH1 0x0 DUP2 EQ PUSH2 0x758 JUMPI PUSH2 0x75A JUMP JUMPDEST INVALID JUMPDEST POP DUP1 PUSH2 0x765 JUMPI PUSH1 0x0 DUP1 REVERT JUMPDEST POP POP SWAP3 SWAP2 POP POP JUMP JUMPDEST PUSH2 0x775 PUSH2 0xD81 JUMP JUMPDEST PUSH1 0x0 PUSH32 0x30644E72E131A029B85045B68181585D97816A916871CA8D3C208C16D87CFD47 SWAP1 POP PUSH1 0x0 DUP4 PUSH1 0x0 ADD MLOAD EQ DUP1 ISZERO PUSH2 0x7B2 JUMPI POP PUSH1 0x0 DUP4 PUSH1 0x20 ADD MLOAD EQ JUMPDEST ISZERO PUSH2 0x7D6 JUMPI PUSH1 0x40 MLOAD DUP1 PUSH1 0x40 ADD PUSH1 0x40 MSTORE DUP1 PUSH1 0x0 DUP2 MSTORE PUSH1 0x20 ADD PUSH1 0x0 DUP2 MSTORE POP SWAP2 POP POP PUSH2 0x80D JUMP JUMPDEST PUSH1 0x40 MLOAD DUP1 PUSH1 0x40 ADD PUSH1 0x40 MSTORE DUP1 DUP5 PUSH1 0x0 ADD MLOAD DUP2 MSTORE PUSH1 0x20 ADD DUP3 DUP6 PUSH1 0x20 ADD MLOAD PUSH2 0x7FB SWAP2 SWAP1 PUSH2 0x120C JUMP JUMPDEST DUP4 PUSH2 0x806 SWAP2 SWAP1 PUSH2 0x1148 JUMP JUMPDEST DUP2 MSTORE POP SWAP2 POP POP JUMPDEST SWAP2 SWAP1 POP JUMP JUMPDEST PUSH1 0x0 DUP1 PUSH1 0x4 PUSH8 0xFFFFFFFFFFFFFFFF DUP2 GT ISZERO PUSH2 0x830 JUMPI PUSH2 0x82F PUSH2 0x12CA JUMP JUMPDEST JUMPDEST PUSH1 0x40 MLOAD SWAP1 DUP1 DUP3 MSTORE DUP1 PUSH1 0x20 MUL PUSH1 0x20 ADD DUP3 ADD PUSH1 0x40 MSTORE DUP1 ISZERO PUSH2 0x869 JUMPI DUP2 PUSH1 0x20 ADD JUMPDEST PUSH2 0x856 PUSH2 0xD81 JUMP JUMPDEST DUP2 MSTORE PUSH1 0x20 ADD SWAP1 PUSH1 0x1 SWAP1 SUB SWAP1 DUP2 PUSH2 0x84E JUMPI SWAP1 POP JUMPDEST POP SWAP1 POP PUSH1 0x0 PUSH1 0x4 PUSH8 0xFFFFFFFFFFFFFFFF DUP2 GT ISZERO PUSH2 0x889 JUMPI PUSH2 0x888 PUSH2 0x12CA JUMP JUMPDEST JUMPDEST PUSH1 0x40 MLOAD SWAP1 DUP1 DUP3 MSTORE DUP1 PUSH1 0x20 MUL PUSH1 0x20 ADD DUP3 ADD PUSH1 0x40 MSTORE DUP1 ISZERO PUSH2 0x8C2 JUMPI DUP2 PUSH1 0x20 ADD JUMPDEST PUSH2 0x8AF PUSH2 0xDDF JUMP JUMPDEST DUP2 MSTORE PUSH1 0x20 ADD SWAP1 PUSH1 0x1 SWAP1 SUB SWAP1 DUP2 PUSH2 0x8A7 JUMPI SWAP1 POP JUMPDEST POP SWAP1 POP DUP11 DUP3 PUSH1 0x0 DUP2 MLOAD DUP2 LT PUSH2 0x8DA JUMPI PUSH2 0x8D9 PUSH2 0x129B JUMP JUMPDEST JUMPDEST PUSH1 0x20 MUL PUSH1 0x20 ADD ADD DUP2 SWAP1 MSTORE POP DUP9 DUP3 PUSH1 0x1 DUP2 MLOAD DUP2 LT PUSH2 0x8FA JUMPI PUSH2 0x8F9 PUSH2 0x129B JUMP JUMPDEST JUMPDEST PUSH1 0x20 MUL PUSH1 0x20 ADD ADD DUP2 SWAP1 MSTORE POP DUP7 DUP3 PUSH1 0x2 DUP2 MLOAD DUP2 LT PUSH2 0x91A JUMPI PUSH2 0x919 PUSH2 0x129B JUMP JUMPDEST JUMPDEST PUSH1 0x20 MUL PUSH1 0x20 ADD ADD DUP2 SWAP1 MSTORE POP DUP5 DUP3 PUSH1 0x3 DUP2 MLOAD DUP2 LT PUSH2 0x93A JUMPI PUSH2 0x939 PUSH2 0x129B JUMP JUMPDEST JUMPDEST PUSH1 0x20 MUL PUSH1 0x20 ADD ADD DUP2 SWAP1 MSTORE POP DUP10 DUP2 PUSH1 0x0 DUP2 MLOAD DUP2 LT PUSH2 0x95A JUMPI PUSH2 0x959 PUSH2 0x129B JUMP JUMPDEST JUMPDEST PUSH1 0x20 MUL PUSH1 0x20 ADD ADD DUP2 SWAP1 MSTORE POP DUP8 DUP2 PUSH1 0x1 DUP2 MLOAD DUP2 LT PUSH2 0x97A JUMPI PUSH2 0x979 PUSH2 0x129B JUMP JUMPDEST JUMPDEST PUSH1 0x20 MUL PUSH1 0x20 ADD ADD DUP2 SWAP1 MSTORE POP DUP6 DUP2 PUSH1 0x2 DUP2 MLOAD DUP2 LT PUSH2 0x99A JUMPI PUSH2 0x999 PUSH2 0x129B JUMP JUMPDEST JUMPDEST PUSH1 0x20 MUL PUSH1 0x20 ADD ADD DUP2 SWAP1 MSTORE POP DUP4 DUP2 PUSH1 0x3 DUP2 MLOAD DUP2 LT PUSH2 0x9BA JUMPI PUSH2 0x9B9 PUSH2 0x129B JUMP JUMPDEST JUMPDEST PUSH1 0x20 MUL PUSH1 0x20 ADD ADD DUP2 SWAP1 MSTORE POP PUSH2 0x9CF DUP3 DUP3 PUSH2 0x9DF JUMP JUMPDEST SWAP3 POP POP POP SWAP9 SWAP8 POP POP POP POP POP POP POP POP JUMP JUMPDEST PUSH1 0x0 DUP2 MLOAD DUP4 MLOAD EQ PUSH2 0x9EF JUMPI PUSH1 0x0 DUP1 REVERT JUMPDEST PUSH1 0x0 DUP4 MLOAD SWAP1 POP PUSH1 0x0 PUSH1 0x6 DUP3 PUSH2 0xA04 SWAP2 SWAP1 PUSH2 0x10EE JUMP JUMPDEST SWAP1 POP PUSH1 0x0 DUP2 PUSH8 0xFFFFFFFFFFFFFFFF DUP2 GT ISZERO PUSH2 0xA22 JUMPI PUSH2 0xA21 PUSH2 0x12CA JUMP JUMPDEST JUMPDEST PUSH1 0x40 MLOAD SWAP1 DUP1 DUP3 MSTORE DUP1 PUSH1 0x20 MUL PUSH1 0x20 ADD DUP3 ADD PUSH1 0x40 MSTORE DUP1 ISZERO PUSH2 0xA50 JUMPI DUP2 PUSH1 0x20 ADD PUSH1 0x20 DUP3 MUL DUP1 CALLDATASIZE DUP4 CALLDATACOPY DUP1 DUP3 ADD SWAP2 POP POP SWAP1 POP JUMPDEST POP SWAP1 POP PUSH1 0x0 JUMPDEST DUP4 DUP2 LT ISZERO PUSH2 0xCD5 JUMPI DUP7 DUP2 DUP2 MLOAD DUP2 LT PUSH2 0xA71 JUMPI PUSH2 0xA70 PUSH2 0x129B JUMP JUMPDEST JUMPDEST PUSH1 0x20 MUL PUSH1 0x20 ADD ADD MLOAD PUSH1 0x0 ADD MLOAD DUP3 PUSH1 0x0 PUSH1 0x6 DUP5 PUSH2 0xA8D SWAP2 SWAP1 PUSH2 0x10EE JUMP JUMPDEST PUSH2 0xA97 SWAP2 SWAP1 PUSH2 0x1098 JUMP JUMPDEST DUP2 MLOAD DUP2 LT PUSH2 0xAA8 JUMPI PUSH2 0xAA7 PUSH2 0x129B JUMP JUMPDEST JUMPDEST PUSH1 0x20 MUL PUSH1 0x20 ADD ADD DUP2 DUP2 MSTORE POP POP DUP7 DUP2 DUP2 MLOAD DUP2 LT PUSH2 0xAC7 JUMPI PUSH2 0xAC6 PUSH2 0x129B JUMP JUMPDEST JUMPDEST PUSH1 0x20 MUL PUSH1 0x20 ADD ADD MLOAD PUSH1 0x20 ADD MLOAD DUP3 PUSH1 0x1 PUSH1 0x6 DUP5 PUSH2 0xAE3 SWAP2 SWAP1 PUSH2 0x10EE JUMP JUMPDEST PUSH2 0xAED SWAP2 SWAP1 PUSH2 0x1098 JUMP JUMPDEST DUP2 MLOAD DUP2 LT PUSH2 0xAFE JUMPI PUSH2 0xAFD PUSH2 0x129B JUMP JUMPDEST JUMPDEST PUSH1 0x20 MUL PUSH1 0x20 ADD ADD DUP2 DUP2 MSTORE POP POP DUP6 DUP2 DUP2 MLOAD DUP2 LT PUSH2 0xB1D JUMPI PUSH2 0xB1C PUSH2 0x129B JUMP JUMPDEST JUMPDEST PUSH1 0x20 MUL PUSH1 0x20 ADD ADD MLOAD PUSH1 0x0 ADD MLOAD PUSH1 0x1 PUSH1 0x2 DUP2 LT PUSH2 0xB3C JUMPI PUSH2 0xB3B PUSH2 0x129B JUMP JUMPDEST JUMPDEST PUSH1 0x20 MUL ADD MLOAD DUP3 PUSH1 0x2 PUSH1 0x6 DUP5 PUSH2 0xB51 SWAP2 SWAP1 PUSH2 0x10EE JUMP JUMPDEST PUSH2 0xB5B SWAP2 SWAP1 PUSH2 0x1098 JUMP JUMPDEST DUP2 MLOAD DUP2 LT PUSH2 0xB6C JUMPI PUSH2 0xB6B PUSH2 0x129B JUMP JUMPDEST JUMPDEST PUSH1 0x20 MUL PUSH1 0x20 ADD ADD DUP2 DUP2 MSTORE POP POP DUP6 DUP2 DUP2 MLOAD DUP2 LT PUSH2 0xB8B JUMPI PUSH2 0xB8A PUSH2 0x129B JUMP JUMPDEST JUMPDEST PUSH1 0x20 MUL PUSH1 0x20 ADD ADD MLOAD PUSH1 0x0 ADD MLOAD PUSH1 0x0 PUSH1 0x2 DUP2 LT PUSH2 0xBAA JUMPI PUSH2 0xBA9 PUSH2 0x129B JUMP JUMPDEST JUMPDEST PUSH1 0x20 MUL ADD MLOAD DUP3 PUSH1 0x3 PUSH1 0x6 DUP5 PUSH2 0xBBF SWAP2 SWAP1 PUSH2 0x10EE JUMP JUMPDEST PUSH2 0xBC9 SWAP2 SWAP1 PUSH2 0x1098 JUMP JUMPDEST DUP2 MLOAD DUP2 LT PUSH2 0xBDA JUMPI PUSH2 0xBD9 PUSH2 0x129B JUMP JUMPDEST JUMPDEST PUSH1 0x20 MUL PUSH1 0x20 ADD ADD DUP2 DUP2 MSTORE POP POP DUP6 DUP2 DUP2 MLOAD DUP2 LT PUSH2 0xBF9 JUMPI PUSH2 0xBF8 PUSH2 0x129B JUMP JUMPDEST JUMPDEST PUSH1 0x20 MUL PUSH1 0x20 ADD ADD MLOAD PUSH1 0x20 ADD MLOAD PUSH1 0x1 PUSH1 0x2 DUP2 LT PUSH2 0xC18 JUMPI PUSH2 0xC17 PUSH2 0x129B JUMP JUMPDEST JUMPDEST PUSH1 0x20 MUL ADD MLOAD DUP3 PUSH1 0x4 PUSH1 0x6 DUP5 PUSH2 0xC2D SWAP2 SWAP1 PUSH2 0x10EE JUMP JUMPDEST PUSH2 0xC37 SWAP2 SWAP1 PUSH2 0x1098 JUMP JUMPDEST DUP2 MLOAD DUP2 LT PUSH2 0xC48 JUMPI PUSH2 0xC47 PUSH2 0x129B JUMP JUMPDEST JUMPDEST PUSH1 0x20 MUL PUSH1 0x20 ADD ADD DUP2 DUP2 MSTORE POP POP DUP6 DUP2 DUP2 MLOAD DUP2 LT PUSH2 0xC67 JUMPI PUSH2 0xC66 PUSH2 0x129B JUMP JUMPDEST JUMPDEST PUSH1 0x20 MUL PUSH1 0x20 ADD ADD MLOAD PUSH1 0x20 ADD MLOAD PUSH1 0x0 PUSH1 0x2 DUP2 LT PUSH2 0xC86 JUMPI PUSH2 0xC85 PUSH2 0x129B JUMP JUMPDEST JUMPDEST PUSH1 0x20 MUL ADD MLOAD DUP3 PUSH1 0x5 PUSH1 0x6 DUP5 PUSH2 0xC9B SWAP2 SWAP1 PUSH2 0x10EE JUMP JUMPDEST PUSH2 0xCA5 SWAP2 SWAP1 PUSH2 0x1098 JUMP JUMPDEST DUP2 MLOAD DUP2 LT PUSH2 0xCB6 JUMPI PUSH2 0xCB5 PUSH2 0x129B JUMP JUMPDEST JUMPDEST PUSH1 0x20 MUL PUSH1 0x20 ADD ADD DUP2 DUP2 MSTORE POP POP DUP1 DUP1 PUSH2 0xCCD SWAP1 PUSH2 0x11C3 JUMP JUMPDEST SWAP2 POP POP PUSH2 0xA56 JUMP JUMPDEST POP PUSH2 0xCDE PUSH2 0xE05 JUMP JUMPDEST PUSH1 0x0 PUSH1 0x20 DUP3 PUSH1 0x20 DUP7 MUL PUSH1 0x20 DUP7 ADD PUSH1 0x8 PUSH2 0x7D0 GAS SUB STATICCALL SWAP1 POP DUP1 PUSH1 0x0 DUP2 EQ PUSH2 0xD03 JUMPI PUSH2 0xD05 JUMP JUMPDEST INVALID JUMPDEST POP DUP1 PUSH2 0xD10 JUMPI PUSH1 0x0 DUP1 REVERT JUMPDEST PUSH1 0x0 DUP3 PUSH1 0x0 PUSH1 0x1 DUP2 LT PUSH2 0xD26 JUMPI PUSH2 0xD25 PUSH2 0x129B JUMP JUMPDEST JUMPDEST PUSH1 0x20 MUL ADD MLOAD EQ ISZERO SWAP6 POP POP POP POP POP POP SWAP3 SWAP2 POP POP JUMP JUMPDEST PUSH1 0x40 MLOAD DUP1 PUSH1 0xA0 ADD PUSH1 0x40 MSTORE DUP1 PUSH2 0xD4D PUSH2 0xD81 JUMP JUMPDEST DUP2 MSTORE PUSH1 0x20 ADD PUSH2 0xD5A PUSH2 0xDDF JUMP JUMPDEST DUP2 MSTORE PUSH1 0x20 ADD PUSH2 0xD67 PUSH2 0xDDF JUMP JUMPDEST DUP2 MSTORE PUSH1 0x20 ADD PUSH2 0xD74 PUSH2 0xDDF JUMP JUMPDEST DUP2 MSTORE PUSH1 0x20 ADD PUSH1 0x60 DUP2 MSTORE POP SWAP1 JUMP JUMPDEST PUSH1 0x40 MLOAD DUP1 PUSH1 0x40 ADD PUSH1 0x40 MSTORE DUP1 PUSH1 0x0 DUP2 MSTORE PUSH1 0x20 ADD PUSH1 0x0 DUP2 MSTORE POP SWAP1 JUMP JUMPDEST PUSH1 0x40 MLOAD DUP1 PUSH1 0x60 ADD PUSH1 0x40 MSTORE DUP1 PUSH1 0x3 SWAP1 PUSH1 0x20 DUP3 MUL DUP1 CALLDATASIZE DUP4 CALLDATACOPY DUP1 DUP3 ADD SWAP2 POP POP SWAP1 POP POP SWAP1 JUMP JUMPDEST PUSH1 0x40 MLOAD DUP1 PUSH1 0x80 ADD PUSH1 0x40 MSTORE DUP1 PUSH1 0x4 SWAP1 PUSH1 0x20 DUP3 MUL DUP1 CALLDATASIZE DUP4 CALLDATACOPY DUP1 DUP3 ADD SWAP2 POP POP SWAP1 POP POP SWAP1 JUMP JUMPDEST PUSH1 0x40 MLOAD DUP1 PUSH1 0x40 ADD PUSH1 0x40 MSTORE DUP1 PUSH2 0xDF2 PUSH2 0xE27 JUMP JUMPDEST DUP2 MSTORE PUSH1 0x20 ADD PUSH2 0xDFF PUSH2 0xE27 JUMP JUMPDEST DUP2 MSTORE POP SWAP1 JUMP JUMPDEST PUSH1 0x40 MLOAD DUP1 PUSH1 0x20 ADD PUSH1 0x40 MSTORE DUP1 PUSH1 0x1 SWAP1 PUSH1 0x20 DUP3 MUL DUP1 CALLDATASIZE DUP4 CALLDATACOPY DUP1 DUP3 ADD SWAP2 POP POP SWAP1 POP POP SWAP1 JUMP JUMPDEST PUSH1 0x40 MLOAD DUP1 PUSH1 0x40 ADD PUSH1 0x40 MSTORE DUP1 PUSH1 0x2 SWAP1 PUSH1 0x20 DUP3 MUL DUP1 CALLDATASIZE DUP4 CALLDATACOPY DUP1 DUP3 ADD SWAP2 POP POP SWAP1 POP POP SWAP1 JUMP JUMPDEST PUSH1 0x0 PUSH2 0xE5C PUSH2 0xE57 DUP5 PUSH2 0x1072 JUMP JUMPDEST PUSH2 0x104D JUMP JUMPDEST SWAP1 POP DUP1 DUP3 DUP6 PUSH1 0x20 DUP7 MUL DUP3 ADD GT ISZERO PUSH2 0xE76 JUMPI PUSH2 0xE75 PUSH2 0x1303 JUMP JUMPDEST JUMPDEST PUSH1 0x0 JUMPDEST DUP6 DUP2 LT ISZERO PUSH2 0xEA6 JUMPI DUP2 PUSH2 0xE8C DUP9 DUP3 PUSH2 0xFE0 JUMP JUMPDEST DUP5 MSTORE PUSH1 0x20 DUP5 ADD SWAP4 POP PUSH1 0x20 DUP4 ADD SWAP3 POP POP PUSH1 0x1 DUP2 ADD SWAP1 POP PUSH2 0xE79 JUMP JUMPDEST POP POP POP SWAP4 SWAP3 POP POP POP JUMP JUMPDEST PUSH1 0x0 DUP3 PUSH1 0x1F DUP4 ADD SLT PUSH2 0xEC5 JUMPI PUSH2 0xEC4 PUSH2 0x12F9 JUMP JUMPDEST JUMPDEST PUSH1 0x2 PUSH2 0xED2 DUP5 DUP3 DUP6 PUSH2 0xE49 JUMP JUMPDEST SWAP2 POP POP SWAP3 SWAP2 POP POP JUMP JUMPDEST PUSH1 0x0 PUSH1 0x40 DUP3 DUP5 SUB SLT ISZERO PUSH2 0xEF1 JUMPI PUSH2 0xEF0 PUSH2 0x12FE JUMP JUMPDEST JUMPDEST PUSH2 0xEFB PUSH1 0x40 PUSH2 0x104D JUMP JUMPDEST SWAP1 POP PUSH1 0x0 PUSH2 0xF0B DUP5 DUP3 DUP6 ADD PUSH2 0xFE0 JUMP JUMPDEST PUSH1 0x0 DUP4 ADD MSTORE POP PUSH1 0x20 PUSH2 0xF1F DUP5 DUP3 DUP6 ADD PUSH2 0xFE0 JUMP JUMPDEST PUSH1 0x20 DUP4 ADD MSTORE POP SWAP3 SWAP2 POP POP JUMP JUMPDEST PUSH1 0x0 PUSH1 0x80 DUP3 DUP5 SUB SLT ISZERO PUSH2 0xF41 JUMPI PUSH2 0xF40 PUSH2 0x12FE JUMP JUMPDEST JUMPDEST PUSH2 0xF4B PUSH1 0x40 PUSH2 0x104D JUMP JUMPDEST SWAP1 POP PUSH1 0x0 PUSH2 0xF5B DUP5 DUP3 DUP6 ADD PUSH2 0xEB0 JUMP JUMPDEST PUSH1 0x0 DUP4 ADD MSTORE POP PUSH1 0x40 PUSH2 0xF6F DUP5 DUP3 DUP6 ADD PUSH2 0xEB0 JUMP JUMPDEST PUSH1 0x20 DUP4 ADD MSTORE POP SWAP3 SWAP2 POP POP JUMP JUMPDEST PUSH1 0x0 PUSH2 0x100 DUP3 DUP5 SUB SLT ISZERO PUSH2 0xF92 JUMPI PUSH2 0xF91 PUSH2 0x12FE JUMP JUMPDEST JUMPDEST PUSH2 0xF9C PUSH1 0x60 PUSH2 0x104D JUMP JUMPDEST SWAP1 POP PUSH1 0x0 PUSH2 0xFAC DUP5 DUP3 DUP6 ADD PUSH2 0xEDB JUMP JUMPDEST PUSH1 0x0 DUP4 ADD MSTORE POP PUSH1 0x40 PUSH2 0xFC0 DUP5 DUP3 DUP6 ADD PUSH2 0xF2B JUMP JUMPDEST PUSH1 0x20 DUP4 ADD MSTORE POP PUSH1 0xC0 PUSH2 0xFD4 DUP5 DUP3 DUP6 ADD PUSH2 0xEDB JUMP JUMPDEST PUSH1 0x40 DUP4 ADD MSTORE POP SWAP3 SWAP2 POP POP JUMP JUMPDEST PUSH1 0x0 DUP2 CALLDATALOAD SWAP1 POP PUSH2 0xFEF DUP2 PUSH2 0x131E JUMP JUMPDEST SWAP3 SWAP2 POP POP JUMP JUMPDEST PUSH1 0x0 PUSH2 0x100 DUP3 DUP5 SUB SLT ISZERO PUSH2 0x100C JUMPI PUSH2 0x100B PUSH2 0x1308 JUMP JUMPDEST JUMPDEST PUSH1 0x0 PUSH2 0x101A DUP5 DUP3 DUP6 ADD PUSH2 0xF7B JUMP JUMPDEST SWAP2 POP POP SWAP3 SWAP2 POP POP JUMP JUMPDEST PUSH2 0x102C DUP2 PUSH2 0x117C JUMP JUMPDEST DUP3 MSTORE POP POP JUMP JUMPDEST PUSH1 0x0 PUSH1 0x20 DUP3 ADD SWAP1 POP PUSH2 0x1047 PUSH1 0x0 DUP4 ADD DUP5 PUSH2 0x1023 JUMP JUMPDEST SWAP3 SWAP2 POP POP JUMP JUMPDEST PUSH1 0x0 PUSH2 0x1057 PUSH2 0x1068 JUMP JUMPDEST SWAP1 POP PUSH2 0x1063 DUP3 DUP3 PUSH2 0x1192 JUMP JUMPDEST SWAP2 SWAP1 POP JUMP JUMPDEST PUSH1 0x0 PUSH1 0x40 MLOAD SWAP1 POP SWAP1 JUMP JUMPDEST PUSH1 0x0 PUSH8 0xFFFFFFFFFFFFFFFF DUP3 GT ISZERO PUSH2 0x108D JUMPI PUSH2 0x108C PUSH2 0x12CA JUMP JUMPDEST JUMPDEST PUSH1 0x20 DUP3 MUL SWAP1 POP SWAP2 SWAP1 POP JUMP JUMPDEST PUSH1 0x0 PUSH2 0x10A3 DUP3 PUSH2 0x1188 JUMP JUMPDEST SWAP2 POP PUSH2 0x10AE DUP4 PUSH2 0x1188 JUMP JUMPDEST SWAP3 POP DUP3 PUSH32 0xFFFFFFFFFFFFFFFFFFFFFFFFFFFFFFFFFFFFFFFFFFFFFFFFFFFFFFFFFFFFFFFF SUB DUP3 GT ISZERO PUSH2 0x10E3 JUMPI PUSH2 0x10E2 PUSH2 0x123D JUMP JUMPDEST JUMPDEST DUP3 DUP3 ADD SWAP1 POP SWAP3 SWAP2 POP POP JUMP JUMPDEST PUSH1 0x0 PUSH2 0x10F9 DUP3 PUSH2 0x1188 JUMP JUMPDEST SWAP2 POP PUSH2 0x1104 DUP4 PUSH2 0x1188 JUMP JUMPDEST SWAP3 POP DUP2 PUSH32 0xFFFFFFFFFFFFFFFFFFFFFFFFFFFFFFFFFFFFFFFFFFFFFFFFFFFFFFFFFFFFFFFF DIV DUP4 GT DUP3 ISZERO ISZERO AND ISZERO PUSH2 0x113D JUMPI PUSH2 0x113C PUSH2 0x123D JUMP JUMPDEST JUMPDEST DUP3 DUP3 MUL SWAP1 POP SWAP3 SWAP2 POP POP JUMP JUMPDEST PUSH1 0x0 PUSH2 0x1153 DUP3 PUSH2 0x1188 JUMP JUMPDEST SWAP2 POP PUSH2 0x115E DUP4 PUSH2 0x1188 JUMP JUMPDEST SWAP3 POP DUP3 DUP3 LT ISZERO PUSH2 0x1171 JUMPI PUSH2 0x1170 PUSH2 0x123D JUMP JUMPDEST JUMPDEST DUP3 DUP3 SUB SWAP1 POP SWAP3 SWAP2 POP POP JUMP JUMPDEST PUSH1 0x0 DUP2 ISZERO ISZERO SWAP1 POP SWAP2 SWAP1 POP JUMP JUMPDEST PUSH1 0x0 DUP2 SWAP1 POP SWAP2 SWAP1 POP JUMP JUMPDEST PUSH2 0x119B DUP3 PUSH2 0x130D JUMP JUMPDEST DUP2 ADD DUP2 DUP2 LT PUSH8 0xFFFFFFFFFFFFFFFF DUP3 GT OR ISZERO PUSH2 0x11BA JUMPI PUSH2 0x11B9 PUSH2 0x12CA JUMP JUMPDEST JUMPDEST DUP1 PUSH1 0x40 MSTORE POP POP POP JUMP JUMPDEST PUSH1 0x0 PUSH2 0x11CE DUP3 PUSH2 0x1188 JUMP JUMPDEST SWAP2 POP PUSH32 0xFFFFFFFFFFFFFFFFFFFFFFFFFFFFFFFFFFFFFFFFFFFFFFFFFFFFFFFFFFFFFFFF DUP3 EQ ISZERO PUSH2 0x1201 JUMPI PUSH2 0x1200 PUSH2 0x123D JUMP JUMPDEST JUMPDEST PUSH1 0x1 DUP3 ADD SWAP1 POP SWAP2 SWAP1 POP JUMP JUMPDEST PUSH1 0x0 PUSH2 0x1217 DUP3 PUSH2 0x1188 JUMP JUMPDEST SWAP2 POP PUSH2 0x1222 DUP4 PUSH2 0x1188 JUMP JUMPDEST SWAP3 POP DUP3 PUSH2 0x1232 JUMPI PUSH2 0x1231 PUSH2 0x126C JUMP JUMPDEST JUMPDEST DUP3 DUP3 MOD SWAP1 POP SWAP3 SWAP2 POP POP JUMP JUMPDEST PUSH32 0x4E487B7100000000000000000000000000000000000000000000000000000000 PUSH1 0x0 MSTORE PUSH1 0x11 PUSH1 0x4 MSTORE PUSH1 0x24 PUSH1 0x0 REVERT JUMPDEST PUSH32 0x4E487B7100000000000000000000000000000000000000000000000000000000 PUSH1 0x0 MSTORE PUSH1 0x12 PUSH1 0x4 MSTORE PUSH1 0x24 PUSH1 0x0 REVERT JUMPDEST PUSH32 0x4E487B7100000000000000000000000000000000000000000000000000000000 PUSH1 0x0 MSTORE PUSH1 0x32 PUSH1 0x4 MSTORE PUSH1 0x24 PUSH1 0x0 REVERT JUMPDEST PUSH32 0x4E487B7100000000000000000000000000000000000000000000000000000000 PUSH1 0x0 MSTORE PUSH1 0x41 PUSH1 0x4 MSTORE PUSH1 0x24 PUSH1 0x0 REVERT JUMPDEST PUSH1 0x0 DUP1 REVERT JUMPDEST PUSH1 0x0 DUP1 REVERT JUMPDEST PUSH1 0x0 DUP1 REVERT JUMPDEST PUSH1 0x0 DUP1 REVERT JUMPDEST PUSH1 0x0 PUSH1 0x1F NOT PUSH1 0x1F DUP4 ADD AND SWAP1 POP SWAP2 SWAP1 POP JUMP JUMPDEST PUSH2 0x1327 DUP2 PUSH2 0x1188 JUMP JUMPDEST DUP2 EQ PUSH2 0x1332 JUMPI PUSH1 0x0 DUP1 REVERT JUMPDEST POP JUMP INVALID LOG2 PUSH5 0x6970667358 0x22 SLT KECCAK256 0xBB 0xD EXP 0xDC 0xCD 0x28 AND RETURN 0xC MOD 0xBA SWAP12 CALLVALUE 0x5C SLT COINBASE 0xC8 SMOD 0x2D 0xBD SWAP3 0xAD 0x2C ADDRESS 0xB9 0xA7 CALLVALUE EXTCODEHASH 0xF SLOAD ADD ADD PUSH5 0x736F6C6343 STOP ADDMOD SMOD STOP CALLER "
				},
				"gasEstimates": {
					"creation": {
						"codeDepositCost": "994200",
						"executionCost": "1034",
						"totalCost": "995234"
					},
					"external": {
						"verifyTx(((uint256,uint256),(uint256[2],uint256[2]),(uint256,uint256)))": "infinite"
					},
					"internal": {
						"verify(uint256[] memory,struct Verifier.Proof memory)": "infinite",
						"verifyingKey()": "infinite"
					}
				},
				"methodIdentifiers": {
					"verifyTx(((uint256,uint256),(uint256[2],uint256[2]),(uint256,uint256)))": "f6af0311"
				}
			},
			"storageLayout": {
				"storage": [],
				"types": null
			},
			"userdoc": {
				"kind": "user",
				"methods": {},
				"version": 1
			}
		}
	}
}