{
	"contracts/zk_verifier.sol": {
		"Groth16Verifier": {
			"abi": [
				{
					"inputs": [
						{
							"internalType": "uint256[2]",
							"name": "_pA",
							"type": "uint256[2]"
						},
						{
							"internalType": "uint256[2][2]",
							"name": "_pB",
							"type": "uint256[2][2]"
						},
						{
							"internalType": "uint256[2]",
							"name": "_pC",
							"type": "uint256[2]"
						},
						{
							"internalType": "uint256[1]",
							"name": "_pubSignals",
							"type": "uint256[1]"
						}
					],
					"name": "verifyProof",
					"outputs": [
						{
							"internalType": "bool",
							"name": "",
							"type": "bool"
						}
					],
					"stateMutability": "view",
					"type": "function"
				}
			],
			"devdoc": {
				"kind": "dev",
				"methods": {},
				"version": 1
			},
			"evm": {
				"assembly": "    /* \"contracts/zk_verifier.sol\":831:7135  contract Groth16Verifier {... */\n  mstore(0x40, 0x80)\n  callvalue\n  dup1\n  iszero\n  tag_1\n  jumpi\n  0x00\n  dup1\n  revert\ntag_1:\n  pop\n  dataSize(sub_0)\n  dup1\n  dataOffset(sub_0)\n  0x00\n  codecopy\n  0x00\n  return\nstop\n\nsub_0: assembly {\n        /* \"contracts/zk_verifier.sol\":831:7135  contract Groth16Verifier {... */\n      mstore(0x40, 0x80)\n      callvalue\n      dup1\n      iszero\n      tag_1\n      jumpi\n      0x00\n      dup1\n      revert\n    tag_1:\n      pop\n      jumpi(tag_2, lt(calldatasize, 0x04))\n      shr(0xe0, calldataload(0x00))\n      dup1\n      0x43753b4d\n      eq\n      tag_3\n      jumpi\n    tag_2:\n      0x00\n      dup1\n      revert\n        /* \"contracts/zk_verifier.sol\":3251:7132  function verifyProof(uint[2] calldata _pA, uint[2][2] calldata _pB, uint[2] calldata _pC, uint[1] calldata _pubSignals) public view returns (bool) {... */\n    tag_3:\n      tag_4\n      0x04\n      dup1\n      calldatasize\n      sub\n      dup2\n      add\n      swap1\n      tag_5\n      swap2\n      swap1\n      tag_6\n      jump\t// in\n    tag_5:\n      tag_7\n      jump\t// in\n    tag_4:\n      mload(0x40)\n      tag_8\n      swap2\n      swap1\n      tag_9\n      jump\t// in\n    tag_8:\n      mload(0x40)\n      dup1\n      swap2\n      sub\n      swap1\n      return\n    tag_7:\n        /* \"contracts/zk_verifier.sol\":3392:3396  bool */\n      0x00\n        /* \"contracts/zk_verifier.sol\":3431:3594  function checkField(v) {... */\n      jump(tag_14)\n    tag_11:\n        /* \"contracts/zk_verifier.sol\":3488:3489  q */\n      0x30644e72e131a029b85045b68181585d97816a916871ca8d3c208c16d87cfd47\n        /* \"contracts/zk_verifier.sol\":3485:3486  v */\n      dup2\n        /* \"contracts/zk_verifier.sol\":3482:3490  lt(v, q) */\n      lt\n        /* \"contracts/zk_verifier.sol\":3472:3580  if iszero(lt(v, q)) {... */\n      tag_16\n      jumpi\n        /* \"contracts/zk_verifier.sol\":3524:3525  0 */\n      0x00\n        /* \"contracts/zk_verifier.sol\":3521:3522  0 */\n      dup1\n        /* \"contracts/zk_verifier.sol\":3514:3526  mstore(0, 0) */\n      mstore\n        /* \"contracts/zk_verifier.sol\":3557:3561  0x20 */\n      0x20\n        /* \"contracts/zk_verifier.sol\":3554:3555  0 */\n      0x00\n        /* \"contracts/zk_verifier.sol\":3547:3562  return(0, 0x20) */\n      return\n        /* \"contracts/zk_verifier.sol\":3472:3580  if iszero(lt(v, q)) {... */\n    tag_16:\n        /* \"contracts/zk_verifier.sol\":3431:3594  function checkField(v) {... */\n      pop\n      jump\t// out\n        /* \"contracts/zk_verifier.sol\":3698:4436  function g1_mulAccC(pR, x, y, s) {... */\n    tag_12:\n        /* \"contracts/zk_verifier.sol\":3749:3760  let success */\n      0x00\n        /* \"contracts/zk_verifier.sol\":3794:3798  0x40 */\n      0x40\n        /* \"contracts/zk_verifier.sol\":3788:3799  mload(0x40) */\n      mload\n        /* \"contracts/zk_verifier.sol\":3828:3829  x */\n      dup4\n        /* \"contracts/zk_verifier.sol\":3823:3826  mIn */\n      dup2\n        /* \"contracts/zk_verifier.sol\":3816:3830  mstore(mIn, x) */\n      mstore\n        /* \"contracts/zk_verifier.sol\":3868:3869  y */\n      dup5\n        /* \"contracts/zk_verifier.sol\":3863:3865  32 */\n      0x20\n        /* \"contracts/zk_verifier.sol\":3858:3861  mIn */\n      dup3\n        /* \"contracts/zk_verifier.sol\":3854:3866  add(mIn, 32) */\n      add\n        /* \"contracts/zk_verifier.sol\":3847:3870  mstore(add(mIn, 32), y) */\n      mstore\n        /* \"contracts/zk_verifier.sol\":3908:3909  s */\n      dup6\n        /* \"contracts/zk_verifier.sol\":3903:3905  64 */\n      0x40\n        /* \"contracts/zk_verifier.sol\":3898:3901  mIn */\n      dup3\n        /* \"contracts/zk_verifier.sol\":3894:3906  add(mIn, 64) */\n      add\n        /* \"contracts/zk_verifier.sol\":3887:3910  mstore(add(mIn, 64), s) */\n      mstore\n        /* \"contracts/zk_verifier.sol\":3985:3987  64 */\n      0x40\n        /* \"contracts/zk_verifier.sol\":3980:3983  mIn */\n      dup2\n        /* \"contracts/zk_verifier.sol\":3976:3978  96 */\n      0x60\n        /* \"contracts/zk_verifier.sol\":3971:3974  mIn */\n      dup4\n        /* \"contracts/zk_verifier.sol\":3968:3969  7 */\n      0x07\n        /* \"contracts/zk_verifier.sol\":3961:3965  2000 */\n      0x07d0\n        /* \"contracts/zk_verifier.sol\":3954:3959  gas() */\n      gas\n        /* \"contracts/zk_verifier.sol\":3950:3966  sub(gas(), 2000) */\n      sub\n        /* \"contracts/zk_verifier.sol\":3939:3988  staticcall(sub(gas(), 2000), 7, mIn, 96, mIn, 64) */\n      staticcall\n        /* \"contracts/zk_verifier.sol\":3928:3988  success := staticcall(sub(gas(), 2000), 7, mIn, 96, mIn, 64) */\n      swap2\n      pop\n        /* \"contracts/zk_verifier.sol\":4016:4023  success */\n      dup2\n        /* \"contracts/zk_verifier.sol\":4006:4113  if iszero(success) {... */\n      tag_18\n      jumpi\n        /* \"contracts/zk_verifier.sol\":4057:4058  0 */\n      0x00\n        /* \"contracts/zk_verifier.sol\":4054:4055  0 */\n      dup1\n        /* \"contracts/zk_verifier.sol\":4047:4059  mstore(0, 0) */\n      mstore\n        /* \"contracts/zk_verifier.sol\":4090:4094  0x20 */\n      0x20\n        /* \"contracts/zk_verifier.sol\":4087:4088  0 */\n      0x00\n        /* \"contracts/zk_verifier.sol\":4080:4095  return(0, 0x20) */\n      return\n        /* \"contracts/zk_verifier.sol\":4006:4113  if iszero(success) {... */\n    tag_18:\n        /* \"contracts/zk_verifier.sol\":4158:4160  pR */\n      dup3\n        /* \"contracts/zk_verifier.sol\":4152:4161  mload(pR) */\n      mload\n        /* \"contracts/zk_verifier.sol\":4147:4149  64 */\n      0x40\n        /* \"contracts/zk_verifier.sol\":4142:4145  mIn */\n      dup3\n        /* \"contracts/zk_verifier.sol\":4138:4150  add(mIn, 64) */\n      add\n        /* \"contracts/zk_verifier.sol\":4131:4162  mstore(add(mIn, 64), mload(pR)) */\n      mstore\n        /* \"contracts/zk_verifier.sol\":4214:4216  32 */\n      0x20\n        /* \"contracts/zk_verifier.sol\":4210:4212  pR */\n      dup4\n        /* \"contracts/zk_verifier.sol\":4206:4217  add(pR, 32) */\n      add\n        /* \"contracts/zk_verifier.sol\":4200:4218  mload(add(pR, 32)) */\n      mload\n        /* \"contracts/zk_verifier.sol\":4195:4197  96 */\n      0x60\n        /* \"contracts/zk_verifier.sol\":4190:4193  mIn */\n      dup3\n        /* \"contracts/zk_verifier.sol\":4186:4198  add(mIn, 96) */\n      add\n        /* \"contracts/zk_verifier.sol\":4179:4219  mstore(add(mIn, 96), mload(add(pR, 32))) */\n      mstore\n        /* \"contracts/zk_verifier.sol\":4294:4296  64 */\n      0x40\n        /* \"contracts/zk_verifier.sol\":4290:4292  pR */\n      dup4\n        /* \"contracts/zk_verifier.sol\":4285:4288  128 */\n      0x80\n        /* \"contracts/zk_verifier.sol\":4280:4283  mIn */\n      dup4\n        /* \"contracts/zk_verifier.sol\":4277:4278  6 */\n      0x06\n        /* \"contracts/zk_verifier.sol\":4270:4274  2000 */\n      0x07d0\n        /* \"contracts/zk_verifier.sol\":4263:4268  gas() */\n      gas\n        /* \"contracts/zk_verifier.sol\":4259:4275  sub(gas(), 2000) */\n      sub\n        /* \"contracts/zk_verifier.sol\":4248:4297  staticcall(sub(gas(), 2000), 6, mIn, 128, pR, 64) */\n      staticcall\n        /* \"contracts/zk_verifier.sol\":4237:4297  success := staticcall(sub(gas(), 2000), 6, mIn, 128, pR, 64) */\n      swap2\n      pop\n        /* \"contracts/zk_verifier.sol\":4325:4332  success */\n      dup2\n        /* \"contracts/zk_verifier.sol\":4315:4422  if iszero(success) {... */\n      tag_19\n      jumpi\n        /* \"contracts/zk_verifier.sol\":4366:4367  0 */\n      0x00\n        /* \"contracts/zk_verifier.sol\":4363:4364  0 */\n      dup1\n        /* \"contracts/zk_verifier.sol\":4356:4368  mstore(0, 0) */\n      mstore\n        /* \"contracts/zk_verifier.sol\":4399:4403  0x20 */\n      0x20\n        /* \"contracts/zk_verifier.sol\":4396:4397  0 */\n      0x00\n        /* \"contracts/zk_verifier.sol\":4389:4404  return(0, 0x20) */\n      return\n        /* \"contracts/zk_verifier.sol\":4315:4422  if iszero(success) {... */\n    tag_19:\n        /* \"contracts/zk_verifier.sol\":3731:4436  {... */\n      pop\n      pop\n        /* \"contracts/zk_verifier.sol\":3698:4436  function g1_mulAccC(pR, x, y, s) {... */\n      pop\n      pop\n      pop\n      pop\n      jump\t// out\n        /* \"contracts/zk_verifier.sol\":4450:6647  function checkPairing(pA, pB, pC, pubSignals, pMem) -> isOk {... */\n    tag_13:\n        /* \"contracts/zk_verifier.sol\":4505:4509  isOk */\n      0x00\n        /* \"contracts/zk_verifier.sol\":4555:4563  pPairing */\n      0x80\n        /* \"contracts/zk_verifier.sol\":4549:4553  pMem */\n      dup7\n        /* \"contracts/zk_verifier.sol\":4545:4564  add(pMem, pPairing) */\n      add\n        /* \"contracts/zk_verifier.sol\":4603:4606  pVk */\n      0x00\n        /* \"contracts/zk_verifier.sol\":4597:4601  pMem */\n      dup8\n        /* \"contracts/zk_verifier.sol\":4593:4607  add(pMem, pVk) */\n      add\n        /* \"contracts/zk_verifier.sol\":4638:4642  IC0x */\n      0x280b36333452e736953e432da5cf92ccc3e3cc929a1fa9cfede521961c3220e1\n        /* \"contracts/zk_verifier.sol\":4632:4636  _pVk */\n      dup2\n        /* \"contracts/zk_verifier.sol\":4625:4643  mstore(_pVk, IC0x) */\n      mstore\n        /* \"contracts/zk_verifier.sol\":4682:4686  IC0y */\n      0x0e677b2c5dab1b116c83dc257e454df6eae7699744d9ea02d04d2fd090b852cd\n        /* \"contracts/zk_verifier.sol\":4677:4679  32 */\n      0x20\n        /* \"contracts/zk_verifier.sol\":4671:4675  _pVk */\n      dup3\n        /* \"contracts/zk_verifier.sol\":4667:4680  add(_pVk, 32) */\n      add\n        /* \"contracts/zk_verifier.sol\":4660:4687  mstore(add(_pVk, 32), IC0y) */\n      mstore\n        /* \"contracts/zk_verifier.sol\":4777:4839  g1_mulAccC(_pVk, IC1x, IC1y, calldataload(add(pubSignals, 0))) */\n      tag_21\n        /* \"contracts/zk_verifier.sol\":4835:4836  0 */\n      0x00\n        /* \"contracts/zk_verifier.sol\":4823:4833  pubSignals */\n      dup9\n        /* \"contracts/zk_verifier.sol\":4819:4837  add(pubSignals, 0) */\n      add\n        /* \"contracts/zk_verifier.sol\":4806:4838  calldataload(add(pubSignals, 0)) */\n      calldataload\n        /* \"contracts/zk_verifier.sol\":4800:4804  IC1y */\n      0x1d2a94c01c1cffe801749424fd27a6695f9ae04a2bd96d9ebce09111310d916c\n        /* \"contracts/zk_verifier.sol\":4794:4798  IC1x */\n      0x15a1868ebf8be56cd7cc6440b0092452d826b1500c145e4559a44e7fc8960f31\n        /* \"contracts/zk_verifier.sol\":4788:4792  _pVk */\n      dup5\n        /* \"contracts/zk_verifier.sol\":4777:4839  g1_mulAccC(_pVk, IC1x, IC1y, calldataload(add(pubSignals, 0))) */\n      tag_12\n      jump\t// in\n    tag_21:\n        /* \"contracts/zk_verifier.sol\":4927:4929  pA */\n      dup4\n        /* \"contracts/zk_verifier.sol\":4914:4930  calldataload(pA) */\n      calldataload\n        /* \"contracts/zk_verifier.sol\":4903:4912  _pPairing */\n      dup3\n        /* \"contracts/zk_verifier.sol\":4896:4931  mstore(_pPairing, calldataload(pA)) */\n      mstore\n        /* \"contracts/zk_verifier.sol\":5014:5015  q */\n      0x30644e72e131a029b85045b68181585d97816a916871ca8d3c208c16d87cfd47\n        /* \"contracts/zk_verifier.sol\":5007:5009  32 */\n      0x20\n        /* \"contracts/zk_verifier.sol\":5003:5005  pA */\n      dup6\n        /* \"contracts/zk_verifier.sol\":4999:5010  add(pA, 32) */\n      add\n        /* \"contracts/zk_verifier.sol\":4986:5011  calldataload(add(pA, 32)) */\n      calldataload\n        /* \"contracts/zk_verifier.sol\":4983:4984  q */\n      0x30644e72e131a029b85045b68181585d97816a916871ca8d3c208c16d87cfd47\n        /* \"contracts/zk_verifier.sol\":4979:5012  sub(q, calldataload(add(pA, 32))) */\n      sub\n        /* \"contracts/zk_verifier.sol\":4975:5016  mod(sub(q, calldataload(add(pA, 32))), q) */\n      mod\n        /* \"contracts/zk_verifier.sol\":4970:4972  32 */\n      0x20\n        /* \"contracts/zk_verifier.sol\":4959:4968  _pPairing */\n      dup4\n        /* \"contracts/zk_verifier.sol\":4955:4973  add(_pPairing, 32) */\n      add\n        /* \"contracts/zk_verifier.sol\":4948:5017  mstore(add(_pPairing, 32), mod(sub(q, calldataload(add(pA, 32))), q)) */\n      mstore\n        /* \"contracts/zk_verifier.sol\":5096:5098  pB */\n      dup5\n        /* \"contracts/zk_verifier.sol\":5083:5099  calldataload(pB) */\n      calldataload\n        /* \"contracts/zk_verifier.sol\":5078:5080  64 */\n      0x40\n        /* \"contracts/zk_verifier.sol\":5067:5076  _pPairing */\n      dup4\n        /* \"contracts/zk_verifier.sol\":5063:5081  add(_pPairing, 64) */\n      add\n        /* \"contracts/zk_verifier.sol\":5056:5100  mstore(add(_pPairing, 64), calldataload(pB)) */\n      mstore\n        /* \"contracts/zk_verifier.sol\":5165:5167  32 */\n      0x20\n        /* \"contracts/zk_verifier.sol\":5161:5163  pB */\n      dup6\n        /* \"contracts/zk_verifier.sol\":5157:5168  add(pB, 32) */\n      add\n        /* \"contracts/zk_verifier.sol\":5144:5169  calldataload(add(pB, 32)) */\n      calldataload\n        /* \"contracts/zk_verifier.sol\":5139:5141  96 */\n      0x60\n        /* \"contracts/zk_verifier.sol\":5128:5137  _pPairing */\n      dup4\n        /* \"contracts/zk_verifier.sol\":5124:5142  add(_pPairing, 96) */\n      add\n        /* \"contracts/zk_verifier.sol\":5117:5170  mstore(add(_pPairing, 96), calldataload(add(pB, 32))) */\n      mstore\n        /* \"contracts/zk_verifier.sol\":5236:5238  64 */\n      0x40\n        /* \"contracts/zk_verifier.sol\":5232:5234  pB */\n      dup6\n        /* \"contracts/zk_verifier.sol\":5228:5239  add(pB, 64) */\n      add\n        /* \"contracts/zk_verifier.sol\":5215:5240  calldataload(add(pB, 64)) */\n      calldataload\n        /* \"contracts/zk_verifier.sol\":5209:5212  128 */\n      0x80\n        /* \"contracts/zk_verifier.sol\":5198:5207  _pPairing */\n      dup4\n        /* \"contracts/zk_verifier.sol\":5194:5213  add(_pPairing, 128) */\n      add\n        /* \"contracts/zk_verifier.sol\":5187:5241  mstore(add(_pPairing, 128), calldataload(add(pB, 64))) */\n      mstore\n        /* \"contracts/zk_verifier.sol\":5307:5309  96 */\n      0x60\n        /* \"contracts/zk_verifier.sol\":5303:5305  pB */\n      dup6\n        /* \"contracts/zk_verifier.sol\":5299:5310  add(pB, 96) */\n      add\n        /* \"contracts/zk_verifier.sol\":5286:5311  calldataload(add(pB, 96)) */\n      calldataload\n        /* \"contracts/zk_verifier.sol\":5280:5283  160 */\n      0xa0\n        /* \"contracts/zk_verifier.sol\":5269:5278  _pPairing */\n      dup4\n        /* \"contracts/zk_verifier.sol\":5265:5284  add(_pPairing, 160) */\n      add\n        /* \"contracts/zk_verifier.sol\":5258:5312  mstore(add(_pPairing, 160), calldataload(add(pB, 96))) */\n      mstore\n        /* \"contracts/zk_verifier.sol\":5384:5390  alphax */\n      0x2d4d9aa7e302d9df41749d5507949d05dbea33fbb16c643b22f599a2be6df2e2\n        /* \"contracts/zk_verifier.sol\":5378:5381  192 */\n      0xc0\n        /* \"contracts/zk_verifier.sol\":5367:5376  _pPairing */\n      dup4\n        /* \"contracts/zk_verifier.sol\":5363:5382  add(_pPairing, 192) */\n      add\n        /* \"contracts/zk_verifier.sol\":5356:5391  mstore(add(_pPairing, 192), alphax) */\n      mstore\n        /* \"contracts/zk_verifier.sol\":5436:5442  alphay */\n      0x14bedd503c37ceb061d8ec60209fe345ce89830a19230301f076caff004d1926\n        /* \"contracts/zk_verifier.sol\":5430:5433  224 */\n      0xe0\n        /* \"contracts/zk_verifier.sol\":5419:5428  _pPairing */\n      dup4\n        /* \"contracts/zk_verifier.sol\":5415:5434  add(_pPairing, 224) */\n      add\n        /* \"contracts/zk_verifier.sol\":5408:5443  mstore(add(_pPairing, 224), alphay) */\n      mstore\n        /* \"contracts/zk_verifier.sol\":5514:5520  betax1 */\n      0x0967032fcbf776d1afc985f88877f182d38480a653f2decaa9794cbc3bf3060c\n        /* \"contracts/zk_verifier.sol\":5508:5511  256 */\n      0x0100\n        /* \"contracts/zk_verifier.sol\":5497:5506  _pPairing */\n      dup4\n        /* \"contracts/zk_verifier.sol\":5493:5512  add(_pPairing, 256) */\n      add\n        /* \"contracts/zk_verifier.sol\":5486:5521  mstore(add(_pPairing, 256), betax1) */\n      mstore\n        /* \"contracts/zk_verifier.sol\":5566:5572  betax2 */\n      0x0e187847ad4c798374d0d6732bf501847dd68bc0e071241e0213bc7fc13db7ab\n        /* \"contracts/zk_verifier.sol\":5560:5563  288 */\n      0x0120\n        /* \"contracts/zk_verifier.sol\":5549:5558  _pPairing */\n      dup4\n        /* \"contracts/zk_verifier.sol\":5545:5564  add(_pPairing, 288) */\n      add\n        /* \"contracts/zk_verifier.sol\":5538:5573  mstore(add(_pPairing, 288), betax2) */\n      mstore\n        /* \"contracts/zk_verifier.sol\":5618:5624  betay1 */\n      0x304cfbd1e08a704a99f5e847d93f8c3caafddec46b7a0d379da69a4d112346a7\n        /* \"contracts/zk_verifier.sol\":5612:5615  320 */\n      0x0140\n        /* \"contracts/zk_verifier.sol\":5601:5610  _pPairing */\n      dup4\n        /* \"contracts/zk_verifier.sol\":5597:5616  add(_pPairing, 320) */\n      add\n        /* \"contracts/zk_verifier.sol\":5590:5625  mstore(add(_pPairing, 320), betay1) */\n      mstore\n        /* \"contracts/zk_verifier.sol\":5670:5676  betay2 */\n      0x1739c1b1a457a8c7313123d24d2f9192f896b7c63eea05a9d57f06547ad0cec8\n        /* \"contracts/zk_verifier.sol\":5664:5667  352 */\n      0x0160\n        /* \"contracts/zk_verifier.sol\":5653:5662  _pPairing */\n      dup4\n        /* \"contracts/zk_verifier.sol\":5649:5668  add(_pPairing, 352) */\n      add\n        /* \"contracts/zk_verifier.sol\":5642:5677  mstore(add(_pPairing, 352), betay2) */\n      mstore\n        /* \"contracts/zk_verifier.sol\":5763:5766  pVk */\n      0x00\n        /* \"contracts/zk_verifier.sol\":5757:5761  pMem */\n      dup9\n        /* \"contracts/zk_verifier.sol\":5753:5767  add(pMem, pVk) */\n      add\n        /* \"contracts/zk_verifier.sol\":5747:5768  mload(add(pMem, pVk)) */\n      mload\n        /* \"contracts/zk_verifier.sol\":5741:5744  384 */\n      0x0180\n        /* \"contracts/zk_verifier.sol\":5730:5739  _pPairing */\n      dup4\n        /* \"contracts/zk_verifier.sol\":5726:5745  add(_pPairing, 384) */\n      add\n        /* \"contracts/zk_verifier.sol\":5719:5769  mstore(add(_pPairing, 384), mload(add(pMem, pVk))) */\n      mstore\n        /* \"contracts/zk_verifier.sol\":5839:5841  32 */\n      0x20\n        /* \"contracts/zk_verifier.sol\":5834:5837  pVk */\n      0x00\n        /* \"contracts/zk_verifier.sol\":5830:5842  add(pVk, 32) */\n      add\n        /* \"contracts/zk_verifier.sol\":5824:5828  pMem */\n      dup9\n        /* \"contracts/zk_verifier.sol\":5820:5843  add(pMem, add(pVk, 32)) */\n      add\n        /* \"contracts/zk_verifier.sol\":5814:5844  mload(add(pMem, add(pVk, 32))) */\n      mload\n        /* \"contracts/zk_verifier.sol\":5808:5811  416 */\n      0x01a0\n        /* \"contracts/zk_verifier.sol\":5797:5806  _pPairing */\n      dup4\n        /* \"contracts/zk_verifier.sol\":5793:5812  add(_pPairing, 416) */\n      add\n        /* \"contracts/zk_verifier.sol\":5786:5845  mstore(add(_pPairing, 416), mload(add(pMem, add(pVk, 32)))) */\n      mstore\n        /* \"contracts/zk_verifier.sol\":5918:5925  gammax1 */\n      0x198e9393920d483a7260bfb731fb5d25f1aa493335a9e71297e485b7aef312c2\n        /* \"contracts/zk_verifier.sol\":5912:5915  448 */\n      0x01c0\n        /* \"contracts/zk_verifier.sol\":5901:5910  _pPairing */\n      dup4\n        /* \"contracts/zk_verifier.sol\":5897:5916  add(_pPairing, 448) */\n      add\n        /* \"contracts/zk_verifier.sol\":5890:5926  mstore(add(_pPairing, 448), gammax1) */\n      mstore\n        /* \"contracts/zk_verifier.sol\":5971:5978  gammax2 */\n      0x1800deef121f1e76426a00665e5c4479674322d4f75edadd46debd5cd992f6ed\n        /* \"contracts/zk_verifier.sol\":5965:5968  480 */\n      0x01e0\n        /* \"contracts/zk_verifier.sol\":5954:5963  _pPairing */\n      dup4\n        /* \"contracts/zk_verifier.sol\":5950:5969  add(_pPairing, 480) */\n      add\n        /* \"contracts/zk_verifier.sol\":5943:5979  mstore(add(_pPairing, 480), gammax2) */\n      mstore\n        /* \"contracts/zk_verifier.sol\":6024:6031  gammay1 */\n      0x090689d0585ff075ec9e99ad690c3395bc4b313370b38ef355acdadcd122975b\n        /* \"contracts/zk_verifier.sol\":6018:6021  512 */\n      0x0200\n        /* \"contracts/zk_verifier.sol\":6007:6016  _pPairing */\n      dup4\n        /* \"contracts/zk_verifier.sol\":6003:6022  add(_pPairing, 512) */\n      add\n        /* \"contracts/zk_verifier.sol\":5996:6032  mstore(add(_pPairing, 512), gammay1) */\n      mstore\n        /* \"contracts/zk_verifier.sol\":6077:6084  gammay2 */\n      0x12c85ea5db8c6deb4aab71808dcb408fe3d1e7690c43d37b4ce6cc0166fa7daa\n        /* \"contracts/zk_verifier.sol\":6071:6074  544 */\n      0x0220\n        /* \"contracts/zk_verifier.sol\":6060:6069  _pPairing */\n      dup4\n        /* \"contracts/zk_verifier.sol\":6056:6075  add(_pPairing, 544) */\n      add\n        /* \"contracts/zk_verifier.sol\":6049:6085  mstore(add(_pPairing, 544), gammay2) */\n      mstore\n        /* \"contracts/zk_verifier.sol\":6165:6167  pC */\n      dup6\n        /* \"contracts/zk_verifier.sol\":6152:6168  calldataload(pC) */\n      calldataload\n        /* \"contracts/zk_verifier.sol\":6146:6149  576 */\n      0x0240\n        /* \"contracts/zk_verifier.sol\":6135:6144  _pPairing */\n      dup4\n        /* \"contracts/zk_verifier.sol\":6131:6150  add(_pPairing, 576) */\n      add\n        /* \"contracts/zk_verifier.sol\":6124:6169  mstore(add(_pPairing, 576), calldataload(pC)) */\n      mstore\n        /* \"contracts/zk_verifier.sol\":6235:6237  32 */\n      0x20\n        /* \"contracts/zk_verifier.sol\":6231:6233  pC */\n      dup7\n        /* \"contracts/zk_verifier.sol\":6227:6238  add(pC, 32) */\n      add\n        /* \"contracts/zk_verifier.sol\":6214:6239  calldataload(add(pC, 32)) */\n      calldataload\n        /* \"contracts/zk_verifier.sol\":6208:6211  608 */\n      0x0260\n        /* \"contracts/zk_verifier.sol\":6197:6206  _pPairing */\n      dup4\n        /* \"contracts/zk_verifier.sol\":6193:6212  add(_pPairing, 608) */\n      add\n        /* \"contracts/zk_verifier.sol\":6186:6240  mstore(add(_pPairing, 608), calldataload(add(pC, 32))) */\n      mstore\n        /* \"contracts/zk_verifier.sol\":6312:6319  deltax1 */\n      0x1f096ccae4bde0977cb3efdeb6fd1c14c109739ff8e51d8e4bf4fac1ffac8028\n        /* \"contracts/zk_verifier.sol\":6306:6309  640 */\n      0x0280\n        /* \"contracts/zk_verifier.sol\":6295:6304  _pPairing */\n      dup4\n        /* \"contracts/zk_verifier.sol\":6291:6310  add(_pPairing, 640) */\n      add\n        /* \"contracts/zk_verifier.sol\":6284:6320  mstore(add(_pPairing, 640), deltax1) */\n      mstore\n        /* \"contracts/zk_verifier.sol\":6365:6372  deltax2 */\n      0x17cf92d38c49893a5bfff7960168a621c5448bc7e640bdb377d2e9b038aa5cb4\n        /* \"contracts/zk_verifier.sol\":6359:6362  672 */\n      0x02a0\n        /* \"contracts/zk_verifier.sol\":6348:6357  _pPairing */\n      dup4\n        /* \"contracts/zk_verifier.sol\":6344:6363  add(_pPairing, 672) */\n      add\n        /* \"contracts/zk_verifier.sol\":6337:6373  mstore(add(_pPairing, 672), deltax2) */\n      mstore\n        /* \"contracts/zk_verifier.sol\":6418:6425  deltay1 */\n      0xb77ee2c968a2f372197d52a695c3933ca1adb8eb7386765eea356a1ac0a04e\n        /* \"contracts/zk_verifier.sol\":6412:6415  704 */\n      0x02c0\n        /* \"contracts/zk_verifier.sol\":6401:6410  _pPairing */\n      dup4\n        /* \"contracts/zk_verifier.sol\":6397:6416  add(_pPairing, 704) */\n      add\n        /* \"contracts/zk_verifier.sol\":6390:6426  mstore(add(_pPairing, 704), deltay1) */\n      mstore\n        /* \"contracts/zk_verifier.sol\":6471:6478  deltay2 */\n      0x12cca76672fe017035b8408f80ada6c9502542dd650c0467d7cad5d6d1c6e8e3\n        /* \"contracts/zk_verifier.sol\":6465:6468  736 */\n      0x02e0\n        /* \"contracts/zk_verifier.sol\":6454:6463  _pPairing */\n      dup4\n        /* \"contracts/zk_verifier.sol\":6450:6469  add(_pPairing, 736) */\n      add\n        /* \"contracts/zk_verifier.sol\":6443:6479  mstore(add(_pPairing, 736), deltay2) */\n      mstore\n        /* \"contracts/zk_verifier.sol\":6572:6576  0x20 */\n      0x20\n        /* \"contracts/zk_verifier.sol\":6561:6570  _pPairing */\n      dup3\n        /* \"contracts/zk_verifier.sol\":6556:6559  768 */\n      0x0300\n        /* \"contracts/zk_verifier.sol\":6545:6554  _pPairing */\n      dup5\n        /* \"contracts/zk_verifier.sol\":6542:6543  8 */\n      0x08\n        /* \"contracts/zk_verifier.sol\":6535:6539  2000 */\n      0x07d0\n        /* \"contracts/zk_verifier.sol\":6528:6533  gas() */\n      gas\n        /* \"contracts/zk_verifier.sol\":6524:6540  sub(gas(), 2000) */\n      sub\n        /* \"contracts/zk_verifier.sol\":6513:6577  staticcall(sub(gas(), 2000), 8, _pPairing, 768, _pPairing, 0x20) */\n      staticcall\n        /* \"contracts/zk_verifier.sol\":6622:6631  _pPairing */\n      dup3\n        /* \"contracts/zk_verifier.sol\":6616:6632  mload(_pPairing) */\n      mload\n        /* \"contracts/zk_verifier.sol\":6607:6614  success */\n      dup2\n        /* \"contracts/zk_verifier.sol\":6603:6633  and(success, mload(_pPairing)) */\n      and\n        /* \"contracts/zk_verifier.sol\":6595:6633  isOk := and(success, mload(_pPairing)) */\n      swap4\n      pop\n        /* \"contracts/zk_verifier.sol\":4510:6647  {... */\n      pop\n      pop\n      pop\n        /* \"contracts/zk_verifier.sol\":4450:6647  function checkPairing(pA, pB, pC, pubSignals, pMem) -> isOk {... */\n      swap6\n      swap5\n      pop\n      pop\n      pop\n      pop\n      pop\n      jump\t// out\n    tag_14:\n        /* \"contracts/zk_verifier.sol\":6679:6683  0x40 */\n      0x40\n        /* \"contracts/zk_verifier.sol\":6673:6684  mload(0x40) */\n      mload\n        /* \"contracts/zk_verifier.sol\":6720:6728  pLastMem */\n      0x0380\n        /* \"contracts/zk_verifier.sol\":6714:6718  pMem */\n      dup2\n        /* \"contracts/zk_verifier.sol\":6710:6729  add(pMem, pLastMem) */\n      add\n        /* \"contracts/zk_verifier.sol\":6704:6708  0x40 */\n      0x40\n        /* \"contracts/zk_verifier.sol\":6697:6730  mstore(0x40, add(pMem, pLastMem)) */\n      mstore\n        /* \"contracts/zk_verifier.sol\":6808:6853  checkField(calldataload(add(_pubSignals, 0))) */\n      tag_22\n        /* \"contracts/zk_verifier.sol\":6849:6850  0 */\n      0x00\n        /* \"contracts/zk_verifier.sol\":6836:6847  _pubSignals */\n      dup5\n        /* \"contracts/zk_verifier.sol\":6832:6851  add(_pubSignals, 0) */\n      add\n        /* \"contracts/zk_verifier.sol\":6819:6852  calldataload(add(_pubSignals, 0)) */\n      calldataload\n        /* \"contracts/zk_verifier.sol\":6808:6853  checkField(calldataload(add(_pubSignals, 0))) */\n      tag_11\n      jump\t// in\n    tag_22:\n        /* \"contracts/zk_verifier.sol\":6879:6925  checkField(calldataload(add(_pubSignals, 32))) */\n      tag_23\n        /* \"contracts/zk_verifier.sol\":6920:6922  32 */\n      0x20\n        /* \"contracts/zk_verifier.sol\":6907:6918  _pubSignals */\n      dup5\n        /* \"contracts/zk_verifier.sol\":6903:6923  add(_pubSignals, 32) */\n      add\n        /* \"contracts/zk_verifier.sol\":6890:6924  calldataload(add(_pubSignals, 32)) */\n      calldataload\n        /* \"contracts/zk_verifier.sol\":6879:6925  checkField(calldataload(add(_pubSignals, 32))) */\n      tag_11\n      jump\t// in\n    tag_23:\n        /* \"contracts/zk_verifier.sol\":7007:7053  checkPairing(_pA, _pB, _pC, _pubSignals, pMem) */\n      tag_24\n        /* \"contracts/zk_verifier.sol\":7048:7052  pMem */\n      dup2\n        /* \"contracts/zk_verifier.sol\":7035:7046  _pubSignals */\n      dup5\n        /* \"contracts/zk_verifier.sol\":7030:7033  _pC */\n      dup7\n        /* \"contracts/zk_verifier.sol\":7025:7028  _pB */\n      dup9\n        /* \"contracts/zk_verifier.sol\":7020:7023  _pA */\n      dup11\n        /* \"contracts/zk_verifier.sol\":7007:7053  checkPairing(_pA, _pB, _pC, _pubSignals, pMem) */\n      tag_13\n      jump\t// in\n    tag_24:\n        /* \"contracts/zk_verifier.sol\":7077:7084  isValid */\n      dup1\n        /* \"contracts/zk_verifier.sol\":7074:7075  0 */\n      0x00\n        /* \"contracts/zk_verifier.sol\":7067:7085  mstore(0, isValid) */\n      mstore\n        /* \"contracts/zk_verifier.sol\":7109:7113  0x20 */\n      0x20\n        /* \"contracts/zk_verifier.sol\":7106:7107  0 */\n      0x00\n        /* \"contracts/zk_verifier.sol\":7099:7114  return(0, 0x20) */\n      return\n        /* \"#utility.yul\":88:205   */\n    tag_26:\n        /* \"#utility.yul\":197:198   */\n      0x00\n        /* \"#utility.yul\":194:195   */\n      dup1\n        /* \"#utility.yul\":187:199   */\n      revert\n        /* \"#utility.yul\":334:451   */\n    tag_28:\n        /* \"#utility.yul\":443:444   */\n      0x00\n        /* \"#utility.yul\":440:441   */\n      dup1\n        /* \"#utility.yul\":433:445   */\n      revert\n        /* \"#utility.yul\":475:724   */\n    tag_29:\n        /* \"#utility.yul\":546:554   */\n      0x00\n        /* \"#utility.yul\":577:583   */\n      dup2\n        /* \"#utility.yul\":565:583   */\n      swap1\n      pop\n        /* \"#utility.yul\":630:633   */\n      dup3\n        /* \"#utility.yul\":622:626   */\n      0x20\n        /* \"#utility.yul\":616:620   */\n      0x02\n        /* \"#utility.yul\":612:627   */\n      mul\n        /* \"#utility.yul\":602:610   */\n      dup3\n        /* \"#utility.yul\":598:628   */\n      add\n        /* \"#utility.yul\":595:634   */\n      gt\n        /* \"#utility.yul\":592:718   */\n      iszero\n      tag_40\n      jumpi\n        /* \"#utility.yul\":637:716   */\n      tag_41\n      tag_28\n      jump\t// in\n    tag_41:\n        /* \"#utility.yul\":592:718   */\n    tag_40:\n        /* \"#utility.yul\":475:724   */\n      swap3\n      swap2\n      pop\n      pop\n      jump\t// out\n        /* \"#utility.yul\":751:1025   */\n    tag_30:\n        /* \"#utility.yul\":847:855   */\n      0x00\n        /* \"#utility.yul\":878:884   */\n      dup2\n        /* \"#utility.yul\":866:884   */\n      swap1\n      pop\n        /* \"#utility.yul\":931:934   */\n      dup3\n        /* \"#utility.yul\":923:927   */\n      0x40\n        /* \"#utility.yul\":917:921   */\n      0x02\n        /* \"#utility.yul\":913:928   */\n      mul\n        /* \"#utility.yul\":903:911   */\n      dup3\n        /* \"#utility.yul\":899:929   */\n      add\n        /* \"#utility.yul\":896:935   */\n      gt\n        /* \"#utility.yul\":893:1019   */\n      iszero\n      tag_43\n      jumpi\n        /* \"#utility.yul\":938:1017   */\n      tag_44\n      tag_28\n      jump\t// in\n    tag_44:\n        /* \"#utility.yul\":893:1019   */\n    tag_43:\n        /* \"#utility.yul\":751:1025   */\n      swap3\n      swap2\n      pop\n      pop\n      jump\t// out\n        /* \"#utility.yul\":1049:1298   */\n    tag_31:\n        /* \"#utility.yul\":1120:1128   */\n      0x00\n        /* \"#utility.yul\":1151:1157   */\n      dup2\n        /* \"#utility.yul\":1139:1157   */\n      swap1\n      pop\n        /* \"#utility.yul\":1204:1207   */\n      dup3\n        /* \"#utility.yul\":1196:1200   */\n      0x20\n        /* \"#utility.yul\":1190:1194   */\n      0x01\n        /* \"#utility.yul\":1186:1201   */\n      mul\n        /* \"#utility.yul\":1176:1184   */\n      dup3\n        /* \"#utility.yul\":1172:1202   */\n      add\n        /* \"#utility.yul\":1169:1208   */\n      gt\n        /* \"#utility.yul\":1166:1292   */\n      iszero\n      tag_46\n      jumpi\n        /* \"#utility.yul\":1211:1290   */\n      tag_47\n      tag_28\n      jump\t// in\n    tag_47:\n        /* \"#utility.yul\":1166:1292   */\n    tag_46:\n        /* \"#utility.yul\":1049:1298   */\n      swap3\n      swap2\n      pop\n      pop\n      jump\t// out\n        /* \"#utility.yul\":1304:2321   */\n    tag_6:\n        /* \"#utility.yul\":1515:1521   */\n      0x00\n        /* \"#utility.yul\":1523:1529   */\n      dup1\n        /* \"#utility.yul\":1531:1537   */\n      0x00\n        /* \"#utility.yul\":1539:1545   */\n      dup1\n        /* \"#utility.yul\":1588:1591   */\n      0x0120\n        /* \"#utility.yul\":1576:1585   */\n      dup6\n        /* \"#utility.yul\":1567:1574   */\n      dup8\n        /* \"#utility.yul\":1563:1586   */\n      sub\n        /* \"#utility.yul\":1559:1592   */\n      slt\n        /* \"#utility.yul\":1556:1676   */\n      iszero\n      tag_49\n      jumpi\n        /* \"#utility.yul\":1595:1674   */\n      tag_50\n      tag_26\n      jump\t// in\n    tag_50:\n        /* \"#utility.yul\":1556:1676   */\n    tag_49:\n        /* \"#utility.yul\":1715:1716   */\n      0x00\n        /* \"#utility.yul\":1740:1818   */\n      tag_51\n        /* \"#utility.yul\":1810:1817   */\n      dup8\n        /* \"#utility.yul\":1801:1807   */\n      dup3\n        /* \"#utility.yul\":1790:1799   */\n      dup9\n        /* \"#utility.yul\":1786:1808   */\n      add\n        /* \"#utility.yul\":1740:1818   */\n      tag_29\n      jump\t// in\n    tag_51:\n        /* \"#utility.yul\":1730:1818   */\n      swap5\n      pop\n        /* \"#utility.yul\":1686:1828   */\n      pop\n        /* \"#utility.yul\":1867:1869   */\n      0x40\n        /* \"#utility.yul\":1893:1996   */\n      tag_52\n        /* \"#utility.yul\":1988:1995   */\n      dup8\n        /* \"#utility.yul\":1979:1985   */\n      dup3\n        /* \"#utility.yul\":1968:1977   */\n      dup9\n        /* \"#utility.yul\":1964:1986   */\n      add\n        /* \"#utility.yul\":1893:1996   */\n      tag_30\n      jump\t// in\n    tag_52:\n        /* \"#utility.yul\":1883:1996   */\n      swap4\n      pop\n        /* \"#utility.yul\":1838:2006   */\n      pop\n        /* \"#utility.yul\":2045:2048   */\n      0xc0\n        /* \"#utility.yul\":2072:2150   */\n      tag_53\n        /* \"#utility.yul\":2142:2149   */\n      dup8\n        /* \"#utility.yul\":2133:2139   */\n      dup3\n        /* \"#utility.yul\":2122:2131   */\n      dup9\n        /* \"#utility.yul\":2118:2140   */\n      add\n        /* \"#utility.yul\":2072:2150   */\n      tag_29\n      jump\t// in\n    tag_53:\n        /* \"#utility.yul\":2062:2150   */\n      swap3\n      pop\n        /* \"#utility.yul\":2016:2160   */\n      pop\n        /* \"#utility.yul\":2199:2202   */\n      0x0100\n        /* \"#utility.yul\":2226:2304   */\n      tag_54\n        /* \"#utility.yul\":2296:2303   */\n      dup8\n        /* \"#utility.yul\":2287:2293   */\n      dup3\n        /* \"#utility.yul\":2276:2285   */\n      dup9\n        /* \"#utility.yul\":2272:2294   */\n      add\n        /* \"#utility.yul\":2226:2304   */\n      tag_31\n      jump\t// in\n    tag_54:\n        /* \"#utility.yul\":2216:2304   */\n      swap2\n      pop\n        /* \"#utility.yul\":2170:2314   */\n      pop\n        /* \"#utility.yul\":1304:2321   */\n      swap3\n      swap6\n      swap2\n      swap5\n      pop\n      swap3\n      pop\n      jump\t// out\n        /* \"#utility.yul\":2327:2417   */\n    tag_32:\n        /* \"#utility.yul\":2361:2368   */\n      0x00\n        /* \"#utility.yul\":2404:2409   */\n      dup2\n        /* \"#utility.yul\":2397:2410   */\n      iszero\n        /* \"#utility.yul\":2390:2411   */\n      iszero\n        /* \"#utility.yul\":2379:2411   */\n      swap1\n      pop\n        /* \"#utility.yul\":2327:2417   */\n      swap2\n      swap1\n      pop\n      jump\t// out\n        /* \"#utility.yul\":2423:2532   */\n    tag_33:\n        /* \"#utility.yul\":2504:2525   */\n      tag_57\n        /* \"#utility.yul\":2519:2524   */\n      dup2\n        /* \"#utility.yul\":2504:2525   */\n      tag_32\n      jump\t// in\n    tag_57:\n        /* \"#utility.yul\":2499:2502   */\n      dup3\n        /* \"#utility.yul\":2492:2526   */\n      mstore\n        /* \"#utility.yul\":2423:2532   */\n      pop\n      pop\n      jump\t// out\n        /* \"#utility.yul\":2538:2748   */\n    tag_9:\n        /* \"#utility.yul\":2625:2629   */\n      0x00\n        /* \"#utility.yul\":2663:2665   */\n      0x20\n        /* \"#utility.yul\":2652:2661   */\n      dup3\n        /* \"#utility.yul\":2648:2666   */\n      add\n        /* \"#utility.yul\":2640:2666   */\n      swap1\n      pop\n        /* \"#utility.yul\":2676:2741   */\n      tag_59\n        /* \"#utility.yul\":2738:2739   */\n      0x00\n        /* \"#utility.yul\":2727:2736   */\n      dup4\n        /* \"#utility.yul\":2723:2740   */\n      add\n        /* \"#utility.yul\":2714:2720   */\n      dup5\n        /* \"#utility.yul\":2676:2741   */\n      tag_33\n      jump\t// in\n    tag_59:\n        /* \"#utility.yul\":2538:2748   */\n      swap3\n      swap2\n      pop\n      pop\n      jump\t// out\n\n    auxdata: 0xa2646970667358221220165c69ed24d3a88dc96537a11e959d6acdce5a55b977aaab14f6290c06b4918064736f6c63430008150033\n}\n",
				"bytecode": {
					"linkReferences": {},
					"object": "608060405234801561000f575f80fd5b506105ef8061001d5f395ff3fe608060405234801561000f575f80fd5b5060043610610029575f3560e01c806343753b4d1461002d575b5f80fd5b61004760048036038101906100429190610520565b61005d565b60405161005491906105a0565b60405180910390f35b5f61047c565b7f30644e72e131a029b85045b68181585d97816a916871ca8d3c208c16d87cfd478110610092575f805260205ff35b50565b5f60405183815284602082015285604082015260408160608360076107d05a03fa9150816100c5575f805260205ff35b825160408201526020830151606082015260408360808360066107d05a03fa9150816100f3575f805260205ff35b505050505050565b5f608086015f87017f280b36333452e736953e432da5cf92ccc3e3cc929a1fa9cfede521961c3220e181527f0e677b2c5dab1b116c83dc257e454df6eae7699744d9ea02d04d2fd090b852cd602082015261019b5f8801357f1d2a94c01c1cffe801749424fd27a6695f9ae04a2bd96d9ebce09111310d916c7f15a1868ebf8be56cd7cc6440b0092452d826b1500c145e4559a44e7fc8960f3184610095565b833582527f30644e72e131a029b85045b68181585d97816a916871ca8d3c208c16d87cfd4760208501357f30644e72e131a029b85045b68181585d97816a916871ca8d3c208c16d87cfd4703066020830152843560408301526020850135606083015260408501356080830152606085013560a08301527f2d4d9aa7e302d9df41749d5507949d05dbea33fbb16c643b22f599a2be6df2e260c08301527f14bedd503c37ceb061d8ec60209fe345ce89830a19230301f076caff004d192660e08301527f0967032fcbf776d1afc985f88877f182d38480a653f2decaa9794cbc3bf3060c6101008301527f0e187847ad4c798374d0d6732bf501847dd68bc0e071241e0213bc7fc13db7ab6101208301527f304cfbd1e08a704a99f5e847d93f8c3caafddec46b7a0d379da69a4d112346a76101408301527f1739c1b1a457a8c7313123d24d2f9192f896b7c63eea05a9d57f06547ad0cec86101608301525f88015161018083015260205f018801516101a08301527f198e9393920d483a7260bfb731fb5d25f1aa493335a9e71297e485b7aef312c26101c08301527f1800deef121f1e76426a00665e5c4479674322d4f75edadd46debd5cd992f6ed6101e08301527f090689d0585ff075ec9e99ad690c3395bc4b313370b38ef355acdadcd122975b6102008301527f12c85ea5db8c6deb4aab71808dcb408fe3d1e7690c43d37b4ce6cc0166fa7daa610220830152853561024083015260208601356102608301527f1f096ccae4bde0977cb3efdeb6fd1c14c109739ff8e51d8e4bf4fac1ffac80286102808301527f17cf92d38c49893a5bfff7960168a621c5448bc7e640bdb377d2e9b038aa5cb46102a08301527eb77ee2c968a2f372197d52a695c3933ca1adb8eb7386765eea356a1ac0a04e6102c08301527f12cca76672fe017035b8408f80ada6c9502542dd650c0467d7cad5d6d1c6e8e36102e08301526020826103008460086107d05a03fa82518116935050505095945050505050565b60405161038081016040526104935f840135610063565b6104a06020840135610063565b6104ad818486888a6100fb565b805f5260205ff35b5f80fd5b5f80fd5b5f819050826020600202820111156104d8576104d76104b9565b5b92915050565b5f819050826040600202820111156104f9576104f86104b9565b5b92915050565b5f8190508260206001028201111561051a576105196104b9565b5b92915050565b5f805f806101208587031215610539576105386104b5565b5b5f610546878288016104bd565b9450506040610557878288016104de565b93505060c0610568878288016104bd565b92505061010061057a878288016104ff565b91505092959194509250565b5f8115159050919050565b61059a81610586565b82525050565b5f6020820190506105b35f830184610591565b9291505056fea2646970667358221220165c69ed24d3a88dc96537a11e959d6acdce5a55b977aaab14f6290c06b4918064736f6c63430008150033",
					"opcodes": "PUSH1 0x80 PUSH1 0x40 MSTORE CALLVALUE DUP1 ISZERO PUSH2 0xF JUMPI PUSH0 DUP1 REVERT JUMPDEST POP PUSH2 0x5EF DUP1 PUSH2 0x1D PUSH0 CODECOPY PUSH0 RETURN INVALID PUSH1 0x80 PUSH1 0x40 MSTORE CALLVALUE DUP1 ISZERO PUSH2 0xF JUMPI PUSH0 DUP1 REVERT JUMPDEST POP PUSH1 0x4 CALLDATASIZE LT PUSH2 0x29 JUMPI PUSH0 CALLDATALOAD PUSH1 0xE0 SHR DUP1 PUSH4 0x43753B4D EQ PUSH2 0x2D JUMPI JUMPDEST PUSH0 DUP1 REVERT JUMPDEST PUSH2 0x47 PUSH1 0x4 DUP1 CALLDATASIZE SUB DUP2 ADD SWAP1 PUSH2 0x42 SWAP2 SWAP1 PUSH2 0x520 JUMP JUMPDEST PUSH2 0x5D JUMP JUMPDEST PUSH1 0x40 MLOAD PUSH2 0x54 SWAP2 SWAP1 PUSH2 0x5A0 JUMP JUMPDEST PUSH1 0x40 MLOAD DUP1 SWAP2 SUB SWAP1 RETURN JUMPDEST PUSH0 PUSH2 0x47C JUMP JUMPDEST PUSH32 0x30644E72E131A029B85045B68181585D97816A916871CA8D3C208C16D87CFD47 DUP2 LT PUSH2 0x92 JUMPI PUSH0 DUP1 MSTORE PUSH1 0x20 PUSH0 RETURN JUMPDEST POP JUMP JUMPDEST PUSH0 PUSH1 0x40 MLOAD DUP4 DUP2 MSTORE DUP5 PUSH1 0x20 DUP3 ADD MSTORE DUP6 PUSH1 0x40 DUP3 ADD MSTORE PUSH1 0x40 DUP2 PUSH1 0x60 DUP4 PUSH1 0x7 PUSH2 0x7D0 GAS SUB STATICCALL SWAP2 POP DUP2 PUSH2 0xC5 JUMPI PUSH0 DUP1 MSTORE PUSH1 0x20 PUSH0 RETURN JUMPDEST DUP3 MLOAD PUSH1 0x40 DUP3 ADD MSTORE PUSH1 0x20 DUP4 ADD MLOAD PUSH1 0x60 DUP3 ADD MSTORE PUSH1 0x40 DUP4 PUSH1 0x80 DUP4 PUSH1 0x6 PUSH2 0x7D0 GAS SUB STATICCALL SWAP2 POP DUP2 PUSH2 0xF3 JUMPI PUSH0 DUP1 MSTORE PUSH1 0x20 PUSH0 RETURN JUMPDEST POP POP POP POP POP POP JUMP JUMPDEST PUSH0 PUSH1 0x80 DUP7 ADD PUSH0 DUP8 ADD PUSH32 0x280B36333452E736953E432DA5CF92CCC3E3CC929A1FA9CFEDE521961C3220E1 DUP2 MSTORE PUSH32 0xE677B2C5DAB1B116C83DC257E454DF6EAE7699744D9EA02D04D2FD090B852CD PUSH1 0x20 DUP3 ADD MSTORE PUSH2 0x19B PUSH0 DUP9 ADD CALLDATALOAD PUSH32 0x1D2A94C01C1CFFE801749424FD27A6695F9AE04A2BD96D9EBCE09111310D916C PUSH32 0x15A1868EBF8BE56CD7CC6440B0092452D826B1500C145E4559A44E7FC8960F31 DUP5 PUSH2 0x95 JUMP JUMPDEST DUP4 CALLDATALOAD DUP3 MSTORE PUSH32 0x30644E72E131A029B85045B68181585D97816A916871CA8D3C208C16D87CFD47 PUSH1 0x20 DUP6 ADD CALLDATALOAD PUSH32 0x30644E72E131A029B85045B68181585D97816A916871CA8D3C208C16D87CFD47 SUB MOD PUSH1 0x20 DUP4 ADD MSTORE DUP5 CALLDATALOAD PUSH1 0x40 DUP4 ADD MSTORE PUSH1 0x20 DUP6 ADD CALLDATALOAD PUSH1 0x60 DUP4 ADD MSTORE PUSH1 0x40 DUP6 ADD CALLDATALOAD PUSH1 0x80 DUP4 ADD MSTORE PUSH1 0x60 DUP6 ADD CALLDATALOAD PUSH1 0xA0 DUP4 ADD MSTORE PUSH32 0x2D4D9AA7E302D9DF41749D5507949D05DBEA33FBB16C643B22F599A2BE6DF2E2 PUSH1 0xC0 DUP4 ADD MSTORE PUSH32 0x14BEDD503C37CEB061D8EC60209FE345CE89830A19230301F076CAFF004D1926 PUSH1 0xE0 DUP4 ADD MSTORE PUSH32 0x967032FCBF776D1AFC985F88877F182D38480A653F2DECAA9794CBC3BF3060C PUSH2 0x100 DUP4 ADD MSTORE PUSH32 0xE187847AD4C798374D0D6732BF501847DD68BC0E071241E0213BC7FC13DB7AB PUSH2 0x120 DUP4 ADD MSTORE PUSH32 0x304CFBD1E08A704A99F5E847D93F8C3CAAFDDEC46B7A0D379DA69A4D112346A7 PUSH2 0x140 DUP4 ADD MSTORE PUSH32 0x1739C1B1A457A8C7313123D24D2F9192F896B7C63EEA05A9D57F06547AD0CEC8 PUSH2 0x160 DUP4 ADD MSTORE PUSH0 DUP9 ADD MLOAD PUSH2 0x180 DUP4 ADD MSTORE PUSH1 0x20 PUSH0 ADD DUP9 ADD MLOAD PUSH2 0x1A0 DUP4 ADD MSTORE PUSH32 0x198E9393920D483A7260BFB731FB5D25F1AA493335A9E71297E485B7AEF312C2 PUSH2 0x1C0 DUP4 ADD MSTORE PUSH32 0x1800DEEF121F1E76426A00665E5C4479674322D4F75EDADD46DEBD5CD992F6ED PUSH2 0x1E0 DUP4 ADD MSTORE PUSH32 0x90689D0585FF075EC9E99AD690C3395BC4B313370B38EF355ACDADCD122975B PUSH2 0x200 DUP4 ADD MSTORE PUSH32 0x12C85EA5DB8C6DEB4AAB71808DCB408FE3D1E7690C43D37B4CE6CC0166FA7DAA PUSH2 0x220 DUP4 ADD MSTORE DUP6 CALLDATALOAD PUSH2 0x240 DUP4 ADD MSTORE PUSH1 0x20 DUP7 ADD CALLDATALOAD PUSH2 0x260 DUP4 ADD MSTORE PUSH32 0x1F096CCAE4BDE0977CB3EFDEB6FD1C14C109739FF8E51D8E4BF4FAC1FFAC8028 PUSH2 0x280 DUP4 ADD MSTORE PUSH32 0x17CF92D38C49893A5BFFF7960168A621C5448BC7E640BDB377D2E9B038AA5CB4 PUSH2 0x2A0 DUP4 ADD MSTORE PUSH31 0xB77EE2C968A2F372197D52A695C3933CA1ADB8EB7386765EEA356A1AC0A04E PUSH2 0x2C0 DUP4 ADD MSTORE PUSH32 0x12CCA76672FE017035B8408F80ADA6C9502542DD650C0467D7CAD5D6D1C6E8E3 PUSH2 0x2E0 DUP4 ADD MSTORE PUSH1 0x20 DUP3 PUSH2 0x300 DUP5 PUSH1 0x8 PUSH2 0x7D0 GAS SUB STATICCALL DUP3 MLOAD DUP2 AND SWAP4 POP POP POP POP SWAP6 SWAP5 POP POP POP POP POP JUMP JUMPDEST PUSH1 0x40 MLOAD PUSH2 0x380 DUP2 ADD PUSH1 0x40 MSTORE PUSH2 0x493 PUSH0 DUP5 ADD CALLDATALOAD PUSH2 0x63 JUMP JUMPDEST PUSH2 0x4A0 PUSH1 0x20 DUP5 ADD CALLDATALOAD PUSH2 0x63 JUMP JUMPDEST PUSH2 0x4AD DUP2 DUP5 DUP7 DUP9 DUP11 PUSH2 0xFB JUMP JUMPDEST DUP1 PUSH0 MSTORE PUSH1 0x20 PUSH0 RETURN JUMPDEST PUSH0 DUP1 REVERT JUMPDEST PUSH0 DUP1 REVERT JUMPDEST PUSH0 DUP2 SWAP1 POP DUP3 PUSH1 0x20 PUSH1 0x2 MUL DUP3 ADD GT ISZERO PUSH2 0x4D8 JUMPI PUSH2 0x4D7 PUSH2 0x4B9 JUMP JUMPDEST JUMPDEST SWAP3 SWAP2 POP POP JUMP JUMPDEST PUSH0 DUP2 SWAP1 POP DUP3 PUSH1 0x40 PUSH1 0x2 MUL DUP3 ADD GT ISZERO PUSH2 0x4F9 JUMPI PUSH2 0x4F8 PUSH2 0x4B9 JUMP JUMPDEST JUMPDEST SWAP3 SWAP2 POP POP JUMP JUMPDEST PUSH0 DUP2 SWAP1 POP DUP3 PUSH1 0x20 PUSH1 0x1 MUL DUP3 ADD GT ISZERO PUSH2 0x51A JUMPI PUSH2 0x519 PUSH2 0x4B9 JUMP JUMPDEST JUMPDEST SWAP3 SWAP2 POP POP JUMP JUMPDEST PUSH0 DUP1 PUSH0 DUP1 PUSH2 0x120 DUP6 DUP8 SUB SLT ISZERO PUSH2 0x539 JUMPI PUSH2 0x538 PUSH2 0x4B5 JUMP JUMPDEST JUMPDEST PUSH0 PUSH2 0x546 DUP8 DUP3 DUP9 ADD PUSH2 0x4BD JUMP JUMPDEST SWAP5 POP POP PUSH1 0x40 PUSH2 0x557 DUP8 DUP3 DUP9 ADD PUSH2 0x4DE JUMP JUMPDEST SWAP4 POP POP PUSH1 0xC0 PUSH2 0x568 DUP8 DUP3 DUP9 ADD PUSH2 0x4BD JUMP JUMPDEST SWAP3 POP POP PUSH2 0x100 PUSH2 0x57A DUP8 DUP3 DUP9 ADD PUSH2 0x4FF JUMP JUMPDEST SWAP2 POP POP SWAP3 SWAP6 SWAP2 SWAP5 POP SWAP3 POP JUMP JUMPDEST PUSH0 DUP2 ISZERO ISZERO SWAP1 POP SWAP2 SWAP1 POP JUMP JUMPDEST PUSH2 0x59A DUP2 PUSH2 0x586 JUMP JUMPDEST DUP3 MSTORE POP POP JUMP JUMPDEST PUSH0 PUSH1 0x20 DUP3 ADD SWAP1 POP PUSH2 0x5B3 PUSH0 DUP4 ADD DUP5 PUSH2 0x591 JUMP JUMPDEST SWAP3 SWAP2 POP POP JUMP INVALID LOG2 PUSH5 0x6970667358 0x22 SLT KECCAK256 AND 0x5C PUSH10 0xED24D3A88DC96537A11E SWAP6 SWAP14 PUSH11 0xCDCE5A55B977AAAB14F629 0xC MOD 0xB4 SWAP2 DUP1 PUSH5 0x736F6C6343 STOP ADDMOD ISZERO STOP CALLER "
				},
				"gasEstimates": {
					"creation": {
						"codeDepositCost": "303800",
						"executionCost": "341",
						"totalCost": "304141"
					},
					"external": {
						"verifyProof(uint256[2],uint256[2][2],uint256[2],uint256[1])": "infinite"
					}
				},
				"methodIdentifiers": {
					"verifyProof(uint256[2],uint256[2][2],uint256[2],uint256[1])": "43753b4d"
				}
			},
			"storageLayout": {
				"storage": [],
				"types": null
			},
			"userdoc": {
				"kind": "user",
				"methods": {},
				"version": 1
			}
		}
	}
}