{
	"contracts/artifacts/verifier.sol": {
		"Verifier": {
			"abi": [
				{
					"inputs": [
						{
							"components": [
								{
									"components": [
										{
											"internalType": "uint256",
											"name": "X",
											"type": "uint256"
										},
										{
											"internalType": "uint256",
											"name": "Y",
											"type": "uint256"
										}
									],
									"internalType": "struct Pairing.G1Point",
									"name": "a",
									"type": "tuple"
								},
								{
									"components": [
										{
											"internalType": "uint256[2]",
											"name": "X",
											"type": "uint256[2]"
										},
										{
											"internalType": "uint256[2]",
											"name": "Y",
											"type": "uint256[2]"
										}
									],
									"internalType": "struct Pairing.G2Point",
									"name": "b",
									"type": "tuple"
								},
								{
									"components": [
										{
											"internalType": "uint256",
											"name": "X",
											"type": "uint256"
										},
										{
											"internalType": "uint256",
											"name": "Y",
											"type": "uint256"
										}
									],
									"internalType": "struct Pairing.G1Point",
									"name": "c",
									"type": "tuple"
								}
							],
							"internalType": "struct Verifier.Proof",
							"name": "proof",
							"type": "tuple"
						},
						{
							"internalType": "uint256[3]",
							"name": "input",
							"type": "uint256[3]"
						}
					],
					"name": "verifyTx",
					"outputs": [
						{
							"internalType": "bool",
							"name": "r",
							"type": "bool"
						}
					],
					"stateMutability": "view",
					"type": "function"
				}
			],
			"devdoc": {
				"kind": "dev",
				"methods": {},
				"version": 1
			},
			"evm": {
				"assembly": "    /* \"contracts/artifacts/verifier.sol\":6234:10062  contract Verifier {... */\n  mstore(0x40, 0x80)\n  callvalue\n  dup1\n  iszero\n  tag_1\n  jumpi\n  0x00\n  dup1\n  revert\ntag_1:\n  pop\n  dataSize(sub_0)\n  dup1\n  dataOffset(sub_0)\n  0x00\n  codecopy\n  0x00\n  return\nstop\n\nsub_0: assembly {\n        /* \"contracts/artifacts/verifier.sol\":6234:10062  contract Verifier {... */\n      mstore(0x40, 0x80)\n      callvalue\n      dup1\n      iszero\n      tag_1\n      jumpi\n      0x00\n      dup1\n      revert\n    tag_1:\n      pop\n      jumpi(tag_2, lt(calldatasize, 0x04))\n      div(calldataload(0x00), 0x0100000000000000000000000000000000000000000000000000000000)\n      0x0f9c5d49\n      dup2\n      eq\n      tag_3\n      jumpi\n    tag_2:\n      0x00\n      dup1\n      revert\n        /* \"contracts/artifacts/verifier.sol\":9660:10060  function verifyTx(... */\n    tag_3:\n      tag_4\n      tag_5\n      calldatasize\n      0x04\n      tag_6\n      jump\t// in\n    tag_5:\n      tag_7\n      jump\t// in\n    tag_4:\n      mload(0x40)\n        /* \"#utility.yul\":2523:2537   */\n      swap1\n      iszero\n        /* \"#utility.yul\":2516:2538   */\n      iszero\n        /* \"#utility.yul\":2498:2539   */\n      dup2\n      mstore\n        /* \"#utility.yul\":2486:2488   */\n      0x20\n        /* \"#utility.yul\":2471:2489   */\n      add\n        /* \"contracts/artifacts/verifier.sol\":9660:10060  function verifyTx(... */\n      mload(0x40)\n      dup1\n      swap2\n      sub\n      swap1\n      return\n    tag_7:\n        /* \"contracts/artifacts/verifier.sol\":9809:9822  new uint[](3) */\n      0x40\n      dup1\n      mload\n        /* \"contracts/artifacts/verifier.sol\":9820:9821  3 */\n      0x03\n        /* \"contracts/artifacts/verifier.sol\":9809:9822  new uint[](3) */\n      dup1\n      dup3\n      mstore\n      0x80\n      dup3\n      add\n      swap1\n      swap3\n      mstore\n        /* \"contracts/artifacts/verifier.sol\":9763:9769  bool r */\n      0x00\n      swap2\n      dup3\n      swap2\n        /* \"contracts/artifacts/verifier.sol\":9809:9822  new uint[](3) */\n      swap1\n      0x20\n      dup3\n      add\n      0x60\n      dup1\n      calldatasize\n      dup4\n      calldatacopy\n      add\n      swap1\n      pop\n      pop\n        /* \"contracts/artifacts/verifier.sol\":9781:9822  uint[] memory inputValues = new uint[](3) */\n      swap1\n      pop\n        /* \"contracts/artifacts/verifier.sol\":9845:9851  uint i */\n      0x00\n        /* \"contracts/artifacts/verifier.sol\":9841:9929  for(uint i = 0; i < input.length; i++){... */\n    tag_15:\n        /* \"contracts/artifacts/verifier.sol\":9861:9873  input.length */\n      0x03\n        /* \"contracts/artifacts/verifier.sol\":9857:9858  i */\n      dup2\n        /* \"contracts/artifacts/verifier.sol\":9857:9873  i < input.length */\n      lt\n        /* \"contracts/artifacts/verifier.sol\":9841:9929  for(uint i = 0; i < input.length; i++){... */\n      iszero\n      tag_16\n      jumpi\n        /* \"contracts/artifacts/verifier.sol\":9910:9915  input */\n      dup4\n        /* \"contracts/artifacts/verifier.sol\":9916:9917  i */\n      dup2\n        /* \"contracts/artifacts/verifier.sol\":9910:9918  input[i] */\n      0x03\n      dup2\n      lt\n      tag_19\n      jumpi\n      tag_19\n      tag_20\n      jump\t// in\n    tag_19:\n      0x20\n      mul\n      add\n      mload\n        /* \"contracts/artifacts/verifier.sol\":9893:9904  inputValues */\n      dup3\n        /* \"contracts/artifacts/verifier.sol\":9905:9906  i */\n      dup3\n        /* \"contracts/artifacts/verifier.sol\":9893:9907  inputValues[i] */\n      dup2\n      mload\n      dup2\n      lt\n      tag_22\n      jumpi\n      tag_22\n      tag_20\n      jump\t// in\n    tag_22:\n      0x20\n      swap1\n      dup2\n      mul\n      swap2\n      swap1\n      swap2\n      add\n      add\n        /* \"contracts/artifacts/verifier.sol\":9893:9918  inputValues[i] = input[i] */\n      mstore\n        /* \"contracts/artifacts/verifier.sol\":9875:9878  i++ */\n      dup1\n      tag_23\n      dup2\n      tag_24\n      jump\t// in\n    tag_23:\n      swap2\n      pop\n      pop\n        /* \"contracts/artifacts/verifier.sol\":9841:9929  for(uint i = 0; i < input.length; i++){... */\n      jump(tag_15)\n    tag_16:\n      pop\n        /* \"contracts/artifacts/verifier.sol\":9942:9968  verify(inputValues, proof) */\n      tag_25\n        /* \"contracts/artifacts/verifier.sol\":9949:9960  inputValues */\n      dup2\n        /* \"contracts/artifacts/verifier.sol\":9962:9967  proof */\n      dup6\n        /* \"contracts/artifacts/verifier.sol\":9942:9948  verify */\n      tag_26\n        /* \"contracts/artifacts/verifier.sol\":9942:9968  verify(inputValues, proof) */\n      jump\t// in\n    tag_25:\n        /* \"contracts/artifacts/verifier.sol\":9938:10054  if (verify(inputValues, proof) == 0) {... */\n      tag_27\n      jumpi\n        /* \"contracts/artifacts/verifier.sol\":9996:10000  true */\n      0x01\n        /* \"contracts/artifacts/verifier.sol\":9989:10000  return true */\n      swap2\n      pop\n      pop\n      jump(tag_10)\n        /* \"contracts/artifacts/verifier.sol\":9938:10054  if (verify(inputValues, proof) == 0) {... */\n    tag_27:\n        /* \"contracts/artifacts/verifier.sol\":10038:10043  false */\n      0x00\n        /* \"contracts/artifacts/verifier.sol\":10031:10043  return false */\n      swap2\n      pop\n      pop\n        /* \"contracts/artifacts/verifier.sol\":9660:10060  function verifyTx(... */\n    tag_10:\n      swap3\n      swap2\n      pop\n      pop\n      jump\t// out\n        /* \"contracts/artifacts/verifier.sol\":8734:9655  function verify(uint[] memory input, Proof memory proof) internal view returns (uint) {... */\n    tag_26:\n        /* \"contracts/artifacts/verifier.sol\":8814:8818  uint */\n      0x00\n        /* \"contracts/artifacts/verifier.sol\":8859:8936  21888242871839275222246405745257275088548364400416034343698204186575808495617 */\n      0x30644e72e131a029b85045b68181585d2833e84879b9709143e1f593f0000001\n        /* \"contracts/artifacts/verifier.sol\":8814:8818  uint */\n      dup2\n        /* \"contracts/artifacts/verifier.sol\":8971:8985  verifyingKey() */\n      tag_30\n        /* \"contracts/artifacts/verifier.sol\":8971:8983  verifyingKey */\n      tag_31\n        /* \"contracts/artifacts/verifier.sol\":8971:8985  verifyingKey() */\n      jump\t// in\n    tag_30:\n        /* \"contracts/artifacts/verifier.sol\":8946:8985  VerifyingKey memory vk = verifyingKey() */\n      swap1\n      pop\n        /* \"contracts/artifacts/verifier.sol\":9023:9025  vk */\n      dup1\n        /* \"contracts/artifacts/verifier.sol\":9023:9035  vk.gamma_abc */\n      0x80\n      add\n      mload\n        /* \"contracts/artifacts/verifier.sol\":9023:9042  vk.gamma_abc.length */\n      mload\n        /* \"contracts/artifacts/verifier.sol\":9003:9008  input */\n      dup6\n        /* \"contracts/artifacts/verifier.sol\":9003:9015  input.length */\n      mload\n        /* \"contracts/artifacts/verifier.sol\":9018:9019  1 */\n      0x01\n        /* \"contracts/artifacts/verifier.sol\":9003:9019  input.length + 1 */\n      tag_32\n      swap2\n      swap1\n      tag_33\n      jump\t// in\n    tag_32:\n        /* \"contracts/artifacts/verifier.sol\":9003:9042  input.length + 1 == vk.gamma_abc.length */\n      eq\n        /* \"contracts/artifacts/verifier.sol\":8995:9043  require(input.length + 1 == vk.gamma_abc.length) */\n      tag_34\n      jumpi\n      0x00\n      dup1\n      revert\n    tag_34:\n        /* \"contracts/artifacts/verifier.sol\":9130:9151  Pairing.G1Point(0, 0) */\n      0x40\n      dup1\n      mload\n      dup1\n      dup3\n      add\n      swap1\n      swap2\n      mstore\n        /* \"contracts/artifacts/verifier.sol\":9100:9127  Pairing.G1Point memory vk_x */\n      0x00\n        /* \"contracts/artifacts/verifier.sol\":9130:9151  Pairing.G1Point(0, 0) */\n      dup1\n      dup3\n      mstore\n      0x20\n      dup3\n      add\n      dup2\n      swap1\n      mstore\n        /* \"contracts/artifacts/verifier.sol\":9161:9358  for (uint i = 0; i < input.length; i++) {... */\n    tag_35:\n        /* \"contracts/artifacts/verifier.sol\":9182:9187  input */\n      dup7\n        /* \"contracts/artifacts/verifier.sol\":9182:9194  input.length */\n      mload\n        /* \"contracts/artifacts/verifier.sol\":9178:9179  i */\n      dup2\n        /* \"contracts/artifacts/verifier.sol\":9178:9194  i < input.length */\n      lt\n        /* \"contracts/artifacts/verifier.sol\":9161:9358  for (uint i = 0; i < input.length; i++) {... */\n      iszero\n      tag_36\n      jumpi\n        /* \"contracts/artifacts/verifier.sol\":9234:9252  snark_scalar_field */\n      dup4\n        /* \"contracts/artifacts/verifier.sol\":9223:9228  input */\n      dup8\n        /* \"contracts/artifacts/verifier.sol\":9229:9230  i */\n      dup3\n        /* \"contracts/artifacts/verifier.sol\":9223:9231  input[i] */\n      dup2\n      mload\n      dup2\n      lt\n      tag_39\n      jumpi\n      tag_39\n      tag_20\n      jump\t// in\n    tag_39:\n      0x20\n      mul\n      0x20\n      add\n      add\n      mload\n        /* \"contracts/artifacts/verifier.sol\":9223:9252  input[i] < snark_scalar_field */\n      lt\n        /* \"contracts/artifacts/verifier.sol\":9215:9253  require(input[i] < snark_scalar_field) */\n      tag_40\n      jumpi\n      0x00\n      dup1\n      revert\n    tag_40:\n        /* \"contracts/artifacts/verifier.sol\":9274:9347  Pairing.addition(vk_x, Pairing.scalar_mul(vk.gamma_abc[i + 1], input[i])) */\n      tag_41\n        /* \"contracts/artifacts/verifier.sol\":9291:9295  vk_x */\n      dup3\n        /* \"contracts/artifacts/verifier.sol\":9297:9346  Pairing.scalar_mul(vk.gamma_abc[i + 1], input[i]) */\n      tag_42\n        /* \"contracts/artifacts/verifier.sol\":9316:9318  vk */\n      dup6\n        /* \"contracts/artifacts/verifier.sol\":9316:9328  vk.gamma_abc */\n      0x80\n      add\n      mload\n        /* \"contracts/artifacts/verifier.sol\":9329:9330  i */\n      dup5\n        /* \"contracts/artifacts/verifier.sol\":9333:9334  1 */\n      0x01\n        /* \"contracts/artifacts/verifier.sol\":9329:9334  i + 1 */\n      tag_43\n      swap2\n      swap1\n      tag_33\n      jump\t// in\n    tag_43:\n        /* \"contracts/artifacts/verifier.sol\":9316:9335  vk.gamma_abc[i + 1] */\n      dup2\n      mload\n      dup2\n      lt\n      tag_45\n      jumpi\n      tag_45\n      tag_20\n      jump\t// in\n    tag_45:\n      0x20\n      mul\n      0x20\n      add\n      add\n      mload\n        /* \"contracts/artifacts/verifier.sol\":9337:9342  input */\n      dup11\n        /* \"contracts/artifacts/verifier.sol\":9343:9344  i */\n      dup6\n        /* \"contracts/artifacts/verifier.sol\":9337:9345  input[i] */\n      dup2\n      mload\n      dup2\n      lt\n      tag_47\n      jumpi\n      tag_47\n      tag_20\n      jump\t// in\n    tag_47:\n      0x20\n      mul\n      0x20\n      add\n      add\n      mload\n        /* \"contracts/artifacts/verifier.sol\":9297:9315  Pairing.scalar_mul */\n      tag_48\n        /* \"contracts/artifacts/verifier.sol\":9297:9346  Pairing.scalar_mul(vk.gamma_abc[i + 1], input[i]) */\n      jump\t// in\n    tag_42:\n        /* \"contracts/artifacts/verifier.sol\":9274:9290  Pairing.addition */\n      tag_49\n        /* \"contracts/artifacts/verifier.sol\":9274:9347  Pairing.addition(vk_x, Pairing.scalar_mul(vk.gamma_abc[i + 1], input[i])) */\n      jump\t// in\n    tag_41:\n        /* \"contracts/artifacts/verifier.sol\":9267:9347  vk_x = Pairing.addition(vk_x, Pairing.scalar_mul(vk.gamma_abc[i + 1], input[i])) */\n      swap2\n      pop\n        /* \"contracts/artifacts/verifier.sol\":9196:9199  i++ */\n      dup1\n      tag_50\n      dup2\n      tag_24\n      jump\t// in\n    tag_50:\n      swap2\n      pop\n      pop\n        /* \"contracts/artifacts/verifier.sol\":9161:9358  for (uint i = 0; i < input.length; i++) {... */\n      jump(tag_35)\n    tag_36:\n      pop\n        /* \"contracts/artifacts/verifier.sol\":9374:9413  Pairing.addition(vk_x, vk.gamma_abc[0]) */\n      tag_51\n        /* \"contracts/artifacts/verifier.sol\":9391:9395  vk_x */\n      dup2\n        /* \"contracts/artifacts/verifier.sol\":9397:9399  vk */\n      dup4\n        /* \"contracts/artifacts/verifier.sol\":9397:9409  vk.gamma_abc */\n      0x80\n      add\n      mload\n        /* \"contracts/artifacts/verifier.sol\":9410:9411  0 */\n      0x00\n        /* \"contracts/artifacts/verifier.sol\":9397:9412  vk.gamma_abc[0] */\n      dup2\n      mload\n      dup2\n      lt\n      tag_53\n      jumpi\n      tag_53\n      tag_20\n      jump\t// in\n    tag_53:\n      0x20\n      mul\n      0x20\n      add\n      add\n      mload\n        /* \"contracts/artifacts/verifier.sol\":9374:9390  Pairing.addition */\n      tag_49\n        /* \"contracts/artifacts/verifier.sol\":9374:9413  Pairing.addition(vk_x, vk.gamma_abc[0]) */\n      jump\t// in\n    tag_51:\n        /* \"contracts/artifacts/verifier.sol\":9367:9413  vk_x = Pairing.addition(vk_x, vk.gamma_abc[0]) */\n      swap1\n      pop\n        /* \"contracts/artifacts/verifier.sol\":9427:9620  Pairing.pairingProd4(... */\n      tag_54\n        /* \"contracts/artifacts/verifier.sol\":9462:9467  proof */\n      dup6\n        /* \"contracts/artifacts/verifier.sol\":9462:9469  proof.a */\n      0x00\n      add\n      mload\n        /* \"contracts/artifacts/verifier.sol\":9471:9476  proof */\n      dup7\n        /* \"contracts/artifacts/verifier.sol\":9471:9478  proof.b */\n      0x20\n      add\n      mload\n        /* \"contracts/artifacts/verifier.sol\":9493:9513  Pairing.negate(vk_x) */\n      tag_55\n        /* \"contracts/artifacts/verifier.sol\":9508:9512  vk_x */\n      dup5\n        /* \"contracts/artifacts/verifier.sol\":9493:9507  Pairing.negate */\n      tag_56\n        /* \"contracts/artifacts/verifier.sol\":9493:9513  Pairing.negate(vk_x) */\n      jump\t// in\n    tag_55:\n        /* \"contracts/artifacts/verifier.sol\":9515:9517  vk */\n      dup6\n        /* \"contracts/artifacts/verifier.sol\":9515:9523  vk.gamma */\n      0x40\n      add\n      mload\n        /* \"contracts/artifacts/verifier.sol\":9538:9561  Pairing.negate(proof.c) */\n      tag_57\n        /* \"contracts/artifacts/verifier.sol\":9553:9558  proof */\n      dup11\n        /* \"contracts/artifacts/verifier.sol\":9553:9560  proof.c */\n      0x40\n      add\n      mload\n        /* \"contracts/artifacts/verifier.sol\":9538:9552  Pairing.negate */\n      tag_56\n        /* \"contracts/artifacts/verifier.sol\":9538:9561  Pairing.negate(proof.c) */\n      jump\t// in\n    tag_57:\n        /* \"contracts/artifacts/verifier.sol\":9563:9571  vk.delta */\n      0x60\n      dup9\n      add\n      mload\n        /* \"contracts/artifacts/verifier.sol\":9601:9609  vk.alpha */\n      dup9\n      mload\n        /* \"contracts/artifacts/verifier.sol\":9586:9610  Pairing.negate(vk.alpha) */\n      tag_58\n      swap1\n        /* \"contracts/artifacts/verifier.sol\":9586:9600  Pairing.negate */\n      tag_56\n        /* \"contracts/artifacts/verifier.sol\":9586:9610  Pairing.negate(vk.alpha) */\n      jump\t// in\n    tag_58:\n        /* \"contracts/artifacts/verifier.sol\":9612:9614  vk */\n      dup10\n        /* \"contracts/artifacts/verifier.sol\":9612:9619  vk.beta */\n      0x20\n      add\n      mload\n        /* \"contracts/artifacts/verifier.sol\":9427:9447  Pairing.pairingProd4 */\n      tag_59\n        /* \"contracts/artifacts/verifier.sol\":9427:9620  Pairing.pairingProd4(... */\n      jump\t// in\n    tag_54:\n        /* \"contracts/artifacts/verifier.sol\":9423:9630  if(!Pairing.pairingProd4(... */\n      tag_60\n      jumpi\n        /* \"contracts/artifacts/verifier.sol\":9629:9630  1 */\n      0x01\n        /* \"contracts/artifacts/verifier.sol\":9622:9630  return 1 */\n      swap4\n      pop\n      pop\n      pop\n      pop\n      jump(tag_10)\n        /* \"contracts/artifacts/verifier.sol\":9423:9630  if(!Pairing.pairingProd4(... */\n    tag_60:\n      pop\n        /* \"contracts/artifacts/verifier.sol\":9647:9648  0 */\n      0x00\n      swap6\n        /* \"contracts/artifacts/verifier.sol\":8734:9655  function verify(uint[] memory input, Proof memory proof) internal view returns (uint) {... */\n      swap5\n      pop\n      pop\n      pop\n      pop\n      pop\n      jump\t// out\n        /* \"contracts/artifacts/verifier.sol\":6581:8729  function verifyingKey() pure internal returns (VerifyingKey memory vk) {... */\n    tag_31:\n        /* \"contracts/artifacts/verifier.sol\":6628:6650  VerifyingKey memory vk */\n      tag_61\n      tag_62\n      jump\t// in\n    tag_61:\n        /* \"contracts/artifacts/verifier.sol\":6673:6842  Pairing.G1Point(uint256(0x1d877d34b4b2e18f0a83156a94ecdaaffcb7f7404e9505e2681d298c4f300b3d), uint256(0x2c786456c3ca069e2e2550e783476781061526eef24726f34f0c17d6077dc451)) */\n      0x40\n      dup1\n      mload\n      dup1\n      dup3\n      add\n      dup3\n      mstore\n        /* \"contracts/artifacts/verifier.sol\":6697:6763  0x1d877d34b4b2e18f0a83156a94ecdaaffcb7f7404e9505e2681d298c4f300b3d */\n      0x1d877d34b4b2e18f0a83156a94ecdaaffcb7f7404e9505e2681d298c4f300b3d\n        /* \"contracts/artifacts/verifier.sol\":6673:6842  Pairing.G1Point(uint256(0x1d877d34b4b2e18f0a83156a94ecdaaffcb7f7404e9505e2681d298c4f300b3d), uint256(0x2c786456c3ca069e2e2550e783476781061526eef24726f34f0c17d6077dc451)) */\n      dup2\n      mstore\n        /* \"contracts/artifacts/verifier.sol\":6774:6840  0x2c786456c3ca069e2e2550e783476781061526eef24726f34f0c17d6077dc451 */\n      0x2c786456c3ca069e2e2550e783476781061526eef24726f34f0c17d6077dc451\n        /* \"contracts/artifacts/verifier.sol\":6673:6842  Pairing.G1Point(uint256(0x1d877d34b4b2e18f0a83156a94ecdaaffcb7f7404e9505e2681d298c4f300b3d), uint256(0x2c786456c3ca069e2e2550e783476781061526eef24726f34f0c17d6077dc451)) */\n      0x20\n      dup1\n      dup4\n      add\n      swap2\n      swap1\n      swap2\n      mstore\n        /* \"contracts/artifacts/verifier.sol\":6662:6842  vk.alpha = Pairing.G1Point(uint256(0x1d877d34b4b2e18f0a83156a94ecdaaffcb7f7404e9505e2681d298c4f300b3d), uint256(0x2c786456c3ca069e2e2550e783476781061526eef24726f34f0c17d6077dc451)) */\n      swap1\n      dup4\n      mstore\n        /* \"contracts/artifacts/verifier.sol\":6862:7189  Pairing.G2Point([uint256(0x1656a8896a3287cf41dc64b78c422199ad107699bc87186efb29bfd913d17e48), uint256(0x28bf884a4f7cb1395aeb51f63c0e160995525edda316798cb95a056f4bdffb25)], [uint256(0x0adbeb06673a3d6825ae85f3b97b8e930383b37ccc0d44a93544088e75dfc31c), uint256(0x14db9464ba5e85570a06f6db1d76732bc5c60604a118f07c7dbec2c56590daf8)]) */\n      dup2\n      mload\n      0x80\n      dup1\n      dup3\n      add\n      dup5\n      mstore\n        /* \"contracts/artifacts/verifier.sol\":6887:6953  0x1656a8896a3287cf41dc64b78c422199ad107699bc87186efb29bfd913d17e48 */\n      0x1656a8896a3287cf41dc64b78c422199ad107699bc87186efb29bfd913d17e48\n        /* \"contracts/artifacts/verifier.sol\":6862:7189  Pairing.G2Point([uint256(0x1656a8896a3287cf41dc64b78c422199ad107699bc87186efb29bfd913d17e48), uint256(0x28bf884a4f7cb1395aeb51f63c0e160995525edda316798cb95a056f4bdffb25)], [uint256(0x0adbeb06673a3d6825ae85f3b97b8e930383b37ccc0d44a93544088e75dfc31c), uint256(0x14db9464ba5e85570a06f6db1d76732bc5c60604a118f07c7dbec2c56590daf8)]) */\n      dup3\n      dup6\n      add\n      swap1\n      dup2\n      mstore\n        /* \"contracts/artifacts/verifier.sol\":6964:7030  0x28bf884a4f7cb1395aeb51f63c0e160995525edda316798cb95a056f4bdffb25 */\n      0x28bf884a4f7cb1395aeb51f63c0e160995525edda316798cb95a056f4bdffb25\n        /* \"contracts/artifacts/verifier.sol\":6862:7189  Pairing.G2Point([uint256(0x1656a8896a3287cf41dc64b78c422199ad107699bc87186efb29bfd913d17e48), uint256(0x28bf884a4f7cb1395aeb51f63c0e160995525edda316798cb95a056f4bdffb25)], [uint256(0x0adbeb06673a3d6825ae85f3b97b8e930383b37ccc0d44a93544088e75dfc31c), uint256(0x14db9464ba5e85570a06f6db1d76732bc5c60604a118f07c7dbec2c56590daf8)]) */\n      0x60\n      dup1\n      dup6\n      add\n      swap2\n      swap1\n      swap2\n      mstore\n      swap1\n      dup4\n      mstore\n      dup5\n      mload\n      dup1\n      dup7\n      add\n      dup7\n      mstore\n        /* \"contracts/artifacts/verifier.sol\":7043:7109  0x0adbeb06673a3d6825ae85f3b97b8e930383b37ccc0d44a93544088e75dfc31c */\n      0x0adbeb06673a3d6825ae85f3b97b8e930383b37ccc0d44a93544088e75dfc31c\n        /* \"contracts/artifacts/verifier.sol\":6862:7189  Pairing.G2Point([uint256(0x1656a8896a3287cf41dc64b78c422199ad107699bc87186efb29bfd913d17e48), uint256(0x28bf884a4f7cb1395aeb51f63c0e160995525edda316798cb95a056f4bdffb25)], [uint256(0x0adbeb06673a3d6825ae85f3b97b8e930383b37ccc0d44a93544088e75dfc31c), uint256(0x14db9464ba5e85570a06f6db1d76732bc5c60604a118f07c7dbec2c56590daf8)]) */\n      dup2\n      mstore\n        /* \"contracts/artifacts/verifier.sol\":7120:7186  0x14db9464ba5e85570a06f6db1d76732bc5c60604a118f07c7dbec2c56590daf8 */\n      0x14db9464ba5e85570a06f6db1d76732bc5c60604a118f07c7dbec2c56590daf8\n        /* \"contracts/artifacts/verifier.sol\":6862:7189  Pairing.G2Point([uint256(0x1656a8896a3287cf41dc64b78c422199ad107699bc87186efb29bfd913d17e48), uint256(0x28bf884a4f7cb1395aeb51f63c0e160995525edda316798cb95a056f4bdffb25)], [uint256(0x0adbeb06673a3d6825ae85f3b97b8e930383b37ccc0d44a93544088e75dfc31c), uint256(0x14db9464ba5e85570a06f6db1d76732bc5c60604a118f07c7dbec2c56590daf8)]) */\n      dup2\n      dup7\n      add\n      mstore\n      dup4\n      dup6\n      add\n      mstore\n        /* \"contracts/artifacts/verifier.sol\":6852:6859  vk.beta */\n      dup6\n      dup5\n      add\n        /* \"contracts/artifacts/verifier.sol\":6852:7189  vk.beta = Pairing.G2Point([uint256(0x1656a8896a3287cf41dc64b78c422199ad107699bc87186efb29bfd913d17e48), uint256(0x28bf884a4f7cb1395aeb51f63c0e160995525edda316798cb95a056f4bdffb25)], [uint256(0x0adbeb06673a3d6825ae85f3b97b8e930383b37ccc0d44a93544088e75dfc31c), uint256(0x14db9464ba5e85570a06f6db1d76732bc5c60604a118f07c7dbec2c56590daf8)]) */\n      swap3\n      swap1\n      swap3\n      mstore\n        /* \"contracts/artifacts/verifier.sol\":7210:7537  Pairing.G2Point([uint256(0x163fda6a94ae2ceab765ccba86ff9626cc1ab5de43de095f5be07078de4b3bf1), uint256(0x25a3c12a82bf0d6b763711d8b9bcdc3c04dc5da37a3adf0fb4f7380563975dc9)], [uint256(0x03b57190ccf8c9e0a30e7949fedc04f80201d69985c7627a8115a60939cb399a), uint256(0x18c832634abce5905ccdd3e06e6b129b8448998d6a1bdc3e8a3d839a1df18088)]) */\n      dup4\n      mload\n      dup1\n      dup3\n      add\n      dup6\n      mstore\n        /* \"contracts/artifacts/verifier.sol\":7235:7301  0x163fda6a94ae2ceab765ccba86ff9626cc1ab5de43de095f5be07078de4b3bf1 */\n      0x163fda6a94ae2ceab765ccba86ff9626cc1ab5de43de095f5be07078de4b3bf1\n        /* \"contracts/artifacts/verifier.sol\":7210:7537  Pairing.G2Point([uint256(0x163fda6a94ae2ceab765ccba86ff9626cc1ab5de43de095f5be07078de4b3bf1), uint256(0x25a3c12a82bf0d6b763711d8b9bcdc3c04dc5da37a3adf0fb4f7380563975dc9)], [uint256(0x03b57190ccf8c9e0a30e7949fedc04f80201d69985c7627a8115a60939cb399a), uint256(0x18c832634abce5905ccdd3e06e6b129b8448998d6a1bdc3e8a3d839a1df18088)]) */\n      dup2\n      dup7\n      add\n      swap1\n      dup2\n      mstore\n        /* \"contracts/artifacts/verifier.sol\":7312:7378  0x25a3c12a82bf0d6b763711d8b9bcdc3c04dc5da37a3adf0fb4f7380563975dc9 */\n      0x25a3c12a82bf0d6b763711d8b9bcdc3c04dc5da37a3adf0fb4f7380563975dc9\n        /* \"contracts/artifacts/verifier.sol\":7210:7537  Pairing.G2Point([uint256(0x163fda6a94ae2ceab765ccba86ff9626cc1ab5de43de095f5be07078de4b3bf1), uint256(0x25a3c12a82bf0d6b763711d8b9bcdc3c04dc5da37a3adf0fb4f7380563975dc9)], [uint256(0x03b57190ccf8c9e0a30e7949fedc04f80201d69985c7627a8115a60939cb399a), uint256(0x18c832634abce5905ccdd3e06e6b129b8448998d6a1bdc3e8a3d839a1df18088)]) */\n      dup3\n      dup6\n      add\n      mstore\n      dup2\n      mstore\n      dup5\n      mload\n      dup1\n      dup7\n      add\n      dup7\n      mstore\n        /* \"contracts/artifacts/verifier.sol\":7391:7457  0x03b57190ccf8c9e0a30e7949fedc04f80201d69985c7627a8115a60939cb399a */\n      0x03b57190ccf8c9e0a30e7949fedc04f80201d69985c7627a8115a60939cb399a\n        /* \"contracts/artifacts/verifier.sol\":7210:7537  Pairing.G2Point([uint256(0x163fda6a94ae2ceab765ccba86ff9626cc1ab5de43de095f5be07078de4b3bf1), uint256(0x25a3c12a82bf0d6b763711d8b9bcdc3c04dc5da37a3adf0fb4f7380563975dc9)], [uint256(0x03b57190ccf8c9e0a30e7949fedc04f80201d69985c7627a8115a60939cb399a), uint256(0x18c832634abce5905ccdd3e06e6b129b8448998d6a1bdc3e8a3d839a1df18088)]) */\n      dup2\n      mstore\n        /* \"contracts/artifacts/verifier.sol\":7468:7534  0x18c832634abce5905ccdd3e06e6b129b8448998d6a1bdc3e8a3d839a1df18088 */\n      0x18c832634abce5905ccdd3e06e6b129b8448998d6a1bdc3e8a3d839a1df18088\n        /* \"contracts/artifacts/verifier.sol\":7210:7537  Pairing.G2Point([uint256(0x163fda6a94ae2ceab765ccba86ff9626cc1ab5de43de095f5be07078de4b3bf1), uint256(0x25a3c12a82bf0d6b763711d8b9bcdc3c04dc5da37a3adf0fb4f7380563975dc9)], [uint256(0x03b57190ccf8c9e0a30e7949fedc04f80201d69985c7627a8115a60939cb399a), uint256(0x18c832634abce5905ccdd3e06e6b129b8448998d6a1bdc3e8a3d839a1df18088)]) */\n      dup2\n      dup7\n      add\n      mstore\n      dup2\n      dup6\n      add\n      mstore\n        /* \"contracts/artifacts/verifier.sol\":7199:7207  vk.gamma */\n      dup6\n      dup6\n      add\n        /* \"contracts/artifacts/verifier.sol\":7199:7537  vk.gamma = Pairing.G2Point([uint256(0x163fda6a94ae2ceab765ccba86ff9626cc1ab5de43de095f5be07078de4b3bf1), uint256(0x25a3c12a82bf0d6b763711d8b9bcdc3c04dc5da37a3adf0fb4f7380563975dc9)], [uint256(0x03b57190ccf8c9e0a30e7949fedc04f80201d69985c7627a8115a60939cb399a), uint256(0x18c832634abce5905ccdd3e06e6b129b8448998d6a1bdc3e8a3d839a1df18088)]) */\n      mstore\n        /* \"contracts/artifacts/verifier.sol\":7558:7885  Pairing.G2Point([uint256(0x0d5383844aa3abc468fd4f0af3b1440b818e8fa7294506fa902215d94c96eaec), uint256(0x27041cddba23c7aa98aa6763e1f0d9c0a7bc2bfe687ac6e42e94776551ffd5bb)], [uint256(0x20294a247c2df72e31a1def2fee16a65e3c1de670e13e9f242b9b07052d7bd0e), uint256(0x025068b54ffd25f35125977c24b132e4dbba27c132a979b633fe78307ef240d1)]) */\n      dup4\n      mload\n      swap1\n      dup2\n      add\n      dup5\n      mstore\n        /* \"contracts/artifacts/verifier.sol\":7583:7649  0x0d5383844aa3abc468fd4f0af3b1440b818e8fa7294506fa902215d94c96eaec */\n      0x0d5383844aa3abc468fd4f0af3b1440b818e8fa7294506fa902215d94c96eaec\n        /* \"contracts/artifacts/verifier.sol\":7558:7885  Pairing.G2Point([uint256(0x0d5383844aa3abc468fd4f0af3b1440b818e8fa7294506fa902215d94c96eaec), uint256(0x27041cddba23c7aa98aa6763e1f0d9c0a7bc2bfe687ac6e42e94776551ffd5bb)], [uint256(0x20294a247c2df72e31a1def2fee16a65e3c1de670e13e9f242b9b07052d7bd0e), uint256(0x025068b54ffd25f35125977c24b132e4dbba27c132a979b633fe78307ef240d1)]) */\n      dup2\n      dup6\n      add\n      swap1\n      dup2\n      mstore\n        /* \"contracts/artifacts/verifier.sol\":7660:7726  0x27041cddba23c7aa98aa6763e1f0d9c0a7bc2bfe687ac6e42e94776551ffd5bb */\n      0x27041cddba23c7aa98aa6763e1f0d9c0a7bc2bfe687ac6e42e94776551ffd5bb\n        /* \"contracts/artifacts/verifier.sol\":7558:7885  Pairing.G2Point([uint256(0x0d5383844aa3abc468fd4f0af3b1440b818e8fa7294506fa902215d94c96eaec), uint256(0x27041cddba23c7aa98aa6763e1f0d9c0a7bc2bfe687ac6e42e94776551ffd5bb)], [uint256(0x20294a247c2df72e31a1def2fee16a65e3c1de670e13e9f242b9b07052d7bd0e), uint256(0x025068b54ffd25f35125977c24b132e4dbba27c132a979b633fe78307ef240d1)]) */\n      dup3\n      dup5\n      add\n      mstore\n      dup2\n      mstore\n      dup4\n      mload\n      dup1\n      dup6\n      add\n      dup6\n      mstore\n        /* \"contracts/artifacts/verifier.sol\":7739:7805  0x20294a247c2df72e31a1def2fee16a65e3c1de670e13e9f242b9b07052d7bd0e */\n      0x20294a247c2df72e31a1def2fee16a65e3c1de670e13e9f242b9b07052d7bd0e\n        /* \"contracts/artifacts/verifier.sol\":7558:7885  Pairing.G2Point([uint256(0x0d5383844aa3abc468fd4f0af3b1440b818e8fa7294506fa902215d94c96eaec), uint256(0x27041cddba23c7aa98aa6763e1f0d9c0a7bc2bfe687ac6e42e94776551ffd5bb)], [uint256(0x20294a247c2df72e31a1def2fee16a65e3c1de670e13e9f242b9b07052d7bd0e), uint256(0x025068b54ffd25f35125977c24b132e4dbba27c132a979b633fe78307ef240d1)]) */\n      dup2\n      mstore\n        /* \"contracts/artifacts/verifier.sol\":7816:7882  0x025068b54ffd25f35125977c24b132e4dbba27c132a979b633fe78307ef240d1 */\n      0x025068b54ffd25f35125977c24b132e4dbba27c132a979b633fe78307ef240d1\n        /* \"contracts/artifacts/verifier.sol\":7558:7885  Pairing.G2Point([uint256(0x0d5383844aa3abc468fd4f0af3b1440b818e8fa7294506fa902215d94c96eaec), uint256(0x27041cddba23c7aa98aa6763e1f0d9c0a7bc2bfe687ac6e42e94776551ffd5bb)], [uint256(0x20294a247c2df72e31a1def2fee16a65e3c1de670e13e9f242b9b07052d7bd0e), uint256(0x025068b54ffd25f35125977c24b132e4dbba27c132a979b633fe78307ef240d1)]) */\n      dup2\n      dup6\n      add\n      mstore\n      dup2\n      dup5\n      add\n      mstore\n        /* \"contracts/artifacts/verifier.sol\":7547:7555  vk.delta */\n      swap1\n      dup5\n      add\n        /* \"contracts/artifacts/verifier.sol\":7547:7885  vk.delta = Pairing.G2Point([uint256(0x0d5383844aa3abc468fd4f0af3b1440b818e8fa7294506fa902215d94c96eaec), uint256(0x27041cddba23c7aa98aa6763e1f0d9c0a7bc2bfe687ac6e42e94776551ffd5bb)], [uint256(0x20294a247c2df72e31a1def2fee16a65e3c1de670e13e9f242b9b07052d7bd0e), uint256(0x025068b54ffd25f35125977c24b132e4dbba27c132a979b633fe78307ef240d1)]) */\n      mstore\n        /* \"contracts/artifacts/verifier.sol\":7910:7934  new Pairing.G1Point[](4) */\n      dup2\n      mload\n        /* \"contracts/artifacts/verifier.sol\":7932:7933  4 */\n      0x04\n        /* \"contracts/artifacts/verifier.sol\":7910:7934  new Pairing.G1Point[](4) */\n      dup1\n      dup3\n      mstore\n      0xa0\n      dup3\n      add\n      swap1\n      swap4\n      mstore\n      swap2\n        /* \"contracts/artifacts/verifier.sol\":7932:7933  4 */\n      swap1\n        /* \"contracts/artifacts/verifier.sol\":7910:7934  new Pairing.G1Point[](4) */\n      dup3\n      add\n    tag_67:\n      0x40\n      dup1\n      mload\n      dup1\n      dup3\n      add\n      swap1\n      swap2\n      mstore\n      0x00\n      dup1\n      dup3\n      mstore\n      0x20\n      dup3\n      add\n      mstore\n      dup2\n      mstore\n      0x20\n      add\n      swap1\n      0x01\n      swap1\n      sub\n      swap1\n      dup2\n      tag_67\n      jumpi\n      pop\n      pop\n        /* \"contracts/artifacts/verifier.sol\":7895:7907  vk.gamma_abc */\n      0x80\n      dup3\n      add\n        /* \"contracts/artifacts/verifier.sol\":7895:7934  vk.gamma_abc = new Pairing.G1Point[](4) */\n      swap1\n      dup2\n      mstore\n        /* \"contracts/artifacts/verifier.sol\":7962:8131  Pairing.G1Point(uint256(0x0232e6517832c8d1bd57590301616765975fe545d94a4243000aafaff099474a), uint256(0x155747fbfd470132c4ebab68803183a3fd8a857cc28e0323da0fa48256e8381e)) */\n      0x40\n      dup1\n      mload\n      dup1\n      dup3\n      add\n      swap1\n      swap2\n      mstore\n        /* \"contracts/artifacts/verifier.sol\":7986:8052  0x0232e6517832c8d1bd57590301616765975fe545d94a4243000aafaff099474a */\n      0x0232e6517832c8d1bd57590301616765975fe545d94a4243000aafaff099474a\n        /* \"contracts/artifacts/verifier.sol\":7962:8131  Pairing.G1Point(uint256(0x0232e6517832c8d1bd57590301616765975fe545d94a4243000aafaff099474a), uint256(0x155747fbfd470132c4ebab68803183a3fd8a857cc28e0323da0fa48256e8381e)) */\n      dup2\n      mstore\n        /* \"contracts/artifacts/verifier.sol\":8063:8129  0x155747fbfd470132c4ebab68803183a3fd8a857cc28e0323da0fa48256e8381e */\n      0x155747fbfd470132c4ebab68803183a3fd8a857cc28e0323da0fa48256e8381e\n        /* \"contracts/artifacts/verifier.sol\":7962:8131  Pairing.G1Point(uint256(0x0232e6517832c8d1bd57590301616765975fe545d94a4243000aafaff099474a), uint256(0x155747fbfd470132c4ebab68803183a3fd8a857cc28e0323da0fa48256e8381e)) */\n      0x20\n      dup3\n      add\n      mstore\n        /* \"contracts/artifacts/verifier.sol\":7944:7956  vk.gamma_abc */\n      swap1\n      mload\n        /* \"contracts/artifacts/verifier.sol\":7944:7959  vk.gamma_abc[0] */\n      dup1\n      mload\n      0x00\n      swap1\n      tag_71\n      jumpi\n      tag_71\n      tag_20\n      jump\t// in\n    tag_71:\n      0x20\n      mul\n      0x20\n      add\n      add\n        /* \"contracts/artifacts/verifier.sol\":7944:8131  vk.gamma_abc[0] = Pairing.G1Point(uint256(0x0232e6517832c8d1bd57590301616765975fe545d94a4243000aafaff099474a), uint256(0x155747fbfd470132c4ebab68803183a3fd8a857cc28e0323da0fa48256e8381e)) */\n      dup2\n      swap1\n      mstore\n      pop\n        /* \"contracts/artifacts/verifier.sol\":8159:8328  Pairing.G1Point(uint256(0x1953c08966d1d6c2811f254c923851a91b19f68774d26f3513154dd6f8cedc05), uint256(0x14482ce4cff1b8ced3ecd1c8ab659424a056b91cda4a74e87f4246bcfe0062b4)) */\n      mload(0x40)\n      dup1\n      0x40\n      add\n      0x40\n      mstore\n      dup1\n        /* \"contracts/artifacts/verifier.sol\":8183:8249  0x1953c08966d1d6c2811f254c923851a91b19f68774d26f3513154dd6f8cedc05 */\n      0x1953c08966d1d6c2811f254c923851a91b19f68774d26f3513154dd6f8cedc05\n        /* \"contracts/artifacts/verifier.sol\":8159:8328  Pairing.G1Point(uint256(0x1953c08966d1d6c2811f254c923851a91b19f68774d26f3513154dd6f8cedc05), uint256(0x14482ce4cff1b8ced3ecd1c8ab659424a056b91cda4a74e87f4246bcfe0062b4)) */\n      dup2\n      mstore\n      0x20\n      add\n        /* \"contracts/artifacts/verifier.sol\":8260:8326  0x14482ce4cff1b8ced3ecd1c8ab659424a056b91cda4a74e87f4246bcfe0062b4 */\n      0x14482ce4cff1b8ced3ecd1c8ab659424a056b91cda4a74e87f4246bcfe0062b4\n        /* \"contracts/artifacts/verifier.sol\":8159:8328  Pairing.G1Point(uint256(0x1953c08966d1d6c2811f254c923851a91b19f68774d26f3513154dd6f8cedc05), uint256(0x14482ce4cff1b8ced3ecd1c8ab659424a056b91cda4a74e87f4246bcfe0062b4)) */\n      dup2\n      mstore\n      pop\n        /* \"contracts/artifacts/verifier.sol\":8141:8143  vk */\n      dup2\n        /* \"contracts/artifacts/verifier.sol\":8141:8153  vk.gamma_abc */\n      0x80\n      add\n      mload\n        /* \"contracts/artifacts/verifier.sol\":8154:8155  1 */\n      0x01\n        /* \"contracts/artifacts/verifier.sol\":8141:8156  vk.gamma_abc[1] */\n      dup2\n      mload\n      dup2\n      lt\n      tag_73\n      jumpi\n      tag_73\n      tag_20\n      jump\t// in\n    tag_73:\n      0x20\n      mul\n      0x20\n      add\n      add\n        /* \"contracts/artifacts/verifier.sol\":8141:8328  vk.gamma_abc[1] = Pairing.G1Point(uint256(0x1953c08966d1d6c2811f254c923851a91b19f68774d26f3513154dd6f8cedc05), uint256(0x14482ce4cff1b8ced3ecd1c8ab659424a056b91cda4a74e87f4246bcfe0062b4)) */\n      dup2\n      swap1\n      mstore\n      pop\n        /* \"contracts/artifacts/verifier.sol\":8356:8525  Pairing.G1Point(uint256(0x0c96302dee27cd284756364a61c215453886e0d568d23f4636eb7e007e24015e), uint256(0x196dc3405a79fc7da356426020664c30a41718a3ae4266a7ee601781b1736d32)) */\n      mload(0x40)\n      dup1\n      0x40\n      add\n      0x40\n      mstore\n      dup1\n        /* \"contracts/artifacts/verifier.sol\":8380:8446  0x0c96302dee27cd284756364a61c215453886e0d568d23f4636eb7e007e24015e */\n      0x0c96302dee27cd284756364a61c215453886e0d568d23f4636eb7e007e24015e\n        /* \"contracts/artifacts/verifier.sol\":8356:8525  Pairing.G1Point(uint256(0x0c96302dee27cd284756364a61c215453886e0d568d23f4636eb7e007e24015e), uint256(0x196dc3405a79fc7da356426020664c30a41718a3ae4266a7ee601781b1736d32)) */\n      dup2\n      mstore\n      0x20\n      add\n        /* \"contracts/artifacts/verifier.sol\":8457:8523  0x196dc3405a79fc7da356426020664c30a41718a3ae4266a7ee601781b1736d32 */\n      0x196dc3405a79fc7da356426020664c30a41718a3ae4266a7ee601781b1736d32\n        /* \"contracts/artifacts/verifier.sol\":8356:8525  Pairing.G1Point(uint256(0x0c96302dee27cd284756364a61c215453886e0d568d23f4636eb7e007e24015e), uint256(0x196dc3405a79fc7da356426020664c30a41718a3ae4266a7ee601781b1736d32)) */\n      dup2\n      mstore\n      pop\n        /* \"contracts/artifacts/verifier.sol\":8338:8340  vk */\n      dup2\n        /* \"contracts/artifacts/verifier.sol\":8338:8350  vk.gamma_abc */\n      0x80\n      add\n      mload\n        /* \"contracts/artifacts/verifier.sol\":8351:8352  2 */\n      0x02\n        /* \"contracts/artifacts/verifier.sol\":8338:8353  vk.gamma_abc[2] */\n      dup2\n      mload\n      dup2\n      lt\n      tag_75\n      jumpi\n      tag_75\n      tag_20\n      jump\t// in\n    tag_75:\n      0x20\n      mul\n      0x20\n      add\n      add\n        /* \"contracts/artifacts/verifier.sol\":8338:8525  vk.gamma_abc[2] = Pairing.G1Point(uint256(0x0c96302dee27cd284756364a61c215453886e0d568d23f4636eb7e007e24015e), uint256(0x196dc3405a79fc7da356426020664c30a41718a3ae4266a7ee601781b1736d32)) */\n      dup2\n      swap1\n      mstore\n      pop\n        /* \"contracts/artifacts/verifier.sol\":8553:8722  Pairing.G1Point(uint256(0x2bfab019bc87371c0b3a6739f817ed6a8d06e6101a3d88a4a782b92ea27c8524), uint256(0x305da2a9f02f346bd928425c849b0f2928b17ed1029666391f183c34b7f4d47d)) */\n      mload(0x40)\n      dup1\n      0x40\n      add\n      0x40\n      mstore\n      dup1\n        /* \"contracts/artifacts/verifier.sol\":8577:8643  0x2bfab019bc87371c0b3a6739f817ed6a8d06e6101a3d88a4a782b92ea27c8524 */\n      0x2bfab019bc87371c0b3a6739f817ed6a8d06e6101a3d88a4a782b92ea27c8524\n        /* \"contracts/artifacts/verifier.sol\":8553:8722  Pairing.G1Point(uint256(0x2bfab019bc87371c0b3a6739f817ed6a8d06e6101a3d88a4a782b92ea27c8524), uint256(0x305da2a9f02f346bd928425c849b0f2928b17ed1029666391f183c34b7f4d47d)) */\n      dup2\n      mstore\n      0x20\n      add\n        /* \"contracts/artifacts/verifier.sol\":8654:8720  0x305da2a9f02f346bd928425c849b0f2928b17ed1029666391f183c34b7f4d47d */\n      0x305da2a9f02f346bd928425c849b0f2928b17ed1029666391f183c34b7f4d47d\n        /* \"contracts/artifacts/verifier.sol\":8553:8722  Pairing.G1Point(uint256(0x2bfab019bc87371c0b3a6739f817ed6a8d06e6101a3d88a4a782b92ea27c8524), uint256(0x305da2a9f02f346bd928425c849b0f2928b17ed1029666391f183c34b7f4d47d)) */\n      dup2\n      mstore\n      pop\n        /* \"contracts/artifacts/verifier.sol\":8535:8537  vk */\n      dup2\n        /* \"contracts/artifacts/verifier.sol\":8535:8547  vk.gamma_abc */\n      0x80\n      add\n      mload\n        /* \"contracts/artifacts/verifier.sol\":8548:8549  3 */\n      0x03\n        /* \"contracts/artifacts/verifier.sol\":8535:8550  vk.gamma_abc[3] */\n      dup2\n      mload\n      dup2\n      lt\n      tag_77\n      jumpi\n      tag_77\n      tag_20\n      jump\t// in\n    tag_77:\n      0x20\n      mul\n      0x20\n      add\n      add\n        /* \"contracts/artifacts/verifier.sol\":8535:8722  vk.gamma_abc[3] = Pairing.G1Point(uint256(0x2bfab019bc87371c0b3a6739f817ed6a8d06e6101a3d88a4a782b92ea27c8524), uint256(0x305da2a9f02f346bd928425c849b0f2928b17ed1029666391f183c34b7f4d47d)) */\n      dup2\n      swap1\n      mstore\n      pop\n        /* \"contracts/artifacts/verifier.sol\":6581:8729  function verifyingKey() pure internal returns (VerifyingKey memory vk) {... */\n      swap1\n      jump\t// out\n        /* \"contracts/artifacts/verifier.sol\":3082:3536  function scalar_mul(G1Point memory p, uint s) internal view returns (G1Point memory r) {... */\n    tag_48:\n      0x40\n      dup1\n      mload\n      dup1\n      dup3\n      add\n      swap1\n      swap2\n      mstore\n      0x00\n      dup1\n      dup3\n      mstore\n      0x20\n      dup3\n      add\n      mstore\n        /* \"contracts/artifacts/verifier.sol\":3179:3199  uint[3] memory input */\n      tag_80\n      tag_81\n      jump\t// in\n    tag_80:\n        /* \"contracts/artifacts/verifier.sol\":3220:3223  p.X */\n      dup4\n      mload\n        /* \"contracts/artifacts/verifier.sol\":3209:3223  input[0] = p.X */\n      dup2\n      mstore\n        /* \"contracts/artifacts/verifier.sol\":3209:3217  input[0] */\n      0x20\n        /* \"contracts/artifacts/verifier.sol\":3244:3247  p.Y */\n      dup1\n      dup6\n      add\n      mload\n        /* \"contracts/artifacts/verifier.sol\":3233:3241  input[1] */\n      swap1\n      dup3\n      add\n        /* \"contracts/artifacts/verifier.sol\":3233:3247  input[1] = p.Y */\n      mstore\n        /* \"contracts/artifacts/verifier.sol\":3257:3265  input[2] */\n      0x40\n      dup2\n      add\n        /* \"contracts/artifacts/verifier.sol\":3257:3269  input[2] = s */\n      dup4\n      swap1\n      mstore\n      0x00\n        /* \"contracts/artifacts/verifier.sol\":3383:3387  0x60 */\n      0x60\n        /* \"contracts/artifacts/verifier.sol\":3380:3381  r */\n      dup4\n        /* \"contracts/artifacts/verifier.sol\":3374:3378  0x80 */\n      0x80\n        /* \"contracts/artifacts/verifier.sol\":3209:3223  input[0] = p.X */\n      dup5\n        /* \"contracts/artifacts/verifier.sol\":3364:3365  7 */\n      0x07\n        /* \"contracts/artifacts/verifier.sol\":3357:3361  2000 */\n      0x07d0\n        /* \"contracts/artifacts/verifier.sol\":3350:3355  gas() */\n      gas\n        /* \"contracts/artifacts/verifier.sol\":3346:3362  sub(gas(), 2000) */\n      sub\n        /* \"contracts/artifacts/verifier.sol\":3335:3388  staticcall(sub(gas(), 2000), 7, input, 0x80, r, 0x60) */\n      staticcall\n        /* \"contracts/artifacts/verifier.sol\":3324:3388  success := staticcall(sub(gas(), 2000), 7, input, 0x80, r, 0x60) */\n      swap1\n      pop\n      dup1\n        /* \"contracts/artifacts/verifier.sol\":3473:3493  case 0 { invalid() } */\n      dup1\n      iszero\n      tag_89\n      jumpi\n        /* \"contracts/artifacts/verifier.sol\":3458:3493  switch success case 0 { invalid() } */\n      jump(tag_88)\n        /* \"contracts/artifacts/verifier.sol\":3473:3493  case 0 { invalid() } */\n    tag_89:\n        /* \"contracts/artifacts/verifier.sol\":3482:3491  invalid() */\n      invalid\n        /* \"contracts/artifacts/verifier.sol\":3458:3493  switch success case 0 { invalid() } */\n    tag_88:\n      pop\n        /* \"contracts/artifacts/verifier.sol\":3521:3528  success */\n      dup1\n        /* \"contracts/artifacts/verifier.sol\":3512:3529  require (success) */\n      tag_90\n      jumpi\n      0x00\n      dup1\n      revert\n    tag_90:\n        /* \"contracts/artifacts/verifier.sol\":3169:3536  {... */\n      pop\n      pop\n        /* \"contracts/artifacts/verifier.sol\":3082:3536  function scalar_mul(G1Point memory p, uint s) internal view returns (G1Point memory r) {... */\n      swap3\n      swap2\n      pop\n      pop\n      jump\t// out\n        /* \"contracts/artifacts/verifier.sol\":2432:2925  function addition(G1Point memory p1, G1Point memory p2) internal view returns (G1Point memory r) {... */\n    tag_49:\n      0x40\n      dup1\n      mload\n      dup1\n      dup3\n      add\n      swap1\n      swap2\n      mstore\n      0x00\n      dup1\n      dup3\n      mstore\n      0x20\n      dup3\n      add\n      mstore\n        /* \"contracts/artifacts/verifier.sol\":2539:2559  uint[4] memory input */\n      tag_93\n      tag_94\n      jump\t// in\n    tag_93:\n        /* \"contracts/artifacts/verifier.sol\":2580:2584  p1.X */\n      dup4\n      mload\n        /* \"contracts/artifacts/verifier.sol\":2569:2584  input[0] = p1.X */\n      dup2\n      mstore\n        /* \"contracts/artifacts/verifier.sol\":2569:2577  input[0] */\n      0x20\n        /* \"contracts/artifacts/verifier.sol\":2605:2609  p1.Y */\n      dup1\n      dup6\n      add\n      mload\n        /* \"contracts/artifacts/verifier.sol\":2594:2602  input[1] */\n      dup2\n      dup4\n      add\n        /* \"contracts/artifacts/verifier.sol\":2594:2609  input[1] = p1.Y */\n      mstore\n        /* \"contracts/artifacts/verifier.sol\":2630:2634  p2.X */\n      dup4\n      mload\n        /* \"contracts/artifacts/verifier.sol\":2619:2627  input[2] */\n      0x40\n      dup4\n      add\n        /* \"contracts/artifacts/verifier.sol\":2619:2634  input[2] = p2.X */\n      mstore\n        /* \"contracts/artifacts/verifier.sol\":2655:2659  p2.Y */\n      dup4\n      add\n      mload\n        /* \"contracts/artifacts/verifier.sol\":2644:2652  input[3] */\n      0x60\n      dup1\n      dup4\n      add\n        /* \"contracts/artifacts/verifier.sol\":2644:2659  input[3] = p2.Y */\n      swap2\n      swap1\n      swap2\n      mstore\n      0x00\n      swap1\n        /* \"contracts/artifacts/verifier.sol\":2770:2771  r */\n      dup4\n        /* \"contracts/artifacts/verifier.sol\":2764:2768  0xc0 */\n      0xc0\n        /* \"contracts/artifacts/verifier.sol\":2569:2584  input[0] = p1.X */\n      dup5\n        /* \"contracts/artifacts/verifier.sol\":2754:2755  6 */\n      0x06\n        /* \"contracts/artifacts/verifier.sol\":2747:2751  2000 */\n      0x07d0\n        /* \"contracts/artifacts/verifier.sol\":2740:2745  gas() */\n      gas\n        /* \"contracts/artifacts/verifier.sol\":2736:2752  sub(gas(), 2000) */\n      sub\n        /* \"contracts/artifacts/verifier.sol\":2725:2778  staticcall(sub(gas(), 2000), 6, input, 0xc0, r, 0x60) */\n      staticcall\n        /* \"contracts/artifacts/verifier.sol\":2714:2778  success := staticcall(sub(gas(), 2000), 6, input, 0xc0, r, 0x60) */\n      swap1\n      pop\n      dup1\n        /* \"contracts/artifacts/verifier.sol\":2863:2883  case 0 { invalid() } */\n      dup1\n      iszero\n      tag_89\n      jumpi\n        /* \"contracts/artifacts/verifier.sol\":2848:2883  switch success case 0 { invalid() } */\n      jump(tag_88)\n        /* \"contracts/artifacts/verifier.sol\":2041:2381  function negate(G1Point memory p) pure internal returns (G1Point memory) {... */\n    tag_56:\n      0x40\n      dup1\n      mload\n      dup1\n      dup3\n      add\n      swap1\n      swap2\n      mstore\n      0x00\n      dup1\n      dup3\n      mstore\n      0x20\n      dup3\n      add\n      mstore\n        /* \"contracts/artifacts/verifier.sol\":2276:2279  p.X */\n      dup2\n      mload\n        /* \"contracts/artifacts/verifier.sol\":2185:2262  21888242871839275222246405745257275088696311157297823662689037894645226208583 */\n      0x30644e72e131a029b85045b68181585d97816a916871ca8d3c208c16d87cfd47\n      swap1\n        /* \"contracts/artifacts/verifier.sol\":2276:2284  p.X == 0 */\n      iszero\n        /* \"contracts/artifacts/verifier.sol\":2276:2296  p.X == 0 && p.Y == 0 */\n      dup1\n      iszero\n      tag_108\n      jumpi\n      pop\n        /* \"contracts/artifacts/verifier.sol\":2288:2291  p.Y */\n      0x20\n      dup4\n      add\n      mload\n        /* \"contracts/artifacts/verifier.sol\":2288:2296  p.Y == 0 */\n      iszero\n        /* \"contracts/artifacts/verifier.sol\":2276:2296  p.X == 0 && p.Y == 0 */\n    tag_108:\n        /* \"contracts/artifacts/verifier.sol\":2272:2330  if (p.X == 0 && p.Y == 0)... */\n      iszero\n      tag_109\n      jumpi\n      pop\n      pop\n        /* \"contracts/artifacts/verifier.sol\":2317:2330  G1Point(0, 0) */\n      0x40\n      dup1\n      mload\n      dup1\n      dup3\n      add\n      swap1\n      swap2\n      mstore\n      0x00\n      dup1\n      dup3\n      mstore\n      0x20\n      dup3\n      add\n      mstore\n      swap2\n        /* \"contracts/artifacts/verifier.sol\":2041:2381  function negate(G1Point memory p) pure internal returns (G1Point memory) {... */\n      swap1\n      pop\n      jump\t// out\n        /* \"contracts/artifacts/verifier.sol\":2272:2330  if (p.X == 0 && p.Y == 0)... */\n    tag_109:\n        /* \"contracts/artifacts/verifier.sol\":2347:2374  G1Point(p.X, q - (p.Y % q)) */\n      mload(0x40)\n      dup1\n      0x40\n      add\n      0x40\n      mstore\n      dup1\n        /* \"contracts/artifacts/verifier.sol\":2355:2356  p */\n      dup5\n        /* \"contracts/artifacts/verifier.sol\":2355:2358  p.X */\n      0x00\n      add\n      mload\n        /* \"contracts/artifacts/verifier.sol\":2347:2374  G1Point(p.X, q - (p.Y % q)) */\n      dup2\n      mstore\n      0x20\n      add\n        /* \"contracts/artifacts/verifier.sol\":2371:2372  q */\n      dup3\n        /* \"contracts/artifacts/verifier.sol\":2365:2366  p */\n      dup6\n        /* \"contracts/artifacts/verifier.sol\":2365:2368  p.Y */\n      0x20\n      add\n      mload\n        /* \"contracts/artifacts/verifier.sol\":2365:2372  p.Y % q */\n      tag_110\n      swap2\n      swap1\n      tag_111\n      jump\t// in\n    tag_110:\n        /* \"contracts/artifacts/verifier.sol\":2360:2373  q - (p.Y % q) */\n      tag_112\n      swap1\n        /* \"contracts/artifacts/verifier.sol\":2360:2361  q */\n      dup5\n        /* \"contracts/artifacts/verifier.sol\":2360:2373  q - (p.Y % q) */\n      tag_113\n      jump\t// in\n    tag_112:\n        /* \"contracts/artifacts/verifier.sol\":2347:2374  G1Point(p.X, q - (p.Y % q)) */\n      swap1\n      mstore\n        /* \"contracts/artifacts/verifier.sol\":2340:2374  return G1Point(p.X, q - (p.Y % q)) */\n      swap4\n        /* \"contracts/artifacts/verifier.sol\":2041:2381  function negate(G1Point memory p) pure internal returns (G1Point memory) {... */\n      swap3\n      pop\n      pop\n      pop\n      jump\t// out\n        /* \"contracts/artifacts/verifier.sol\":5678:6230  function pairingProd4(... */\n    tag_59:\n        /* \"contracts/artifacts/verifier.sol\":5967:5983  new G1Point[](4) */\n      0x40\n      dup1\n      mload\n        /* \"contracts/artifacts/verifier.sol\":5981:5982  4 */\n      0x04\n        /* \"contracts/artifacts/verifier.sol\":5967:5983  new G1Point[](4) */\n      dup1\n      dup3\n      mstore\n      0xa0\n      dup3\n      add\n      swap1\n      swap3\n      mstore\n        /* \"contracts/artifacts/verifier.sol\":5929:5933  bool */\n      0x00\n      swap2\n      dup3\n      swap2\n        /* \"contracts/artifacts/verifier.sol\":5967:5983  new G1Point[](4) */\n      swap1\n      dup2\n      0x20\n      add\n    tag_118:\n      0x40\n      dup1\n      mload\n      dup1\n      dup3\n      add\n      swap1\n      swap2\n      mstore\n      0x00\n      dup1\n      dup3\n      mstore\n      0x20\n      dup3\n      add\n      mstore\n      dup2\n      mstore\n      0x20\n      add\n      swap1\n      0x01\n      swap1\n      sub\n      swap1\n      dup2\n      tag_118\n      jumpi\n      pop\n      pop\n        /* \"contracts/artifacts/verifier.sol\":6015:6031  new G2Point[](4) */\n      0x40\n      dup1\n      mload\n        /* \"contracts/artifacts/verifier.sol\":6029:6030  4 */\n      0x04\n        /* \"contracts/artifacts/verifier.sol\":6015:6031  new G2Point[](4) */\n      dup1\n      dup3\n      mstore\n      0xa0\n      dup3\n      add\n      swap1\n      swap3\n      mstore\n        /* \"contracts/artifacts/verifier.sol\":5945:5983  G1Point[] memory p1 = new G1Point[](4) */\n      swap2\n      swap3\n      pop\n        /* \"contracts/artifacts/verifier.sol\":5993:6012  G2Point[] memory p2 */\n      0x00\n      swap2\n        /* \"contracts/artifacts/verifier.sol\":6015:6031  new G2Point[](4) */\n      swap1\n      0x20\n      dup3\n      add\n    tag_123:\n      tag_124\n      tag_125\n      jump\t// in\n    tag_124:\n      dup2\n      mstore\n      0x20\n      add\n      swap1\n      0x01\n      swap1\n      sub\n      swap1\n      dup2\n      tag_123\n      jumpi\n      swap1\n      pop\n      pop\n        /* \"contracts/artifacts/verifier.sol\":5993:6031  G2Point[] memory p2 = new G2Point[](4) */\n      swap1\n      pop\n        /* \"contracts/artifacts/verifier.sol\":6049:6051  a1 */\n      dup11\n        /* \"contracts/artifacts/verifier.sol\":6041:6043  p1 */\n      dup3\n        /* \"contracts/artifacts/verifier.sol\":6044:6045  0 */\n      0x00\n        /* \"contracts/artifacts/verifier.sol\":6041:6046  p1[0] */\n      dup2\n      mload\n      dup2\n      lt\n      tag_127\n      jumpi\n      tag_127\n      tag_20\n      jump\t// in\n    tag_127:\n      0x20\n      mul\n      0x20\n      add\n      add\n        /* \"contracts/artifacts/verifier.sol\":6041:6051  p1[0] = a1 */\n      dup2\n      swap1\n      mstore\n      pop\n        /* \"contracts/artifacts/verifier.sol\":6069:6071  b1 */\n      dup9\n        /* \"contracts/artifacts/verifier.sol\":6061:6063  p1 */\n      dup3\n        /* \"contracts/artifacts/verifier.sol\":6064:6065  1 */\n      0x01\n        /* \"contracts/artifacts/verifier.sol\":6061:6066  p1[1] */\n      dup2\n      mload\n      dup2\n      lt\n      tag_129\n      jumpi\n      tag_129\n      tag_20\n      jump\t// in\n    tag_129:\n      0x20\n      mul\n      0x20\n      add\n      add\n        /* \"contracts/artifacts/verifier.sol\":6061:6071  p1[1] = b1 */\n      dup2\n      swap1\n      mstore\n      pop\n        /* \"contracts/artifacts/verifier.sol\":6089:6091  c1 */\n      dup7\n        /* \"contracts/artifacts/verifier.sol\":6081:6083  p1 */\n      dup3\n        /* \"contracts/artifacts/verifier.sol\":6084:6085  2 */\n      0x02\n        /* \"contracts/artifacts/verifier.sol\":6081:6086  p1[2] */\n      dup2\n      mload\n      dup2\n      lt\n      tag_131\n      jumpi\n      tag_131\n      tag_20\n      jump\t// in\n    tag_131:\n      0x20\n      mul\n      0x20\n      add\n      add\n        /* \"contracts/artifacts/verifier.sol\":6081:6091  p1[2] = c1 */\n      dup2\n      swap1\n      mstore\n      pop\n        /* \"contracts/artifacts/verifier.sol\":6109:6111  d1 */\n      dup5\n        /* \"contracts/artifacts/verifier.sol\":6101:6103  p1 */\n      dup3\n        /* \"contracts/artifacts/verifier.sol\":6104:6105  3 */\n      0x03\n        /* \"contracts/artifacts/verifier.sol\":6101:6106  p1[3] */\n      dup2\n      mload\n      dup2\n      lt\n      tag_133\n      jumpi\n      tag_133\n      tag_20\n      jump\t// in\n    tag_133:\n      0x20\n      mul\n      0x20\n      add\n      add\n        /* \"contracts/artifacts/verifier.sol\":6101:6111  p1[3] = d1 */\n      dup2\n      swap1\n      mstore\n      pop\n        /* \"contracts/artifacts/verifier.sol\":6129:6131  a2 */\n      dup10\n        /* \"contracts/artifacts/verifier.sol\":6121:6123  p2 */\n      dup2\n        /* \"contracts/artifacts/verifier.sol\":6124:6125  0 */\n      0x00\n        /* \"contracts/artifacts/verifier.sol\":6121:6126  p2[0] */\n      dup2\n      mload\n      dup2\n      lt\n      tag_135\n      jumpi\n      tag_135\n      tag_20\n      jump\t// in\n    tag_135:\n      0x20\n      mul\n      0x20\n      add\n      add\n        /* \"contracts/artifacts/verifier.sol\":6121:6131  p2[0] = a2 */\n      dup2\n      swap1\n      mstore\n      pop\n        /* \"contracts/artifacts/verifier.sol\":6149:6151  b2 */\n      dup8\n        /* \"contracts/artifacts/verifier.sol\":6141:6143  p2 */\n      dup2\n        /* \"contracts/artifacts/verifier.sol\":6144:6145  1 */\n      0x01\n        /* \"contracts/artifacts/verifier.sol\":6141:6146  p2[1] */\n      dup2\n      mload\n      dup2\n      lt\n      tag_137\n      jumpi\n      tag_137\n      tag_20\n      jump\t// in\n    tag_137:\n      0x20\n      mul\n      0x20\n      add\n      add\n        /* \"contracts/artifacts/verifier.sol\":6141:6151  p2[1] = b2 */\n      dup2\n      swap1\n      mstore\n      pop\n        /* \"contracts/artifacts/verifier.sol\":6169:6171  c2 */\n      dup6\n        /* \"contracts/artifacts/verifier.sol\":6161:6163  p2 */\n      dup2\n        /* \"contracts/artifacts/verifier.sol\":6164:6165  2 */\n      0x02\n        /* \"contracts/artifacts/verifier.sol\":6161:6166  p2[2] */\n      dup2\n      mload\n      dup2\n      lt\n      tag_139\n      jumpi\n      tag_139\n      tag_20\n      jump\t// in\n    tag_139:\n      0x20\n      mul\n      0x20\n      add\n      add\n        /* \"contracts/artifacts/verifier.sol\":6161:6171  p2[2] = c2 */\n      dup2\n      swap1\n      mstore\n      pop\n        /* \"contracts/artifacts/verifier.sol\":6189:6191  d2 */\n      dup4\n        /* \"contracts/artifacts/verifier.sol\":6181:6183  p2 */\n      dup2\n        /* \"contracts/artifacts/verifier.sol\":6184:6185  3 */\n      0x03\n        /* \"contracts/artifacts/verifier.sol\":6181:6186  p2[3] */\n      dup2\n      mload\n      dup2\n      lt\n      tag_141\n      jumpi\n      tag_141\n      tag_20\n      jump\t// in\n    tag_141:\n      0x20\n      mul\n      0x20\n      add\n      add\n        /* \"contracts/artifacts/verifier.sol\":6181:6191  p2[3] = d2 */\n      dup2\n      swap1\n      mstore\n      pop\n        /* \"contracts/artifacts/verifier.sol\":6208:6223  pairing(p1, p2) */\n      tag_142\n        /* \"contracts/artifacts/verifier.sol\":6216:6218  p1 */\n      dup3\n        /* \"contracts/artifacts/verifier.sol\":6220:6222  p2 */\n      dup3\n        /* \"contracts/artifacts/verifier.sol\":6208:6215  pairing */\n      tag_143\n        /* \"contracts/artifacts/verifier.sol\":6208:6223  pairing(p1, p2) */\n      jump\t// in\n    tag_142:\n        /* \"contracts/artifacts/verifier.sol\":6201:6223  return pairing(p1, p2) */\n      swap12\n        /* \"contracts/artifacts/verifier.sol\":5678:6230  function pairingProd4(... */\n      swap11\n      pop\n      pop\n      pop\n      pop\n      pop\n      pop\n      pop\n      pop\n      pop\n      pop\n      pop\n      jump\t// out\n        /* \"contracts/artifacts/verifier.sol\":3747:4670  function pairing(G1Point[] memory p1, G2Point[] memory p2) internal view returns (bool) {... */\n    tag_143:\n        /* \"contracts/artifacts/verifier.sol\":3829:3833  bool */\n      0x00\n        /* \"contracts/artifacts/verifier.sol\":3866:3868  p2 */\n      dup2\n        /* \"contracts/artifacts/verifier.sol\":3866:3875  p2.length */\n      mload\n        /* \"contracts/artifacts/verifier.sol\":3853:3855  p1 */\n      dup4\n        /* \"contracts/artifacts/verifier.sol\":3853:3862  p1.length */\n      mload\n        /* \"contracts/artifacts/verifier.sol\":3853:3875  p1.length == p2.length */\n      eq\n        /* \"contracts/artifacts/verifier.sol\":3845:3876  require(p1.length == p2.length) */\n      tag_145\n      jumpi\n      0x00\n      dup1\n      revert\n    tag_145:\n        /* \"contracts/artifacts/verifier.sol\":3902:3911  p1.length */\n      dup3\n      mload\n        /* \"contracts/artifacts/verifier.sol\":3886:3899  uint elements */\n      0x00\n        /* \"contracts/artifacts/verifier.sol\":3938:3950  elements * 6 */\n      tag_146\n        /* \"contracts/artifacts/verifier.sol\":3902:3911  p1.length */\n      dup3\n        /* \"contracts/artifacts/verifier.sol\":3949:3950  6 */\n      0x06\n        /* \"contracts/artifacts/verifier.sol\":3938:3950  elements * 6 */\n      tag_147\n      jump\t// in\n    tag_146:\n        /* \"contracts/artifacts/verifier.sol\":3921:3950  uint inputSize = elements * 6 */\n      swap1\n      pop\n        /* \"contracts/artifacts/verifier.sol\":3960:3979  uint[] memory input */\n      0x00\n        /* \"contracts/artifacts/verifier.sol\":3993:4002  inputSize */\n      dup2\n        /* \"contracts/artifacts/verifier.sol\":3982:4003  new uint[](inputSize) */\n      0xffffffffffffffff\n      dup2\n      gt\n      iszero\n      tag_149\n      jumpi\n      tag_149\n      tag_13\n      jump\t// in\n    tag_149:\n      mload(0x40)\n      swap1\n      dup1\n      dup3\n      mstore\n      dup1\n      0x20\n      mul\n      0x20\n      add\n      dup3\n      add\n      0x40\n      mstore\n      dup1\n      iszero\n      tag_150\n      jumpi\n      dup2\n      0x20\n      add\n      0x20\n      dup3\n      mul\n      dup1\n      calldatasize\n      dup4\n      calldatacopy\n      add\n      swap1\n      pop\n    tag_150:\n      pop\n        /* \"contracts/artifacts/verifier.sol\":3960:4003  uint[] memory input = new uint[](inputSize) */\n      swap1\n      pop\n        /* \"contracts/artifacts/verifier.sol\":4018:4024  uint i */\n      0x00\n        /* \"contracts/artifacts/verifier.sol\":4013:4320  for (uint i = 0; i < elements; i++)... */\n    tag_151:\n        /* \"contracts/artifacts/verifier.sol\":4034:4042  elements */\n      dup4\n        /* \"contracts/artifacts/verifier.sol\":4030:4031  i */\n      dup2\n        /* \"contracts/artifacts/verifier.sol\":4030:4042  i < elements */\n      lt\n        /* \"contracts/artifacts/verifier.sol\":4013:4320  for (uint i = 0; i < elements; i++)... */\n      iszero\n      tag_152\n      jumpi\n        /* \"contracts/artifacts/verifier.sol\":4090:4092  p1 */\n      dup7\n        /* \"contracts/artifacts/verifier.sol\":4093:4094  i */\n      dup2\n        /* \"contracts/artifacts/verifier.sol\":4090:4095  p1[i] */\n      dup2\n      mload\n      dup2\n      lt\n      tag_155\n      jumpi\n      tag_155\n      tag_20\n      jump\t// in\n    tag_155:\n      0x20\n      mul\n      0x20\n      add\n      add\n      mload\n        /* \"contracts/artifacts/verifier.sol\":4090:4097  p1[i].X */\n      0x00\n      add\n      mload\n        /* \"contracts/artifacts/verifier.sol\":4071:4076  input */\n      dup3\n        /* \"contracts/artifacts/verifier.sol\":4077:4078  i */\n      dup3\n        /* \"contracts/artifacts/verifier.sol\":4081:4082  6 */\n      0x06\n        /* \"contracts/artifacts/verifier.sol\":4077:4082  i * 6 */\n      tag_156\n      swap2\n      swap1\n      tag_147\n      jump\t// in\n    tag_156:\n        /* \"contracts/artifacts/verifier.sol\":4077:4086  i * 6 + 0 */\n      tag_157\n      swap1\n        /* \"contracts/artifacts/verifier.sol\":4085:4086  0 */\n      0x00\n        /* \"contracts/artifacts/verifier.sol\":4077:4086  i * 6 + 0 */\n      tag_33\n      jump\t// in\n    tag_157:\n        /* \"contracts/artifacts/verifier.sol\":4071:4087  input[i * 6 + 0] */\n      dup2\n      mload\n      dup2\n      lt\n      tag_159\n      jumpi\n      tag_159\n      tag_20\n      jump\t// in\n    tag_159:\n      0x20\n      mul\n      0x20\n      add\n      add\n        /* \"contracts/artifacts/verifier.sol\":4071:4097  input[i * 6 + 0] = p1[i].X */\n      dup2\n      dup2\n      mstore\n      pop\n      pop\n        /* \"contracts/artifacts/verifier.sol\":4130:4132  p1 */\n      dup7\n        /* \"contracts/artifacts/verifier.sol\":4133:4134  i */\n      dup2\n        /* \"contracts/artifacts/verifier.sol\":4130:4135  p1[i] */\n      dup2\n      mload\n      dup2\n      lt\n      tag_161\n      jumpi\n      tag_161\n      tag_20\n      jump\t// in\n    tag_161:\n      0x20\n      mul\n      0x20\n      add\n      add\n      mload\n        /* \"contracts/artifacts/verifier.sol\":4130:4137  p1[i].Y */\n      0x20\n      add\n      mload\n        /* \"contracts/artifacts/verifier.sol\":4111:4116  input */\n      dup3\n        /* \"contracts/artifacts/verifier.sol\":4117:4118  i */\n      dup3\n        /* \"contracts/artifacts/verifier.sol\":4121:4122  6 */\n      0x06\n        /* \"contracts/artifacts/verifier.sol\":4117:4122  i * 6 */\n      tag_162\n      swap2\n      swap1\n      tag_147\n      jump\t// in\n    tag_162:\n        /* \"contracts/artifacts/verifier.sol\":4117:4126  i * 6 + 1 */\n      tag_163\n      swap1\n        /* \"contracts/artifacts/verifier.sol\":4125:4126  1 */\n      0x01\n        /* \"contracts/artifacts/verifier.sol\":4117:4126  i * 6 + 1 */\n      tag_33\n      jump\t// in\n    tag_163:\n        /* \"contracts/artifacts/verifier.sol\":4111:4127  input[i * 6 + 1] */\n      dup2\n      mload\n      dup2\n      lt\n      tag_165\n      jumpi\n      tag_165\n      tag_20\n      jump\t// in\n    tag_165:\n      0x20\n      mul\n      0x20\n      add\n      add\n        /* \"contracts/artifacts/verifier.sol\":4111:4137  input[i * 6 + 1] = p1[i].Y */\n      dup2\n      dup2\n      mstore\n      pop\n      pop\n        /* \"contracts/artifacts/verifier.sol\":4170:4172  p2 */\n      dup6\n        /* \"contracts/artifacts/verifier.sol\":4173:4174  i */\n      dup2\n        /* \"contracts/artifacts/verifier.sol\":4170:4175  p2[i] */\n      dup2\n      mload\n      dup2\n      lt\n      tag_167\n      jumpi\n      tag_167\n      tag_20\n      jump\t// in\n    tag_167:\n      0x20\n      swap1\n      dup2\n      mul\n      swap2\n      swap1\n      swap2\n      add\n      dup2\n      add\n      mload\n        /* \"contracts/artifacts/verifier.sol\":4170:4177  p2[i].X */\n      mload\n        /* \"contracts/artifacts/verifier.sol\":4170:4180  p2[i].X[1] */\n      add\n      mload\n        /* \"contracts/artifacts/verifier.sol\":4151:4156  input */\n      dup3\n        /* \"contracts/artifacts/verifier.sol\":4157:4162  i * 6 */\n      tag_170\n        /* \"contracts/artifacts/verifier.sol\":4157:4158  i */\n      dup4\n        /* \"contracts/artifacts/verifier.sol\":4161:4162  6 */\n      0x06\n        /* \"contracts/artifacts/verifier.sol\":4157:4162  i * 6 */\n      tag_147\n      jump\t// in\n    tag_170:\n        /* \"contracts/artifacts/verifier.sol\":4157:4166  i * 6 + 2 */\n      tag_171\n      swap1\n        /* \"contracts/artifacts/verifier.sol\":4165:4166  2 */\n      0x02\n        /* \"contracts/artifacts/verifier.sol\":4157:4166  i * 6 + 2 */\n      tag_33\n      jump\t// in\n    tag_171:\n        /* \"contracts/artifacts/verifier.sol\":4151:4167  input[i * 6 + 2] */\n      dup2\n      mload\n      dup2\n      lt\n      tag_173\n      jumpi\n      tag_173\n      tag_20\n      jump\t// in\n    tag_173:\n      0x20\n      mul\n      0x20\n      add\n      add\n        /* \"contracts/artifacts/verifier.sol\":4151:4180  input[i * 6 + 2] = p2[i].X[1] */\n      dup2\n      dup2\n      mstore\n      pop\n      pop\n        /* \"contracts/artifacts/verifier.sol\":4213:4215  p2 */\n      dup6\n        /* \"contracts/artifacts/verifier.sol\":4216:4217  i */\n      dup2\n        /* \"contracts/artifacts/verifier.sol\":4213:4218  p2[i] */\n      dup2\n      mload\n      dup2\n      lt\n      tag_175\n      jumpi\n      tag_175\n      tag_20\n      jump\t// in\n    tag_175:\n      0x20\n      swap1\n      dup2\n      mul\n      swap2\n      swap1\n      swap2\n      add\n      add\n      mload\n        /* \"contracts/artifacts/verifier.sol\":4213:4220  p2[i].X */\n      mload\n        /* \"contracts/artifacts/verifier.sol\":4213:4223  p2[i].X[0] */\n      mload\n        /* \"contracts/artifacts/verifier.sol\":4194:4199  input */\n      dup3\n        /* \"contracts/artifacts/verifier.sol\":4200:4205  i * 6 */\n      tag_178\n        /* \"contracts/artifacts/verifier.sol\":4200:4201  i */\n      dup4\n        /* \"contracts/artifacts/verifier.sol\":4204:4205  6 */\n      0x06\n        /* \"contracts/artifacts/verifier.sol\":4200:4205  i * 6 */\n      tag_147\n      jump\t// in\n    tag_178:\n        /* \"contracts/artifacts/verifier.sol\":4200:4209  i * 6 + 3 */\n      tag_179\n      swap1\n        /* \"contracts/artifacts/verifier.sol\":4208:4209  3 */\n      0x03\n        /* \"contracts/artifacts/verifier.sol\":4200:4209  i * 6 + 3 */\n      tag_33\n      jump\t// in\n    tag_179:\n        /* \"contracts/artifacts/verifier.sol\":4194:4210  input[i * 6 + 3] */\n      dup2\n      mload\n      dup2\n      lt\n      tag_181\n      jumpi\n      tag_181\n      tag_20\n      jump\t// in\n    tag_181:\n      0x20\n      mul\n      0x20\n      add\n      add\n        /* \"contracts/artifacts/verifier.sol\":4194:4223  input[i * 6 + 3] = p2[i].X[0] */\n      dup2\n      dup2\n      mstore\n      pop\n      pop\n        /* \"contracts/artifacts/verifier.sol\":4256:4258  p2 */\n      dup6\n        /* \"contracts/artifacts/verifier.sol\":4259:4260  i */\n      dup2\n        /* \"contracts/artifacts/verifier.sol\":4256:4261  p2[i] */\n      dup2\n      mload\n      dup2\n      lt\n      tag_183\n      jumpi\n      tag_183\n      tag_20\n      jump\t// in\n    tag_183:\n      0x20\n      mul\n      0x20\n      add\n      add\n      mload\n        /* \"contracts/artifacts/verifier.sol\":4256:4263  p2[i].Y */\n      0x20\n      add\n      mload\n        /* \"contracts/artifacts/verifier.sol\":4264:4265  1 */\n      0x01\n        /* \"contracts/artifacts/verifier.sol\":4256:4266  p2[i].Y[1] */\n      0x02\n      dup2\n      lt\n      tag_185\n      jumpi\n      tag_185\n      tag_20\n      jump\t// in\n    tag_185:\n      0x20\n      mul\n      add\n      mload\n        /* \"contracts/artifacts/verifier.sol\":4237:4242  input */\n      dup3\n        /* \"contracts/artifacts/verifier.sol\":4243:4248  i * 6 */\n      tag_186\n        /* \"contracts/artifacts/verifier.sol\":4243:4244  i */\n      dup4\n        /* \"contracts/artifacts/verifier.sol\":4247:4248  6 */\n      0x06\n        /* \"contracts/artifacts/verifier.sol\":4243:4248  i * 6 */\n      tag_147\n      jump\t// in\n    tag_186:\n        /* \"contracts/artifacts/verifier.sol\":4243:4252  i * 6 + 4 */\n      tag_187\n      swap1\n        /* \"contracts/artifacts/verifier.sol\":4251:4252  4 */\n      0x04\n        /* \"contracts/artifacts/verifier.sol\":4243:4252  i * 6 + 4 */\n      tag_33\n      jump\t// in\n    tag_187:\n        /* \"contracts/artifacts/verifier.sol\":4237:4253  input[i * 6 + 4] */\n      dup2\n      mload\n      dup2\n      lt\n      tag_189\n      jumpi\n      tag_189\n      tag_20\n      jump\t// in\n    tag_189:\n      0x20\n      mul\n      0x20\n      add\n      add\n        /* \"contracts/artifacts/verifier.sol\":4237:4266  input[i * 6 + 4] = p2[i].Y[1] */\n      dup2\n      dup2\n      mstore\n      pop\n      pop\n        /* \"contracts/artifacts/verifier.sol\":4299:4301  p2 */\n      dup6\n        /* \"contracts/artifacts/verifier.sol\":4302:4303  i */\n      dup2\n        /* \"contracts/artifacts/verifier.sol\":4299:4304  p2[i] */\n      dup2\n      mload\n      dup2\n      lt\n      tag_191\n      jumpi\n      tag_191\n      tag_20\n      jump\t// in\n    tag_191:\n      0x20\n      mul\n      0x20\n      add\n      add\n      mload\n        /* \"contracts/artifacts/verifier.sol\":4299:4306  p2[i].Y */\n      0x20\n      add\n      mload\n        /* \"contracts/artifacts/verifier.sol\":4307:4308  0 */\n      0x00\n        /* \"contracts/artifacts/verifier.sol\":4299:4309  p2[i].Y[0] */\n      0x02\n      dup2\n      lt\n      tag_193\n      jumpi\n      tag_193\n      tag_20\n      jump\t// in\n    tag_193:\n      0x20\n      mul\n      add\n      mload\n        /* \"contracts/artifacts/verifier.sol\":4280:4285  input */\n      dup3\n        /* \"contracts/artifacts/verifier.sol\":4286:4291  i * 6 */\n      tag_194\n        /* \"contracts/artifacts/verifier.sol\":4286:4287  i */\n      dup4\n        /* \"contracts/artifacts/verifier.sol\":4290:4291  6 */\n      0x06\n        /* \"contracts/artifacts/verifier.sol\":4286:4291  i * 6 */\n      tag_147\n      jump\t// in\n    tag_194:\n        /* \"contracts/artifacts/verifier.sol\":4286:4295  i * 6 + 5 */\n      tag_195\n      swap1\n        /* \"contracts/artifacts/verifier.sol\":4294:4295  5 */\n      0x05\n        /* \"contracts/artifacts/verifier.sol\":4286:4295  i * 6 + 5 */\n      tag_33\n      jump\t// in\n    tag_195:\n        /* \"contracts/artifacts/verifier.sol\":4280:4296  input[i * 6 + 5] */\n      dup2\n      mload\n      dup2\n      lt\n      tag_197\n      jumpi\n      tag_197\n      tag_20\n      jump\t// in\n    tag_197:\n      0x20\n      swap1\n      dup2\n      mul\n      swap2\n      swap1\n      swap2\n      add\n      add\n        /* \"contracts/artifacts/verifier.sol\":4280:4309  input[i * 6 + 5] = p2[i].Y[0] */\n      mstore\n        /* \"contracts/artifacts/verifier.sol\":4044:4047  i++ */\n      dup1\n      tag_198\n      dup2\n      tag_24\n      jump\t// in\n    tag_198:\n      swap2\n      pop\n      pop\n        /* \"contracts/artifacts/verifier.sol\":4013:4320  for (uint i = 0; i < elements; i++)... */\n      jump(tag_151)\n    tag_152:\n      pop\n        /* \"contracts/artifacts/verifier.sol\":4329:4347  uint[1] memory out */\n      tag_199\n      tag_200\n      jump\t// in\n    tag_199:\n        /* \"contracts/artifacts/verifier.sol\":4357:4369  bool success */\n      0x00\n        /* \"contracts/artifacts/verifier.sol\":4490:4494  0x20 */\n      0x20\n        /* \"contracts/artifacts/verifier.sol\":4485:4488  out */\n      dup3\n        /* \"contracts/artifacts/verifier.sol\":4478:4482  0x20 */\n      0x20\n        /* \"contracts/artifacts/verifier.sol\":4467:4476  inputSize */\n      dup7\n        /* \"contracts/artifacts/verifier.sol\":4463:4483  mul(inputSize, 0x20) */\n      mul\n        /* \"contracts/artifacts/verifier.sol\":4456:4460  0x20 */\n      0x20\n        /* \"contracts/artifacts/verifier.sol\":4449:4454  input */\n      dup7\n        /* \"contracts/artifacts/verifier.sol\":4445:4461  add(input, 0x20) */\n      add\n        /* \"contracts/artifacts/verifier.sol\":4442:4443  8 */\n      0x08\n        /* \"contracts/artifacts/verifier.sol\":4435:4439  2000 */\n      0x07d0\n        /* \"contracts/artifacts/verifier.sol\":4428:4433  gas() */\n      gas\n        /* \"contracts/artifacts/verifier.sol\":4424:4440  sub(gas(), 2000) */\n      sub\n        /* \"contracts/artifacts/verifier.sol\":4413:4495  staticcall(sub(gas(), 2000), 8, add(input, 0x20), mul(inputSize, 0x20), out, 0x20) */\n      staticcall\n        /* \"contracts/artifacts/verifier.sol\":4402:4495  success := staticcall(sub(gas(), 2000), 8, add(input, 0x20), mul(inputSize, 0x20), out, 0x20) */\n      swap1\n      pop\n      dup1\n        /* \"contracts/artifacts/verifier.sol\":4580:4600  case 0 { invalid() } */\n      dup1\n      iszero\n      tag_89\n      jumpi\n        /* \"contracts/artifacts/verifier.sol\":4565:4600  switch success case 0 { invalid() } */\n      pop\n        /* \"contracts/artifacts/verifier.sol\":4627:4634  success */\n      dup1\n        /* \"contracts/artifacts/verifier.sol\":4619:4635  require(success) */\n      tag_203\n      jumpi\n      0x00\n      dup1\n      revert\n    tag_203:\n      pop\n        /* \"contracts/artifacts/verifier.sol\":4652:4658  out[0] */\n      mload\n        /* \"contracts/artifacts/verifier.sol\":4652:4663  out[0] != 0 */\n      iszero\n      iszero\n      swap7\n      swap6\n      pop\n      pop\n      pop\n      pop\n      pop\n      pop\n        /* \"contracts/artifacts/verifier.sol\":3747:4670  function pairing(G1Point[] memory p1, G2Point[] memory p2) internal view returns (bool) {... */\n      jump\t// out\n    tag_62:\n      0x40\n      dup1\n      mload\n      0xe0\n      dup2\n      add\n      swap1\n      swap2\n      mstore\n      0x00\n      0xa0\n      dup3\n      add\n      dup2\n      dup2\n      mstore\n      0xc0\n      dup4\n      add\n      swap2\n      swap1\n      swap2\n      mstore\n      dup2\n      mstore\n      0x20\n      dup2\n      add\n      tag_207\n      tag_125\n      jump\t// in\n    tag_207:\n      dup2\n      mstore\n      0x20\n      add\n      tag_208\n      tag_125\n      jump\t// in\n    tag_208:\n      dup2\n      mstore\n      0x20\n      add\n      tag_209\n      tag_125\n      jump\t// in\n    tag_209:\n      dup2\n      mstore\n      0x20\n      add\n      0x60\n      dup2\n      mstore\n      pop\n      swap1\n      jump\t// out\n    tag_81:\n      mload(0x40)\n      dup1\n      0x60\n      add\n      0x40\n      mstore\n      dup1\n      0x03\n      swap1\n      0x20\n      dup3\n      mul\n      dup1\n      calldatasize\n      dup4\n      calldatacopy\n      pop\n      swap2\n      swap3\n      swap2\n      pop\n      pop\n      jump\t// out\n    tag_94:\n      mload(0x40)\n      dup1\n      0x80\n      add\n      0x40\n      mstore\n      dup1\n      0x04\n      swap1\n      0x20\n      dup3\n      mul\n      dup1\n      calldatasize\n      dup4\n      calldatacopy\n      pop\n      swap2\n      swap3\n      swap2\n      pop\n      pop\n      jump\t// out\n    tag_125:\n      mload(0x40)\n      dup1\n      0x40\n      add\n      0x40\n      mstore\n      dup1\n      tag_210\n      tag_211\n      jump\t// in\n    tag_210:\n      dup2\n      mstore\n      0x20\n      add\n      tag_212\n      tag_211\n      jump\t// in\n    tag_212:\n      swap1\n      mstore\n      swap1\n      jump\t// out\n    tag_200:\n      mload(0x40)\n      dup1\n      0x20\n      add\n      0x40\n      mstore\n      dup1\n      0x01\n      swap1\n      0x20\n      dup3\n      mul\n      dup1\n      calldatasize\n      dup4\n      calldatacopy\n      pop\n      swap2\n      swap3\n      swap2\n      pop\n      pop\n      jump\t// out\n    tag_211:\n      mload(0x40)\n      dup1\n      0x40\n      add\n      0x40\n      mstore\n      dup1\n      0x02\n      swap1\n      0x20\n      dup3\n      mul\n      dup1\n      calldatasize\n      dup4\n      calldatacopy\n      pop\n      swap2\n      swap3\n      swap2\n      pop\n      pop\n      jump\t// out\n        /* \"#utility.yul\":14:533   */\n    tag_214:\n        /* \"#utility.yul\":64:69   */\n      0x00\n        /* \"#utility.yul\":117:120   */\n      dup3\n        /* \"#utility.yul\":110:114   */\n      0x1f\n        /* \"#utility.yul\":102:108   */\n      dup4\n        /* \"#utility.yul\":98:115   */\n      add\n        /* \"#utility.yul\":94:121   */\n      slt\n        /* \"#utility.yul\":84:139   */\n      tag_216\n      jumpi\n        /* \"#utility.yul\":135:136   */\n      0x00\n        /* \"#utility.yul\":132:133   */\n      dup1\n        /* \"#utility.yul\":125:137   */\n      revert\n        /* \"#utility.yul\":84:139   */\n    tag_216:\n        /* \"#utility.yul\":159:180   */\n      tag_217\n      tag_218\n      jump\t// in\n    tag_217:\n        /* \"#utility.yul\":202:205   */\n      dup1\n        /* \"#utility.yul\":225:231   */\n      dup4\n        /* \"#utility.yul\":263:266   */\n      dup6\n        /* \"#utility.yul\":258:260   */\n      0x40\n        /* \"#utility.yul\":250:256   */\n      dup7\n        /* \"#utility.yul\":246:261   */\n      add\n        /* \"#utility.yul\":243:267   */\n      gt\n        /* \"#utility.yul\":240:284   */\n      iszero\n      tag_219\n      jumpi\n        /* \"#utility.yul\":280:281   */\n      0x00\n        /* \"#utility.yul\":277:278   */\n      dup1\n        /* \"#utility.yul\":270:282   */\n      revert\n        /* \"#utility.yul\":240:284   */\n    tag_219:\n        /* \"#utility.yul\":302:303   */\n      0x00\n        /* \"#utility.yul\":312:504   */\n    tag_220:\n        /* \"#utility.yul\":326:330   */\n      0x02\n        /* \"#utility.yul\":323:324   */\n      dup2\n        /* \"#utility.yul\":320:331   */\n      lt\n        /* \"#utility.yul\":312:504   */\n      iszero\n      tag_222\n      jumpi\n        /* \"#utility.yul\":385:402   */\n      dup2\n      calldataload\n        /* \"#utility.yul\":373:403   */\n      dup5\n      mstore\n        /* \"#utility.yul\":426:430   */\n      0x20\n        /* \"#utility.yul\":450:462   */\n      swap4\n      dup5\n      add\n      swap4\n        /* \"#utility.yul\":482:494   */\n      swap1\n      swap2\n      add\n      swap1\n        /* \"#utility.yul\":346:347   */\n      0x01\n        /* \"#utility.yul\":339:348   */\n      add\n        /* \"#utility.yul\":312:504   */\n      jump(tag_220)\n    tag_222:\n      pop\n        /* \"#utility.yul\":522:527   */\n      swap1\n      swap6\n        /* \"#utility.yul\":14:533   */\n      swap5\n      pop\n      pop\n      pop\n      pop\n      pop\n      jump\t// out\n        /* \"#utility.yul\":538:1014   */\n    tag_223:\n        /* \"#utility.yul\":592:597   */\n      0x00\n        /* \"#utility.yul\":640:644   */\n      0x40\n        /* \"#utility.yul\":628:637   */\n      dup3\n        /* \"#utility.yul\":623:626   */\n      dup5\n        /* \"#utility.yul\":619:638   */\n      sub\n        /* \"#utility.yul\":615:645   */\n      slt\n        /* \"#utility.yul\":612:662   */\n      iszero\n      tag_225\n      jumpi\n        /* \"#utility.yul\":658:659   */\n      0x00\n        /* \"#utility.yul\":655:656   */\n      dup1\n        /* \"#utility.yul\":648:660   */\n      revert\n        /* \"#utility.yul\":612:662   */\n    tag_225:\n        /* \"#utility.yul\":691:695   */\n      0x40\n        /* \"#utility.yul\":685:696   */\n      mload\n        /* \"#utility.yul\":735:739   */\n      0x40\n        /* \"#utility.yul\":727:733   */\n      dup2\n        /* \"#utility.yul\":723:740   */\n      add\n        /* \"#utility.yul\":806:812   */\n      dup2\n        /* \"#utility.yul\":794:804   */\n      dup2\n        /* \"#utility.yul\":791:813   */\n      lt\n        /* \"#utility.yul\":770:788   */\n      0xffffffffffffffff\n        /* \"#utility.yul\":758:768   */\n      dup3\n        /* \"#utility.yul\":755:789   */\n      gt\n        /* \"#utility.yul\":752:814   */\n      or\n        /* \"#utility.yul\":749:837   */\n      iszero\n      tag_227\n      jumpi\n        /* \"#utility.yul\":817:835   */\n      tag_227\n      tag_13\n      jump\t// in\n    tag_227:\n        /* \"#utility.yul\":853:857   */\n      0x40\n        /* \"#utility.yul\":846:870   */\n      mstore\n        /* \"#utility.yul\":918:941   */\n      dup3\n      calldataload\n        /* \"#utility.yul\":903:942   */\n      dup2\n      mstore\n        /* \"#utility.yul\":1003:1005   */\n      0x20\n        /* \"#utility.yul\":988:1006   */\n      swap3\n      dup4\n      add\n        /* \"#utility.yul\":975:1007   */\n      calldataload\n        /* \"#utility.yul\":958:973   */\n      swap3\n      dup2\n      add\n        /* \"#utility.yul\":951:1008   */\n      swap3\n      swap1\n      swap3\n      mstore\n      pop\n        /* \"#utility.yul\":888:894   */\n      swap2\n        /* \"#utility.yul\":538:1014   */\n      swap1\n      pop\n      jump\t// out\n        /* \"#utility.yul\":1019:2353   */\n    tag_6:\n        /* \"#utility.yul\":1132:1138   */\n      0x00\n        /* \"#utility.yul\":1140:1146   */\n      dup1\n        /* \"#utility.yul\":1184:1193   */\n      dup3\n        /* \"#utility.yul\":1175:1182   */\n      dup5\n        /* \"#utility.yul\":1171:1194   */\n      sub\n        /* \"#utility.yul\":1213:1216   */\n      0x0160\n        /* \"#utility.yul\":1236:1238   */\n      dup1\n        /* \"#utility.yul\":1232:1234   */\n      dup3\n        /* \"#utility.yul\":1228:1239   */\n      slt\n        /* \"#utility.yul\":1225:1256   */\n      iszero\n      tag_229\n      jumpi\n        /* \"#utility.yul\":1252:1253   */\n      0x00\n        /* \"#utility.yul\":1249:1250   */\n      dup1\n        /* \"#utility.yul\":1242:1254   */\n      revert\n        /* \"#utility.yul\":1225:1256   */\n    tag_229:\n        /* \"#utility.yul\":1275:1281   */\n      0x0100\n        /* \"#utility.yul\":1301:1303   */\n      dup1\n        /* \"#utility.yul\":1297:1299   */\n      dup4\n        /* \"#utility.yul\":1293:1304   */\n      slt\n        /* \"#utility.yul\":1290:1321   */\n      iszero\n      tag_230\n      jumpi\n        /* \"#utility.yul\":1317:1318   */\n      0x00\n        /* \"#utility.yul\":1314:1315   */\n      dup1\n        /* \"#utility.yul\":1307:1319   */\n      revert\n        /* \"#utility.yul\":1290:1321   */\n    tag_230:\n        /* \"#utility.yul\":1343:1360   */\n      tag_231\n      tag_232\n      jump\t// in\n    tag_231:\n        /* \"#utility.yul\":1383:1428   */\n      tag_233\n        /* \"#utility.yul\":1420:1427   */\n      dup9\n        /* \"#utility.yul\":1409:1418   */\n      dup9\n        /* \"#utility.yul\":1383:1428   */\n      tag_223\n      jump\t// in\n    tag_233:\n        /* \"#utility.yul\":1369:1429   */\n      dup2\n      mstore\n        /* \"#utility.yul\":1463:1467   */\n      0x80\n      not(0x3f)\n        /* \"#utility.yul\":1445:1461   */\n      dup6\n      add\n        /* \"#utility.yul\":1441:1468   */\n      slt\n        /* \"#utility.yul\":1438:1485   */\n      iszero\n      tag_234\n      jumpi\n        /* \"#utility.yul\":1481:1482   */\n      0x00\n        /* \"#utility.yul\":1478:1479   */\n      dup1\n        /* \"#utility.yul\":1471:1483   */\n      revert\n        /* \"#utility.yul\":1438:1485   */\n    tag_234:\n        /* \"#utility.yul\":1509:1530   */\n      tag_235\n      tag_218\n      jump\t// in\n    tag_235:\n        /* \"#utility.yul\":1494:1530   */\n      swap4\n      pop\n        /* \"#utility.yul\":1555:1608   */\n      tag_236\n        /* \"#utility.yul\":1600:1607   */\n      dup9\n        /* \"#utility.yul\":1595:1597   */\n      0x40\n        /* \"#utility.yul\":1584:1593   */\n      dup10\n        /* \"#utility.yul\":1580:1598   */\n      add\n        /* \"#utility.yul\":1555:1608   */\n      tag_214\n      jump\t// in\n    tag_236:\n        /* \"#utility.yul\":1546:1553   */\n      dup5\n        /* \"#utility.yul\":1539:1609   */\n      mstore\n        /* \"#utility.yul\":1628:1683   */\n      tag_237\n        /* \"#utility.yul\":1675:1682   */\n      dup9\n        /* \"#utility.yul\":1668:1672   */\n      0x80\n        /* \"#utility.yul\":1657:1666   */\n      dup10\n        /* \"#utility.yul\":1653:1673   */\n      add\n        /* \"#utility.yul\":1628:1683   */\n      tag_214\n      jump\t// in\n    tag_237:\n        /* \"#utility.yul\":1702:1706   */\n      0x20\n        /* \"#utility.yul\":1740:1742   */\n      dup2\n        /* \"#utility.yul\":1735:1737   */\n      dup2\n        /* \"#utility.yul\":1726:1733   */\n      dup8\n        /* \"#utility.yul\":1722:1738   */\n      add\n        /* \"#utility.yul\":1715:1743   */\n      mstore\n        /* \"#utility.yul\":1775:1782   */\n      dup6\n        /* \"#utility.yul\":1770:1772   */\n      dup2\n        /* \"#utility.yul\":1763:1768   */\n      dup5\n        /* \"#utility.yul\":1759:1773   */\n      add\n        /* \"#utility.yul\":1752:1783   */\n      mstore\n        /* \"#utility.yul\":1815:1870   */\n      tag_238\n        /* \"#utility.yul\":1862:1869   */\n      dup11\n        /* \"#utility.yul\":1856:1859   */\n      0xc0\n        /* \"#utility.yul\":1845:1854   */\n      dup12\n        /* \"#utility.yul\":1841:1860   */\n      add\n        /* \"#utility.yul\":1815:1870   */\n      tag_223\n      jump\t// in\n    tag_238:\n        /* \"#utility.yul\":1810:1812   */\n      0x40\n        /* \"#utility.yul\":1803:1808   */\n      dup5\n        /* \"#utility.yul\":1799:1813   */\n      add\n        /* \"#utility.yul\":1792:1871   */\n      mstore\n        /* \"#utility.yul\":1890:1895   */\n      dup3\n        /* \"#utility.yul\":1880:1895   */\n      swap8\n      pop\n        /* \"#utility.yul\":1939:1946   */\n      dup10\n        /* \"#utility.yul\":1933:1936   */\n      0x011f\n        /* \"#utility.yul\":1922:1931   */\n      dup11\n        /* \"#utility.yul\":1918:1937   */\n      add\n        /* \"#utility.yul\":1914:1947   */\n      slt\n        /* \"#utility.yul\":1904:1965   */\n      tag_239\n      jumpi\n        /* \"#utility.yul\":1961:1962   */\n      0x00\n        /* \"#utility.yul\":1958:1959   */\n      dup1\n        /* \"#utility.yul\":1951:1963   */\n      revert\n        /* \"#utility.yul\":1904:1965   */\n    tag_239:\n        /* \"#utility.yul\":1985:2007   */\n      tag_240\n      tag_232\n      jump\t// in\n    tag_240:\n        /* \"#utility.yul\":1974:2007   */\n      swap6\n      pop\n        /* \"#utility.yul\":2029:2032   */\n      dup6\n        /* \"#utility.yul\":2016:2032   */\n      swap3\n      pop\n        /* \"#utility.yul\":2067:2069   */\n      dup4\n        /* \"#utility.yul\":2056:2065   */\n      dup10\n        /* \"#utility.yul\":2052:2070   */\n      add\n        /* \"#utility.yul\":2041:2070   */\n      swap4\n      pop\n        /* \"#utility.yul\":2105:2112   */\n      dup10\n        /* \"#utility.yul\":2100:2102   */\n      dup6\n        /* \"#utility.yul\":2089:2098   */\n      dup11\n        /* \"#utility.yul\":2085:2103   */\n      add\n        /* \"#utility.yul\":2082:2113   */\n      gt\n        /* \"#utility.yul\":2079:2130   */\n      iszero\n      tag_242\n      jumpi\n        /* \"#utility.yul\":2126:2127   */\n      0x00\n        /* \"#utility.yul\":2123:2124   */\n      dup1\n        /* \"#utility.yul\":2116:2128   */\n      revert\n        /* \"#utility.yul\":2079:2130   */\n    tag_242:\n        /* \"#utility.yul\":2148:2149   */\n      0x00\n        /* \"#utility.yul\":2139:2149   */\n      swap5\n      pop\n        /* \"#utility.yul\":2158:2323   */\n    tag_243:\n        /* \"#utility.yul\":2172:2176   */\n      0x03\n        /* \"#utility.yul\":2169:2170   */\n      dup6\n        /* \"#utility.yul\":2166:2177   */\n      lt\n        /* \"#utility.yul\":2158:2323   */\n      iszero\n      tag_245\n      jumpi\n        /* \"#utility.yul\":2231:2248   */\n      dup4\n      calldataload\n        /* \"#utility.yul\":2219:2249   */\n      dup7\n      mstore\n        /* \"#utility.yul\":2269:2281   */\n      swap5\n      dup6\n      add\n      swap5\n        /* \"#utility.yul\":2192:2193   */\n      0x01\n        /* \"#utility.yul\":2185:2194   */\n      swap5\n      swap1\n      swap5\n      add\n      swap4\n        /* \"#utility.yul\":2301:2313   */\n      swap3\n      dup4\n      add\n      swap3\n        /* \"#utility.yul\":2158:2323   */\n      jump(tag_243)\n    tag_245:\n      pop\n        /* \"#utility.yul\":1019:2353   */\n      swap6\n      swap9\n        /* \"#utility.yul\":2342:2347   */\n      swap1\n      swap8\n      pop\n        /* \"#utility.yul\":1019:2353   */\n      swap6\n      pop\n      pop\n      pop\n      pop\n      pop\n      pop\n      jump\t// out\n        /* \"#utility.yul\":2550:2798   */\n    tag_232:\n        /* \"#utility.yul\":2617:2619   */\n      0x40\n        /* \"#utility.yul\":2611:2620   */\n      mload\n        /* \"#utility.yul\":2659:2663   */\n      0x60\n        /* \"#utility.yul\":2647:2664   */\n      dup2\n      add\n        /* \"#utility.yul\":2694:2712   */\n      0xffffffffffffffff\n        /* \"#utility.yul\":2679:2713   */\n      dup2\n      gt\n        /* \"#utility.yul\":2715:2737   */\n      dup3\n      dup3\n      lt\n        /* \"#utility.yul\":2676:2738   */\n      or\n        /* \"#utility.yul\":2673:2761   */\n      iszero\n      tag_249\n      jumpi\n        /* \"#utility.yul\":2741:2759   */\n      tag_249\n      tag_13\n      jump\t// in\n    tag_249:\n        /* \"#utility.yul\":2777:2779   */\n      0x40\n        /* \"#utility.yul\":2770:2792   */\n      mstore\n        /* \"#utility.yul\":2550:2798   */\n      swap1\n      jump\t// out\n        /* \"#utility.yul\":2803:3053   */\n    tag_218:\n        /* \"#utility.yul\":2874:2876   */\n      0x40\n        /* \"#utility.yul\":2868:2877   */\n      dup1\n      mload\n      swap1\n        /* \"#utility.yul\":2904:2919   */\n      dup2\n      add\n        /* \"#utility.yul\":2949:2967   */\n      0xffffffffffffffff\n        /* \"#utility.yul\":2934:2968   */\n      dup2\n      gt\n        /* \"#utility.yul\":2970:2992   */\n      dup3\n      dup3\n      lt\n        /* \"#utility.yul\":2931:2993   */\n      or\n        /* \"#utility.yul\":2928:3016   */\n      iszero\n      tag_249\n      jumpi\n        /* \"#utility.yul\":2996:3014   */\n      tag_249\n      tag_13\n      jump\t// in\n        /* \"#utility.yul\":3314:3442   */\n    tag_33:\n        /* \"#utility.yul\":3354:3357   */\n      0x00\n        /* \"#utility.yul\":3385:3386   */\n      dup3\n        /* \"#utility.yul\":3381:3387   */\n      not\n        /* \"#utility.yul\":3378:3379   */\n      dup3\n        /* \"#utility.yul\":3375:3388   */\n      gt\n        /* \"#utility.yul\":3372:3411   */\n      iszero\n      tag_258\n      jumpi\n        /* \"#utility.yul\":3391:3409   */\n      tag_258\n      tag_259\n      jump\t// in\n    tag_258:\n      pop\n        /* \"#utility.yul\":3427:3436   */\n      add\n      swap1\n        /* \"#utility.yul\":3314:3442   */\n      jump\t// out\n        /* \"#utility.yul\":3447:3615   */\n    tag_147:\n        /* \"#utility.yul\":3487:3494   */\n      0x00\n        /* \"#utility.yul\":3553:3554   */\n      dup2\n        /* \"#utility.yul\":3549:3550   */\n      0x00\n        /* \"#utility.yul\":3545:3551   */\n      not\n        /* \"#utility.yul\":3541:3555   */\n      div\n        /* \"#utility.yul\":3538:3539   */\n      dup4\n        /* \"#utility.yul\":3535:3556   */\n      gt\n        /* \"#utility.yul\":3530:3531   */\n      dup3\n        /* \"#utility.yul\":3523:3532   */\n      iszero\n        /* \"#utility.yul\":3516:3533   */\n      iszero\n        /* \"#utility.yul\":3512:3557   */\n      and\n        /* \"#utility.yul\":3509:3580   */\n      iszero\n      tag_262\n      jumpi\n        /* \"#utility.yul\":3560:3578   */\n      tag_262\n      tag_259\n      jump\t// in\n    tag_262:\n      pop\n        /* \"#utility.yul\":3600:3609   */\n      mul\n      swap1\n        /* \"#utility.yul\":3447:3615   */\n      jump\t// out\n        /* \"#utility.yul\":3620:3745   */\n    tag_113:\n        /* \"#utility.yul\":3660:3664   */\n      0x00\n        /* \"#utility.yul\":3688:3689   */\n      dup3\n        /* \"#utility.yul\":3685:3686   */\n      dup3\n        /* \"#utility.yul\":3682:3690   */\n      lt\n        /* \"#utility.yul\":3679:3713   */\n      iszero\n      tag_265\n      jumpi\n        /* \"#utility.yul\":3693:3711   */\n      tag_265\n      tag_259\n      jump\t// in\n    tag_265:\n      pop\n        /* \"#utility.yul\":3730:3739   */\n      sub\n      swap1\n        /* \"#utility.yul\":3620:3745   */\n      jump\t// out\n        /* \"#utility.yul\":3750:3885   */\n    tag_24:\n        /* \"#utility.yul\":3789:3792   */\n      0x00\n      not(0x00)\n        /* \"#utility.yul\":3810:3827   */\n      dup3\n      eq\n        /* \"#utility.yul\":3807:3850   */\n      iszero\n      tag_268\n      jumpi\n        /* \"#utility.yul\":3830:3848   */\n      tag_268\n      tag_259\n      jump\t// in\n    tag_268:\n      pop\n        /* \"#utility.yul\":3877:3878   */\n      0x01\n        /* \"#utility.yul\":3866:3879   */\n      add\n      swap1\n        /* \"#utility.yul\":3750:3885   */\n      jump\t// out\n        /* \"#utility.yul\":3890:4156   */\n    tag_111:\n        /* \"#utility.yul\":3922:3923   */\n      0x00\n        /* \"#utility.yul\":3948:3949   */\n      dup3\n        /* \"#utility.yul\":3938:4127   */\n      tag_270\n      jumpi\n      mul(0x4e487b71, exp(0x02, 0xe0))\n        /* \"#utility.yul\":3980:3981   */\n      0x00\n        /* \"#utility.yul\":3973:4061   */\n      mstore\n        /* \"#utility.yul\":4084:4088   */\n      0x12\n        /* \"#utility.yul\":4081:4082   */\n      0x04\n        /* \"#utility.yul\":4074:4089   */\n      mstore\n        /* \"#utility.yul\":4112:4116   */\n      0x24\n        /* \"#utility.yul\":4109:4110   */\n      0x00\n        /* \"#utility.yul\":4102:4117   */\n      revert\n        /* \"#utility.yul\":3938:4127   */\n    tag_270:\n      pop\n        /* \"#utility.yul\":4141:4150   */\n      mod\n      swap1\n        /* \"#utility.yul\":3890:4156   */\n      jump\t// out\n        /* \"#utility.yul\":4161:4345   */\n    tag_259:\n      mul(0x4e487b71, exp(0x02, 0xe0))\n        /* \"#utility.yul\":4210:4211   */\n      0x00\n        /* \"#utility.yul\":4203:4291   */\n      mstore\n        /* \"#utility.yul\":4310:4314   */\n      0x11\n        /* \"#utility.yul\":4307:4308   */\n      0x04\n        /* \"#utility.yul\":4300:4315   */\n      mstore\n        /* \"#utility.yul\":4334:4338   */\n      0x24\n        /* \"#utility.yul\":4331:4332   */\n      0x00\n        /* \"#utility.yul\":4324:4339   */\n      revert\n        /* \"#utility.yul\":4350:4534   */\n    tag_20:\n      mul(0x4e487b71, exp(0x02, 0xe0))\n        /* \"#utility.yul\":4399:4400   */\n      0x00\n        /* \"#utility.yul\":4392:4480   */\n      mstore\n        /* \"#utility.yul\":4499:4503   */\n      0x32\n        /* \"#utility.yul\":4496:4497   */\n      0x04\n        /* \"#utility.yul\":4489:4504   */\n      mstore\n        /* \"#utility.yul\":4523:4527   */\n      0x24\n        /* \"#utility.yul\":4520:4521   */\n      0x00\n        /* \"#utility.yul\":4513:4528   */\n      revert\n        /* \"#utility.yul\":4539:4723   */\n    tag_13:\n      mul(0x4e487b71, exp(0x02, 0xe0))\n        /* \"#utility.yul\":4588:4589   */\n      0x00\n        /* \"#utility.yul\":4581:4669   */\n      mstore\n        /* \"#utility.yul\":4688:4692   */\n      0x41\n        /* \"#utility.yul\":4685:4686   */\n      0x04\n        /* \"#utility.yul\":4678:4693   */\n      mstore\n        /* \"#utility.yul\":4712:4716   */\n      0x24\n        /* \"#utility.yul\":4709:4710   */\n      0x00\n        /* \"#utility.yul\":4702:4717   */\n      revert\n\n    auxdata: 0xa26469706673582212206d06ba93d7c78379257cea4fcd5348236dc7c8fb8921e18d4b712c25381696b764736f6c63430008070033\n}\n",
				"bytecode": {
					"linkReferences": {},
					"object": "608060405234801561001057600080fd5b506110cd806100206000396000f3fe608060405234801561001057600080fd5b5060043610610047577c010000000000000000000000000000000000000000000000000000000060003504630f9c5d49811461004c575b600080fd5b61005f61005a366004610e79565b610073565b604051901515815260200160405180910390f35b604080516003808252608082019092526000918291906020820160608036833701905050905060005b60038110156100eb578381600381106100b7576100b7611065565b60200201518282815181106100ce576100ce611065565b6020908102919091010152806100e38161100c565b91505061009c565b506100f68185610110565b61010457600191505061010a565b60009150505b92915050565b60007f30644e72e131a029b85045b68181585d2833e84879b9709143e1f593f00000018161013c610293565b9050806080015151855160016101529190610fbe565b1461015c57600080fd5b604080518082019091526000808252602082018190525b865181101561020a578387828151811061018f5761018f611065565b6020026020010151106101a157600080fd5b6101f6826101f185608001518460016101ba9190610fbe565b815181106101ca576101ca611065565b60200260200101518a85815181106101e4576101e4611065565b602002602001015161071c565b610780565b9150806102028161100c565b915050610173565b5061023381836080015160008151811061022657610226611065565b6020026020010151610780565b90506102778560000151866020015161024b846107da565b856040015161025d8a604001516107da565b6060880151885161026d906107da565b8960200151610879565b610287576001935050505061010a565b50600095945050505050565b61029b610ce4565b6040805180820182527f1d877d34b4b2e18f0a83156a94ecdaaffcb7f7404e9505e2681d298c4f300b3d81527f2c786456c3ca069e2e2550e783476781061526eef24726f34f0c17d6077dc4516020808301919091529083528151608080820184527f1656a8896a3287cf41dc64b78c422199ad107699bc87186efb29bfd913d17e488285019081527f28bf884a4f7cb1395aeb51f63c0e160995525edda316798cb95a056f4bdffb25606080850191909152908352845180860186527f0adbeb06673a3d6825ae85f3b97b8e930383b37ccc0d44a93544088e75dfc31c81527f14db9464ba5e85570a06f6db1d76732bc5c60604a118f07c7dbec2c56590daf8818601528385015285840192909252835180820185527f163fda6a94ae2ceab765ccba86ff9626cc1ab5de43de095f5be07078de4b3bf18186019081527f25a3c12a82bf0d6b763711d8b9bcdc3c04dc5da37a3adf0fb4f7380563975dc9828501528152845180860186527f03b57190ccf8c9e0a30e7949fedc04f80201d69985c7627a8115a60939cb399a81527f18c832634abce5905ccdd3e06e6b129b8448998d6a1bdc3e8a3d839a1df18088818601528185015285850152835190810184527f0d5383844aa3abc468fd4f0af3b1440b818e8fa7294506fa902215d94c96eaec8185019081527f27041cddba23c7aa98aa6763e1f0d9c0a7bc2bfe687ac6e42e94776551ffd5bb828401528152835180850185527f20294a247c2df72e31a1def2fee16a65e3c1de670e13e9f242b9b07052d7bd0e81527f025068b54ffd25f35125977c24b132e4dbba27c132a979b633fe78307ef240d18185015281840152908401528151600480825260a08201909352919082015b604080518082019091526000808252602082015281526020019060019003908161051657505060808201908152604080518082019091527f0232e6517832c8d1bd57590301616765975fe545d94a4243000aafaff099474a81527f155747fbfd470132c4ebab68803183a3fd8a857cc28e0323da0fa48256e8381e6020820152905180516000906105a9576105a9611065565b602002602001018190525060405180604001604052807f1953c08966d1d6c2811f254c923851a91b19f68774d26f3513154dd6f8cedc0581526020017f14482ce4cff1b8ced3ecd1c8ab659424a056b91cda4a74e87f4246bcfe0062b4815250816080015160018151811061062057610620611065565b602002602001018190525060405180604001604052807f0c96302dee27cd284756364a61c215453886e0d568d23f4636eb7e007e24015e81526020017f196dc3405a79fc7da356426020664c30a41718a3ae4266a7ee601781b1736d32815250816080015160028151811061069757610697611065565b602002602001018190525060405180604001604052807f2bfab019bc87371c0b3a6739f817ed6a8d06e6101a3d88a4a782b92ea27c852481526020017f305da2a9f02f346bd928425c849b0f2928b17ed1029666391f183c34b7f4d47d815250816080015160038151811061070e5761070e611065565b602002602001018190525090565b6040805180820190915260008082526020820152610738610d35565b835181526020808501519082015260408101839052600060608360808460076107d05a03fa905080801561076b5761076d565bfe5b508061077857600080fd5b505092915050565b604080518082019091526000808252602082015261079c610d53565b8351815260208085015181830152835160408301528301516060808301919091526000908360c08460066107d05a03fa905080801561076b5761076d565b604080518082019091526000808252602082015281517f30644e72e131a029b85045b68181585d97816a916871ca8d3c208c16d87cfd479015801561082157506020830151155b156108415750506040805180820190915260008082526020820152919050565b6040518060400160405280846000015181526020018285602001516108669190611027565b6108709084610ff5565b90529392505050565b60408051600480825260a08201909252600091829190816020015b604080518082019091526000808252602082015281526020019060019003908161089457505060408051600480825260a0820190925291925060009190602082015b6108de610d71565b8152602001906001900390816108d65790505090508a8260008151811061090757610907611065565b6020026020010181905250888260018151811061092657610926611065565b6020026020010181905250868260028151811061094557610945611065565b6020026020010181905250848260038151811061096457610964611065565b6020026020010181905250898160008151811061098357610983611065565b602002602001018190525087816001815181106109a2576109a2611065565b602002602001018190525085816002815181106109c1576109c1611065565b602002602001018190525083816003815181106109e0576109e0611065565b60200260200101819052506109f58282610a04565b9b9a5050505050505050505050565b60008151835114610a1457600080fd5b82516000610a23826006610fd6565b905060008167ffffffffffffffff811115610a4057610a4061107e565b604051908082528060200260200182016040528015610a69578160200160208202803683370190505b50905060005b83811015610ca457868181518110610a8957610a89611065565b60200260200101516000015182826006610aa39190610fd6565b610aae906000610fbe565b81518110610abe57610abe611065565b602002602001018181525050868181518110610adc57610adc611065565b60200260200101516020015182826006610af69190610fd6565b610b01906001610fbe565b81518110610b1157610b11611065565b602002602001018181525050858181518110610b2f57610b2f611065565b60209081029190910181015151015182610b4a836006610fd6565b610b55906002610fbe565b81518110610b6557610b65611065565b602002602001018181525050858181518110610b8357610b83611065565b6020908102919091010151515182610b9c836006610fd6565b610ba7906003610fbe565b81518110610bb757610bb7611065565b602002602001018181525050858181518110610bd557610bd5611065565b602002602001015160200151600160028110610bf357610bf3611065565b602002015182610c04836006610fd6565b610c0f906004610fbe565b81518110610c1f57610c1f611065565b602002602001018181525050858181518110610c3d57610c3d611065565b602002602001015160200151600060028110610c5b57610c5b611065565b602002015182610c6c836006610fd6565b610c77906005610fbe565b81518110610c8757610c87611065565b602090810291909101015280610c9c8161100c565b915050610a6f565b50610cad610d96565b6000602082602086026020860160086107d05a03fa905080801561076b575080610cd657600080fd5b505115159695505050505050565b6040805160e08101909152600060a0820181815260c0830191909152815260208101610d0e610d71565b8152602001610d1b610d71565b8152602001610d28610d71565b8152602001606081525090565b60405180606001604052806003906020820280368337509192915050565b60405180608001604052806004906020820280368337509192915050565b6040518060400160405280610d84610db4565b8152602001610d91610db4565b905290565b60405180602001604052806001906020820280368337509192915050565b60405180604001604052806002906020820280368337509192915050565b600082601f830112610de357600080fd5b610deb610f9b565b808385604086011115610dfd57600080fd5b60005b6002811015610e1f578135845260209384019390910190600101610e00565b509095945050505050565b600060408284031215610e3c57600080fd5b6040516040810181811067ffffffffffffffff82111715610e5f57610e5f61107e565b604052823581526020928301359281019290925250919050565b60008082840361016080821215610e8f57600080fd5b61010080831215610e9f57600080fd5b610ea7610f72565b610eb18888610e2a565b81526080603f1985011215610ec557600080fd5b610ecd610f9b565b9350610edc8860408901610dd2565b8452610eeb8860808901610dd2565b602081818701528581840152610f048a60c08b01610e2a565b60408401528297508961011f8a0112610f1c57600080fd5b610f24610f72565b9550859250838901935089858a011115610f3d57600080fd5b600094505b6003851015610f635783358652948501946001949094019392830192610f42565b50959890975095505050505050565b6040516060810167ffffffffffffffff81118282101715610f9557610f9561107e565b60405290565b6040805190810167ffffffffffffffff81118282101715610f9557610f9561107e565b60008219821115610fd157610fd161104c565b500190565b6000816000190483118215151615610ff057610ff061104c565b500290565b6000828210156110075761100761104c565b500390565b60006000198214156110205761102061104c565b5060010190565b6000826110475760e060020a634e487b7102600052601260045260246000fd5b500690565b60e060020a634e487b7102600052601160045260246000fd5b60e060020a634e487b7102600052603260045260246000fd5b60e060020a634e487b7102600052604160045260246000fdfea26469706673582212206d06ba93d7c78379257cea4fcd5348236dc7c8fb8921e18d4b712c25381696b764736f6c63430008070033",
					"opcodes": "PUSH1 0x80 PUSH1 0x40 MSTORE CALLVALUE DUP1 ISZERO PUSH2 0x10 JUMPI PUSH1 0x0 DUP1 REVERT JUMPDEST POP PUSH2 0x10CD DUP1 PUSH2 0x20 PUSH1 0x0 CODECOPY PUSH1 0x0 RETURN INVALID PUSH1 0x80 PUSH1 0x40 MSTORE CALLVALUE DUP1 ISZERO PUSH2 0x10 JUMPI PUSH1 0x0 DUP1 REVERT JUMPDEST POP PUSH1 0x4 CALLDATASIZE LT PUSH2 0x47 JUMPI PUSH29 0x100000000000000000000000000000000000000000000000000000000 PUSH1 0x0 CALLDATALOAD DIV PUSH4 0xF9C5D49 DUP2 EQ PUSH2 0x4C JUMPI JUMPDEST PUSH1 0x0 DUP1 REVERT JUMPDEST PUSH2 0x5F PUSH2 0x5A CALLDATASIZE PUSH1 0x4 PUSH2 0xE79 JUMP JUMPDEST PUSH2 0x73 JUMP JUMPDEST PUSH1 0x40 MLOAD SWAP1 ISZERO ISZERO DUP2 MSTORE PUSH1 0x20 ADD PUSH1 0x40 MLOAD DUP1 SWAP2 SUB SWAP1 RETURN JUMPDEST PUSH1 0x40 DUP1 MLOAD PUSH1 0x3 DUP1 DUP3 MSTORE PUSH1 0x80 DUP3 ADD SWAP1 SWAP3 MSTORE PUSH1 0x0 SWAP2 DUP3 SWAP2 SWAP1 PUSH1 0x20 DUP3 ADD PUSH1 0x60 DUP1 CALLDATASIZE DUP4 CALLDATACOPY ADD SWAP1 POP POP SWAP1 POP PUSH1 0x0 JUMPDEST PUSH1 0x3 DUP2 LT ISZERO PUSH2 0xEB JUMPI DUP4 DUP2 PUSH1 0x3 DUP2 LT PUSH2 0xB7 JUMPI PUSH2 0xB7 PUSH2 0x1065 JUMP JUMPDEST PUSH1 0x20 MUL ADD MLOAD DUP3 DUP3 DUP2 MLOAD DUP2 LT PUSH2 0xCE JUMPI PUSH2 0xCE PUSH2 0x1065 JUMP JUMPDEST PUSH1 0x20 SWAP1 DUP2 MUL SWAP2 SWAP1 SWAP2 ADD ADD MSTORE DUP1 PUSH2 0xE3 DUP2 PUSH2 0x100C JUMP JUMPDEST SWAP2 POP POP PUSH2 0x9C JUMP JUMPDEST POP PUSH2 0xF6 DUP2 DUP6 PUSH2 0x110 JUMP JUMPDEST PUSH2 0x104 JUMPI PUSH1 0x1 SWAP2 POP POP PUSH2 0x10A JUMP JUMPDEST PUSH1 0x0 SWAP2 POP POP JUMPDEST SWAP3 SWAP2 POP POP JUMP JUMPDEST PUSH1 0x0 PUSH32 0x30644E72E131A029B85045B68181585D2833E84879B9709143E1F593F0000001 DUP2 PUSH2 0x13C PUSH2 0x293 JUMP JUMPDEST SWAP1 POP DUP1 PUSH1 0x80 ADD MLOAD MLOAD DUP6 MLOAD PUSH1 0x1 PUSH2 0x152 SWAP2 SWAP1 PUSH2 0xFBE JUMP JUMPDEST EQ PUSH2 0x15C JUMPI PUSH1 0x0 DUP1 REVERT JUMPDEST PUSH1 0x40 DUP1 MLOAD DUP1 DUP3 ADD SWAP1 SWAP2 MSTORE PUSH1 0x0 DUP1 DUP3 MSTORE PUSH1 0x20 DUP3 ADD DUP2 SWAP1 MSTORE JUMPDEST DUP7 MLOAD DUP2 LT ISZERO PUSH2 0x20A JUMPI DUP4 DUP8 DUP3 DUP2 MLOAD DUP2 LT PUSH2 0x18F JUMPI PUSH2 0x18F PUSH2 0x1065 JUMP JUMPDEST PUSH1 0x20 MUL PUSH1 0x20 ADD ADD MLOAD LT PUSH2 0x1A1 JUMPI PUSH1 0x0 DUP1 REVERT JUMPDEST PUSH2 0x1F6 DUP3 PUSH2 0x1F1 DUP6 PUSH1 0x80 ADD MLOAD DUP5 PUSH1 0x1 PUSH2 0x1BA SWAP2 SWAP1 PUSH2 0xFBE JUMP JUMPDEST DUP2 MLOAD DUP2 LT PUSH2 0x1CA JUMPI PUSH2 0x1CA PUSH2 0x1065 JUMP JUMPDEST PUSH1 0x20 MUL PUSH1 0x20 ADD ADD MLOAD DUP11 DUP6 DUP2 MLOAD DUP2 LT PUSH2 0x1E4 JUMPI PUSH2 0x1E4 PUSH2 0x1065 JUMP JUMPDEST PUSH1 0x20 MUL PUSH1 0x20 ADD ADD MLOAD PUSH2 0x71C JUMP JUMPDEST PUSH2 0x780 JUMP JUMPDEST SWAP2 POP DUP1 PUSH2 0x202 DUP2 PUSH2 0x100C JUMP JUMPDEST SWAP2 POP POP PUSH2 0x173 JUMP JUMPDEST POP PUSH2 0x233 DUP2 DUP4 PUSH1 0x80 ADD MLOAD PUSH1 0x0 DUP2 MLOAD DUP2 LT PUSH2 0x226 JUMPI PUSH2 0x226 PUSH2 0x1065 JUMP JUMPDEST PUSH1 0x20 MUL PUSH1 0x20 ADD ADD MLOAD PUSH2 0x780 JUMP JUMPDEST SWAP1 POP PUSH2 0x277 DUP6 PUSH1 0x0 ADD MLOAD DUP7 PUSH1 0x20 ADD MLOAD PUSH2 0x24B DUP5 PUSH2 0x7DA JUMP JUMPDEST DUP6 PUSH1 0x40 ADD MLOAD PUSH2 0x25D DUP11 PUSH1 0x40 ADD MLOAD PUSH2 0x7DA JUMP JUMPDEST PUSH1 0x60 DUP9 ADD MLOAD DUP9 MLOAD PUSH2 0x26D SWAP1 PUSH2 0x7DA JUMP JUMPDEST DUP10 PUSH1 0x20 ADD MLOAD PUSH2 0x879 JUMP JUMPDEST PUSH2 0x287 JUMPI PUSH1 0x1 SWAP4 POP POP POP POP PUSH2 0x10A JUMP JUMPDEST POP PUSH1 0x0 SWAP6 SWAP5 POP POP POP POP POP JUMP JUMPDEST PUSH2 0x29B PUSH2 0xCE4 JUMP JUMPDEST PUSH1 0x40 DUP1 MLOAD DUP1 DUP3 ADD DUP3 MSTORE PUSH32 0x1D877D34B4B2E18F0A83156A94ECDAAFFCB7F7404E9505E2681D298C4F300B3D DUP2 MSTORE PUSH32 0x2C786456C3CA069E2E2550E783476781061526EEF24726F34F0C17D6077DC451 PUSH1 0x20 DUP1 DUP4 ADD SWAP2 SWAP1 SWAP2 MSTORE SWAP1 DUP4 MSTORE DUP2 MLOAD PUSH1 0x80 DUP1 DUP3 ADD DUP5 MSTORE PUSH32 0x1656A8896A3287CF41DC64B78C422199AD107699BC87186EFB29BFD913D17E48 DUP3 DUP6 ADD SWAP1 DUP2 MSTORE PUSH32 0x28BF884A4F7CB1395AEB51F63C0E160995525EDDA316798CB95A056F4BDFFB25 PUSH1 0x60 DUP1 DUP6 ADD SWAP2 SWAP1 SWAP2 MSTORE SWAP1 DUP4 MSTORE DUP5 MLOAD DUP1 DUP7 ADD DUP7 MSTORE PUSH32 0xADBEB06673A3D6825AE85F3B97B8E930383B37CCC0D44A93544088E75DFC31C DUP2 MSTORE PUSH32 0x14DB9464BA5E85570A06F6DB1D76732BC5C60604A118F07C7DBEC2C56590DAF8 DUP2 DUP7 ADD MSTORE DUP4 DUP6 ADD MSTORE DUP6 DUP5 ADD SWAP3 SWAP1 SWAP3 MSTORE DUP4 MLOAD DUP1 DUP3 ADD DUP6 MSTORE PUSH32 0x163FDA6A94AE2CEAB765CCBA86FF9626CC1AB5DE43DE095F5BE07078DE4B3BF1 DUP2 DUP7 ADD SWAP1 DUP2 MSTORE PUSH32 0x25A3C12A82BF0D6B763711D8B9BCDC3C04DC5DA37A3ADF0FB4F7380563975DC9 DUP3 DUP6 ADD MSTORE DUP2 MSTORE DUP5 MLOAD DUP1 DUP7 ADD DUP7 MSTORE PUSH32 0x3B57190CCF8C9E0A30E7949FEDC04F80201D69985C7627A8115A60939CB399A DUP2 MSTORE PUSH32 0x18C832634ABCE5905CCDD3E06E6B129B8448998D6A1BDC3E8A3D839A1DF18088 DUP2 DUP7 ADD MSTORE DUP2 DUP6 ADD MSTORE DUP6 DUP6 ADD MSTORE DUP4 MLOAD SWAP1 DUP2 ADD DUP5 MSTORE PUSH32 0xD5383844AA3ABC468FD4F0AF3B1440B818E8FA7294506FA902215D94C96EAEC DUP2 DUP6 ADD SWAP1 DUP2 MSTORE PUSH32 0x27041CDDBA23C7AA98AA6763E1F0D9C0A7BC2BFE687AC6E42E94776551FFD5BB DUP3 DUP5 ADD MSTORE DUP2 MSTORE DUP4 MLOAD DUP1 DUP6 ADD DUP6 MSTORE PUSH32 0x20294A247C2DF72E31A1DEF2FEE16A65E3C1DE670E13E9F242B9B07052D7BD0E DUP2 MSTORE PUSH32 0x25068B54FFD25F35125977C24B132E4DBBA27C132A979B633FE78307EF240D1 DUP2 DUP6 ADD MSTORE DUP2 DUP5 ADD MSTORE SWAP1 DUP5 ADD MSTORE DUP2 MLOAD PUSH1 0x4 DUP1 DUP3 MSTORE PUSH1 0xA0 DUP3 ADD SWAP1 SWAP4 MSTORE SWAP2 SWAP1 DUP3 ADD JUMPDEST PUSH1 0x40 DUP1 MLOAD DUP1 DUP3 ADD SWAP1 SWAP2 MSTORE PUSH1 0x0 DUP1 DUP3 MSTORE PUSH1 0x20 DUP3 ADD MSTORE DUP2 MSTORE PUSH1 0x20 ADD SWAP1 PUSH1 0x1 SWAP1 SUB SWAP1 DUP2 PUSH2 0x516 JUMPI POP POP PUSH1 0x80 DUP3 ADD SWAP1 DUP2 MSTORE PUSH1 0x40 DUP1 MLOAD DUP1 DUP3 ADD SWAP1 SWAP2 MSTORE PUSH32 0x232E6517832C8D1BD57590301616765975FE545D94A4243000AAFAFF099474A DUP2 MSTORE PUSH32 0x155747FBFD470132C4EBAB68803183A3FD8A857CC28E0323DA0FA48256E8381E PUSH1 0x20 DUP3 ADD MSTORE SWAP1 MLOAD DUP1 MLOAD PUSH1 0x0 SWAP1 PUSH2 0x5A9 JUMPI PUSH2 0x5A9 PUSH2 0x1065 JUMP JUMPDEST PUSH1 0x20 MUL PUSH1 0x20 ADD ADD DUP2 SWAP1 MSTORE POP PUSH1 0x40 MLOAD DUP1 PUSH1 0x40 ADD PUSH1 0x40 MSTORE DUP1 PUSH32 0x1953C08966D1D6C2811F254C923851A91B19F68774D26F3513154DD6F8CEDC05 DUP2 MSTORE PUSH1 0x20 ADD PUSH32 0x14482CE4CFF1B8CED3ECD1C8AB659424A056B91CDA4A74E87F4246BCFE0062B4 DUP2 MSTORE POP DUP2 PUSH1 0x80 ADD MLOAD PUSH1 0x1 DUP2 MLOAD DUP2 LT PUSH2 0x620 JUMPI PUSH2 0x620 PUSH2 0x1065 JUMP JUMPDEST PUSH1 0x20 MUL PUSH1 0x20 ADD ADD DUP2 SWAP1 MSTORE POP PUSH1 0x40 MLOAD DUP1 PUSH1 0x40 ADD PUSH1 0x40 MSTORE DUP1 PUSH32 0xC96302DEE27CD284756364A61C215453886E0D568D23F4636EB7E007E24015E DUP2 MSTORE PUSH1 0x20 ADD PUSH32 0x196DC3405A79FC7DA356426020664C30A41718A3AE4266A7EE601781B1736D32 DUP2 MSTORE POP DUP2 PUSH1 0x80 ADD MLOAD PUSH1 0x2 DUP2 MLOAD DUP2 LT PUSH2 0x697 JUMPI PUSH2 0x697 PUSH2 0x1065 JUMP JUMPDEST PUSH1 0x20 MUL PUSH1 0x20 ADD ADD DUP2 SWAP1 MSTORE POP PUSH1 0x40 MLOAD DUP1 PUSH1 0x40 ADD PUSH1 0x40 MSTORE DUP1 PUSH32 0x2BFAB019BC87371C0B3A6739F817ED6A8D06E6101A3D88A4A782B92EA27C8524 DUP2 MSTORE PUSH1 0x20 ADD PUSH32 0x305DA2A9F02F346BD928425C849B0F2928B17ED1029666391F183C34B7F4D47D DUP2 MSTORE POP DUP2 PUSH1 0x80 ADD MLOAD PUSH1 0x3 DUP2 MLOAD DUP2 LT PUSH2 0x70E JUMPI PUSH2 0x70E PUSH2 0x1065 JUMP JUMPDEST PUSH1 0x20 MUL PUSH1 0x20 ADD ADD DUP2 SWAP1 MSTORE POP SWAP1 JUMP JUMPDEST PUSH1 0x40 DUP1 MLOAD DUP1 DUP3 ADD SWAP1 SWAP2 MSTORE PUSH1 0x0 DUP1 DUP3 MSTORE PUSH1 0x20 DUP3 ADD MSTORE PUSH2 0x738 PUSH2 0xD35 JUMP JUMPDEST DUP4 MLOAD DUP2 MSTORE PUSH1 0x20 DUP1 DUP6 ADD MLOAD SWAP1 DUP3 ADD MSTORE PUSH1 0x40 DUP2 ADD DUP4 SWAP1 MSTORE PUSH1 0x0 PUSH1 0x60 DUP4 PUSH1 0x80 DUP5 PUSH1 0x7 PUSH2 0x7D0 GAS SUB STATICCALL SWAP1 POP DUP1 DUP1 ISZERO PUSH2 0x76B JUMPI PUSH2 0x76D JUMP JUMPDEST INVALID JUMPDEST POP DUP1 PUSH2 0x778 JUMPI PUSH1 0x0 DUP1 REVERT JUMPDEST POP POP SWAP3 SWAP2 POP POP JUMP JUMPDEST PUSH1 0x40 DUP1 MLOAD DUP1 DUP3 ADD SWAP1 SWAP2 MSTORE PUSH1 0x0 DUP1 DUP3 MSTORE PUSH1 0x20 DUP3 ADD MSTORE PUSH2 0x79C PUSH2 0xD53 JUMP JUMPDEST DUP4 MLOAD DUP2 MSTORE PUSH1 0x20 DUP1 DUP6 ADD MLOAD DUP2 DUP4 ADD MSTORE DUP4 MLOAD PUSH1 0x40 DUP4 ADD MSTORE DUP4 ADD MLOAD PUSH1 0x60 DUP1 DUP4 ADD SWAP2 SWAP1 SWAP2 MSTORE PUSH1 0x0 SWAP1 DUP4 PUSH1 0xC0 DUP5 PUSH1 0x6 PUSH2 0x7D0 GAS SUB STATICCALL SWAP1 POP DUP1 DUP1 ISZERO PUSH2 0x76B JUMPI PUSH2 0x76D JUMP JUMPDEST PUSH1 0x40 DUP1 MLOAD DUP1 DUP3 ADD SWAP1 SWAP2 MSTORE PUSH1 0x0 DUP1 DUP3 MSTORE PUSH1 0x20 DUP3 ADD MSTORE DUP2 MLOAD PUSH32 0x30644E72E131A029B85045B68181585D97816A916871CA8D3C208C16D87CFD47 SWAP1 ISZERO DUP1 ISZERO PUSH2 0x821 JUMPI POP PUSH1 0x20 DUP4 ADD MLOAD ISZERO JUMPDEST ISZERO PUSH2 0x841 JUMPI POP POP PUSH1 0x40 DUP1 MLOAD DUP1 DUP3 ADD SWAP1 SWAP2 MSTORE PUSH1 0x0 DUP1 DUP3 MSTORE PUSH1 0x20 DUP3 ADD MSTORE SWAP2 SWAP1 POP JUMP JUMPDEST PUSH1 0x40 MLOAD DUP1 PUSH1 0x40 ADD PUSH1 0x40 MSTORE DUP1 DUP5 PUSH1 0x0 ADD MLOAD DUP2 MSTORE PUSH1 0x20 ADD DUP3 DUP6 PUSH1 0x20 ADD MLOAD PUSH2 0x866 SWAP2 SWAP1 PUSH2 0x1027 JUMP JUMPDEST PUSH2 0x870 SWAP1 DUP5 PUSH2 0xFF5 JUMP JUMPDEST SWAP1 MSTORE SWAP4 SWAP3 POP POP POP JUMP JUMPDEST PUSH1 0x40 DUP1 MLOAD PUSH1 0x4 DUP1 DUP3 MSTORE PUSH1 0xA0 DUP3 ADD SWAP1 SWAP3 MSTORE PUSH1 0x0 SWAP2 DUP3 SWAP2 SWAP1 DUP2 PUSH1 0x20 ADD JUMPDEST PUSH1 0x40 DUP1 MLOAD DUP1 DUP3 ADD SWAP1 SWAP2 MSTORE PUSH1 0x0 DUP1 DUP3 MSTORE PUSH1 0x20 DUP3 ADD MSTORE DUP2 MSTORE PUSH1 0x20 ADD SWAP1 PUSH1 0x1 SWAP1 SUB SWAP1 DUP2 PUSH2 0x894 JUMPI POP POP PUSH1 0x40 DUP1 MLOAD PUSH1 0x4 DUP1 DUP3 MSTORE PUSH1 0xA0 DUP3 ADD SWAP1 SWAP3 MSTORE SWAP2 SWAP3 POP PUSH1 0x0 SWAP2 SWAP1 PUSH1 0x20 DUP3 ADD JUMPDEST PUSH2 0x8DE PUSH2 0xD71 JUMP JUMPDEST DUP2 MSTORE PUSH1 0x20 ADD SWAP1 PUSH1 0x1 SWAP1 SUB SWAP1 DUP2 PUSH2 0x8D6 JUMPI SWAP1 POP POP SWAP1 POP DUP11 DUP3 PUSH1 0x0 DUP2 MLOAD DUP2 LT PUSH2 0x907 JUMPI PUSH2 0x907 PUSH2 0x1065 JUMP JUMPDEST PUSH1 0x20 MUL PUSH1 0x20 ADD ADD DUP2 SWAP1 MSTORE POP DUP9 DUP3 PUSH1 0x1 DUP2 MLOAD DUP2 LT PUSH2 0x926 JUMPI PUSH2 0x926 PUSH2 0x1065 JUMP JUMPDEST PUSH1 0x20 MUL PUSH1 0x20 ADD ADD DUP2 SWAP1 MSTORE POP DUP7 DUP3 PUSH1 0x2 DUP2 MLOAD DUP2 LT PUSH2 0x945 JUMPI PUSH2 0x945 PUSH2 0x1065 JUMP JUMPDEST PUSH1 0x20 MUL PUSH1 0x20 ADD ADD DUP2 SWAP1 MSTORE POP DUP5 DUP3 PUSH1 0x3 DUP2 MLOAD DUP2 LT PUSH2 0x964 JUMPI PUSH2 0x964 PUSH2 0x1065 JUMP JUMPDEST PUSH1 0x20 MUL PUSH1 0x20 ADD ADD DUP2 SWAP1 MSTORE POP DUP10 DUP2 PUSH1 0x0 DUP2 MLOAD DUP2 LT PUSH2 0x983 JUMPI PUSH2 0x983 PUSH2 0x1065 JUMP JUMPDEST PUSH1 0x20 MUL PUSH1 0x20 ADD ADD DUP2 SWAP1 MSTORE POP DUP8 DUP2 PUSH1 0x1 DUP2 MLOAD DUP2 LT PUSH2 0x9A2 JUMPI PUSH2 0x9A2 PUSH2 0x1065 JUMP JUMPDEST PUSH1 0x20 MUL PUSH1 0x20 ADD ADD DUP2 SWAP1 MSTORE POP DUP6 DUP2 PUSH1 0x2 DUP2 MLOAD DUP2 LT PUSH2 0x9C1 JUMPI PUSH2 0x9C1 PUSH2 0x1065 JUMP JUMPDEST PUSH1 0x20 MUL PUSH1 0x20 ADD ADD DUP2 SWAP1 MSTORE POP DUP4 DUP2 PUSH1 0x3 DUP2 MLOAD DUP2 LT PUSH2 0x9E0 JUMPI PUSH2 0x9E0 PUSH2 0x1065 JUMP JUMPDEST PUSH1 0x20 MUL PUSH1 0x20 ADD ADD DUP2 SWAP1 MSTORE POP PUSH2 0x9F5 DUP3 DUP3 PUSH2 0xA04 JUMP JUMPDEST SWAP12 SWAP11 POP POP POP POP POP POP POP POP POP POP POP JUMP JUMPDEST PUSH1 0x0 DUP2 MLOAD DUP4 MLOAD EQ PUSH2 0xA14 JUMPI PUSH1 0x0 DUP1 REVERT JUMPDEST DUP3 MLOAD PUSH1 0x0 PUSH2 0xA23 DUP3 PUSH1 0x6 PUSH2 0xFD6 JUMP JUMPDEST SWAP1 POP PUSH1 0x0 DUP2 PUSH8 0xFFFFFFFFFFFFFFFF DUP2 GT ISZERO PUSH2 0xA40 JUMPI PUSH2 0xA40 PUSH2 0x107E JUMP JUMPDEST PUSH1 0x40 MLOAD SWAP1 DUP1 DUP3 MSTORE DUP1 PUSH1 0x20 MUL PUSH1 0x20 ADD DUP3 ADD PUSH1 0x40 MSTORE DUP1 ISZERO PUSH2 0xA69 JUMPI DUP2 PUSH1 0x20 ADD PUSH1 0x20 DUP3 MUL DUP1 CALLDATASIZE DUP4 CALLDATACOPY ADD SWAP1 POP JUMPDEST POP SWAP1 POP PUSH1 0x0 JUMPDEST DUP4 DUP2 LT ISZERO PUSH2 0xCA4 JUMPI DUP7 DUP2 DUP2 MLOAD DUP2 LT PUSH2 0xA89 JUMPI PUSH2 0xA89 PUSH2 0x1065 JUMP JUMPDEST PUSH1 0x20 MUL PUSH1 0x20 ADD ADD MLOAD PUSH1 0x0 ADD MLOAD DUP3 DUP3 PUSH1 0x6 PUSH2 0xAA3 SWAP2 SWAP1 PUSH2 0xFD6 JUMP JUMPDEST PUSH2 0xAAE SWAP1 PUSH1 0x0 PUSH2 0xFBE JUMP JUMPDEST DUP2 MLOAD DUP2 LT PUSH2 0xABE JUMPI PUSH2 0xABE PUSH2 0x1065 JUMP JUMPDEST PUSH1 0x20 MUL PUSH1 0x20 ADD ADD DUP2 DUP2 MSTORE POP POP DUP7 DUP2 DUP2 MLOAD DUP2 LT PUSH2 0xADC JUMPI PUSH2 0xADC PUSH2 0x1065 JUMP JUMPDEST PUSH1 0x20 MUL PUSH1 0x20 ADD ADD MLOAD PUSH1 0x20 ADD MLOAD DUP3 DUP3 PUSH1 0x6 PUSH2 0xAF6 SWAP2 SWAP1 PUSH2 0xFD6 JUMP JUMPDEST PUSH2 0xB01 SWAP1 PUSH1 0x1 PUSH2 0xFBE JUMP JUMPDEST DUP2 MLOAD DUP2 LT PUSH2 0xB11 JUMPI PUSH2 0xB11 PUSH2 0x1065 JUMP JUMPDEST PUSH1 0x20 MUL PUSH1 0x20 ADD ADD DUP2 DUP2 MSTORE POP POP DUP6 DUP2 DUP2 MLOAD DUP2 LT PUSH2 0xB2F JUMPI PUSH2 0xB2F PUSH2 0x1065 JUMP JUMPDEST PUSH1 0x20 SWAP1 DUP2 MUL SWAP2 SWAP1 SWAP2 ADD DUP2 ADD MLOAD MLOAD ADD MLOAD DUP3 PUSH2 0xB4A DUP4 PUSH1 0x6 PUSH2 0xFD6 JUMP JUMPDEST PUSH2 0xB55 SWAP1 PUSH1 0x2 PUSH2 0xFBE JUMP JUMPDEST DUP2 MLOAD DUP2 LT PUSH2 0xB65 JUMPI PUSH2 0xB65 PUSH2 0x1065 JUMP JUMPDEST PUSH1 0x20 MUL PUSH1 0x20 ADD ADD DUP2 DUP2 MSTORE POP POP DUP6 DUP2 DUP2 MLOAD DUP2 LT PUSH2 0xB83 JUMPI PUSH2 0xB83 PUSH2 0x1065 JUMP JUMPDEST PUSH1 0x20 SWAP1 DUP2 MUL SWAP2 SWAP1 SWAP2 ADD ADD MLOAD MLOAD MLOAD DUP3 PUSH2 0xB9C DUP4 PUSH1 0x6 PUSH2 0xFD6 JUMP JUMPDEST PUSH2 0xBA7 SWAP1 PUSH1 0x3 PUSH2 0xFBE JUMP JUMPDEST DUP2 MLOAD DUP2 LT PUSH2 0xBB7 JUMPI PUSH2 0xBB7 PUSH2 0x1065 JUMP JUMPDEST PUSH1 0x20 MUL PUSH1 0x20 ADD ADD DUP2 DUP2 MSTORE POP POP DUP6 DUP2 DUP2 MLOAD DUP2 LT PUSH2 0xBD5 JUMPI PUSH2 0xBD5 PUSH2 0x1065 JUMP JUMPDEST PUSH1 0x20 MUL PUSH1 0x20 ADD ADD MLOAD PUSH1 0x20 ADD MLOAD PUSH1 0x1 PUSH1 0x2 DUP2 LT PUSH2 0xBF3 JUMPI PUSH2 0xBF3 PUSH2 0x1065 JUMP JUMPDEST PUSH1 0x20 MUL ADD MLOAD DUP3 PUSH2 0xC04 DUP4 PUSH1 0x6 PUSH2 0xFD6 JUMP JUMPDEST PUSH2 0xC0F SWAP1 PUSH1 0x4 PUSH2 0xFBE JUMP JUMPDEST DUP2 MLOAD DUP2 LT PUSH2 0xC1F JUMPI PUSH2 0xC1F PUSH2 0x1065 JUMP JUMPDEST PUSH1 0x20 MUL PUSH1 0x20 ADD ADD DUP2 DUP2 MSTORE POP POP DUP6 DUP2 DUP2 MLOAD DUP2 LT PUSH2 0xC3D JUMPI PUSH2 0xC3D PUSH2 0x1065 JUMP JUMPDEST PUSH1 0x20 MUL PUSH1 0x20 ADD ADD MLOAD PUSH1 0x20 ADD MLOAD PUSH1 0x0 PUSH1 0x2 DUP2 LT PUSH2 0xC5B JUMPI PUSH2 0xC5B PUSH2 0x1065 JUMP JUMPDEST PUSH1 0x20 MUL ADD MLOAD DUP3 PUSH2 0xC6C DUP4 PUSH1 0x6 PUSH2 0xFD6 JUMP JUMPDEST PUSH2 0xC77 SWAP1 PUSH1 0x5 PUSH2 0xFBE JUMP JUMPDEST DUP2 MLOAD DUP2 LT PUSH2 0xC87 JUMPI PUSH2 0xC87 PUSH2 0x1065 JUMP JUMPDEST PUSH1 0x20 SWAP1 DUP2 MUL SWAP2 SWAP1 SWAP2 ADD ADD MSTORE DUP1 PUSH2 0xC9C DUP2 PUSH2 0x100C JUMP JUMPDEST SWAP2 POP POP PUSH2 0xA6F JUMP JUMPDEST POP PUSH2 0xCAD PUSH2 0xD96 JUMP JUMPDEST PUSH1 0x0 PUSH1 0x20 DUP3 PUSH1 0x20 DUP7 MUL PUSH1 0x20 DUP7 ADD PUSH1 0x8 PUSH2 0x7D0 GAS SUB STATICCALL SWAP1 POP DUP1 DUP1 ISZERO PUSH2 0x76B JUMPI POP DUP1 PUSH2 0xCD6 JUMPI PUSH1 0x0 DUP1 REVERT JUMPDEST POP MLOAD ISZERO ISZERO SWAP7 SWAP6 POP POP POP POP POP POP JUMP JUMPDEST PUSH1 0x40 DUP1 MLOAD PUSH1 0xE0 DUP2 ADD SWAP1 SWAP2 MSTORE PUSH1 0x0 PUSH1 0xA0 DUP3 ADD DUP2 DUP2 MSTORE PUSH1 0xC0 DUP4 ADD SWAP2 SWAP1 SWAP2 MSTORE DUP2 MSTORE PUSH1 0x20 DUP2 ADD PUSH2 0xD0E PUSH2 0xD71 JUMP JUMPDEST DUP2 MSTORE PUSH1 0x20 ADD PUSH2 0xD1B PUSH2 0xD71 JUMP JUMPDEST DUP2 MSTORE PUSH1 0x20 ADD PUSH2 0xD28 PUSH2 0xD71 JUMP JUMPDEST DUP2 MSTORE PUSH1 0x20 ADD PUSH1 0x60 DUP2 MSTORE POP SWAP1 JUMP JUMPDEST PUSH1 0x40 MLOAD DUP1 PUSH1 0x60 ADD PUSH1 0x40 MSTORE DUP1 PUSH1 0x3 SWAP1 PUSH1 0x20 DUP3 MUL DUP1 CALLDATASIZE DUP4 CALLDATACOPY POP SWAP2 SWAP3 SWAP2 POP POP JUMP JUMPDEST PUSH1 0x40 MLOAD DUP1 PUSH1 0x80 ADD PUSH1 0x40 MSTORE DUP1 PUSH1 0x4 SWAP1 PUSH1 0x20 DUP3 MUL DUP1 CALLDATASIZE DUP4 CALLDATACOPY POP SWAP2 SWAP3 SWAP2 POP POP JUMP JUMPDEST PUSH1 0x40 MLOAD DUP1 PUSH1 0x40 ADD PUSH1 0x40 MSTORE DUP1 PUSH2 0xD84 PUSH2 0xDB4 JUMP JUMPDEST DUP2 MSTORE PUSH1 0x20 ADD PUSH2 0xD91 PUSH2 0xDB4 JUMP JUMPDEST SWAP1 MSTORE SWAP1 JUMP JUMPDEST PUSH1 0x40 MLOAD DUP1 PUSH1 0x20 ADD PUSH1 0x40 MSTORE DUP1 PUSH1 0x1 SWAP1 PUSH1 0x20 DUP3 MUL DUP1 CALLDATASIZE DUP4 CALLDATACOPY POP SWAP2 SWAP3 SWAP2 POP POP JUMP JUMPDEST PUSH1 0x40 MLOAD DUP1 PUSH1 0x40 ADD PUSH1 0x40 MSTORE DUP1 PUSH1 0x2 SWAP1 PUSH1 0x20 DUP3 MUL DUP1 CALLDATASIZE DUP4 CALLDATACOPY POP SWAP2 SWAP3 SWAP2 POP POP JUMP JUMPDEST PUSH1 0x0 DUP3 PUSH1 0x1F DUP4 ADD SLT PUSH2 0xDE3 JUMPI PUSH1 0x0 DUP1 REVERT JUMPDEST PUSH2 0xDEB PUSH2 0xF9B JUMP JUMPDEST DUP1 DUP4 DUP6 PUSH1 0x40 DUP7 ADD GT ISZERO PUSH2 0xDFD JUMPI PUSH1 0x0 DUP1 REVERT JUMPDEST PUSH1 0x0 JUMPDEST PUSH1 0x2 DUP2 LT ISZERO PUSH2 0xE1F JUMPI DUP2 CALLDATALOAD DUP5 MSTORE PUSH1 0x20 SWAP4 DUP5 ADD SWAP4 SWAP1 SWAP2 ADD SWAP1 PUSH1 0x1 ADD PUSH2 0xE00 JUMP JUMPDEST POP SWAP1 SWAP6 SWAP5 POP POP POP POP POP JUMP JUMPDEST PUSH1 0x0 PUSH1 0x40 DUP3 DUP5 SUB SLT ISZERO PUSH2 0xE3C JUMPI PUSH1 0x0 DUP1 REVERT JUMPDEST PUSH1 0x40 MLOAD PUSH1 0x40 DUP2 ADD DUP2 DUP2 LT PUSH8 0xFFFFFFFFFFFFFFFF DUP3 GT OR ISZERO PUSH2 0xE5F JUMPI PUSH2 0xE5F PUSH2 0x107E JUMP JUMPDEST PUSH1 0x40 MSTORE DUP3 CALLDATALOAD DUP2 MSTORE PUSH1 0x20 SWAP3 DUP4 ADD CALLDATALOAD SWAP3 DUP2 ADD SWAP3 SWAP1 SWAP3 MSTORE POP SWAP2 SWAP1 POP JUMP JUMPDEST PUSH1 0x0 DUP1 DUP3 DUP5 SUB PUSH2 0x160 DUP1 DUP3 SLT ISZERO PUSH2 0xE8F JUMPI PUSH1 0x0 DUP1 REVERT JUMPDEST PUSH2 0x100 DUP1 DUP4 SLT ISZERO PUSH2 0xE9F JUMPI PUSH1 0x0 DUP1 REVERT JUMPDEST PUSH2 0xEA7 PUSH2 0xF72 JUMP JUMPDEST PUSH2 0xEB1 DUP9 DUP9 PUSH2 0xE2A JUMP JUMPDEST DUP2 MSTORE PUSH1 0x80 PUSH1 0x3F NOT DUP6 ADD SLT ISZERO PUSH2 0xEC5 JUMPI PUSH1 0x0 DUP1 REVERT JUMPDEST PUSH2 0xECD PUSH2 0xF9B JUMP JUMPDEST SWAP4 POP PUSH2 0xEDC DUP9 PUSH1 0x40 DUP10 ADD PUSH2 0xDD2 JUMP JUMPDEST DUP5 MSTORE PUSH2 0xEEB DUP9 PUSH1 0x80 DUP10 ADD PUSH2 0xDD2 JUMP JUMPDEST PUSH1 0x20 DUP2 DUP2 DUP8 ADD MSTORE DUP6 DUP2 DUP5 ADD MSTORE PUSH2 0xF04 DUP11 PUSH1 0xC0 DUP12 ADD PUSH2 0xE2A JUMP JUMPDEST PUSH1 0x40 DUP5 ADD MSTORE DUP3 SWAP8 POP DUP10 PUSH2 0x11F DUP11 ADD SLT PUSH2 0xF1C JUMPI PUSH1 0x0 DUP1 REVERT JUMPDEST PUSH2 0xF24 PUSH2 0xF72 JUMP JUMPDEST SWAP6 POP DUP6 SWAP3 POP DUP4 DUP10 ADD SWAP4 POP DUP10 DUP6 DUP11 ADD GT ISZERO PUSH2 0xF3D JUMPI PUSH1 0x0 DUP1 REVERT JUMPDEST PUSH1 0x0 SWAP5 POP JUMPDEST PUSH1 0x3 DUP6 LT ISZERO PUSH2 0xF63 JUMPI DUP4 CALLDATALOAD DUP7 MSTORE SWAP5 DUP6 ADD SWAP5 PUSH1 0x1 SWAP5 SWAP1 SWAP5 ADD SWAP4 SWAP3 DUP4 ADD SWAP3 PUSH2 0xF42 JUMP JUMPDEST POP SWAP6 SWAP9 SWAP1 SWAP8 POP SWAP6 POP POP POP POP POP POP JUMP JUMPDEST PUSH1 0x40 MLOAD PUSH1 0x60 DUP2 ADD PUSH8 0xFFFFFFFFFFFFFFFF DUP2 GT DUP3 DUP3 LT OR ISZERO PUSH2 0xF95 JUMPI PUSH2 0xF95 PUSH2 0x107E JUMP JUMPDEST PUSH1 0x40 MSTORE SWAP1 JUMP JUMPDEST PUSH1 0x40 DUP1 MLOAD SWAP1 DUP2 ADD PUSH8 0xFFFFFFFFFFFFFFFF DUP2 GT DUP3 DUP3 LT OR ISZERO PUSH2 0xF95 JUMPI PUSH2 0xF95 PUSH2 0x107E JUMP JUMPDEST PUSH1 0x0 DUP3 NOT DUP3 GT ISZERO PUSH2 0xFD1 JUMPI PUSH2 0xFD1 PUSH2 0x104C JUMP JUMPDEST POP ADD SWAP1 JUMP JUMPDEST PUSH1 0x0 DUP2 PUSH1 0x0 NOT DIV DUP4 GT DUP3 ISZERO ISZERO AND ISZERO PUSH2 0xFF0 JUMPI PUSH2 0xFF0 PUSH2 0x104C JUMP JUMPDEST POP MUL SWAP1 JUMP JUMPDEST PUSH1 0x0 DUP3 DUP3 LT ISZERO PUSH2 0x1007 JUMPI PUSH2 0x1007 PUSH2 0x104C JUMP JUMPDEST POP SUB SWAP1 JUMP JUMPDEST PUSH1 0x0 PUSH1 0x0 NOT DUP3 EQ ISZERO PUSH2 0x1020 JUMPI PUSH2 0x1020 PUSH2 0x104C JUMP JUMPDEST POP PUSH1 0x1 ADD SWAP1 JUMP JUMPDEST PUSH1 0x0 DUP3 PUSH2 0x1047 JUMPI PUSH1 0xE0 PUSH1 0x2 EXP PUSH4 0x4E487B71 MUL PUSH1 0x0 MSTORE PUSH1 0x12 PUSH1 0x4 MSTORE PUSH1 0x24 PUSH1 0x0 REVERT JUMPDEST POP MOD SWAP1 JUMP JUMPDEST PUSH1 0xE0 PUSH1 0x2 EXP PUSH4 0x4E487B71 MUL PUSH1 0x0 MSTORE PUSH1 0x11 PUSH1 0x4 MSTORE PUSH1 0x24 PUSH1 0x0 REVERT JUMPDEST PUSH1 0xE0 PUSH1 0x2 EXP PUSH4 0x4E487B71 MUL PUSH1 0x0 MSTORE PUSH1 0x32 PUSH1 0x4 MSTORE PUSH1 0x24 PUSH1 0x0 REVERT JUMPDEST PUSH1 0xE0 PUSH1 0x2 EXP PUSH4 0x4E487B71 MUL PUSH1 0x0 MSTORE PUSH1 0x41 PUSH1 0x4 MSTORE PUSH1 0x24 PUSH1 0x0 REVERT INVALID LOG2 PUSH5 0x6970667358 0x22 SLT KECCAK256 PUSH14 0x6BA93D7C78379257CEA4FCD5348 0x23 PUSH14 0xC7C8FB8921E18D4B712C25381696 0xB7 PUSH5 0x736F6C6343 STOP ADDMOD SMOD STOP CALLER "
				},
				"gasEstimates": {
					"creation": {
						"codeDepositCost": "860200",
						"executionCost": "896",
						"totalCost": "861096"
					},
					"external": {
						"verifyTx(((uint256,uint256),(uint256[2],uint256[2]),(uint256,uint256)),uint256[3])": "infinite"
					},
					"internal": {
						"verify(uint256[] memory,struct Verifier.Proof memory)": "infinite",
						"verifyingKey()": "infinite"
					}
				},
				"methodIdentifiers": {
					"verifyTx(((uint256,uint256),(uint256[2],uint256[2]),(uint256,uint256)),uint256[3])": "0f9c5d49"
				}
			},
			"storageLayout": {
				"storage": [],
				"types": null
			},
			"userdoc": {
				"kind": "user",
				"methods": {},
				"version": 1
			}
		}
	}
}