{
	"data": {
		"bytecode": {
			"linkReferences": {},
			"object": "608060405234801561001057600080fd5b5061112d806100206000396000f3fe608060405234801561001057600080fd5b5060043610610047577c010000000000000000000000000000000000000000000000000000000060003504630f9c5d49811461004c575b600080fd5b61005f61005a366004610ed9565b610073565b604051901515815260200160405180910390f35b604080516003808252608082019092526000918291906020820160608036833701905050905060005b60038110156100eb578381600381106100b7576100b76110c5565b60200201518282815181106100ce576100ce6110c5565b6020908102919091010152806100e38161106c565b91505061009c565b506f04d8ac91b0ff52c3c2421267ee6da7da81600081518110610110576101106110c5565b6020026020010181815250506f6df16755c25f7be7dd284bf4ea2ecf8481600181518110610140576101406110c5565b6020026020010181815250506101568185610170565b61016457600191505061016a565b60009150505b92915050565b60007f30644e72e131a029b85045b68181585d2833e84879b9709143e1f593f00000018161019c6102f3565b9050806080015151855160016101b2919061101e565b146101bc57600080fd5b604080518082019091526000808252602082018190525b865181101561026a57838782815181106101ef576101ef6110c5565b60200260200101511061020157600080fd5b61025682610251856080015184600161021a919061101e565b8151811061022a5761022a6110c5565b60200260200101518a8581518110610244576102446110c5565b602002602001015161077c565b6107e0565b9150806102628161106c565b9150506101d3565b50610293818360800151600081518110610286576102866110c5565b60200260200101516107e0565b90506102d7856000015186602001516102ab8461083a565b85604001516102bd8a6040015161083a565b606088015188516102cd9061083a565b89602001516108d9565b6102e7576001935050505061016a565b50600095945050505050565b6102fb610d44565b6040805180820182527f12b783ec472296b3e196787e954387d9e02e5b4439ddd9ba16f568db37b1a7c581527f0db7c0b7bdb26ea13d80844e0b02831b803a2307d6652bd07d9d3742d5c34ec26020808301919091529083528151608080820184527f1f5d53ce621a3785bf6536368772f0278cfb45582721469a50bbb6399523327d8285019081527f0d2854548ff299c170710e70bb2b53796bc49fa56d3f7fb95e54086f44cb9efe606080850191909152908352845180860186527f0bb1df5ef925c89685dceb6b587367252436213eb8b744473caf338914407b0581527f23857a918f085802d3493534cad2b7f828e6c4e3ff86f797e94f206590b6a39e818601528385015285840192909252835180820185527f1b4273a6bd1c397b7c7f91b89c694a6e8e47a1cd45c051560f3bce763a8406f48186019081527f2107548da4bef4e7134a57aafcef167d4aa3a42683c30f8dc5d94d887d4d35df828501528152845180860186527f2dd10c93e9d06d687c8315bcdee5eac945319c7f455f3ac662c4617816fdd0f281527f1a32c176f547ebb69b23382e3f43aec408e8369984aabb443414d5aefe3a7c2b818601528185015285850152835190810184527f0484bda0e73efc404930b53b9f1c2a5386e4520b73a108e47d65c59b3bdba8008185019081527f2cf1ee107598ccaddacf9f3f408c231a59e095a1711cd2a5f0d8ecb9f386fd61828401528152835180850185527f0c95401f0b6e91ee8f4199f23af18d096def64ae65224505e79aeabc3c85447781527f1f384eb538bb0f87a17d4a1f5219c5068ee2033918eb2fc057f85fb1a9fd9c2e8185015281840152908401528151600480825260a08201909352919082015b604080518082019091526000808252602082015281526020019060019003908161057657505060808201908152604080518082019091527f0f205d8d8289661580725cbd25bb69e7aa65642afc8f13b2c10e2dc1bada1f6081527f2f54494a4a83912a10fc804f6ae004376aa4ea292ccbd337632adb237eb451e7602082015290518051600090610609576106096110c5565b602002602001018190525060405180604001604052807f14217d1d6b88be38bffc57acfa84c662d1b0255fe5dcfe5ec5aa2b8d06bb5a4e81526020017f1e0fa9ba88f42dd36f7bb66c2030b71f072fd22301fcffe4a800a436b4d645ab8152508160800151600181518110610680576106806110c5565b602002602001018190525060405180604001604052807f1f34398dfca7d618f26df1a80539fcd60e9ea74b0a0ba44c3acc1432b60d15d581526020017f2585453e5deb470315941e98d673292ac71461cab5dfdb9c07097a20bb36d06d81525081608001516002815181106106f7576106f76110c5565b602002602001018190525060405180604001604052807f2d0fb28082e342952dc5d819a320a705864ca7761414c4cb2011fd99525ec88281526020017f1f041a929def2c79af5e4e90779ea1ae3cbaeb7f2e072c005becc91d04858524815250816080015160038151811061076e5761076e6110c5565b602002602001018190525090565b6040805180820190915260008082526020820152610798610d95565b835181526020808501519082015260408101839052600060608360808460076107d05a03fa90508080156107cb576107cd565bfe5b50806107d857600080fd5b505092915050565b60408051808201909152600080825260208201526107fc610db3565b8351815260208085015181830152835160408301528301516060808301919091526000908360c08460066107d05a03fa90508080156107cb576107cd565b604080518082019091526000808252602082015281517f30644e72e131a029b85045b68181585d97816a916871ca8d3c208c16d87cfd479015801561088157506020830151155b156108a15750506040805180820190915260008082526020820152919050565b6040518060400160405280846000015181526020018285602001516108c69190611087565b6108d09084611055565b90529392505050565b60408051600480825260a08201909252600091829190816020015b60408051808201909152600080825260208201528152602001906001900390816108f457505060408051600480825260a0820190925291925060009190602082015b61093e610dd1565b8152602001906001900390816109365790505090508a82600081518110610967576109676110c5565b60200260200101819052508882600181518110610986576109866110c5565b602002602001018190525086826002815181106109a5576109a56110c5565b602002602001018190525084826003815181106109c4576109c46110c5565b602002602001018190525089816000815181106109e3576109e36110c5565b60200260200101819052508781600181518110610a0257610a026110c5565b60200260200101819052508581600281518110610a2157610a216110c5565b60200260200101819052508381600381518110610a4057610a406110c5565b6020026020010181905250610a558282610a64565b9b9a5050505050505050505050565b60008151835114610a7457600080fd5b82516000610a83826006611036565b905060008167ffffffffffffffff811115610aa057610aa06110de565b604051908082528060200260200182016040528015610ac9578160200160208202803683370190505b50905060005b83811015610d0457868181518110610ae957610ae96110c5565b60200260200101516000015182826006610b039190611036565b610b0e90600061101e565b81518110610b1e57610b1e6110c5565b602002602001018181525050868181518110610b3c57610b3c6110c5565b60200260200101516020015182826006610b569190611036565b610b6190600161101e565b81518110610b7157610b716110c5565b602002602001018181525050858181518110610b8f57610b8f6110c5565b60209081029190910181015151015182610baa836006611036565b610bb590600261101e565b81518110610bc557610bc56110c5565b602002602001018181525050858181518110610be357610be36110c5565b6020908102919091010151515182610bfc836006611036565b610c0790600361101e565b81518110610c1757610c176110c5565b602002602001018181525050858181518110610c3557610c356110c5565b602002602001015160200151600160028110610c5357610c536110c5565b602002015182610c64836006611036565b610c6f90600461101e565b81518110610c7f57610c7f6110c5565b602002602001018181525050858181518110610c9d57610c9d6110c5565b602002602001015160200151600060028110610cbb57610cbb6110c5565b602002015182610ccc836006611036565b610cd790600561101e565b81518110610ce757610ce76110c5565b602090810291909101015280610cfc8161106c565b915050610acf565b50610d0d610df6565b6000602082602086026020860160086107d05a03fa90508080156107cb575080610d3657600080fd5b505115159695505050505050565b6040805160e08101909152600060a0820181815260c0830191909152815260208101610d6e610dd1565b8152602001610d7b610dd1565b8152602001610d88610dd1565b8152602001606081525090565b60405180606001604052806003906020820280368337509192915050565b60405180608001604052806004906020820280368337509192915050565b6040518060400160405280610de4610e14565b8152602001610df1610e14565b905290565b60405180602001604052806001906020820280368337509192915050565b60405180604001604052806002906020820280368337509192915050565b600082601f830112610e4357600080fd5b610e4b610ffb565b808385604086011115610e5d57600080fd5b60005b6002811015610e7f578135845260209384019390910190600101610e60565b509095945050505050565b600060408284031215610e9c57600080fd5b6040516040810181811067ffffffffffffffff82111715610ebf57610ebf6110de565b604052823581526020928301359281019290925250919050565b60008082840361016080821215610eef57600080fd5b61010080831215610eff57600080fd5b610f07610fd2565b610f118888610e8a565b81526080603f1985011215610f2557600080fd5b610f2d610ffb565b9350610f3c8860408901610e32565b8452610f4b8860808901610e32565b602081818701528581840152610f648a60c08b01610e8a565b60408401528297508961011f8a0112610f7c57600080fd5b610f84610fd2565b9550859250838901935089858a011115610f9d57600080fd5b600094505b6003851015610fc35783358652948501946001949094019392830192610fa2565b50959890975095505050505050565b6040516060810167ffffffffffffffff81118282101715610ff557610ff56110de565b60405290565b6040805190810167ffffffffffffffff81118282101715610ff557610ff56110de565b60008219821115611031576110316110ac565b500190565b6000816000190483118215151615611050576110506110ac565b500290565b600082821015611067576110676110ac565b500390565b6000600019821415611080576110806110ac565b5060010190565b6000826110a75760e060020a634e487b7102600052601260045260246000fd5b500690565b60e060020a634e487b7102600052601160045260246000fd5b60e060020a634e487b7102600052603260045260246000fd5b60e060020a634e487b7102600052604160045260246000fdfea26469706673582212203fb357a81f98dd99a524f137d2393326aff5a69e20fb36be5b940cd12de5f4de64736f6c63430008070033",
			"opcodes": "PUSH1 0x80 PUSH1 0x40 MSTORE CALLVALUE DUP1 ISZERO PUSH2 0x10 JUMPI PUSH1 0x0 DUP1 REVERT JUMPDEST POP PUSH2 0x112D DUP1 PUSH2 0x20 PUSH1 0x0 CODECOPY PUSH1 0x0 RETURN INVALID PUSH1 0x80 PUSH1 0x40 MSTORE CALLVALUE DUP1 ISZERO PUSH2 0x10 JUMPI PUSH1 0x0 DUP1 REVERT JUMPDEST POP PUSH1 0x4 CALLDATASIZE LT PUSH2 0x47 JUMPI PUSH29 0x100000000000000000000000000000000000000000000000000000000 PUSH1 0x0 CALLDATALOAD DIV PUSH4 0xF9C5D49 DUP2 EQ PUSH2 0x4C JUMPI JUMPDEST PUSH1 0x0 DUP1 REVERT JUMPDEST PUSH2 0x5F PUSH2 0x5A CALLDATASIZE PUSH1 0x4 PUSH2 0xED9 JUMP JUMPDEST PUSH2 0x73 JUMP JUMPDEST PUSH1 0x40 MLOAD SWAP1 ISZERO ISZERO DUP2 MSTORE PUSH1 0x20 ADD PUSH1 0x40 MLOAD DUP1 SWAP2 SUB SWAP1 RETURN JUMPDEST PUSH1 0x40 DUP1 MLOAD PUSH1 0x3 DUP1 DUP3 MSTORE PUSH1 0x80 DUP3 ADD SWAP1 SWAP3 MSTORE PUSH1 0x0 SWAP2 DUP3 SWAP2 SWAP1 PUSH1 0x20 DUP3 ADD PUSH1 0x60 DUP1 CALLDATASIZE DUP4 CALLDATACOPY ADD SWAP1 POP POP SWAP1 POP PUSH1 0x0 JUMPDEST PUSH1 0x3 DUP2 LT ISZERO PUSH2 0xEB JUMPI DUP4 DUP2 PUSH1 0x3 DUP2 LT PUSH2 0xB7 JUMPI PUSH2 0xB7 PUSH2 0x10C5 JUMP JUMPDEST PUSH1 0x20 MUL ADD MLOAD DUP3 DUP3 DUP2 MLOAD DUP2 LT PUSH2 0xCE JUMPI PUSH2 0xCE PUSH2 0x10C5 JUMP JUMPDEST PUSH1 0x20 SWAP1 DUP2 MUL SWAP2 SWAP1 SWAP2 ADD ADD MSTORE DUP1 PUSH2 0xE3 DUP2 PUSH2 0x106C JUMP JUMPDEST SWAP2 POP POP PUSH2 0x9C JUMP JUMPDEST POP PUSH16 0x4D8AC91B0FF52C3C2421267EE6DA7DA DUP2 PUSH1 0x0 DUP2 MLOAD DUP2 LT PUSH2 0x110 JUMPI PUSH2 0x110 PUSH2 0x10C5 JUMP JUMPDEST PUSH1 0x20 MUL PUSH1 0x20 ADD ADD DUP2 DUP2 MSTORE POP POP PUSH16 0x6DF16755C25F7BE7DD284BF4EA2ECF84 DUP2 PUSH1 0x1 DUP2 MLOAD DUP2 LT PUSH2 0x140 JUMPI PUSH2 0x140 PUSH2 0x10C5 JUMP JUMPDEST PUSH1 0x20 MUL PUSH1 0x20 ADD ADD DUP2 DUP2 MSTORE POP POP PUSH2 0x156 DUP2 DUP6 PUSH2 0x170 JUMP JUMPDEST PUSH2 0x164 JUMPI PUSH1 0x1 SWAP2 POP POP PUSH2 0x16A JUMP JUMPDEST PUSH1 0x0 SWAP2 POP POP JUMPDEST SWAP3 SWAP2 POP POP JUMP JUMPDEST PUSH1 0x0 PUSH32 0x30644E72E131A029B85045B68181585D2833E84879B9709143E1F593F0000001 DUP2 PUSH2 0x19C PUSH2 0x2F3 JUMP JUMPDEST SWAP1 POP DUP1 PUSH1 0x80 ADD MLOAD MLOAD DUP6 MLOAD PUSH1 0x1 PUSH2 0x1B2 SWAP2 SWAP1 PUSH2 0x101E JUMP JUMPDEST EQ PUSH2 0x1BC JUMPI PUSH1 0x0 DUP1 REVERT JUMPDEST PUSH1 0x40 DUP1 MLOAD DUP1 DUP3 ADD SWAP1 SWAP2 MSTORE PUSH1 0x0 DUP1 DUP3 MSTORE PUSH1 0x20 DUP3 ADD DUP2 SWAP1 MSTORE JUMPDEST DUP7 MLOAD DUP2 LT ISZERO PUSH2 0x26A JUMPI DUP4 DUP8 DUP3 DUP2 MLOAD DUP2 LT PUSH2 0x1EF JUMPI PUSH2 0x1EF PUSH2 0x10C5 JUMP JUMPDEST PUSH1 0x20 MUL PUSH1 0x20 ADD ADD MLOAD LT PUSH2 0x201 JUMPI PUSH1 0x0 DUP1 REVERT JUMPDEST PUSH2 0x256 DUP3 PUSH2 0x251 DUP6 PUSH1 0x80 ADD MLOAD DUP5 PUSH1 0x1 PUSH2 0x21A SWAP2 SWAP1 PUSH2 0x101E JUMP JUMPDEST DUP2 MLOAD DUP2 LT PUSH2 0x22A JUMPI PUSH2 0x22A PUSH2 0x10C5 JUMP JUMPDEST PUSH1 0x20 MUL PUSH1 0x20 ADD ADD MLOAD DUP11 DUP6 DUP2 MLOAD DUP2 LT PUSH2 0x244 JUMPI PUSH2 0x244 PUSH2 0x10C5 JUMP JUMPDEST PUSH1 0x20 MUL PUSH1 0x20 ADD ADD MLOAD PUSH2 0x77C JUMP JUMPDEST PUSH2 0x7E0 JUMP JUMPDEST SWAP2 POP DUP1 PUSH2 0x262 DUP2 PUSH2 0x106C JUMP JUMPDEST SWAP2 POP POP PUSH2 0x1D3 JUMP JUMPDEST POP PUSH2 0x293 DUP2 DUP4 PUSH1 0x80 ADD MLOAD PUSH1 0x0 DUP2 MLOAD DUP2 LT PUSH2 0x286 JUMPI PUSH2 0x286 PUSH2 0x10C5 JUMP JUMPDEST PUSH1 0x20 MUL PUSH1 0x20 ADD ADD MLOAD PUSH2 0x7E0 JUMP JUMPDEST SWAP1 POP PUSH2 0x2D7 DUP6 PUSH1 0x0 ADD MLOAD DUP7 PUSH1 0x20 ADD MLOAD PUSH2 0x2AB DUP5 PUSH2 0x83A JUMP JUMPDEST DUP6 PUSH1 0x40 ADD MLOAD PUSH2 0x2BD DUP11 PUSH1 0x40 ADD MLOAD PUSH2 0x83A JUMP JUMPDEST PUSH1 0x60 DUP9 ADD MLOAD DUP9 MLOAD PUSH2 0x2CD SWAP1 PUSH2 0x83A JUMP JUMPDEST DUP10 PUSH1 0x20 ADD MLOAD PUSH2 0x8D9 JUMP JUMPDEST PUSH2 0x2E7 JUMPI PUSH1 0x1 SWAP4 POP POP POP POP PUSH2 0x16A JUMP JUMPDEST POP PUSH1 0x0 SWAP6 SWAP5 POP POP POP POP POP JUMP JUMPDEST PUSH2 0x2FB PUSH2 0xD44 JUMP JUMPDEST PUSH1 0x40 DUP1 MLOAD DUP1 DUP3 ADD DUP3 MSTORE PUSH32 0x12B783EC472296B3E196787E954387D9E02E5B4439DDD9BA16F568DB37B1A7C5 DUP2 MSTORE PUSH32 0xDB7C0B7BDB26EA13D80844E0B02831B803A2307D6652BD07D9D3742D5C34EC2 PUSH1 0x20 DUP1 DUP4 ADD SWAP2 SWAP1 SWAP2 MSTORE SWAP1 DUP4 MSTORE DUP2 MLOAD PUSH1 0x80 DUP1 DUP3 ADD DUP5 MSTORE PUSH32 0x1F5D53CE621A3785BF6536368772F0278CFB45582721469A50BBB6399523327D DUP3 DUP6 ADD SWAP1 DUP2 MSTORE PUSH32 0xD2854548FF299C170710E70BB2B53796BC49FA56D3F7FB95E54086F44CB9EFE PUSH1 0x60 DUP1 DUP6 ADD SWAP2 SWAP1 SWAP2 MSTORE SWAP1 DUP4 MSTORE DUP5 MLOAD DUP1 DUP7 ADD DUP7 MSTORE PUSH32 0xBB1DF5EF925C89685DCEB6B587367252436213EB8B744473CAF338914407B05 DUP2 MSTORE PUSH32 0x23857A918F085802D3493534CAD2B7F828E6C4E3FF86F797E94F206590B6A39E DUP2 DUP7 ADD MSTORE DUP4 DUP6 ADD MSTORE DUP6 DUP5 ADD SWAP3 SWAP1 SWAP3 MSTORE DUP4 MLOAD DUP1 DUP3 ADD DUP6 MSTORE PUSH32 0x1B4273A6BD1C397B7C7F91B89C694A6E8E47A1CD45C051560F3BCE763A8406F4 DUP2 DUP7 ADD SWAP1 DUP2 MSTORE PUSH32 0x2107548DA4BEF4E7134A57AAFCEF167D4AA3A42683C30F8DC5D94D887D4D35DF DUP3 DUP6 ADD MSTORE DUP2 MSTORE DUP5 MLOAD DUP1 DUP7 ADD DUP7 MSTORE PUSH32 0x2DD10C93E9D06D687C8315BCDEE5EAC945319C7F455F3AC662C4617816FDD0F2 DUP2 MSTORE PUSH32 0x1A32C176F547EBB69B23382E3F43AEC408E8369984AABB443414D5AEFE3A7C2B DUP2 DUP7 ADD MSTORE DUP2 DUP6 ADD MSTORE DUP6 DUP6 ADD MSTORE DUP4 MLOAD SWAP1 DUP2 ADD DUP5 MSTORE PUSH32 0x484BDA0E73EFC404930B53B9F1C2A5386E4520B73A108E47D65C59B3BDBA800 DUP2 DUP6 ADD SWAP1 DUP2 MSTORE PUSH32 0x2CF1EE107598CCADDACF9F3F408C231A59E095A1711CD2A5F0D8ECB9F386FD61 DUP3 DUP5 ADD MSTORE DUP2 MSTORE DUP4 MLOAD DUP1 DUP6 ADD DUP6 MSTORE PUSH32 0xC95401F0B6E91EE8F4199F23AF18D096DEF64AE65224505E79AEABC3C854477 DUP2 MSTORE PUSH32 0x1F384EB538BB0F87A17D4A1F5219C5068EE2033918EB2FC057F85FB1A9FD9C2E DUP2 DUP6 ADD MSTORE DUP2 DUP5 ADD MSTORE SWAP1 DUP5 ADD MSTORE DUP2 MLOAD PUSH1 0x4 DUP1 DUP3 MSTORE PUSH1 0xA0 DUP3 ADD SWAP1 SWAP4 MSTORE SWAP2 SWAP1 DUP3 ADD JUMPDEST PUSH1 0x40 DUP1 MLOAD DUP1 DUP3 ADD SWAP1 SWAP2 MSTORE PUSH1 0x0 DUP1 DUP3 MSTORE PUSH1 0x20 DUP3 ADD MSTORE DUP2 MSTORE PUSH1 0x20 ADD SWAP1 PUSH1 0x1 SWAP1 SUB SWAP1 DUP2 PUSH2 0x576 JUMPI POP POP PUSH1 0x80 DUP3 ADD SWAP1 DUP2 MSTORE PUSH1 0x40 DUP1 MLOAD DUP1 DUP3 ADD SWAP1 SWAP2 MSTORE PUSH32 0xF205D8D8289661580725CBD25BB69E7AA65642AFC8F13B2C10E2DC1BADA1F60 DUP2 MSTORE PUSH32 0x2F54494A4A83912A10FC804F6AE004376AA4EA292CCBD337632ADB237EB451E7 PUSH1 0x20 DUP3 ADD MSTORE SWAP1 MLOAD DUP1 MLOAD PUSH1 0x0 SWAP1 PUSH2 0x609 JUMPI PUSH2 0x609 PUSH2 0x10C5 JUMP JUMPDEST PUSH1 0x20 MUL PUSH1 0x20 ADD ADD DUP2 SWAP1 MSTORE POP PUSH1 0x40 MLOAD DUP1 PUSH1 0x40 ADD PUSH1 0x40 MSTORE DUP1 PUSH32 0x14217D1D6B88BE38BFFC57ACFA84C662D1B0255FE5DCFE5EC5AA2B8D06BB5A4E DUP2 MSTORE PUSH1 0x20 ADD PUSH32 0x1E0FA9BA88F42DD36F7BB66C2030B71F072FD22301FCFFE4A800A436B4D645AB DUP2 MSTORE POP DUP2 PUSH1 0x80 ADD MLOAD PUSH1 0x1 DUP2 MLOAD DUP2 LT PUSH2 0x680 JUMPI PUSH2 0x680 PUSH2 0x10C5 JUMP JUMPDEST PUSH1 0x20 MUL PUSH1 0x20 ADD ADD DUP2 SWAP1 MSTORE POP PUSH1 0x40 MLOAD DUP1 PUSH1 0x40 ADD PUSH1 0x40 MSTORE DUP1 PUSH32 0x1F34398DFCA7D618F26DF1A80539FCD60E9EA74B0A0BA44C3ACC1432B60D15D5 DUP2 MSTORE PUSH1 0x20 ADD PUSH32 0x2585453E5DEB470315941E98D673292AC71461CAB5DFDB9C07097A20BB36D06D DUP2 MSTORE POP DUP2 PUSH1 0x80 ADD MLOAD PUSH1 0x2 DUP2 MLOAD DUP2 LT PUSH2 0x6F7 JUMPI PUSH2 0x6F7 PUSH2 0x10C5 JUMP JUMPDEST PUSH1 0x20 MUL PUSH1 0x20 ADD ADD DUP2 SWAP1 MSTORE POP PUSH1 0x40 MLOAD DUP1 PUSH1 0x40 ADD PUSH1 0x40 MSTORE DUP1 PUSH32 0x2D0FB28082E342952DC5D819A320A705864CA7761414C4CB2011FD99525EC882 DUP2 MSTORE PUSH1 0x20 ADD PUSH32 0x1F041A929DEF2C79AF5E4E90779EA1AE3CBAEB7F2E072C005BECC91D04858524 DUP2 MSTORE POP DUP2 PUSH1 0x80 ADD MLOAD PUSH1 0x3 DUP2 MLOAD DUP2 LT PUSH2 0x76E JUMPI PUSH2 0x76E PUSH2 0x10C5 JUMP JUMPDEST PUSH1 0x20 MUL PUSH1 0x20 ADD ADD DUP2 SWAP1 MSTORE POP SWAP1 JUMP JUMPDEST PUSH1 0x40 DUP1 MLOAD DUP1 DUP3 ADD SWAP1 SWAP2 MSTORE PUSH1 0x0 DUP1 DUP3 MSTORE PUSH1 0x20 DUP3 ADD MSTORE PUSH2 0x798 PUSH2 0xD95 JUMP JUMPDEST DUP4 MLOAD DUP2 MSTORE PUSH1 0x20 DUP1 DUP6 ADD MLOAD SWAP1 DUP3 ADD MSTORE PUSH1 0x40 DUP2 ADD DUP4 SWAP1 MSTORE PUSH1 0x0 PUSH1 0x60 DUP4 PUSH1 0x80 DUP5 PUSH1 0x7 PUSH2 0x7D0 GAS SUB STATICCALL SWAP1 POP DUP1 DUP1 ISZERO PUSH2 0x7CB JUMPI PUSH2 0x7CD JUMP JUMPDEST INVALID JUMPDEST POP DUP1 PUSH2 0x7D8 JUMPI PUSH1 0x0 DUP1 REVERT JUMPDEST POP POP SWAP3 SWAP2 POP POP JUMP JUMPDEST PUSH1 0x40 DUP1 MLOAD DUP1 DUP3 ADD SWAP1 SWAP2 MSTORE PUSH1 0x0 DUP1 DUP3 MSTORE PUSH1 0x20 DUP3 ADD MSTORE PUSH2 0x7FC PUSH2 0xDB3 JUMP JUMPDEST DUP4 MLOAD DUP2 MSTORE PUSH1 0x20 DUP1 DUP6 ADD MLOAD DUP2 DUP4 ADD MSTORE DUP4 MLOAD PUSH1 0x40 DUP4 ADD MSTORE DUP4 ADD MLOAD PUSH1 0x60 DUP1 DUP4 ADD SWAP2 SWAP1 SWAP2 MSTORE PUSH1 0x0 SWAP1 DUP4 PUSH1 0xC0 DUP5 PUSH1 0x6 PUSH2 0x7D0 GAS SUB STATICCALL SWAP1 POP DUP1 DUP1 ISZERO PUSH2 0x7CB JUMPI PUSH2 0x7CD JUMP JUMPDEST PUSH1 0x40 DUP1 MLOAD DUP1 DUP3 ADD SWAP1 SWAP2 MSTORE PUSH1 0x0 DUP1 DUP3 MSTORE PUSH1 0x20 DUP3 ADD MSTORE DUP2 MLOAD PUSH32 0x30644E72E131A029B85045B68181585D97816A916871CA8D3C208C16D87CFD47 SWAP1 ISZERO DUP1 ISZERO PUSH2 0x881 JUMPI POP PUSH1 0x20 DUP4 ADD MLOAD ISZERO JUMPDEST ISZERO PUSH2 0x8A1 JUMPI POP POP PUSH1 0x40 DUP1 MLOAD DUP1 DUP3 ADD SWAP1 SWAP2 MSTORE PUSH1 0x0 DUP1 DUP3 MSTORE PUSH1 0x20 DUP3 ADD MSTORE SWAP2 SWAP1 POP JUMP JUMPDEST PUSH1 0x40 MLOAD DUP1 PUSH1 0x40 ADD PUSH1 0x40 MSTORE DUP1 DUP5 PUSH1 0x0 ADD MLOAD DUP2 MSTORE PUSH1 0x20 ADD DUP3 DUP6 PUSH1 0x20 ADD MLOAD PUSH2 0x8C6 SWAP2 SWAP1 PUSH2 0x1087 JUMP JUMPDEST PUSH2 0x8D0 SWAP1 DUP5 PUSH2 0x1055 JUMP JUMPDEST SWAP1 MSTORE SWAP4 SWAP3 POP POP POP JUMP JUMPDEST PUSH1 0x40 DUP1 MLOAD PUSH1 0x4 DUP1 DUP3 MSTORE PUSH1 0xA0 DUP3 ADD SWAP1 SWAP3 MSTORE PUSH1 0x0 SWAP2 DUP3 SWAP2 SWAP1 DUP2 PUSH1 0x20 ADD JUMPDEST PUSH1 0x40 DUP1 MLOAD DUP1 DUP3 ADD SWAP1 SWAP2 MSTORE PUSH1 0x0 DUP1 DUP3 MSTORE PUSH1 0x20 DUP3 ADD MSTORE DUP2 MSTORE PUSH1 0x20 ADD SWAP1 PUSH1 0x1 SWAP1 SUB SWAP1 DUP2 PUSH2 0x8F4 JUMPI POP POP PUSH1 0x40 DUP1 MLOAD PUSH1 0x4 DUP1 DUP3 MSTORE PUSH1 0xA0 DUP3 ADD SWAP1 SWAP3 MSTORE SWAP2 SWAP3 POP PUSH1 0x0 SWAP2 SWAP1 PUSH1 0x20 DUP3 ADD JUMPDEST PUSH2 0x93E PUSH2 0xDD1 JUMP JUMPDEST DUP2 MSTORE PUSH1 0x20 ADD SWAP1 PUSH1 0x1 SWAP1 SUB SWAP1 DUP2 PUSH2 0x936 JUMPI SWAP1 POP POP SWAP1 POP DUP11 DUP3 PUSH1 0x0 DUP2 MLOAD DUP2 LT PUSH2 0x967 JUMPI PUSH2 0x967 PUSH2 0x10C5 JUMP JUMPDEST PUSH1 0x20 MUL PUSH1 0x20 ADD ADD DUP2 SWAP1 MSTORE POP DUP9 DUP3 PUSH1 0x1 DUP2 MLOAD DUP2 LT PUSH2 0x986 JUMPI PUSH2 0x986 PUSH2 0x10C5 JUMP JUMPDEST PUSH1 0x20 MUL PUSH1 0x20 ADD ADD DUP2 SWAP1 MSTORE POP DUP7 DUP3 PUSH1 0x2 DUP2 MLOAD DUP2 LT PUSH2 0x9A5 JUMPI PUSH2 0x9A5 PUSH2 0x10C5 JUMP JUMPDEST PUSH1 0x20 MUL PUSH1 0x20 ADD ADD DUP2 SWAP1 MSTORE POP DUP5 DUP3 PUSH1 0x3 DUP2 MLOAD DUP2 LT PUSH2 0x9C4 JUMPI PUSH2 0x9C4 PUSH2 0x10C5 JUMP JUMPDEST PUSH1 0x20 MUL PUSH1 0x20 ADD ADD DUP2 SWAP1 MSTORE POP DUP10 DUP2 PUSH1 0x0 DUP2 MLOAD DUP2 LT PUSH2 0x9E3 JUMPI PUSH2 0x9E3 PUSH2 0x10C5 JUMP JUMPDEST PUSH1 0x20 MUL PUSH1 0x20 ADD ADD DUP2 SWAP1 MSTORE POP DUP8 DUP2 PUSH1 0x1 DUP2 MLOAD DUP2 LT PUSH2 0xA02 JUMPI PUSH2 0xA02 PUSH2 0x10C5 JUMP JUMPDEST PUSH1 0x20 MUL PUSH1 0x20 ADD ADD DUP2 SWAP1 MSTORE POP DUP6 DUP2 PUSH1 0x2 DUP2 MLOAD DUP2 LT PUSH2 0xA21 JUMPI PUSH2 0xA21 PUSH2 0x10C5 JUMP JUMPDEST PUSH1 0x20 MUL PUSH1 0x20 ADD ADD DUP2 SWAP1 MSTORE POP DUP4 DUP2 PUSH1 0x3 DUP2 MLOAD DUP2 LT PUSH2 0xA40 JUMPI PUSH2 0xA40 PUSH2 0x10C5 JUMP JUMPDEST PUSH1 0x20 MUL PUSH1 0x20 ADD ADD DUP2 SWAP1 MSTORE POP PUSH2 0xA55 DUP3 DUP3 PUSH2 0xA64 JUMP JUMPDEST SWAP12 SWAP11 POP POP POP POP POP POP POP POP POP POP POP JUMP JUMPDEST PUSH1 0x0 DUP2 MLOAD DUP4 MLOAD EQ PUSH2 0xA74 JUMPI PUSH1 0x0 DUP1 REVERT JUMPDEST DUP3 MLOAD PUSH1 0x0 PUSH2 0xA83 DUP3 PUSH1 0x6 PUSH2 0x1036 JUMP JUMPDEST SWAP1 POP PUSH1 0x0 DUP2 PUSH8 0xFFFFFFFFFFFFFFFF DUP2 GT ISZERO PUSH2 0xAA0 JUMPI PUSH2 0xAA0 PUSH2 0x10DE JUMP JUMPDEST PUSH1 0x40 MLOAD SWAP1 DUP1 DUP3 MSTORE DUP1 PUSH1 0x20 MUL PUSH1 0x20 ADD DUP3 ADD PUSH1 0x40 MSTORE DUP1 ISZERO PUSH2 0xAC9 JUMPI DUP2 PUSH1 0x20 ADD PUSH1 0x20 DUP3 MUL DUP1 CALLDATASIZE DUP4 CALLDATACOPY ADD SWAP1 POP JUMPDEST POP SWAP1 POP PUSH1 0x0 JUMPDEST DUP4 DUP2 LT ISZERO PUSH2 0xD04 JUMPI DUP7 DUP2 DUP2 MLOAD DUP2 LT PUSH2 0xAE9 JUMPI PUSH2 0xAE9 PUSH2 0x10C5 JUMP JUMPDEST PUSH1 0x20 MUL PUSH1 0x20 ADD ADD MLOAD PUSH1 0x0 ADD MLOAD DUP3 DUP3 PUSH1 0x6 PUSH2 0xB03 SWAP2 SWAP1 PUSH2 0x1036 JUMP JUMPDEST PUSH2 0xB0E SWAP1 PUSH1 0x0 PUSH2 0x101E JUMP JUMPDEST DUP2 MLOAD DUP2 LT PUSH2 0xB1E JUMPI PUSH2 0xB1E PUSH2 0x10C5 JUMP JUMPDEST PUSH1 0x20 MUL PUSH1 0x20 ADD ADD DUP2 DUP2 MSTORE POP POP DUP7 DUP2 DUP2 MLOAD DUP2 LT PUSH2 0xB3C JUMPI PUSH2 0xB3C PUSH2 0x10C5 JUMP JUMPDEST PUSH1 0x20 MUL PUSH1 0x20 ADD ADD MLOAD PUSH1 0x20 ADD MLOAD DUP3 DUP3 PUSH1 0x6 PUSH2 0xB56 SWAP2 SWAP1 PUSH2 0x1036 JUMP JUMPDEST PUSH2 0xB61 SWAP1 PUSH1 0x1 PUSH2 0x101E JUMP JUMPDEST DUP2 MLOAD DUP2 LT PUSH2 0xB71 JUMPI PUSH2 0xB71 PUSH2 0x10C5 JUMP JUMPDEST PUSH1 0x20 MUL PUSH1 0x20 ADD ADD DUP2 DUP2 MSTORE POP POP DUP6 DUP2 DUP2 MLOAD DUP2 LT PUSH2 0xB8F JUMPI PUSH2 0xB8F PUSH2 0x10C5 JUMP JUMPDEST PUSH1 0x20 SWAP1 DUP2 MUL SWAP2 SWAP1 SWAP2 ADD DUP2 ADD MLOAD MLOAD ADD MLOAD DUP3 PUSH2 0xBAA DUP4 PUSH1 0x6 PUSH2 0x1036 JUMP JUMPDEST PUSH2 0xBB5 SWAP1 PUSH1 0x2 PUSH2 0x101E JUMP JUMPDEST DUP2 MLOAD DUP2 LT PUSH2 0xBC5 JUMPI PUSH2 0xBC5 PUSH2 0x10C5 JUMP JUMPDEST PUSH1 0x20 MUL PUSH1 0x20 ADD ADD DUP2 DUP2 MSTORE POP POP DUP6 DUP2 DUP2 MLOAD DUP2 LT PUSH2 0xBE3 JUMPI PUSH2 0xBE3 PUSH2 0x10C5 JUMP JUMPDEST PUSH1 0x20 SWAP1 DUP2 MUL SWAP2 SWAP1 SWAP2 ADD ADD MLOAD MLOAD MLOAD DUP3 PUSH2 0xBFC DUP4 PUSH1 0x6 PUSH2 0x1036 JUMP JUMPDEST PUSH2 0xC07 SWAP1 PUSH1 0x3 PUSH2 0x101E JUMP JUMPDEST DUP2 MLOAD DUP2 LT PUSH2 0xC17 JUMPI PUSH2 0xC17 PUSH2 0x10C5 JUMP JUMPDEST PUSH1 0x20 MUL PUSH1 0x20 ADD ADD DUP2 DUP2 MSTORE POP POP DUP6 DUP2 DUP2 MLOAD DUP2 LT PUSH2 0xC35 JUMPI PUSH2 0xC35 PUSH2 0x10C5 JUMP JUMPDEST PUSH1 0x20 MUL PUSH1 0x20 ADD ADD MLOAD PUSH1 0x20 ADD MLOAD PUSH1 0x1 PUSH1 0x2 DUP2 LT PUSH2 0xC53 JUMPI PUSH2 0xC53 PUSH2 0x10C5 JUMP JUMPDEST PUSH1 0x20 MUL ADD MLOAD DUP3 PUSH2 0xC64 DUP4 PUSH1 0x6 PUSH2 0x1036 JUMP JUMPDEST PUSH2 0xC6F SWAP1 PUSH1 0x4 PUSH2 0x101E JUMP JUMPDEST DUP2 MLOAD DUP2 LT PUSH2 0xC7F JUMPI PUSH2 0xC7F PUSH2 0x10C5 JUMP JUMPDEST PUSH1 0x20 MUL PUSH1 0x20 ADD ADD DUP2 DUP2 MSTORE POP POP DUP6 DUP2 DUP2 MLOAD DUP2 LT PUSH2 0xC9D JUMPI PUSH2 0xC9D PUSH2 0x10C5 JUMP JUMPDEST PUSH1 0x20 MUL PUSH1 0x20 ADD ADD MLOAD PUSH1 0x20 ADD MLOAD PUSH1 0x0 PUSH1 0x2 DUP2 LT PUSH2 0xCBB JUMPI PUSH2 0xCBB PUSH2 0x10C5 JUMP JUMPDEST PUSH1 0x20 MUL ADD MLOAD DUP3 PUSH2 0xCCC DUP4 PUSH1 0x6 PUSH2 0x1036 JUMP JUMPDEST PUSH2 0xCD7 SWAP1 PUSH1 0x5 PUSH2 0x101E JUMP JUMPDEST DUP2 MLOAD DUP2 LT PUSH2 0xCE7 JUMPI PUSH2 0xCE7 PUSH2 0x10C5 JUMP JUMPDEST PUSH1 0x20 SWAP1 DUP2 MUL SWAP2 SWAP1 SWAP2 ADD ADD MSTORE DUP1 PUSH2 0xCFC DUP2 PUSH2 0x106C JUMP JUMPDEST SWAP2 POP POP PUSH2 0xACF JUMP JUMPDEST POP PUSH2 0xD0D PUSH2 0xDF6 JUMP JUMPDEST PUSH1 0x0 PUSH1 0x20 DUP3 PUSH1 0x20 DUP7 MUL PUSH1 0x20 DUP7 ADD PUSH1 0x8 PUSH2 0x7D0 GAS SUB STATICCALL SWAP1 POP DUP1 DUP1 ISZERO PUSH2 0x7CB JUMPI POP DUP1 PUSH2 0xD36 JUMPI PUSH1 0x0 DUP1 REVERT JUMPDEST POP MLOAD ISZERO ISZERO SWAP7 SWAP6 POP POP POP POP POP POP JUMP JUMPDEST PUSH1 0x40 DUP1 MLOAD PUSH1 0xE0 DUP2 ADD SWAP1 SWAP2 MSTORE PUSH1 0x0 PUSH1 0xA0 DUP3 ADD DUP2 DUP2 MSTORE PUSH1 0xC0 DUP4 ADD SWAP2 SWAP1 SWAP2 MSTORE DUP2 MSTORE PUSH1 0x20 DUP2 ADD PUSH2 0xD6E PUSH2 0xDD1 JUMP JUMPDEST DUP2 MSTORE PUSH1 0x20 ADD PUSH2 0xD7B PUSH2 0xDD1 JUMP JUMPDEST DUP2 MSTORE PUSH1 0x20 ADD PUSH2 0xD88 PUSH2 0xDD1 JUMP JUMPDEST DUP2 MSTORE PUSH1 0x20 ADD PUSH1 0x60 DUP2 MSTORE POP SWAP1 JUMP JUMPDEST PUSH1 0x40 MLOAD DUP1 PUSH1 0x60 ADD PUSH1 0x40 MSTORE DUP1 PUSH1 0x3 SWAP1 PUSH1 0x20 DUP3 MUL DUP1 CALLDATASIZE DUP4 CALLDATACOPY POP SWAP2 SWAP3 SWAP2 POP POP JUMP JUMPDEST PUSH1 0x40 MLOAD DUP1 PUSH1 0x80 ADD PUSH1 0x40 MSTORE DUP1 PUSH1 0x4 SWAP1 PUSH1 0x20 DUP3 MUL DUP1 CALLDATASIZE DUP4 CALLDATACOPY POP SWAP2 SWAP3 SWAP2 POP POP JUMP JUMPDEST PUSH1 0x40 MLOAD DUP1 PUSH1 0x40 ADD PUSH1 0x40 MSTORE DUP1 PUSH2 0xDE4 PUSH2 0xE14 JUMP JUMPDEST DUP2 MSTORE PUSH1 0x20 ADD PUSH2 0xDF1 PUSH2 0xE14 JUMP JUMPDEST SWAP1 MSTORE SWAP1 JUMP JUMPDEST PUSH1 0x40 MLOAD DUP1 PUSH1 0x20 ADD PUSH1 0x40 MSTORE DUP1 PUSH1 0x1 SWAP1 PUSH1 0x20 DUP3 MUL DUP1 CALLDATASIZE DUP4 CALLDATACOPY POP SWAP2 SWAP3 SWAP2 POP POP JUMP JUMPDEST PUSH1 0x40 MLOAD DUP1 PUSH1 0x40 ADD PUSH1 0x40 MSTORE DUP1 PUSH1 0x2 SWAP1 PUSH1 0x20 DUP3 MUL DUP1 CALLDATASIZE DUP4 CALLDATACOPY POP SWAP2 SWAP3 SWAP2 POP POP JUMP JUMPDEST PUSH1 0x0 DUP3 PUSH1 0x1F DUP4 ADD SLT PUSH2 0xE43 JUMPI PUSH1 0x0 DUP1 REVERT JUMPDEST PUSH2 0xE4B PUSH2 0xFFB JUMP JUMPDEST DUP1 DUP4 DUP6 PUSH1 0x40 DUP7 ADD GT ISZERO PUSH2 0xE5D JUMPI PUSH1 0x0 DUP1 REVERT JUMPDEST PUSH1 0x0 JUMPDEST PUSH1 0x2 DUP2 LT ISZERO PUSH2 0xE7F JUMPI DUP2 CALLDATALOAD DUP5 MSTORE PUSH1 0x20 SWAP4 DUP5 ADD SWAP4 SWAP1 SWAP2 ADD SWAP1 PUSH1 0x1 ADD PUSH2 0xE60 JUMP JUMPDEST POP SWAP1 SWAP6 SWAP5 POP POP POP POP POP JUMP JUMPDEST PUSH1 0x0 PUSH1 0x40 DUP3 DUP5 SUB SLT ISZERO PUSH2 0xE9C JUMPI PUSH1 0x0 DUP1 REVERT JUMPDEST PUSH1 0x40 MLOAD PUSH1 0x40 DUP2 ADD DUP2 DUP2 LT PUSH8 0xFFFFFFFFFFFFFFFF DUP3 GT OR ISZERO PUSH2 0xEBF JUMPI PUSH2 0xEBF PUSH2 0x10DE JUMP JUMPDEST PUSH1 0x40 MSTORE DUP3 CALLDATALOAD DUP2 MSTORE PUSH1 0x20 SWAP3 DUP4 ADD CALLDATALOAD SWAP3 DUP2 ADD SWAP3 SWAP1 SWAP3 MSTORE POP SWAP2 SWAP1 POP JUMP JUMPDEST PUSH1 0x0 DUP1 DUP3 DUP5 SUB PUSH2 0x160 DUP1 DUP3 SLT ISZERO PUSH2 0xEEF JUMPI PUSH1 0x0 DUP1 REVERT JUMPDEST PUSH2 0x100 DUP1 DUP4 SLT ISZERO PUSH2 0xEFF JUMPI PUSH1 0x0 DUP1 REVERT JUMPDEST PUSH2 0xF07 PUSH2 0xFD2 JUMP JUMPDEST PUSH2 0xF11 DUP9 DUP9 PUSH2 0xE8A JUMP JUMPDEST DUP2 MSTORE PUSH1 0x80 PUSH1 0x3F NOT DUP6 ADD SLT ISZERO PUSH2 0xF25 JUMPI PUSH1 0x0 DUP1 REVERT JUMPDEST PUSH2 0xF2D PUSH2 0xFFB JUMP JUMPDEST SWAP4 POP PUSH2 0xF3C DUP9 PUSH1 0x40 DUP10 ADD PUSH2 0xE32 JUMP JUMPDEST DUP5 MSTORE PUSH2 0xF4B DUP9 PUSH1 0x80 DUP10 ADD PUSH2 0xE32 JUMP JUMPDEST PUSH1 0x20 DUP2 DUP2 DUP8 ADD MSTORE DUP6 DUP2 DUP5 ADD MSTORE PUSH2 0xF64 DUP11 PUSH1 0xC0 DUP12 ADD PUSH2 0xE8A JUMP JUMPDEST PUSH1 0x40 DUP5 ADD MSTORE DUP3 SWAP8 POP DUP10 PUSH2 0x11F DUP11 ADD SLT PUSH2 0xF7C JUMPI PUSH1 0x0 DUP1 REVERT JUMPDEST PUSH2 0xF84 PUSH2 0xFD2 JUMP JUMPDEST SWAP6 POP DUP6 SWAP3 POP DUP4 DUP10 ADD SWAP4 POP DUP10 DUP6 DUP11 ADD GT ISZERO PUSH2 0xF9D JUMPI PUSH1 0x0 DUP1 REVERT JUMPDEST PUSH1 0x0 SWAP5 POP JUMPDEST PUSH1 0x3 DUP6 LT ISZERO PUSH2 0xFC3 JUMPI DUP4 CALLDATALOAD DUP7 MSTORE SWAP5 DUP6 ADD SWAP5 PUSH1 0x1 SWAP5 SWAP1 SWAP5 ADD SWAP4 SWAP3 DUP4 ADD SWAP3 PUSH2 0xFA2 JUMP JUMPDEST POP SWAP6 SWAP9 SWAP1 SWAP8 POP SWAP6 POP POP POP POP POP POP JUMP JUMPDEST PUSH1 0x40 MLOAD PUSH1 0x60 DUP2 ADD PUSH8 0xFFFFFFFFFFFFFFFF DUP2 GT DUP3 DUP3 LT OR ISZERO PUSH2 0xFF5 JUMPI PUSH2 0xFF5 PUSH2 0x10DE JUMP JUMPDEST PUSH1 0x40 MSTORE SWAP1 JUMP JUMPDEST PUSH1 0x40 DUP1 MLOAD SWAP1 DUP2 ADD PUSH8 0xFFFFFFFFFFFFFFFF DUP2 GT DUP3 DUP3 LT OR ISZERO PUSH2 0xFF5 JUMPI PUSH2 0xFF5 PUSH2 0x10DE JUMP JUMPDEST PUSH1 0x0 DUP3 NOT DUP3 GT ISZERO PUSH2 0x1031 JUMPI PUSH2 0x1031 PUSH2 0x10AC JUMP JUMPDEST POP ADD SWAP1 JUMP JUMPDEST PUSH1 0x0 DUP2 PUSH1 0x0 NOT DIV DUP4 GT DUP3 ISZERO ISZERO AND ISZERO PUSH2 0x1050 JUMPI PUSH2 0x1050 PUSH2 0x10AC JUMP JUMPDEST POP MUL SWAP1 JUMP JUMPDEST PUSH1 0x0 DUP3 DUP3 LT ISZERO PUSH2 0x1067 JUMPI PUSH2 0x1067 PUSH2 0x10AC JUMP JUMPDEST POP SUB SWAP1 JUMP JUMPDEST PUSH1 0x0 PUSH1 0x0 NOT DUP3 EQ ISZERO PUSH2 0x1080 JUMPI PUSH2 0x1080 PUSH2 0x10AC JUMP JUMPDEST POP PUSH1 0x1 ADD SWAP1 JUMP JUMPDEST PUSH1 0x0 DUP3 PUSH2 0x10A7 JUMPI PUSH1 0xE0 PUSH1 0x2 EXP PUSH4 0x4E487B71 MUL PUSH1 0x0 MSTORE PUSH1 0x12 PUSH1 0x4 MSTORE PUSH1 0x24 PUSH1 0x0 REVERT JUMPDEST POP MOD SWAP1 JUMP JUMPDEST PUSH1 0xE0 PUSH1 0x2 EXP PUSH4 0x4E487B71 MUL PUSH1 0x0 MSTORE PUSH1 0x11 PUSH1 0x4 MSTORE PUSH1 0x24 PUSH1 0x0 REVERT JUMPDEST PUSH1 0xE0 PUSH1 0x2 EXP PUSH4 0x4E487B71 MUL PUSH1 0x0 MSTORE PUSH1 0x32 PUSH1 0x4 MSTORE PUSH1 0x24 PUSH1 0x0 REVERT JUMPDEST PUSH1 0xE0 PUSH1 0x2 EXP PUSH4 0x4E487B71 MUL PUSH1 0x0 MSTORE PUSH1 0x41 PUSH1 0x4 MSTORE PUSH1 0x24 PUSH1 0x0 REVERT INVALID LOG2 PUSH5 0x6970667358 0x22 SLT KECCAK256 EXTCODEHASH 0xB3 JUMPI 0xA8 0x1F SWAP9 0xDD SWAP10 0xA5 0x24 CALL CALLDATACOPY 0xD2 CODECOPY CALLER 0x26 0xAF CREATE2 0xA6 SWAP15 KECCAK256 0xFB CALLDATASIZE 0xBE JUMPDEST SWAP5 0xC 0xD1 0x2D 0xE5 DELEGATECALL 0xDE PUSH5 0x736F6C6343 STOP ADDMOD SMOD STOP CALLER "
		},
		"gasEstimates": {
			"creation": {
				"codeDepositCost": "879400",
				"executionCost": "916",
				"totalCost": "880316"
			},
			"external": {
				"verifyTx(((uint256,uint256),(uint256[2],uint256[2]),(uint256,uint256)),uint256[3])": "infinite"
			},
			"internal": {
				"verify(uint256[] memory,struct Verifier.Proof memory)": "infinite",
				"verifyingKey()": "infinite"
			}
		},
		"methodIdentifiers": {
			"verifyTx(((uint256,uint256),(uint256[2],uint256[2]),(uint256,uint256)),uint256[3])": "0f9c5d49"
		}
	},
	"abi": [
		{
			"inputs": [
				{
					"components": [
						{
							"components": [
								{
									"internalType": "uint256",
									"name": "X",
									"type": "uint256"
								},
								{
									"internalType": "uint256",
									"name": "Y",
									"type": "uint256"
								}
							],
							"internalType": "struct Pairing.G1Point",
							"name": "a",
							"type": "tuple"
						},
						{
							"components": [
								{
									"internalType": "uint256[2]",
									"name": "X",
									"type": "uint256[2]"
								},
								{
									"internalType": "uint256[2]",
									"name": "Y",
									"type": "uint256[2]"
								}
							],
							"internalType": "struct Pairing.G2Point",
							"name": "b",
							"type": "tuple"
						},
						{
							"components": [
								{
									"internalType": "uint256",
									"name": "X",
									"type": "uint256"
								},
								{
									"internalType": "uint256",
									"name": "Y",
									"type": "uint256"
								}
							],
							"internalType": "struct Pairing.G1Point",
							"name": "c",
							"type": "tuple"
						}
					],
					"internalType": "struct Verifier.Proof",
					"name": "proof",
					"type": "tuple"
				},
				{
					"internalType": "uint256[3]",
					"name": "input",
					"type": "uint256[3]"
				}
			],
			"name": "verifyTx",
			"outputs": [
				{
					"internalType": "bool",
					"name": "r",
					"type": "bool"
				}
			],
			"stateMutability": "view",
			"type": "function"
		}
	]
}