{
	"data": {
		"bytecode": {
			"linkReferences": {},
			"object": "608060405234801561001057600080fd5b5061136a806100206000396000f3fe608060405234801561001057600080fd5b506004361061002b5760003560e01c8063f6af031114610030575b600080fd5b61004a60048036038101906100459190610ff4565b610060565b6040516100579190611031565b60405180910390f35b600080600067ffffffffffffffff81111561007e5761007d6112c9565b5b6040519080825280602002602001820160405280156100ac5781602001602082028036833780820191505090505b50905060006100bb82856100d6565b14156100cb5760019150506100d1565b60009150505b919050565b6000807f30644e72e131a029b85045b68181585d2833e84879b9709143e1f593f00000019050600061010661026d565b90508060800151516001865161011c9190611097565b1461012657600080fd5b60006040518060400160405280600081526020016000815250905060005b86518110156101df57838782815181106101615761016061129a565b5b60200260200101511061017357600080fd5b6101ca826101c5856080015160018561018c9190611097565b8151811061019d5761019c61129a565b5b60200260200101518a85815181106101b8576101b761129a565b5b60200260200101516105f8565b61069f565b915080806101d7906111c2565b915050610144565b506102098183608001516000815181106101fc576101fb61129a565b5b602002602001015161069f565b905061024f856000015186602001516102218461076c565b85604001516102338a6040015161076c565b8760600151610245896000015161076c565b8960200151610811565b61025f5760019350505050610267565b600093505050505b92915050565b610275610d39565b60405180604001604052807f1bd410c8b8d16917c857726a8c5caaffd304c26cda830423db671a2fec8dbe4481526020017f26ae4b0a4374c1e7ceba1b3140fa874febf2989d36d0088c8cbc40b0920ef1558152508160000181905250604051806040016040528060405180604001604052807f169603295b94c1c418446945f7829e6be6c3fa4de8c49273229a7eaa0e85b44c81526020017f119ae8925fb85d8bd58855cd7912d64145d33a64b0deafb9c4113915046ebdf7815250815260200160405180604001604052807f2fe93f72c74ff7a574301c827cbc911a1e03599667a6f76be12a895f11f978aa81526020017f0a5571ec0dedbc0f2694c1990eba2fa63c455884d414e154bde7534deeed377c8152508152508160200181905250604051806040016040528060405180604001604052807f1cd3d4f7048c94f7956b9962504080ccd3abcb78aa4b781994cc3b39618bb49981526020017f0a44ae937a69bb1ef3994889a8834618bffaf10247bf97c151d13d8fff761f79815250815260200160405180604001604052807f07ae8cdaf9c86207b423c52aae6ffae04d2498a2028dd11512fda509afefb12f81526020017f101feebedca29c353f321236d60db8bc3d82a7021c9300fd8414c0003194a0578152508152508160400181905250604051806040016040528060405180604001604052807f13bedfaa914d19dcb2fbf3e441b07375a6b6471ac81f343b15e88b39fef7bb5b81526020017eeb8ad9a130f928bde9edd169114ccdea3695d61c2f6d18e71517208eed6471815250815260200160405180604001604052807f203ea1d02897de49c18d2886b0f1ef999a37b39ff57395d60c1ef15a8713072a81526020017f0c31022ad8a22ff18fcc670bcf6119071a53b2ca901721c3d2ce0a89375b95c28152508152508160600181905250600167ffffffffffffffff81111561053b5761053a6112c9565b5b60405190808252806020026020018201604052801561057457816020015b610561610d80565b8152602001906001900390816105595790505b50816080018190525060405180604001604052807f1da852503b1eac2e530ac7df8d8711a72dadc8fbc10d7204582e29dfbc31c88381526020017f26d58bbc85ffe0125fdd9c1e76f3a6cf76c644568f31a394c243826a8f4f9d9681525081608001516000815181106105ea576105e961129a565b5b602002602001018190525090565b610600610d80565b610608610d9a565b8360000151816000600381106106215761062061129a565b5b6020020181815250508360200151816001600381106106435761064261129a565b5b60200201818152505082816002600381106106615761066061129a565b5b602002018181525050600060608360808460076107d05a03fa9050806000811461068a5761068c565bfe5b508061069757600080fd5b505092915050565b6106a7610d80565b6106af610dbc565b8360000151816000600481106106c8576106c761129a565b5b6020020181815250508360200151816001600481106106ea576106e961129a565b5b60200201818152505082600001518160026004811061070c5761070b61129a565b5b60200201818152505082602001518160036004811061072e5761072d61129a565b5b602002018181525050600060608360c08460066107d05a03fa9050806000811461075757610759565bfe5b508061076457600080fd5b505092915050565b610774610d80565b60007f30644e72e131a029b85045b68181585d97816a916871ca8d3c208c16d87cfd479050600083600001511480156107b1575060008360200151145b156107d557604051806040016040528060008152602001600081525091505061080c565b6040518060400160405280846000015181526020018285602001516107fa919061120b565b836108059190611147565b8152509150505b919050565b600080600467ffffffffffffffff81111561082f5761082e6112c9565b5b60405190808252806020026020018201604052801561086857816020015b610855610d80565b81526020019060019003908161084d5790505b5090506000600467ffffffffffffffff811115610888576108876112c9565b5b6040519080825280602002602001820160405280156108c157816020015b6108ae610dde565b8152602001906001900390816108a65790505b5090508a826000815181106108d9576108d861129a565b5b602002602001018190525088826001815181106108f9576108f861129a565b5b602002602001018190525086826002815181106109195761091861129a565b5b602002602001018190525084826003815181106109395761093861129a565b5b602002602001018190525089816000815181106109595761095861129a565b5b602002602001018190525087816001815181106109795761097861129a565b5b602002602001018190525085816002815181106109995761099861129a565b5b602002602001018190525083816003815181106109b9576109b861129a565b5b60200260200101819052506109ce82826109de565b9250505098975050505050505050565b600081518351146109ee57600080fd5b6000835190506000600682610a0391906110ed565b905060008167ffffffffffffffff811115610a2157610a206112c9565b5b604051908082528060200260200182016040528015610a4f5781602001602082028036833780820191505090505b50905060005b83811015610cd457868181518110610a7057610a6f61129a565b5b602002602001015160000151826000600684610a8c91906110ed565b610a969190611097565b81518110610aa757610aa661129a565b5b602002602001018181525050868181518110610ac657610ac561129a565b5b602002602001015160200151826001600684610ae291906110ed565b610aec9190611097565b81518110610afd57610afc61129a565b5b602002602001018181525050858181518110610b1c57610b1b61129a565b5b602002602001015160000151600160028110610b3b57610b3a61129a565b5b6020020151826002600684610b5091906110ed565b610b5a9190611097565b81518110610b6b57610b6a61129a565b5b602002602001018181525050858181518110610b8a57610b8961129a565b5b602002602001015160000151600060028110610ba957610ba861129a565b5b6020020151826003600684610bbe91906110ed565b610bc89190611097565b81518110610bd957610bd861129a565b5b602002602001018181525050858181518110610bf857610bf761129a565b5b602002602001015160200151600160028110610c1757610c1661129a565b5b6020020151826004600684610c2c91906110ed565b610c369190611097565b81518110610c4757610c4661129a565b5b602002602001018181525050858181518110610c6657610c6561129a565b5b602002602001015160200151600060028110610c8557610c8461129a565b5b6020020151826005600684610c9a91906110ed565b610ca49190611097565b81518110610cb557610cb461129a565b5b6020026020010181815250508080610ccc906111c2565b915050610a55565b50610cdd610e04565b6000602082602086026020860160086107d05a03fa90508060008114610d0257610d04565bfe5b5080610d0f57600080fd5b600082600060018110610d2557610d2461129a565b5b602002015114159550505050505092915050565b6040518060a00160405280610d4c610d80565b8152602001610d59610dde565b8152602001610d66610dde565b8152602001610d73610dde565b8152602001606081525090565b604051806040016040528060008152602001600081525090565b6040518060600160405280600390602082028036833780820191505090505090565b6040518060800160405280600490602082028036833780820191505090505090565b6040518060400160405280610df1610e26565b8152602001610dfe610e26565b81525090565b6040518060200160405280600190602082028036833780820191505090505090565b6040518060400160405280600290602082028036833780820191505090505090565b6000610e5b610e5684611071565b61104c565b90508082856020860282011115610e7557610e74611302565b5b60005b85811015610ea55781610e8b8882610fdf565b845260208401935060208301925050600181019050610e78565b5050509392505050565b600082601f830112610ec457610ec36112f8565b5b6002610ed1848285610e48565b91505092915050565b600060408284031215610ef057610eef6112fd565b5b610efa604061104c565b90506000610f0a84828501610fdf565b6000830152506020610f1e84828501610fdf565b60208301525092915050565b600060808284031215610f4057610f3f6112fd565b5b610f4a604061104c565b90506000610f5a84828501610eaf565b6000830152506040610f6e84828501610eaf565b60208301525092915050565b60006101008284031215610f9157610f906112fd565b5b610f9b606061104c565b90506000610fab84828501610eda565b6000830152506040610fbf84828501610f2a565b60208301525060c0610fd384828501610eda565b60408301525092915050565b600081359050610fee8161131d565b92915050565b6000610100828403121561100b5761100a611307565b5b600061101984828501610f7a565b91505092915050565b61102b8161117b565b82525050565b60006020820190506110466000830184611022565b92915050565b6000611056611067565b90506110628282611191565b919050565b6000604051905090565b600067ffffffffffffffff82111561108c5761108b6112c9565b5b602082029050919050565b60006110a282611187565b91506110ad83611187565b9250827fffffffffffffffffffffffffffffffffffffffffffffffffffffffffffffffff038211156110e2576110e161123c565b5b828201905092915050565b60006110f882611187565b915061110383611187565b9250817fffffffffffffffffffffffffffffffffffffffffffffffffffffffffffffffff048311821515161561113c5761113b61123c565b5b828202905092915050565b600061115282611187565b915061115d83611187565b9250828210156111705761116f61123c565b5b828203905092915050565b60008115159050919050565b6000819050919050565b61119a8261130c565b810181811067ffffffffffffffff821117156111b9576111b86112c9565b5b80604052505050565b60006111cd82611187565b91507fffffffffffffffffffffffffffffffffffffffffffffffffffffffffffffffff821415611200576111ff61123c565b5b600182019050919050565b600061121682611187565b915061122183611187565b9250826112315761123061126b565b5b828206905092915050565b7f4e487b7100000000000000000000000000000000000000000000000000000000600052601160045260246000fd5b7f4e487b7100000000000000000000000000000000000000000000000000000000600052601260045260246000fd5b7f4e487b7100000000000000000000000000000000000000000000000000000000600052603260045260246000fd5b7f4e487b7100000000000000000000000000000000000000000000000000000000600052604160045260246000fd5b600080fd5b600080fd5b600080fd5b600080fd5b6000601f19601f8301169050919050565b61132681611187565b811461133157600080fd5b5056fea2646970667358221220c9504a2f5f56d74b4b965ffa0d7e38cb7ef8e09ec331b541b98d716790d2d2f164736f6c63430008070033",
			"opcodes": "PUSH1 0x80 PUSH1 0x40 MSTORE CALLVALUE DUP1 ISZERO PUSH2 0x10 JUMPI PUSH1 0x0 DUP1 REVERT JUMPDEST POP PUSH2 0x136A DUP1 PUSH2 0x20 PUSH1 0x0 CODECOPY PUSH1 0x0 RETURN INVALID PUSH1 0x80 PUSH1 0x40 MSTORE CALLVALUE DUP1 ISZERO PUSH2 0x10 JUMPI PUSH1 0x0 DUP1 REVERT JUMPDEST POP PUSH1 0x4 CALLDATASIZE LT PUSH2 0x2B JUMPI PUSH1 0x0 CALLDATALOAD PUSH1 0xE0 SHR DUP1 PUSH4 0xF6AF0311 EQ PUSH2 0x30 JUMPI JUMPDEST PUSH1 0x0 DUP1 REVERT JUMPDEST PUSH2 0x4A PUSH1 0x4 DUP1 CALLDATASIZE SUB DUP2 ADD SWAP1 PUSH2 0x45 SWAP2 SWAP1 PUSH2 0xFF4 JUMP JUMPDEST PUSH2 0x60 JUMP JUMPDEST PUSH1 0x40 MLOAD PUSH2 0x57 SWAP2 SWAP1 PUSH2 0x1031 JUMP JUMPDEST PUSH1 0x40 MLOAD DUP1 SWAP2 SUB SWAP1 RETURN JUMPDEST PUSH1 0x0 DUP1 PUSH1 0x0 PUSH8 0xFFFFFFFFFFFFFFFF DUP2 GT ISZERO PUSH2 0x7E JUMPI PUSH2 0x7D PUSH2 0x12C9 JUMP JUMPDEST JUMPDEST PUSH1 0x40 MLOAD SWAP1 DUP1 DUP3 MSTORE DUP1 PUSH1 0x20 MUL PUSH1 0x20 ADD DUP3 ADD PUSH1 0x40 MSTORE DUP1 ISZERO PUSH2 0xAC JUMPI DUP2 PUSH1 0x20 ADD PUSH1 0x20 DUP3 MUL DUP1 CALLDATASIZE DUP4 CALLDATACOPY DUP1 DUP3 ADD SWAP2 POP POP SWAP1 POP JUMPDEST POP SWAP1 POP PUSH1 0x0 PUSH2 0xBB DUP3 DUP6 PUSH2 0xD6 JUMP JUMPDEST EQ ISZERO PUSH2 0xCB JUMPI PUSH1 0x1 SWAP2 POP POP PUSH2 0xD1 JUMP JUMPDEST PUSH1 0x0 SWAP2 POP POP JUMPDEST SWAP2 SWAP1 POP JUMP JUMPDEST PUSH1 0x0 DUP1 PUSH32 0x30644E72E131A029B85045B68181585D2833E84879B9709143E1F593F0000001 SWAP1 POP PUSH1 0x0 PUSH2 0x106 PUSH2 0x26D JUMP JUMPDEST SWAP1 POP DUP1 PUSH1 0x80 ADD MLOAD MLOAD PUSH1 0x1 DUP7 MLOAD PUSH2 0x11C SWAP2 SWAP1 PUSH2 0x1097 JUMP JUMPDEST EQ PUSH2 0x126 JUMPI PUSH1 0x0 DUP1 REVERT JUMPDEST PUSH1 0x0 PUSH1 0x40 MLOAD DUP1 PUSH1 0x40 ADD PUSH1 0x40 MSTORE DUP1 PUSH1 0x0 DUP2 MSTORE PUSH1 0x20 ADD PUSH1 0x0 DUP2 MSTORE POP SWAP1 POP PUSH1 0x0 JUMPDEST DUP7 MLOAD DUP2 LT ISZERO PUSH2 0x1DF JUMPI DUP4 DUP8 DUP3 DUP2 MLOAD DUP2 LT PUSH2 0x161 JUMPI PUSH2 0x160 PUSH2 0x129A JUMP JUMPDEST JUMPDEST PUSH1 0x20 MUL PUSH1 0x20 ADD ADD MLOAD LT PUSH2 0x173 JUMPI PUSH1 0x0 DUP1 REVERT JUMPDEST PUSH2 0x1CA DUP3 PUSH2 0x1C5 DUP6 PUSH1 0x80 ADD MLOAD PUSH1 0x1 DUP6 PUSH2 0x18C SWAP2 SWAP1 PUSH2 0x1097 JUMP JUMPDEST DUP2 MLOAD DUP2 LT PUSH2 0x19D JUMPI PUSH2 0x19C PUSH2 0x129A JUMP JUMPDEST JUMPDEST PUSH1 0x20 MUL PUSH1 0x20 ADD ADD MLOAD DUP11 DUP6 DUP2 MLOAD DUP2 LT PUSH2 0x1B8 JUMPI PUSH2 0x1B7 PUSH2 0x129A JUMP JUMPDEST JUMPDEST PUSH1 0x20 MUL PUSH1 0x20 ADD ADD MLOAD PUSH2 0x5F8 JUMP JUMPDEST PUSH2 0x69F JUMP JUMPDEST SWAP2 POP DUP1 DUP1 PUSH2 0x1D7 SWAP1 PUSH2 0x11C2 JUMP JUMPDEST SWAP2 POP POP PUSH2 0x144 JUMP JUMPDEST POP PUSH2 0x209 DUP2 DUP4 PUSH1 0x80 ADD MLOAD PUSH1 0x0 DUP2 MLOAD DUP2 LT PUSH2 0x1FC JUMPI PUSH2 0x1FB PUSH2 0x129A JUMP JUMPDEST JUMPDEST PUSH1 0x20 MUL PUSH1 0x20 ADD ADD MLOAD PUSH2 0x69F JUMP JUMPDEST SWAP1 POP PUSH2 0x24F DUP6 PUSH1 0x0 ADD MLOAD DUP7 PUSH1 0x20 ADD MLOAD PUSH2 0x221 DUP5 PUSH2 0x76C JUMP JUMPDEST DUP6 PUSH1 0x40 ADD MLOAD PUSH2 0x233 DUP11 PUSH1 0x40 ADD MLOAD PUSH2 0x76C JUMP JUMPDEST DUP8 PUSH1 0x60 ADD MLOAD PUSH2 0x245 DUP10 PUSH1 0x0 ADD MLOAD PUSH2 0x76C JUMP JUMPDEST DUP10 PUSH1 0x20 ADD MLOAD PUSH2 0x811 JUMP JUMPDEST PUSH2 0x25F JUMPI PUSH1 0x1 SWAP4 POP POP POP POP PUSH2 0x267 JUMP JUMPDEST PUSH1 0x0 SWAP4 POP POP POP POP JUMPDEST SWAP3 SWAP2 POP POP JUMP JUMPDEST PUSH2 0x275 PUSH2 0xD39 JUMP JUMPDEST PUSH1 0x40 MLOAD DUP1 PUSH1 0x40 ADD PUSH1 0x40 MSTORE DUP1 PUSH32 0x1BD410C8B8D16917C857726A8C5CAAFFD304C26CDA830423DB671A2FEC8DBE44 DUP2 MSTORE PUSH1 0x20 ADD PUSH32 0x26AE4B0A4374C1E7CEBA1B3140FA874FEBF2989D36D0088C8CBC40B0920EF155 DUP2 MSTORE POP DUP2 PUSH1 0x0 ADD DUP2 SWAP1 MSTORE POP PUSH1 0x40 MLOAD DUP1 PUSH1 0x40 ADD PUSH1 0x40 MSTORE DUP1 PUSH1 0x40 MLOAD DUP1 PUSH1 0x40 ADD PUSH1 0x40 MSTORE DUP1 PUSH32 0x169603295B94C1C418446945F7829E6BE6C3FA4DE8C49273229A7EAA0E85B44C DUP2 MSTORE PUSH1 0x20 ADD PUSH32 0x119AE8925FB85D8BD58855CD7912D64145D33A64B0DEAFB9C4113915046EBDF7 DUP2 MSTORE POP DUP2 MSTORE PUSH1 0x20 ADD PUSH1 0x40 MLOAD DUP1 PUSH1 0x40 ADD PUSH1 0x40 MSTORE DUP1 PUSH32 0x2FE93F72C74FF7A574301C827CBC911A1E03599667A6F76BE12A895F11F978AA DUP2 MSTORE PUSH1 0x20 ADD PUSH32 0xA5571EC0DEDBC0F2694C1990EBA2FA63C455884D414E154BDE7534DEEED377C DUP2 MSTORE POP DUP2 MSTORE POP DUP2 PUSH1 0x20 ADD DUP2 SWAP1 MSTORE POP PUSH1 0x40 MLOAD DUP1 PUSH1 0x40 ADD PUSH1 0x40 MSTORE DUP1 PUSH1 0x40 MLOAD DUP1 PUSH1 0x40 ADD PUSH1 0x40 MSTORE DUP1 PUSH32 0x1CD3D4F7048C94F7956B9962504080CCD3ABCB78AA4B781994CC3B39618BB499 DUP2 MSTORE PUSH1 0x20 ADD PUSH32 0xA44AE937A69BB1EF3994889A8834618BFFAF10247BF97C151D13D8FFF761F79 DUP2 MSTORE POP DUP2 MSTORE PUSH1 0x20 ADD PUSH1 0x40 MLOAD DUP1 PUSH1 0x40 ADD PUSH1 0x40 MSTORE DUP1 PUSH32 0x7AE8CDAF9C86207B423C52AAE6FFAE04D2498A2028DD11512FDA509AFEFB12F DUP2 MSTORE PUSH1 0x20 ADD PUSH32 0x101FEEBEDCA29C353F321236D60DB8BC3D82A7021C9300FD8414C0003194A057 DUP2 MSTORE POP DUP2 MSTORE POP DUP2 PUSH1 0x40 ADD DUP2 SWAP1 MSTORE POP PUSH1 0x40 MLOAD DUP1 PUSH1 0x40 ADD PUSH1 0x40 MSTORE DUP1 PUSH1 0x40 MLOAD DUP1 PUSH1 0x40 ADD PUSH1 0x40 MSTORE DUP1 PUSH32 0x13BEDFAA914D19DCB2FBF3E441B07375A6B6471AC81F343B15E88B39FEF7BB5B DUP2 MSTORE PUSH1 0x20 ADD PUSH31 0xEB8AD9A130F928BDE9EDD169114CCDEA3695D61C2F6D18E71517208EED6471 DUP2 MSTORE POP DUP2 MSTORE PUSH1 0x20 ADD PUSH1 0x40 MLOAD DUP1 PUSH1 0x40 ADD PUSH1 0x40 MSTORE DUP1 PUSH32 0x203EA1D02897DE49C18D2886B0F1EF999A37B39FF57395D60C1EF15A8713072A DUP2 MSTORE PUSH1 0x20 ADD PUSH32 0xC31022AD8A22FF18FCC670BCF6119071A53B2CA901721C3D2CE0A89375B95C2 DUP2 MSTORE POP DUP2 MSTORE POP DUP2 PUSH1 0x60 ADD DUP2 SWAP1 MSTORE POP PUSH1 0x1 PUSH8 0xFFFFFFFFFFFFFFFF DUP2 GT ISZERO PUSH2 0x53B JUMPI PUSH2 0x53A PUSH2 0x12C9 JUMP JUMPDEST JUMPDEST PUSH1 0x40 MLOAD SWAP1 DUP1 DUP3 MSTORE DUP1 PUSH1 0x20 MUL PUSH1 0x20 ADD DUP3 ADD PUSH1 0x40 MSTORE DUP1 ISZERO PUSH2 0x574 JUMPI DUP2 PUSH1 0x20 ADD JUMPDEST PUSH2 0x561 PUSH2 0xD80 JUMP JUMPDEST DUP2 MSTORE PUSH1 0x20 ADD SWAP1 PUSH1 0x1 SWAP1 SUB SWAP1 DUP2 PUSH2 0x559 JUMPI SWAP1 POP JUMPDEST POP DUP2 PUSH1 0x80 ADD DUP2 SWAP1 MSTORE POP PUSH1 0x40 MLOAD DUP1 PUSH1 0x40 ADD PUSH1 0x40 MSTORE DUP1 PUSH32 0x1DA852503B1EAC2E530AC7DF8D8711A72DADC8FBC10D7204582E29DFBC31C883 DUP2 MSTORE PUSH1 0x20 ADD PUSH32 0x26D58BBC85FFE0125FDD9C1E76F3A6CF76C644568F31A394C243826A8F4F9D96 DUP2 MSTORE POP DUP2 PUSH1 0x80 ADD MLOAD PUSH1 0x0 DUP2 MLOAD DUP2 LT PUSH2 0x5EA JUMPI PUSH2 0x5E9 PUSH2 0x129A JUMP JUMPDEST JUMPDEST PUSH1 0x20 MUL PUSH1 0x20 ADD ADD DUP2 SWAP1 MSTORE POP SWAP1 JUMP JUMPDEST PUSH2 0x600 PUSH2 0xD80 JUMP JUMPDEST PUSH2 0x608 PUSH2 0xD9A JUMP JUMPDEST DUP4 PUSH1 0x0 ADD MLOAD DUP2 PUSH1 0x0 PUSH1 0x3 DUP2 LT PUSH2 0x621 JUMPI PUSH2 0x620 PUSH2 0x129A JUMP JUMPDEST JUMPDEST PUSH1 0x20 MUL ADD DUP2 DUP2 MSTORE POP POP DUP4 PUSH1 0x20 ADD MLOAD DUP2 PUSH1 0x1 PUSH1 0x3 DUP2 LT PUSH2 0x643 JUMPI PUSH2 0x642 PUSH2 0x129A JUMP JUMPDEST JUMPDEST PUSH1 0x20 MUL ADD DUP2 DUP2 MSTORE POP POP DUP3 DUP2 PUSH1 0x2 PUSH1 0x3 DUP2 LT PUSH2 0x661 JUMPI PUSH2 0x660 PUSH2 0x129A JUMP JUMPDEST JUMPDEST PUSH1 0x20 MUL ADD DUP2 DUP2 MSTORE POP POP PUSH1 0x0 PUSH1 0x60 DUP4 PUSH1 0x80 DUP5 PUSH1 0x7 PUSH2 0x7D0 GAS SUB STATICCALL SWAP1 POP DUP1 PUSH1 0x0 DUP2 EQ PUSH2 0x68A JUMPI PUSH2 0x68C JUMP JUMPDEST INVALID JUMPDEST POP DUP1 PUSH2 0x697 JUMPI PUSH1 0x0 DUP1 REVERT JUMPDEST POP POP SWAP3 SWAP2 POP POP JUMP JUMPDEST PUSH2 0x6A7 PUSH2 0xD80 JUMP JUMPDEST PUSH2 0x6AF PUSH2 0xDBC JUMP JUMPDEST DUP4 PUSH1 0x0 ADD MLOAD DUP2 PUSH1 0x0 PUSH1 0x4 DUP2 LT PUSH2 0x6C8 JUMPI PUSH2 0x6C7 PUSH2 0x129A JUMP JUMPDEST JUMPDEST PUSH1 0x20 MUL ADD DUP2 DUP2 MSTORE POP POP DUP4 PUSH1 0x20 ADD MLOAD DUP2 PUSH1 0x1 PUSH1 0x4 DUP2 LT PUSH2 0x6EA JUMPI PUSH2 0x6E9 PUSH2 0x129A JUMP JUMPDEST JUMPDEST PUSH1 0x20 MUL ADD DUP2 DUP2 MSTORE POP POP DUP3 PUSH1 0x0 ADD MLOAD DUP2 PUSH1 0x2 PUSH1 0x4 DUP2 LT PUSH2 0x70C JUMPI PUSH2 0x70B PUSH2 0x129A JUMP JUMPDEST JUMPDEST PUSH1 0x20 MUL ADD DUP2 DUP2 MSTORE POP POP DUP3 PUSH1 0x20 ADD MLOAD DUP2 PUSH1 0x3 PUSH1 0x4 DUP2 LT PUSH2 0x72E JUMPI PUSH2 0x72D PUSH2 0x129A JUMP JUMPDEST JUMPDEST PUSH1 0x20 MUL ADD DUP2 DUP2 MSTORE POP POP PUSH1 0x0 PUSH1 0x60 DUP4 PUSH1 0xC0 DUP5 PUSH1 0x6 PUSH2 0x7D0 GAS SUB STATICCALL SWAP1 POP DUP1 PUSH1 0x0 DUP2 EQ PUSH2 0x757 JUMPI PUSH2 0x759 JUMP JUMPDEST INVALID JUMPDEST POP DUP1 PUSH2 0x764 JUMPI PUSH1 0x0 DUP1 REVERT JUMPDEST POP POP SWAP3 SWAP2 POP POP JUMP JUMPDEST PUSH2 0x774 PUSH2 0xD80 JUMP JUMPDEST PUSH1 0x0 PUSH32 0x30644E72E131A029B85045B68181585D97816A916871CA8D3C208C16D87CFD47 SWAP1 POP PUSH1 0x0 DUP4 PUSH1 0x0 ADD MLOAD EQ DUP1 ISZERO PUSH2 0x7B1 JUMPI POP PUSH1 0x0 DUP4 PUSH1 0x20 ADD MLOAD EQ JUMPDEST ISZERO PUSH2 0x7D5 JUMPI PUSH1 0x40 MLOAD DUP1 PUSH1 0x40 ADD PUSH1 0x40 MSTORE DUP1 PUSH1 0x0 DUP2 MSTORE PUSH1 0x20 ADD PUSH1 0x0 DUP2 MSTORE POP SWAP2 POP POP PUSH2 0x80C JUMP JUMPDEST PUSH1 0x40 MLOAD DUP1 PUSH1 0x40 ADD PUSH1 0x40 MSTORE DUP1 DUP5 PUSH1 0x0 ADD MLOAD DUP2 MSTORE PUSH1 0x20 ADD DUP3 DUP6 PUSH1 0x20 ADD MLOAD PUSH2 0x7FA SWAP2 SWAP1 PUSH2 0x120B JUMP JUMPDEST DUP4 PUSH2 0x805 SWAP2 SWAP1 PUSH2 0x1147 JUMP JUMPDEST DUP2 MSTORE POP SWAP2 POP POP JUMPDEST SWAP2 SWAP1 POP JUMP JUMPDEST PUSH1 0x0 DUP1 PUSH1 0x4 PUSH8 0xFFFFFFFFFFFFFFFF DUP2 GT ISZERO PUSH2 0x82F JUMPI PUSH2 0x82E PUSH2 0x12C9 JUMP JUMPDEST JUMPDEST PUSH1 0x40 MLOAD SWAP1 DUP1 DUP3 MSTORE DUP1 PUSH1 0x20 MUL PUSH1 0x20 ADD DUP3 ADD PUSH1 0x40 MSTORE DUP1 ISZERO PUSH2 0x868 JUMPI DUP2 PUSH1 0x20 ADD JUMPDEST PUSH2 0x855 PUSH2 0xD80 JUMP JUMPDEST DUP2 MSTORE PUSH1 0x20 ADD SWAP1 PUSH1 0x1 SWAP1 SUB SWAP1 DUP2 PUSH2 0x84D JUMPI SWAP1 POP JUMPDEST POP SWAP1 POP PUSH1 0x0 PUSH1 0x4 PUSH8 0xFFFFFFFFFFFFFFFF DUP2 GT ISZERO PUSH2 0x888 JUMPI PUSH2 0x887 PUSH2 0x12C9 JUMP JUMPDEST JUMPDEST PUSH1 0x40 MLOAD SWAP1 DUP1 DUP3 MSTORE DUP1 PUSH1 0x20 MUL PUSH1 0x20 ADD DUP3 ADD PUSH1 0x40 MSTORE DUP1 ISZERO PUSH2 0x8C1 JUMPI DUP2 PUSH1 0x20 ADD JUMPDEST PUSH2 0x8AE PUSH2 0xDDE JUMP JUMPDEST DUP2 MSTORE PUSH1 0x20 ADD SWAP1 PUSH1 0x1 SWAP1 SUB SWAP1 DUP2 PUSH2 0x8A6 JUMPI SWAP1 POP JUMPDEST POP SWAP1 POP DUP11 DUP3 PUSH1 0x0 DUP2 MLOAD DUP2 LT PUSH2 0x8D9 JUMPI PUSH2 0x8D8 PUSH2 0x129A JUMP JUMPDEST JUMPDEST PUSH1 0x20 MUL PUSH1 0x20 ADD ADD DUP2 SWAP1 MSTORE POP DUP9 DUP3 PUSH1 0x1 DUP2 MLOAD DUP2 LT PUSH2 0x8F9 JUMPI PUSH2 0x8F8 PUSH2 0x129A JUMP JUMPDEST JUMPDEST PUSH1 0x20 MUL PUSH1 0x20 ADD ADD DUP2 SWAP1 MSTORE POP DUP7 DUP3 PUSH1 0x2 DUP2 MLOAD DUP2 LT PUSH2 0x919 JUMPI PUSH2 0x918 PUSH2 0x129A JUMP JUMPDEST JUMPDEST PUSH1 0x20 MUL PUSH1 0x20 ADD ADD DUP2 SWAP1 MSTORE POP DUP5 DUP3 PUSH1 0x3 DUP2 MLOAD DUP2 LT PUSH2 0x939 JUMPI PUSH2 0x938 PUSH2 0x129A JUMP JUMPDEST JUMPDEST PUSH1 0x20 MUL PUSH1 0x20 ADD ADD DUP2 SWAP1 MSTORE POP DUP10 DUP2 PUSH1 0x0 DUP2 MLOAD DUP2 LT PUSH2 0x959 JUMPI PUSH2 0x958 PUSH2 0x129A JUMP JUMPDEST JUMPDEST PUSH1 0x20 MUL PUSH1 0x20 ADD ADD DUP2 SWAP1 MSTORE POP DUP8 DUP2 PUSH1 0x1 DUP2 MLOAD DUP2 LT PUSH2 0x979 JUMPI PUSH2 0x978 PUSH2 0x129A JUMP JUMPDEST JUMPDEST PUSH1 0x20 MUL PUSH1 0x20 ADD ADD DUP2 SWAP1 MSTORE POP DUP6 DUP2 PUSH1 0x2 DUP2 MLOAD DUP2 LT PUSH2 0x999 JUMPI PUSH2 0x998 PUSH2 0x129A JUMP JUMPDEST JUMPDEST PUSH1 0x20 MUL PUSH1 0x20 ADD ADD DUP2 SWAP1 MSTORE POP DUP4 DUP2 PUSH1 0x3 DUP2 MLOAD DUP2 LT PUSH2 0x9B9 JUMPI PUSH2 0x9B8 PUSH2 0x129A JUMP JUMPDEST JUMPDEST PUSH1 0x20 MUL PUSH1 0x20 ADD ADD DUP2 SWAP1 MSTORE POP PUSH2 0x9CE DUP3 DUP3 PUSH2 0x9DE JUMP JUMPDEST SWAP3 POP POP POP SWAP9 SWAP8 POP POP POP POP POP POP POP POP JUMP JUMPDEST PUSH1 0x0 DUP2 MLOAD DUP4 MLOAD EQ PUSH2 0x9EE JUMPI PUSH1 0x0 DUP1 REVERT JUMPDEST PUSH1 0x0 DUP4 MLOAD SWAP1 POP PUSH1 0x0 PUSH1 0x6 DUP3 PUSH2 0xA03 SWAP2 SWAP1 PUSH2 0x10ED JUMP JUMPDEST SWAP1 POP PUSH1 0x0 DUP2 PUSH8 0xFFFFFFFFFFFFFFFF DUP2 GT ISZERO PUSH2 0xA21 JUMPI PUSH2 0xA20 PUSH2 0x12C9 JUMP JUMPDEST JUMPDEST PUSH1 0x40 MLOAD SWAP1 DUP1 DUP3 MSTORE DUP1 PUSH1 0x20 MUL PUSH1 0x20 ADD DUP3 ADD PUSH1 0x40 MSTORE DUP1 ISZERO PUSH2 0xA4F JUMPI DUP2 PUSH1 0x20 ADD PUSH1 0x20 DUP3 MUL DUP1 CALLDATASIZE DUP4 CALLDATACOPY DUP1 DUP3 ADD SWAP2 POP POP SWAP1 POP JUMPDEST POP SWAP1 POP PUSH1 0x0 JUMPDEST DUP4 DUP2 LT ISZERO PUSH2 0xCD4 JUMPI DUP7 DUP2 DUP2 MLOAD DUP2 LT PUSH2 0xA70 JUMPI PUSH2 0xA6F PUSH2 0x129A JUMP JUMPDEST JUMPDEST PUSH1 0x20 MUL PUSH1 0x20 ADD ADD MLOAD PUSH1 0x0 ADD MLOAD DUP3 PUSH1 0x0 PUSH1 0x6 DUP5 PUSH2 0xA8C SWAP2 SWAP1 PUSH2 0x10ED JUMP JUMPDEST PUSH2 0xA96 SWAP2 SWAP1 PUSH2 0x1097 JUMP JUMPDEST DUP2 MLOAD DUP2 LT PUSH2 0xAA7 JUMPI PUSH2 0xAA6 PUSH2 0x129A JUMP JUMPDEST JUMPDEST PUSH1 0x20 MUL PUSH1 0x20 ADD ADD DUP2 DUP2 MSTORE POP POP DUP7 DUP2 DUP2 MLOAD DUP2 LT PUSH2 0xAC6 JUMPI PUSH2 0xAC5 PUSH2 0x129A JUMP JUMPDEST JUMPDEST PUSH1 0x20 MUL PUSH1 0x20 ADD ADD MLOAD PUSH1 0x20 ADD MLOAD DUP3 PUSH1 0x1 PUSH1 0x6 DUP5 PUSH2 0xAE2 SWAP2 SWAP1 PUSH2 0x10ED JUMP JUMPDEST PUSH2 0xAEC SWAP2 SWAP1 PUSH2 0x1097 JUMP JUMPDEST DUP2 MLOAD DUP2 LT PUSH2 0xAFD JUMPI PUSH2 0xAFC PUSH2 0x129A JUMP JUMPDEST JUMPDEST PUSH1 0x20 MUL PUSH1 0x20 ADD ADD DUP2 DUP2 MSTORE POP POP DUP6 DUP2 DUP2 MLOAD DUP2 LT PUSH2 0xB1C JUMPI PUSH2 0xB1B PUSH2 0x129A JUMP JUMPDEST JUMPDEST PUSH1 0x20 MUL PUSH1 0x20 ADD ADD MLOAD PUSH1 0x0 ADD MLOAD PUSH1 0x1 PUSH1 0x2 DUP2 LT PUSH2 0xB3B JUMPI PUSH2 0xB3A PUSH2 0x129A JUMP JUMPDEST JUMPDEST PUSH1 0x20 MUL ADD MLOAD DUP3 PUSH1 0x2 PUSH1 0x6 DUP5 PUSH2 0xB50 SWAP2 SWAP1 PUSH2 0x10ED JUMP JUMPDEST PUSH2 0xB5A SWAP2 SWAP1 PUSH2 0x1097 JUMP JUMPDEST DUP2 MLOAD DUP2 LT PUSH2 0xB6B JUMPI PUSH2 0xB6A PUSH2 0x129A JUMP JUMPDEST JUMPDEST PUSH1 0x20 MUL PUSH1 0x20 ADD ADD DUP2 DUP2 MSTORE POP POP DUP6 DUP2 DUP2 MLOAD DUP2 LT PUSH2 0xB8A JUMPI PUSH2 0xB89 PUSH2 0x129A JUMP JUMPDEST JUMPDEST PUSH1 0x20 MUL PUSH1 0x20 ADD ADD MLOAD PUSH1 0x0 ADD MLOAD PUSH1 0x0 PUSH1 0x2 DUP2 LT PUSH2 0xBA9 JUMPI PUSH2 0xBA8 PUSH2 0x129A JUMP JUMPDEST JUMPDEST PUSH1 0x20 MUL ADD MLOAD DUP3 PUSH1 0x3 PUSH1 0x6 DUP5 PUSH2 0xBBE SWAP2 SWAP1 PUSH2 0x10ED JUMP JUMPDEST PUSH2 0xBC8 SWAP2 SWAP1 PUSH2 0x1097 JUMP JUMPDEST DUP2 MLOAD DUP2 LT PUSH2 0xBD9 JUMPI PUSH2 0xBD8 PUSH2 0x129A JUMP JUMPDEST JUMPDEST PUSH1 0x20 MUL PUSH1 0x20 ADD ADD DUP2 DUP2 MSTORE POP POP DUP6 DUP2 DUP2 MLOAD DUP2 LT PUSH2 0xBF8 JUMPI PUSH2 0xBF7 PUSH2 0x129A JUMP JUMPDEST JUMPDEST PUSH1 0x20 MUL PUSH1 0x20 ADD ADD MLOAD PUSH1 0x20 ADD MLOAD PUSH1 0x1 PUSH1 0x2 DUP2 LT PUSH2 0xC17 JUMPI PUSH2 0xC16 PUSH2 0x129A JUMP JUMPDEST JUMPDEST PUSH1 0x20 MUL ADD MLOAD DUP3 PUSH1 0x4 PUSH1 0x6 DUP5 PUSH2 0xC2C SWAP2 SWAP1 PUSH2 0x10ED JUMP JUMPDEST PUSH2 0xC36 SWAP2 SWAP1 PUSH2 0x1097 JUMP JUMPDEST DUP2 MLOAD DUP2 LT PUSH2 0xC47 JUMPI PUSH2 0xC46 PUSH2 0x129A JUMP JUMPDEST JUMPDEST PUSH1 0x20 MUL PUSH1 0x20 ADD ADD DUP2 DUP2 MSTORE POP POP DUP6 DUP2 DUP2 MLOAD DUP2 LT PUSH2 0xC66 JUMPI PUSH2 0xC65 PUSH2 0x129A JUMP JUMPDEST JUMPDEST PUSH1 0x20 MUL PUSH1 0x20 ADD ADD MLOAD PUSH1 0x20 ADD MLOAD PUSH1 0x0 PUSH1 0x2 DUP2 LT PUSH2 0xC85 JUMPI PUSH2 0xC84 PUSH2 0x129A JUMP JUMPDEST JUMPDEST PUSH1 0x20 MUL ADD MLOAD DUP3 PUSH1 0x5 PUSH1 0x6 DUP5 PUSH2 0xC9A SWAP2 SWAP1 PUSH2 0x10ED JUMP JUMPDEST PUSH2 0xCA4 SWAP2 SWAP1 PUSH2 0x1097 JUMP JUMPDEST DUP2 MLOAD DUP2 LT PUSH2 0xCB5 JUMPI PUSH2 0xCB4 PUSH2 0x129A JUMP JUMPDEST JUMPDEST PUSH1 0x20 MUL PUSH1 0x20 ADD ADD DUP2 DUP2 MSTORE POP POP DUP1 DUP1 PUSH2 0xCCC SWAP1 PUSH2 0x11C2 JUMP JUMPDEST SWAP2 POP POP PUSH2 0xA55 JUMP JUMPDEST POP PUSH2 0xCDD PUSH2 0xE04 JUMP JUMPDEST PUSH1 0x0 PUSH1 0x20 DUP3 PUSH1 0x20 DUP7 MUL PUSH1 0x20 DUP7 ADD PUSH1 0x8 PUSH2 0x7D0 GAS SUB STATICCALL SWAP1 POP DUP1 PUSH1 0x0 DUP2 EQ PUSH2 0xD02 JUMPI PUSH2 0xD04 JUMP JUMPDEST INVALID JUMPDEST POP DUP1 PUSH2 0xD0F JUMPI PUSH1 0x0 DUP1 REVERT JUMPDEST PUSH1 0x0 DUP3 PUSH1 0x0 PUSH1 0x1 DUP2 LT PUSH2 0xD25 JUMPI PUSH2 0xD24 PUSH2 0x129A JUMP JUMPDEST JUMPDEST PUSH1 0x20 MUL ADD MLOAD EQ ISZERO SWAP6 POP POP POP POP POP POP SWAP3 SWAP2 POP POP JUMP JUMPDEST PUSH1 0x40 MLOAD DUP1 PUSH1 0xA0 ADD PUSH1 0x40 MSTORE DUP1 PUSH2 0xD4C PUSH2 0xD80 JUMP JUMPDEST DUP2 MSTORE PUSH1 0x20 ADD PUSH2 0xD59 PUSH2 0xDDE JUMP JUMPDEST DUP2 MSTORE PUSH1 0x20 ADD PUSH2 0xD66 PUSH2 0xDDE JUMP JUMPDEST DUP2 MSTORE PUSH1 0x20 ADD PUSH2 0xD73 PUSH2 0xDDE JUMP JUMPDEST DUP2 MSTORE PUSH1 0x20 ADD PUSH1 0x60 DUP2 MSTORE POP SWAP1 JUMP JUMPDEST PUSH1 0x40 MLOAD DUP1 PUSH1 0x40 ADD PUSH1 0x40 MSTORE DUP1 PUSH1 0x0 DUP2 MSTORE PUSH1 0x20 ADD PUSH1 0x0 DUP2 MSTORE POP SWAP1 JUMP JUMPDEST PUSH1 0x40 MLOAD DUP1 PUSH1 0x60 ADD PUSH1 0x40 MSTORE DUP1 PUSH1 0x3 SWAP1 PUSH1 0x20 DUP3 MUL DUP1 CALLDATASIZE DUP4 CALLDATACOPY DUP1 DUP3 ADD SWAP2 POP POP SWAP1 POP POP SWAP1 JUMP JUMPDEST PUSH1 0x40 MLOAD DUP1 PUSH1 0x80 ADD PUSH1 0x40 MSTORE DUP1 PUSH1 0x4 SWAP1 PUSH1 0x20 DUP3 MUL DUP1 CALLDATASIZE DUP4 CALLDATACOPY DUP1 DUP3 ADD SWAP2 POP POP SWAP1 POP POP SWAP1 JUMP JUMPDEST PUSH1 0x40 MLOAD DUP1 PUSH1 0x40 ADD PUSH1 0x40 MSTORE DUP1 PUSH2 0xDF1 PUSH2 0xE26 JUMP JUMPDEST DUP2 MSTORE PUSH1 0x20 ADD PUSH2 0xDFE PUSH2 0xE26 JUMP JUMPDEST DUP2 MSTORE POP SWAP1 JUMP JUMPDEST PUSH1 0x40 MLOAD DUP1 PUSH1 0x20 ADD PUSH1 0x40 MSTORE DUP1 PUSH1 0x1 SWAP1 PUSH1 0x20 DUP3 MUL DUP1 CALLDATASIZE DUP4 CALLDATACOPY DUP1 DUP3 ADD SWAP2 POP POP SWAP1 POP POP SWAP1 JUMP JUMPDEST PUSH1 0x40 MLOAD DUP1 PUSH1 0x40 ADD PUSH1 0x40 MSTORE DUP1 PUSH1 0x2 SWAP1 PUSH1 0x20 DUP3 MUL DUP1 CALLDATASIZE DUP4 CALLDATACOPY DUP1 DUP3 ADD SWAP2 POP POP SWAP1 POP POP SWAP1 JUMP JUMPDEST PUSH1 0x0 PUSH2 0xE5B PUSH2 0xE56 DUP5 PUSH2 0x1071 JUMP JUMPDEST PUSH2 0x104C JUMP JUMPDEST SWAP1 POP DUP1 DUP3 DUP6 PUSH1 0x20 DUP7 MUL DUP3 ADD GT ISZERO PUSH2 0xE75 JUMPI PUSH2 0xE74 PUSH2 0x1302 JUMP JUMPDEST JUMPDEST PUSH1 0x0 JUMPDEST DUP6 DUP2 LT ISZERO PUSH2 0xEA5 JUMPI DUP2 PUSH2 0xE8B DUP9 DUP3 PUSH2 0xFDF JUMP JUMPDEST DUP5 MSTORE PUSH1 0x20 DUP5 ADD SWAP4 POP PUSH1 0x20 DUP4 ADD SWAP3 POP POP PUSH1 0x1 DUP2 ADD SWAP1 POP PUSH2 0xE78 JUMP JUMPDEST POP POP POP SWAP4 SWAP3 POP POP POP JUMP JUMPDEST PUSH1 0x0 DUP3 PUSH1 0x1F DUP4 ADD SLT PUSH2 0xEC4 JUMPI PUSH2 0xEC3 PUSH2 0x12F8 JUMP JUMPDEST JUMPDEST PUSH1 0x2 PUSH2 0xED1 DUP5 DUP3 DUP6 PUSH2 0xE48 JUMP JUMPDEST SWAP2 POP POP SWAP3 SWAP2 POP POP JUMP JUMPDEST PUSH1 0x0 PUSH1 0x40 DUP3 DUP5 SUB SLT ISZERO PUSH2 0xEF0 JUMPI PUSH2 0xEEF PUSH2 0x12FD JUMP JUMPDEST JUMPDEST PUSH2 0xEFA PUSH1 0x40 PUSH2 0x104C JUMP JUMPDEST SWAP1 POP PUSH1 0x0 PUSH2 0xF0A DUP5 DUP3 DUP6 ADD PUSH2 0xFDF JUMP JUMPDEST PUSH1 0x0 DUP4 ADD MSTORE POP PUSH1 0x20 PUSH2 0xF1E DUP5 DUP3 DUP6 ADD PUSH2 0xFDF JUMP JUMPDEST PUSH1 0x20 DUP4 ADD MSTORE POP SWAP3 SWAP2 POP POP JUMP JUMPDEST PUSH1 0x0 PUSH1 0x80 DUP3 DUP5 SUB SLT ISZERO PUSH2 0xF40 JUMPI PUSH2 0xF3F PUSH2 0x12FD JUMP JUMPDEST JUMPDEST PUSH2 0xF4A PUSH1 0x40 PUSH2 0x104C JUMP JUMPDEST SWAP1 POP PUSH1 0x0 PUSH2 0xF5A DUP5 DUP3 DUP6 ADD PUSH2 0xEAF JUMP JUMPDEST PUSH1 0x0 DUP4 ADD MSTORE POP PUSH1 0x40 PUSH2 0xF6E DUP5 DUP3 DUP6 ADD PUSH2 0xEAF JUMP JUMPDEST PUSH1 0x20 DUP4 ADD MSTORE POP SWAP3 SWAP2 POP POP JUMP JUMPDEST PUSH1 0x0 PUSH2 0x100 DUP3 DUP5 SUB SLT ISZERO PUSH2 0xF91 JUMPI PUSH2 0xF90 PUSH2 0x12FD JUMP JUMPDEST JUMPDEST PUSH2 0xF9B PUSH1 0x60 PUSH2 0x104C JUMP JUMPDEST SWAP1 POP PUSH1 0x0 PUSH2 0xFAB DUP5 DUP3 DUP6 ADD PUSH2 0xEDA JUMP JUMPDEST PUSH1 0x0 DUP4 ADD MSTORE POP PUSH1 0x40 PUSH2 0xFBF DUP5 DUP3 DUP6 ADD PUSH2 0xF2A JUMP JUMPDEST PUSH1 0x20 DUP4 ADD MSTORE POP PUSH1 0xC0 PUSH2 0xFD3 DUP5 DUP3 DUP6 ADD PUSH2 0xEDA JUMP JUMPDEST PUSH1 0x40 DUP4 ADD MSTORE POP SWAP3 SWAP2 POP POP JUMP JUMPDEST PUSH1 0x0 DUP2 CALLDATALOAD SWAP1 POP PUSH2 0xFEE DUP2 PUSH2 0x131D JUMP JUMPDEST SWAP3 SWAP2 POP POP JUMP JUMPDEST PUSH1 0x0 PUSH2 0x100 DUP3 DUP5 SUB SLT ISZERO PUSH2 0x100B JUMPI PUSH2 0x100A PUSH2 0x1307 JUMP JUMPDEST JUMPDEST PUSH1 0x0 PUSH2 0x1019 DUP5 DUP3 DUP6 ADD PUSH2 0xF7A JUMP JUMPDEST SWAP2 POP POP SWAP3 SWAP2 POP POP JUMP JUMPDEST PUSH2 0x102B DUP2 PUSH2 0x117B JUMP JUMPDEST DUP3 MSTORE POP POP JUMP JUMPDEST PUSH1 0x0 PUSH1 0x20 DUP3 ADD SWAP1 POP PUSH2 0x1046 PUSH1 0x0 DUP4 ADD DUP5 PUSH2 0x1022 JUMP JUMPDEST SWAP3 SWAP2 POP POP JUMP JUMPDEST PUSH1 0x0 PUSH2 0x1056 PUSH2 0x1067 JUMP JUMPDEST SWAP1 POP PUSH2 0x1062 DUP3 DUP3 PUSH2 0x1191 JUMP JUMPDEST SWAP2 SWAP1 POP JUMP JUMPDEST PUSH1 0x0 PUSH1 0x40 MLOAD SWAP1 POP SWAP1 JUMP JUMPDEST PUSH1 0x0 PUSH8 0xFFFFFFFFFFFFFFFF DUP3 GT ISZERO PUSH2 0x108C JUMPI PUSH2 0x108B PUSH2 0x12C9 JUMP JUMPDEST JUMPDEST PUSH1 0x20 DUP3 MUL SWAP1 POP SWAP2 SWAP1 POP JUMP JUMPDEST PUSH1 0x0 PUSH2 0x10A2 DUP3 PUSH2 0x1187 JUMP JUMPDEST SWAP2 POP PUSH2 0x10AD DUP4 PUSH2 0x1187 JUMP JUMPDEST SWAP3 POP DUP3 PUSH32 0xFFFFFFFFFFFFFFFFFFFFFFFFFFFFFFFFFFFFFFFFFFFFFFFFFFFFFFFFFFFFFFFF SUB DUP3 GT ISZERO PUSH2 0x10E2 JUMPI PUSH2 0x10E1 PUSH2 0x123C JUMP JUMPDEST JUMPDEST DUP3 DUP3 ADD SWAP1 POP SWAP3 SWAP2 POP POP JUMP JUMPDEST PUSH1 0x0 PUSH2 0x10F8 DUP3 PUSH2 0x1187 JUMP JUMPDEST SWAP2 POP PUSH2 0x1103 DUP4 PUSH2 0x1187 JUMP JUMPDEST SWAP3 POP DUP2 PUSH32 0xFFFFFFFFFFFFFFFFFFFFFFFFFFFFFFFFFFFFFFFFFFFFFFFFFFFFFFFFFFFFFFFF DIV DUP4 GT DUP3 ISZERO ISZERO AND ISZERO PUSH2 0x113C JUMPI PUSH2 0x113B PUSH2 0x123C JUMP JUMPDEST JUMPDEST DUP3 DUP3 MUL SWAP1 POP SWAP3 SWAP2 POP POP JUMP JUMPDEST PUSH1 0x0 PUSH2 0x1152 DUP3 PUSH2 0x1187 JUMP JUMPDEST SWAP2 POP PUSH2 0x115D DUP4 PUSH2 0x1187 JUMP JUMPDEST SWAP3 POP DUP3 DUP3 LT ISZERO PUSH2 0x1170 JUMPI PUSH2 0x116F PUSH2 0x123C JUMP JUMPDEST JUMPDEST DUP3 DUP3 SUB SWAP1 POP SWAP3 SWAP2 POP POP JUMP JUMPDEST PUSH1 0x0 DUP2 ISZERO ISZERO SWAP1 POP SWAP2 SWAP1 POP JUMP JUMPDEST PUSH1 0x0 DUP2 SWAP1 POP SWAP2 SWAP1 POP JUMP JUMPDEST PUSH2 0x119A DUP3 PUSH2 0x130C JUMP JUMPDEST DUP2 ADD DUP2 DUP2 LT PUSH8 0xFFFFFFFFFFFFFFFF DUP3 GT OR ISZERO PUSH2 0x11B9 JUMPI PUSH2 0x11B8 PUSH2 0x12C9 JUMP JUMPDEST JUMPDEST DUP1 PUSH1 0x40 MSTORE POP POP POP JUMP JUMPDEST PUSH1 0x0 PUSH2 0x11CD DUP3 PUSH2 0x1187 JUMP JUMPDEST SWAP2 POP PUSH32 0xFFFFFFFFFFFFFFFFFFFFFFFFFFFFFFFFFFFFFFFFFFFFFFFFFFFFFFFFFFFFFFFF DUP3 EQ ISZERO PUSH2 0x1200 JUMPI PUSH2 0x11FF PUSH2 0x123C JUMP JUMPDEST JUMPDEST PUSH1 0x1 DUP3 ADD SWAP1 POP SWAP2 SWAP1 POP JUMP JUMPDEST PUSH1 0x0 PUSH2 0x1216 DUP3 PUSH2 0x1187 JUMP JUMPDEST SWAP2 POP PUSH2 0x1221 DUP4 PUSH2 0x1187 JUMP JUMPDEST SWAP3 POP DUP3 PUSH2 0x1231 JUMPI PUSH2 0x1230 PUSH2 0x126B JUMP JUMPDEST JUMPDEST DUP3 DUP3 MOD SWAP1 POP SWAP3 SWAP2 POP POP JUMP JUMPDEST PUSH32 0x4E487B7100000000000000000000000000000000000000000000000000000000 PUSH1 0x0 MSTORE PUSH1 0x11 PUSH1 0x4 MSTORE PUSH1 0x24 PUSH1 0x0 REVERT JUMPDEST PUSH32 0x4E487B7100000000000000000000000000000000000000000000000000000000 PUSH1 0x0 MSTORE PUSH1 0x12 PUSH1 0x4 MSTORE PUSH1 0x24 PUSH1 0x0 REVERT JUMPDEST PUSH32 0x4E487B7100000000000000000000000000000000000000000000000000000000 PUSH1 0x0 MSTORE PUSH1 0x32 PUSH1 0x4 MSTORE PUSH1 0x24 PUSH1 0x0 REVERT JUMPDEST PUSH32 0x4E487B7100000000000000000000000000000000000000000000000000000000 PUSH1 0x0 MSTORE PUSH1 0x41 PUSH1 0x4 MSTORE PUSH1 0x24 PUSH1 0x0 REVERT JUMPDEST PUSH1 0x0 DUP1 REVERT JUMPDEST PUSH1 0x0 DUP1 REVERT JUMPDEST PUSH1 0x0 DUP1 REVERT JUMPDEST PUSH1 0x0 DUP1 REVERT JUMPDEST PUSH1 0x0 PUSH1 0x1F NOT PUSH1 0x1F DUP4 ADD AND SWAP1 POP SWAP2 SWAP1 POP JUMP JUMPDEST PUSH2 0x1326 DUP2 PUSH2 0x1187 JUMP JUMPDEST DUP2 EQ PUSH2 0x1331 JUMPI PUSH1 0x0 DUP1 REVERT JUMPDEST POP JUMP INVALID LOG2 PUSH5 0x6970667358 0x22 SLT KECCAK256 0xC9 POP 0x4A 0x2F 0x5F JUMP 0xD7 0x4B 0x4B SWAP7 0x5F STATICCALL 0xD PUSH31 0x38CB7EF8E09EC331B541B98D716790D2D2F164736F6C634300080700330000 "
		},
		"gasEstimates": {
			"creation": {
				"codeDepositCost": "994000",
				"executionCost": "1034",
				"totalCost": "995034"
			},
			"external": {
				"verifyTx(((uint256,uint256),(uint256[2],uint256[2]),(uint256,uint256)))": "infinite"
			},
			"internal": {
				"verify(uint256[] memory,struct Verifier.Proof memory)": "infinite",
				"verifyingKey()": "infinite"
			}
		},
		"methodIdentifiers": {
			"verifyTx(((uint256,uint256),(uint256[2],uint256[2]),(uint256,uint256)))": "f6af0311"
		}
	},
	"abi": [
		{
			"inputs": [
				{
					"components": [
						{
							"components": [
								{
									"internalType": "uint256",
									"name": "X",
									"type": "uint256"
								},
								{
									"internalType": "uint256",
									"name": "Y",
									"type": "uint256"
								}
							],
							"internalType": "struct Pairing.G1Point",
							"name": "a",
							"type": "tuple"
						},
						{
							"components": [
								{
									"internalType": "uint256[2]",
									"name": "X",
									"type": "uint256[2]"
								},
								{
									"internalType": "uint256[2]",
									"name": "Y",
									"type": "uint256[2]"
								}
							],
							"internalType": "struct Pairing.G2Point",
							"name": "b",
							"type": "tuple"
						},
						{
							"components": [
								{
									"internalType": "uint256",
									"name": "X",
									"type": "uint256"
								},
								{
									"internalType": "uint256",
									"name": "Y",
									"type": "uint256"
								}
							],
							"internalType": "struct Pairing.G1Point",
							"name": "c",
							"type": "tuple"
						}
					],
					"internalType": "struct Verifier.Proof",
					"name": "proof",
					"type": "tuple"
				}
			],
			"name": "verifyTx",
			"outputs": [
				{
					"internalType": "bool",
					"name": "r",
					"type": "bool"
				}
			],
			"stateMutability": "view",
			"type": "function"
		}
	]
}