{
	"data": {
		"bytecode": {
			"linkReferences": {},
			"object": "608060405234801561001057600080fd5b506110cd806100206000396000f3fe608060405234801561001057600080fd5b5060043610610047577c010000000000000000000000000000000000000000000000000000000060003504630f9c5d49811461004c575b600080fd5b61005f61005a366004610e79565b610073565b604051901515815260200160405180910390f35b604080516003808252608082019092526000918291906020820160608036833701905050905060005b60038110156100eb578381600381106100b7576100b7611065565b60200201518282815181106100ce576100ce611065565b6020908102919091010152806100e38161100c565b91505061009c565b506100f68185610110565b61010457600191505061010a565b60009150505b92915050565b60007f30644e72e131a029b85045b68181585d2833e84879b9709143e1f593f00000018161013c610293565b9050806080015151855160016101529190610fbe565b1461015c57600080fd5b604080518082019091526000808252602082018190525b865181101561020a578387828151811061018f5761018f611065565b6020026020010151106101a157600080fd5b6101f6826101f185608001518460016101ba9190610fbe565b815181106101ca576101ca611065565b60200260200101518a85815181106101e4576101e4611065565b602002602001015161071c565b610780565b9150806102028161100c565b915050610173565b5061023381836080015160008151811061022657610226611065565b6020026020010151610780565b90506102778560000151866020015161024b846107da565b856040015161025d8a604001516107da565b6060880151885161026d906107da565b8960200151610879565b610287576001935050505061010a565b50600095945050505050565b61029b610ce4565b6040805180820182527f1d877d34b4b2e18f0a83156a94ecdaaffcb7f7404e9505e2681d298c4f300b3d81527f2c786456c3ca069e2e2550e783476781061526eef24726f34f0c17d6077dc4516020808301919091529083528151608080820184527f1656a8896a3287cf41dc64b78c422199ad107699bc87186efb29bfd913d17e488285019081527f28bf884a4f7cb1395aeb51f63c0e160995525edda316798cb95a056f4bdffb25606080850191909152908352845180860186527f0adbeb06673a3d6825ae85f3b97b8e930383b37ccc0d44a93544088e75dfc31c81527f14db9464ba5e85570a06f6db1d76732bc5c60604a118f07c7dbec2c56590daf8818601528385015285840192909252835180820185527f163fda6a94ae2ceab765ccba86ff9626cc1ab5de43de095f5be07078de4b3bf18186019081527f25a3c12a82bf0d6b763711d8b9bcdc3c04dc5da37a3adf0fb4f7380563975dc9828501528152845180860186527f03b57190ccf8c9e0a30e7949fedc04f80201d69985c7627a8115a60939cb399a81527f18c832634abce5905ccdd3e06e6b129b8448998d6a1bdc3e8a3d839a1df18088818601528185015285850152835190810184527f0d5383844aa3abc468fd4f0af3b1440b818e8fa7294506fa902215d94c96eaec8185019081527f27041cddba23c7aa98aa6763e1f0d9c0a7bc2bfe687ac6e42e94776551ffd5bb828401528152835180850185527f20294a247c2df72e31a1def2fee16a65e3c1de670e13e9f242b9b07052d7bd0e81527f025068b54ffd25f35125977c24b132e4dbba27c132a979b633fe78307ef240d18185015281840152908401528151600480825260a08201909352919082015b604080518082019091526000808252602082015281526020019060019003908161051657505060808201908152604080518082019091527f0232e6517832c8d1bd57590301616765975fe545d94a4243000aafaff099474a81527f155747fbfd470132c4ebab68803183a3fd8a857cc28e0323da0fa48256e8381e6020820152905180516000906105a9576105a9611065565b602002602001018190525060405180604001604052807f1953c08966d1d6c2811f254c923851a91b19f68774d26f3513154dd6f8cedc0581526020017f14482ce4cff1b8ced3ecd1c8ab659424a056b91cda4a74e87f4246bcfe0062b4815250816080015160018151811061062057610620611065565b602002602001018190525060405180604001604052807f0c96302dee27cd284756364a61c215453886e0d568d23f4636eb7e007e24015e81526020017f196dc3405a79fc7da356426020664c30a41718a3ae4266a7ee601781b1736d32815250816080015160028151811061069757610697611065565b602002602001018190525060405180604001604052807f2bfab019bc87371c0b3a6739f817ed6a8d06e6101a3d88a4a782b92ea27c852481526020017f305da2a9f02f346bd928425c849b0f2928b17ed1029666391f183c34b7f4d47d815250816080015160038151811061070e5761070e611065565b602002602001018190525090565b6040805180820190915260008082526020820152610738610d35565b835181526020808501519082015260408101839052600060608360808460076107d05a03fa905080801561076b5761076d565bfe5b508061077857600080fd5b505092915050565b604080518082019091526000808252602082015261079c610d53565b8351815260208085015181830152835160408301528301516060808301919091526000908360c08460066107d05a03fa905080801561076b5761076d565b604080518082019091526000808252602082015281517f30644e72e131a029b85045b68181585d97816a916871ca8d3c208c16d87cfd479015801561082157506020830151155b156108415750506040805180820190915260008082526020820152919050565b6040518060400160405280846000015181526020018285602001516108669190611027565b6108709084610ff5565b90529392505050565b60408051600480825260a08201909252600091829190816020015b604080518082019091526000808252602082015281526020019060019003908161089457505060408051600480825260a0820190925291925060009190602082015b6108de610d71565b8152602001906001900390816108d65790505090508a8260008151811061090757610907611065565b6020026020010181905250888260018151811061092657610926611065565b6020026020010181905250868260028151811061094557610945611065565b6020026020010181905250848260038151811061096457610964611065565b6020026020010181905250898160008151811061098357610983611065565b602002602001018190525087816001815181106109a2576109a2611065565b602002602001018190525085816002815181106109c1576109c1611065565b602002602001018190525083816003815181106109e0576109e0611065565b60200260200101819052506109f58282610a04565b9b9a5050505050505050505050565b60008151835114610a1457600080fd5b82516000610a23826006610fd6565b905060008167ffffffffffffffff811115610a4057610a4061107e565b604051908082528060200260200182016040528015610a69578160200160208202803683370190505b50905060005b83811015610ca457868181518110610a8957610a89611065565b60200260200101516000015182826006610aa39190610fd6565b610aae906000610fbe565b81518110610abe57610abe611065565b602002602001018181525050868181518110610adc57610adc611065565b60200260200101516020015182826006610af69190610fd6565b610b01906001610fbe565b81518110610b1157610b11611065565b602002602001018181525050858181518110610b2f57610b2f611065565b60209081029190910181015151015182610b4a836006610fd6565b610b55906002610fbe565b81518110610b6557610b65611065565b602002602001018181525050858181518110610b8357610b83611065565b6020908102919091010151515182610b9c836006610fd6565b610ba7906003610fbe565b81518110610bb757610bb7611065565b602002602001018181525050858181518110610bd557610bd5611065565b602002602001015160200151600160028110610bf357610bf3611065565b602002015182610c04836006610fd6565b610c0f906004610fbe565b81518110610c1f57610c1f611065565b602002602001018181525050858181518110610c3d57610c3d611065565b602002602001015160200151600060028110610c5b57610c5b611065565b602002015182610c6c836006610fd6565b610c77906005610fbe565b81518110610c8757610c87611065565b602090810291909101015280610c9c8161100c565b915050610a6f565b50610cad610d96565b6000602082602086026020860160086107d05a03fa905080801561076b575080610cd657600080fd5b505115159695505050505050565b6040805160e08101909152600060a0820181815260c0830191909152815260208101610d0e610d71565b8152602001610d1b610d71565b8152602001610d28610d71565b8152602001606081525090565b60405180606001604052806003906020820280368337509192915050565b60405180608001604052806004906020820280368337509192915050565b6040518060400160405280610d84610db4565b8152602001610d91610db4565b905290565b60405180602001604052806001906020820280368337509192915050565b60405180604001604052806002906020820280368337509192915050565b600082601f830112610de357600080fd5b610deb610f9b565b808385604086011115610dfd57600080fd5b60005b6002811015610e1f578135845260209384019390910190600101610e00565b509095945050505050565b600060408284031215610e3c57600080fd5b6040516040810181811067ffffffffffffffff82111715610e5f57610e5f61107e565b604052823581526020928301359281019290925250919050565b60008082840361016080821215610e8f57600080fd5b61010080831215610e9f57600080fd5b610ea7610f72565b610eb18888610e2a565b81526080603f1985011215610ec557600080fd5b610ecd610f9b565b9350610edc8860408901610dd2565b8452610eeb8860808901610dd2565b602081818701528581840152610f048a60c08b01610e2a565b60408401528297508961011f8a0112610f1c57600080fd5b610f24610f72565b9550859250838901935089858a011115610f3d57600080fd5b600094505b6003851015610f635783358652948501946001949094019392830192610f42565b50959890975095505050505050565b6040516060810167ffffffffffffffff81118282101715610f9557610f9561107e565b60405290565b6040805190810167ffffffffffffffff81118282101715610f9557610f9561107e565b60008219821115610fd157610fd161104c565b500190565b6000816000190483118215151615610ff057610ff061104c565b500290565b6000828210156110075761100761104c565b500390565b60006000198214156110205761102061104c565b5060010190565b6000826110475760e060020a634e487b7102600052601260045260246000fd5b500690565b60e060020a634e487b7102600052601160045260246000fd5b60e060020a634e487b7102600052603260045260246000fd5b60e060020a634e487b7102600052604160045260246000fdfea26469706673582212206d06ba93d7c78379257cea4fcd5348236dc7c8fb8921e18d4b712c25381696b764736f6c63430008070033",
			"opcodes": "PUSH1 0x80 PUSH1 0x40 MSTORE CALLVALUE DUP1 ISZERO PUSH2 0x10 JUMPI PUSH1 0x0 DUP1 REVERT JUMPDEST POP PUSH2 0x10CD DUP1 PUSH2 0x20 PUSH1 0x0 CODECOPY PUSH1 0x0 RETURN INVALID PUSH1 0x80 PUSH1 0x40 MSTORE CALLVALUE DUP1 ISZERO PUSH2 0x10 JUMPI PUSH1 0x0 DUP1 REVERT JUMPDEST POP PUSH1 0x4 CALLDATASIZE LT PUSH2 0x47 JUMPI PUSH29 0x100000000000000000000000000000000000000000000000000000000 PUSH1 0x0 CALLDATALOAD DIV PUSH4 0xF9C5D49 DUP2 EQ PUSH2 0x4C JUMPI JUMPDEST PUSH1 0x0 DUP1 REVERT JUMPDEST PUSH2 0x5F PUSH2 0x5A CALLDATASIZE PUSH1 0x4 PUSH2 0xE79 JUMP JUMPDEST PUSH2 0x73 JUMP JUMPDEST PUSH1 0x40 MLOAD SWAP1 ISZERO ISZERO DUP2 MSTORE PUSH1 0x20 ADD PUSH1 0x40 MLOAD DUP1 SWAP2 SUB SWAP1 RETURN JUMPDEST PUSH1 0x40 DUP1 MLOAD PUSH1 0x3 DUP1 DUP3 MSTORE PUSH1 0x80 DUP3 ADD SWAP1 SWAP3 MSTORE PUSH1 0x0 SWAP2 DUP3 SWAP2 SWAP1 PUSH1 0x20 DUP3 ADD PUSH1 0x60 DUP1 CALLDATASIZE DUP4 CALLDATACOPY ADD SWAP1 POP POP SWAP1 POP PUSH1 0x0 JUMPDEST PUSH1 0x3 DUP2 LT ISZERO PUSH2 0xEB JUMPI DUP4 DUP2 PUSH1 0x3 DUP2 LT PUSH2 0xB7 JUMPI PUSH2 0xB7 PUSH2 0x1065 JUMP JUMPDEST PUSH1 0x20 MUL ADD MLOAD DUP3 DUP3 DUP2 MLOAD DUP2 LT PUSH2 0xCE JUMPI PUSH2 0xCE PUSH2 0x1065 JUMP JUMPDEST PUSH1 0x20 SWAP1 DUP2 MUL SWAP2 SWAP1 SWAP2 ADD ADD MSTORE DUP1 PUSH2 0xE3 DUP2 PUSH2 0x100C JUMP JUMPDEST SWAP2 POP POP PUSH2 0x9C JUMP JUMPDEST POP PUSH2 0xF6 DUP2 DUP6 PUSH2 0x110 JUMP JUMPDEST PUSH2 0x104 JUMPI PUSH1 0x1 SWAP2 POP POP PUSH2 0x10A JUMP JUMPDEST PUSH1 0x0 SWAP2 POP POP JUMPDEST SWAP3 SWAP2 POP POP JUMP JUMPDEST PUSH1 0x0 PUSH32 0x30644E72E131A029B85045B68181585D2833E84879B9709143E1F593F0000001 DUP2 PUSH2 0x13C PUSH2 0x293 JUMP JUMPDEST SWAP1 POP DUP1 PUSH1 0x80 ADD MLOAD MLOAD DUP6 MLOAD PUSH1 0x1 PUSH2 0x152 SWAP2 SWAP1 PUSH2 0xFBE JUMP JUMPDEST EQ PUSH2 0x15C JUMPI PUSH1 0x0 DUP1 REVERT JUMPDEST PUSH1 0x40 DUP1 MLOAD DUP1 DUP3 ADD SWAP1 SWAP2 MSTORE PUSH1 0x0 DUP1 DUP3 MSTORE PUSH1 0x20 DUP3 ADD DUP2 SWAP1 MSTORE JUMPDEST DUP7 MLOAD DUP2 LT ISZERO PUSH2 0x20A JUMPI DUP4 DUP8 DUP3 DUP2 MLOAD DUP2 LT PUSH2 0x18F JUMPI PUSH2 0x18F PUSH2 0x1065 JUMP JUMPDEST PUSH1 0x20 MUL PUSH1 0x20 ADD ADD MLOAD LT PUSH2 0x1A1 JUMPI PUSH1 0x0 DUP1 REVERT JUMPDEST PUSH2 0x1F6 DUP3 PUSH2 0x1F1 DUP6 PUSH1 0x80 ADD MLOAD DUP5 PUSH1 0x1 PUSH2 0x1BA SWAP2 SWAP1 PUSH2 0xFBE JUMP JUMPDEST DUP2 MLOAD DUP2 LT PUSH2 0x1CA JUMPI PUSH2 0x1CA PUSH2 0x1065 JUMP JUMPDEST PUSH1 0x20 MUL PUSH1 0x20 ADD ADD MLOAD DUP11 DUP6 DUP2 MLOAD DUP2 LT PUSH2 0x1E4 JUMPI PUSH2 0x1E4 PUSH2 0x1065 JUMP JUMPDEST PUSH1 0x20 MUL PUSH1 0x20 ADD ADD MLOAD PUSH2 0x71C JUMP JUMPDEST PUSH2 0x780 JUMP JUMPDEST SWAP2 POP DUP1 PUSH2 0x202 DUP2 PUSH2 0x100C JUMP JUMPDEST SWAP2 POP POP PUSH2 0x173 JUMP JUMPDEST POP PUSH2 0x233 DUP2 DUP4 PUSH1 0x80 ADD MLOAD PUSH1 0x0 DUP2 MLOAD DUP2 LT PUSH2 0x226 JUMPI PUSH2 0x226 PUSH2 0x1065 JUMP JUMPDEST PUSH1 0x20 MUL PUSH1 0x20 ADD ADD MLOAD PUSH2 0x780 JUMP JUMPDEST SWAP1 POP PUSH2 0x277 DUP6 PUSH1 0x0 ADD MLOAD DUP7 PUSH1 0x20 ADD MLOAD PUSH2 0x24B DUP5 PUSH2 0x7DA JUMP JUMPDEST DUP6 PUSH1 0x40 ADD MLOAD PUSH2 0x25D DUP11 PUSH1 0x40 ADD MLOAD PUSH2 0x7DA JUMP JUMPDEST PUSH1 0x60 DUP9 ADD MLOAD DUP9 MLOAD PUSH2 0x26D SWAP1 PUSH2 0x7DA JUMP JUMPDEST DUP10 PUSH1 0x20 ADD MLOAD PUSH2 0x879 JUMP JUMPDEST PUSH2 0x287 JUMPI PUSH1 0x1 SWAP4 POP POP POP POP PUSH2 0x10A JUMP JUMPDEST POP PUSH1 0x0 SWAP6 SWAP5 POP POP POP POP POP JUMP JUMPDEST PUSH2 0x29B PUSH2 0xCE4 JUMP JUMPDEST PUSH1 0x40 DUP1 MLOAD DUP1 DUP3 ADD DUP3 MSTORE PUSH32 0x1D877D34B4B2E18F0A83156A94ECDAAFFCB7F7404E9505E2681D298C4F300B3D DUP2 MSTORE PUSH32 0x2C786456C3CA069E2E2550E783476781061526EEF24726F34F0C17D6077DC451 PUSH1 0x20 DUP1 DUP4 ADD SWAP2 SWAP1 SWAP2 MSTORE SWAP1 DUP4 MSTORE DUP2 MLOAD PUSH1 0x80 DUP1 DUP3 ADD DUP5 MSTORE PUSH32 0x1656A8896A3287CF41DC64B78C422199AD107699BC87186EFB29BFD913D17E48 DUP3 DUP6 ADD SWAP1 DUP2 MSTORE PUSH32 0x28BF884A4F7CB1395AEB51F63C0E160995525EDDA316798CB95A056F4BDFFB25 PUSH1 0x60 DUP1 DUP6 ADD SWAP2 SWAP1 SWAP2 MSTORE SWAP1 DUP4 MSTORE DUP5 MLOAD DUP1 DUP7 ADD DUP7 MSTORE PUSH32 0xADBEB06673A3D6825AE85F3B97B8E930383B37CCC0D44A93544088E75DFC31C DUP2 MSTORE PUSH32 0x14DB9464BA5E85570A06F6DB1D76732BC5C60604A118F07C7DBEC2C56590DAF8 DUP2 DUP7 ADD MSTORE DUP4 DUP6 ADD MSTORE DUP6 DUP5 ADD SWAP3 SWAP1 SWAP3 MSTORE DUP4 MLOAD DUP1 DUP3 ADD DUP6 MSTORE PUSH32 0x163FDA6A94AE2CEAB765CCBA86FF9626CC1AB5DE43DE095F5BE07078DE4B3BF1 DUP2 DUP7 ADD SWAP1 DUP2 MSTORE PUSH32 0x25A3C12A82BF0D6B763711D8B9BCDC3C04DC5DA37A3ADF0FB4F7380563975DC9 DUP3 DUP6 ADD MSTORE DUP2 MSTORE DUP5 MLOAD DUP1 DUP7 ADD DUP7 MSTORE PUSH32 0x3B57190CCF8C9E0A30E7949FEDC04F80201D69985C7627A8115A60939CB399A DUP2 MSTORE PUSH32 0x18C832634ABCE5905CCDD3E06E6B129B8448998D6A1BDC3E8A3D839A1DF18088 DUP2 DUP7 ADD MSTORE DUP2 DUP6 ADD MSTORE DUP6 DUP6 ADD MSTORE DUP4 MLOAD SWAP1 DUP2 ADD DUP5 MSTORE PUSH32 0xD5383844AA3ABC468FD4F0AF3B1440B818E8FA7294506FA902215D94C96EAEC DUP2 DUP6 ADD SWAP1 DUP2 MSTORE PUSH32 0x27041CDDBA23C7AA98AA6763E1F0D9C0A7BC2BFE687AC6E42E94776551FFD5BB DUP3 DUP5 ADD MSTORE DUP2 MSTORE DUP4 MLOAD DUP1 DUP6 ADD DUP6 MSTORE PUSH32 0x20294A247C2DF72E31A1DEF2FEE16A65E3C1DE670E13E9F242B9B07052D7BD0E DUP2 MSTORE PUSH32 0x25068B54FFD25F35125977C24B132E4DBBA27C132A979B633FE78307EF240D1 DUP2 DUP6 ADD MSTORE DUP2 DUP5 ADD MSTORE SWAP1 DUP5 ADD MSTORE DUP2 MLOAD PUSH1 0x4 DUP1 DUP3 MSTORE PUSH1 0xA0 DUP3 ADD SWAP1 SWAP4 MSTORE SWAP2 SWAP1 DUP3 ADD JUMPDEST PUSH1 0x40 DUP1 MLOAD DUP1 DUP3 ADD SWAP1 SWAP2 MSTORE PUSH1 0x0 DUP1 DUP3 MSTORE PUSH1 0x20 DUP3 ADD MSTORE DUP2 MSTORE PUSH1 0x20 ADD SWAP1 PUSH1 0x1 SWAP1 SUB SWAP1 DUP2 PUSH2 0x516 JUMPI POP POP PUSH1 0x80 DUP3 ADD SWAP1 DUP2 MSTORE PUSH1 0x40 DUP1 MLOAD DUP1 DUP3 ADD SWAP1 SWAP2 MSTORE PUSH32 0x232E6517832C8D1BD57590301616765975FE545D94A4243000AAFAFF099474A DUP2 MSTORE PUSH32 0x155747FBFD470132C4EBAB68803183A3FD8A857CC28E0323DA0FA48256E8381E PUSH1 0x20 DUP3 ADD MSTORE SWAP1 MLOAD DUP1 MLOAD PUSH1 0x0 SWAP1 PUSH2 0x5A9 JUMPI PUSH2 0x5A9 PUSH2 0x1065 JUMP JUMPDEST PUSH1 0x20 MUL PUSH1 0x20 ADD ADD DUP2 SWAP1 MSTORE POP PUSH1 0x40 MLOAD DUP1 PUSH1 0x40 ADD PUSH1 0x40 MSTORE DUP1 PUSH32 0x1953C08966D1D6C2811F254C923851A91B19F68774D26F3513154DD6F8CEDC05 DUP2 MSTORE PUSH1 0x20 ADD PUSH32 0x14482CE4CFF1B8CED3ECD1C8AB659424A056B91CDA4A74E87F4246BCFE0062B4 DUP2 MSTORE POP DUP2 PUSH1 0x80 ADD MLOAD PUSH1 0x1 DUP2 MLOAD DUP2 LT PUSH2 0x620 JUMPI PUSH2 0x620 PUSH2 0x1065 JUMP JUMPDEST PUSH1 0x20 MUL PUSH1 0x20 ADD ADD DUP2 SWAP1 MSTORE POP PUSH1 0x40 MLOAD DUP1 PUSH1 0x40 ADD PUSH1 0x40 MSTORE DUP1 PUSH32 0xC96302DEE27CD284756364A61C215453886E0D568D23F4636EB7E007E24015E DUP2 MSTORE PUSH1 0x20 ADD PUSH32 0x196DC3405A79FC7DA356426020664C30A41718A3AE4266A7EE601781B1736D32 DUP2 MSTORE POP DUP2 PUSH1 0x80 ADD MLOAD PUSH1 0x2 DUP2 MLOAD DUP2 LT PUSH2 0x697 JUMPI PUSH2 0x697 PUSH2 0x1065 JUMP JUMPDEST PUSH1 0x20 MUL PUSH1 0x20 ADD ADD DUP2 SWAP1 MSTORE POP PUSH1 0x40 MLOAD DUP1 PUSH1 0x40 ADD PUSH1 0x40 MSTORE DUP1 PUSH32 0x2BFAB019BC87371C0B3A6739F817ED6A8D06E6101A3D88A4A782B92EA27C8524 DUP2 MSTORE PUSH1 0x20 ADD PUSH32 0x305DA2A9F02F346BD928425C849B0F2928B17ED1029666391F183C34B7F4D47D DUP2 MSTORE POP DUP2 PUSH1 0x80 ADD MLOAD PUSH1 0x3 DUP2 MLOAD DUP2 LT PUSH2 0x70E JUMPI PUSH2 0x70E PUSH2 0x1065 JUMP JUMPDEST PUSH1 0x20 MUL PUSH1 0x20 ADD ADD DUP2 SWAP1 MSTORE POP SWAP1 JUMP JUMPDEST PUSH1 0x40 DUP1 MLOAD DUP1 DUP3 ADD SWAP1 SWAP2 MSTORE PUSH1 0x0 DUP1 DUP3 MSTORE PUSH1 0x20 DUP3 ADD MSTORE PUSH2 0x738 PUSH2 0xD35 JUMP JUMPDEST DUP4 MLOAD DUP2 MSTORE PUSH1 0x20 DUP1 DUP6 ADD MLOAD SWAP1 DUP3 ADD MSTORE PUSH1 0x40 DUP2 ADD DUP4 SWAP1 MSTORE PUSH1 0x0 PUSH1 0x60 DUP4 PUSH1 0x80 DUP5 PUSH1 0x7 PUSH2 0x7D0 GAS SUB STATICCALL SWAP1 POP DUP1 DUP1 ISZERO PUSH2 0x76B JUMPI PUSH2 0x76D JUMP JUMPDEST INVALID JUMPDEST POP DUP1 PUSH2 0x778 JUMPI PUSH1 0x0 DUP1 REVERT JUMPDEST POP POP SWAP3 SWAP2 POP POP JUMP JUMPDEST PUSH1 0x40 DUP1 MLOAD DUP1 DUP3 ADD SWAP1 SWAP2 MSTORE PUSH1 0x0 DUP1 DUP3 MSTORE PUSH1 0x20 DUP3 ADD MSTORE PUSH2 0x79C PUSH2 0xD53 JUMP JUMPDEST DUP4 MLOAD DUP2 MSTORE PUSH1 0x20 DUP1 DUP6 ADD MLOAD DUP2 DUP4 ADD MSTORE DUP4 MLOAD PUSH1 0x40 DUP4 ADD MSTORE DUP4 ADD MLOAD PUSH1 0x60 DUP1 DUP4 ADD SWAP2 SWAP1 SWAP2 MSTORE PUSH1 0x0 SWAP1 DUP4 PUSH1 0xC0 DUP5 PUSH1 0x6 PUSH2 0x7D0 GAS SUB STATICCALL SWAP1 POP DUP1 DUP1 ISZERO PUSH2 0x76B JUMPI PUSH2 0x76D JUMP JUMPDEST PUSH1 0x40 DUP1 MLOAD DUP1 DUP3 ADD SWAP1 SWAP2 MSTORE PUSH1 0x0 DUP1 DUP3 MSTORE PUSH1 0x20 DUP3 ADD MSTORE DUP2 MLOAD PUSH32 0x30644E72E131A029B85045B68181585D97816A916871CA8D3C208C16D87CFD47 SWAP1 ISZERO DUP1 ISZERO PUSH2 0x821 JUMPI POP PUSH1 0x20 DUP4 ADD MLOAD ISZERO JUMPDEST ISZERO PUSH2 0x841 JUMPI POP POP PUSH1 0x40 DUP1 MLOAD DUP1 DUP3 ADD SWAP1 SWAP2 MSTORE PUSH1 0x0 DUP1 DUP3 MSTORE PUSH1 0x20 DUP3 ADD MSTORE SWAP2 SWAP1 POP JUMP JUMPDEST PUSH1 0x40 MLOAD DUP1 PUSH1 0x40 ADD PUSH1 0x40 MSTORE DUP1 DUP5 PUSH1 0x0 ADD MLOAD DUP2 MSTORE PUSH1 0x20 ADD DUP3 DUP6 PUSH1 0x20 ADD MLOAD PUSH2 0x866 SWAP2 SWAP1 PUSH2 0x1027 JUMP JUMPDEST PUSH2 0x870 SWAP1 DUP5 PUSH2 0xFF5 JUMP JUMPDEST SWAP1 MSTORE SWAP4 SWAP3 POP POP POP JUMP JUMPDEST PUSH1 0x40 DUP1 MLOAD PUSH1 0x4 DUP1 DUP3 MSTORE PUSH1 0xA0 DUP3 ADD SWAP1 SWAP3 MSTORE PUSH1 0x0 SWAP2 DUP3 SWAP2 SWAP1 DUP2 PUSH1 0x20 ADD JUMPDEST PUSH1 0x40 DUP1 MLOAD DUP1 DUP3 ADD SWAP1 SWAP2 MSTORE PUSH1 0x0 DUP1 DUP3 MSTORE PUSH1 0x20 DUP3 ADD MSTORE DUP2 MSTORE PUSH1 0x20 ADD SWAP1 PUSH1 0x1 SWAP1 SUB SWAP1 DUP2 PUSH2 0x894 JUMPI POP POP PUSH1 0x40 DUP1 MLOAD PUSH1 0x4 DUP1 DUP3 MSTORE PUSH1 0xA0 DUP3 ADD SWAP1 SWAP3 MSTORE SWAP2 SWAP3 POP PUSH1 0x0 SWAP2 SWAP1 PUSH1 0x20 DUP3 ADD JUMPDEST PUSH2 0x8DE PUSH2 0xD71 JUMP JUMPDEST DUP2 MSTORE PUSH1 0x20 ADD SWAP1 PUSH1 0x1 SWAP1 SUB SWAP1 DUP2 PUSH2 0x8D6 JUMPI SWAP1 POP POP SWAP1 POP DUP11 DUP3 PUSH1 0x0 DUP2 MLOAD DUP2 LT PUSH2 0x907 JUMPI PUSH2 0x907 PUSH2 0x1065 JUMP JUMPDEST PUSH1 0x20 MUL PUSH1 0x20 ADD ADD DUP2 SWAP1 MSTORE POP DUP9 DUP3 PUSH1 0x1 DUP2 MLOAD DUP2 LT PUSH2 0x926 JUMPI PUSH2 0x926 PUSH2 0x1065 JUMP JUMPDEST PUSH1 0x20 MUL PUSH1 0x20 ADD ADD DUP2 SWAP1 MSTORE POP DUP7 DUP3 PUSH1 0x2 DUP2 MLOAD DUP2 LT PUSH2 0x945 JUMPI PUSH2 0x945 PUSH2 0x1065 JUMP JUMPDEST PUSH1 0x20 MUL PUSH1 0x20 ADD ADD DUP2 SWAP1 MSTORE POP DUP5 DUP3 PUSH1 0x3 DUP2 MLOAD DUP2 LT PUSH2 0x964 JUMPI PUSH2 0x964 PUSH2 0x1065 JUMP JUMPDEST PUSH1 0x20 MUL PUSH1 0x20 ADD ADD DUP2 SWAP1 MSTORE POP DUP10 DUP2 PUSH1 0x0 DUP2 MLOAD DUP2 LT PUSH2 0x983 JUMPI PUSH2 0x983 PUSH2 0x1065 JUMP JUMPDEST PUSH1 0x20 MUL PUSH1 0x20 ADD ADD DUP2 SWAP1 MSTORE POP DUP8 DUP2 PUSH1 0x1 DUP2 MLOAD DUP2 LT PUSH2 0x9A2 JUMPI PUSH2 0x9A2 PUSH2 0x1065 JUMP JUMPDEST PUSH1 0x20 MUL PUSH1 0x20 ADD ADD DUP2 SWAP1 MSTORE POP DUP6 DUP2 PUSH1 0x2 DUP2 MLOAD DUP2 LT PUSH2 0x9C1 JUMPI PUSH2 0x9C1 PUSH2 0x1065 JUMP JUMPDEST PUSH1 0x20 MUL PUSH1 0x20 ADD ADD DUP2 SWAP1 MSTORE POP DUP4 DUP2 PUSH1 0x3 DUP2 MLOAD DUP2 LT PUSH2 0x9E0 JUMPI PUSH2 0x9E0 PUSH2 0x1065 JUMP JUMPDEST PUSH1 0x20 MUL PUSH1 0x20 ADD ADD DUP2 SWAP1 MSTORE POP PUSH2 0x9F5 DUP3 DUP3 PUSH2 0xA04 JUMP JUMPDEST SWAP12 SWAP11 POP POP POP POP POP POP POP POP POP POP POP JUMP JUMPDEST PUSH1 0x0 DUP2 MLOAD DUP4 MLOAD EQ PUSH2 0xA14 JUMPI PUSH1 0x0 DUP1 REVERT JUMPDEST DUP3 MLOAD PUSH1 0x0 PUSH2 0xA23 DUP3 PUSH1 0x6 PUSH2 0xFD6 JUMP JUMPDEST SWAP1 POP PUSH1 0x0 DUP2 PUSH8 0xFFFFFFFFFFFFFFFF DUP2 GT ISZERO PUSH2 0xA40 JUMPI PUSH2 0xA40 PUSH2 0x107E JUMP JUMPDEST PUSH1 0x40 MLOAD SWAP1 DUP1 DUP3 MSTORE DUP1 PUSH1 0x20 MUL PUSH1 0x20 ADD DUP3 ADD PUSH1 0x40 MSTORE DUP1 ISZERO PUSH2 0xA69 JUMPI DUP2 PUSH1 0x20 ADD PUSH1 0x20 DUP3 MUL DUP1 CALLDATASIZE DUP4 CALLDATACOPY ADD SWAP1 POP JUMPDEST POP SWAP1 POP PUSH1 0x0 JUMPDEST DUP4 DUP2 LT ISZERO PUSH2 0xCA4 JUMPI DUP7 DUP2 DUP2 MLOAD DUP2 LT PUSH2 0xA89 JUMPI PUSH2 0xA89 PUSH2 0x1065 JUMP JUMPDEST PUSH1 0x20 MUL PUSH1 0x20 ADD ADD MLOAD PUSH1 0x0 ADD MLOAD DUP3 DUP3 PUSH1 0x6 PUSH2 0xAA3 SWAP2 SWAP1 PUSH2 0xFD6 JUMP JUMPDEST PUSH2 0xAAE SWAP1 PUSH1 0x0 PUSH2 0xFBE JUMP JUMPDEST DUP2 MLOAD DUP2 LT PUSH2 0xABE JUMPI PUSH2 0xABE PUSH2 0x1065 JUMP JUMPDEST PUSH1 0x20 MUL PUSH1 0x20 ADD ADD DUP2 DUP2 MSTORE POP POP DUP7 DUP2 DUP2 MLOAD DUP2 LT PUSH2 0xADC JUMPI PUSH2 0xADC PUSH2 0x1065 JUMP JUMPDEST PUSH1 0x20 MUL PUSH1 0x20 ADD ADD MLOAD PUSH1 0x20 ADD MLOAD DUP3 DUP3 PUSH1 0x6 PUSH2 0xAF6 SWAP2 SWAP1 PUSH2 0xFD6 JUMP JUMPDEST PUSH2 0xB01 SWAP1 PUSH1 0x1 PUSH2 0xFBE JUMP JUMPDEST DUP2 MLOAD DUP2 LT PUSH2 0xB11 JUMPI PUSH2 0xB11 PUSH2 0x1065 JUMP JUMPDEST PUSH1 0x20 MUL PUSH1 0x20 ADD ADD DUP2 DUP2 MSTORE POP POP DUP6 DUP2 DUP2 MLOAD DUP2 LT PUSH2 0xB2F JUMPI PUSH2 0xB2F PUSH2 0x1065 JUMP JUMPDEST PUSH1 0x20 SWAP1 DUP2 MUL SWAP2 SWAP1 SWAP2 ADD DUP2 ADD MLOAD MLOAD ADD MLOAD DUP3 PUSH2 0xB4A DUP4 PUSH1 0x6 PUSH2 0xFD6 JUMP JUMPDEST PUSH2 0xB55 SWAP1 PUSH1 0x2 PUSH2 0xFBE JUMP JUMPDEST DUP2 MLOAD DUP2 LT PUSH2 0xB65 JUMPI PUSH2 0xB65 PUSH2 0x1065 JUMP JUMPDEST PUSH1 0x20 MUL PUSH1 0x20 ADD ADD DUP2 DUP2 MSTORE POP POP DUP6 DUP2 DUP2 MLOAD DUP2 LT PUSH2 0xB83 JUMPI PUSH2 0xB83 PUSH2 0x1065 JUMP JUMPDEST PUSH1 0x20 SWAP1 DUP2 MUL SWAP2 SWAP1 SWAP2 ADD ADD MLOAD MLOAD MLOAD DUP3 PUSH2 0xB9C DUP4 PUSH1 0x6 PUSH2 0xFD6 JUMP JUMPDEST PUSH2 0xBA7 SWAP1 PUSH1 0x3 PUSH2 0xFBE JUMP JUMPDEST DUP2 MLOAD DUP2 LT PUSH2 0xBB7 JUMPI PUSH2 0xBB7 PUSH2 0x1065 JUMP JUMPDEST PUSH1 0x20 MUL PUSH1 0x20 ADD ADD DUP2 DUP2 MSTORE POP POP DUP6 DUP2 DUP2 MLOAD DUP2 LT PUSH2 0xBD5 JUMPI PUSH2 0xBD5 PUSH2 0x1065 JUMP JUMPDEST PUSH1 0x20 MUL PUSH1 0x20 ADD ADD MLOAD PUSH1 0x20 ADD MLOAD PUSH1 0x1 PUSH1 0x2 DUP2 LT PUSH2 0xBF3 JUMPI PUSH2 0xBF3 PUSH2 0x1065 JUMP JUMPDEST PUSH1 0x20 MUL ADD MLOAD DUP3 PUSH2 0xC04 DUP4 PUSH1 0x6 PUSH2 0xFD6 JUMP JUMPDEST PUSH2 0xC0F SWAP1 PUSH1 0x4 PUSH2 0xFBE JUMP JUMPDEST DUP2 MLOAD DUP2 LT PUSH2 0xC1F JUMPI PUSH2 0xC1F PUSH2 0x1065 JUMP JUMPDEST PUSH1 0x20 MUL PUSH1 0x20 ADD ADD DUP2 DUP2 MSTORE POP POP DUP6 DUP2 DUP2 MLOAD DUP2 LT PUSH2 0xC3D JUMPI PUSH2 0xC3D PUSH2 0x1065 JUMP JUMPDEST PUSH1 0x20 MUL PUSH1 0x20 ADD ADD MLOAD PUSH1 0x20 ADD MLOAD PUSH1 0x0 PUSH1 0x2 DUP2 LT PUSH2 0xC5B JUMPI PUSH2 0xC5B PUSH2 0x1065 JUMP JUMPDEST PUSH1 0x20 MUL ADD MLOAD DUP3 PUSH2 0xC6C DUP4 PUSH1 0x6 PUSH2 0xFD6 JUMP JUMPDEST PUSH2 0xC77 SWAP1 PUSH1 0x5 PUSH2 0xFBE JUMP JUMPDEST DUP2 MLOAD DUP2 LT PUSH2 0xC87 JUMPI PUSH2 0xC87 PUSH2 0x1065 JUMP JUMPDEST PUSH1 0x20 SWAP1 DUP2 MUL SWAP2 SWAP1 SWAP2 ADD ADD MSTORE DUP1 PUSH2 0xC9C DUP2 PUSH2 0x100C JUMP JUMPDEST SWAP2 POP POP PUSH2 0xA6F JUMP JUMPDEST POP PUSH2 0xCAD PUSH2 0xD96 JUMP JUMPDEST PUSH1 0x0 PUSH1 0x20 DUP3 PUSH1 0x20 DUP7 MUL PUSH1 0x20 DUP7 ADD PUSH1 0x8 PUSH2 0x7D0 GAS SUB STATICCALL SWAP1 POP DUP1 DUP1 ISZERO PUSH2 0x76B JUMPI POP DUP1 PUSH2 0xCD6 JUMPI PUSH1 0x0 DUP1 REVERT JUMPDEST POP MLOAD ISZERO ISZERO SWAP7 SWAP6 POP POP POP POP POP POP JUMP JUMPDEST PUSH1 0x40 DUP1 MLOAD PUSH1 0xE0 DUP2 ADD SWAP1 SWAP2 MSTORE PUSH1 0x0 PUSH1 0xA0 DUP3 ADD DUP2 DUP2 MSTORE PUSH1 0xC0 DUP4 ADD SWAP2 SWAP1 SWAP2 MSTORE DUP2 MSTORE PUSH1 0x20 DUP2 ADD PUSH2 0xD0E PUSH2 0xD71 JUMP JUMPDEST DUP2 MSTORE PUSH1 0x20 ADD PUSH2 0xD1B PUSH2 0xD71 JUMP JUMPDEST DUP2 MSTORE PUSH1 0x20 ADD PUSH2 0xD28 PUSH2 0xD71 JUMP JUMPDEST DUP2 MSTORE PUSH1 0x20 ADD PUSH1 0x60 DUP2 MSTORE POP SWAP1 JUMP JUMPDEST PUSH1 0x40 MLOAD DUP1 PUSH1 0x60 ADD PUSH1 0x40 MSTORE DUP1 PUSH1 0x3 SWAP1 PUSH1 0x20 DUP3 MUL DUP1 CALLDATASIZE DUP4 CALLDATACOPY POP SWAP2 SWAP3 SWAP2 POP POP JUMP JUMPDEST PUSH1 0x40 MLOAD DUP1 PUSH1 0x80 ADD PUSH1 0x40 MSTORE DUP1 PUSH1 0x4 SWAP1 PUSH1 0x20 DUP3 MUL DUP1 CALLDATASIZE DUP4 CALLDATACOPY POP SWAP2 SWAP3 SWAP2 POP POP JUMP JUMPDEST PUSH1 0x40 MLOAD DUP1 PUSH1 0x40 ADD PUSH1 0x40 MSTORE DUP1 PUSH2 0xD84 PUSH2 0xDB4 JUMP JUMPDEST DUP2 MSTORE PUSH1 0x20 ADD PUSH2 0xD91 PUSH2 0xDB4 JUMP JUMPDEST SWAP1 MSTORE SWAP1 JUMP JUMPDEST PUSH1 0x40 MLOAD DUP1 PUSH1 0x20 ADD PUSH1 0x40 MSTORE DUP1 PUSH1 0x1 SWAP1 PUSH1 0x20 DUP3 MUL DUP1 CALLDATASIZE DUP4 CALLDATACOPY POP SWAP2 SWAP3 SWAP2 POP POP JUMP JUMPDEST PUSH1 0x40 MLOAD DUP1 PUSH1 0x40 ADD PUSH1 0x40 MSTORE DUP1 PUSH1 0x2 SWAP1 PUSH1 0x20 DUP3 MUL DUP1 CALLDATASIZE DUP4 CALLDATACOPY POP SWAP2 SWAP3 SWAP2 POP POP JUMP JUMPDEST PUSH1 0x0 DUP3 PUSH1 0x1F DUP4 ADD SLT PUSH2 0xDE3 JUMPI PUSH1 0x0 DUP1 REVERT JUMPDEST PUSH2 0xDEB PUSH2 0xF9B JUMP JUMPDEST DUP1 DUP4 DUP6 PUSH1 0x40 DUP7 ADD GT ISZERO PUSH2 0xDFD JUMPI PUSH1 0x0 DUP1 REVERT JUMPDEST PUSH1 0x0 JUMPDEST PUSH1 0x2 DUP2 LT ISZERO PUSH2 0xE1F JUMPI DUP2 CALLDATALOAD DUP5 MSTORE PUSH1 0x20 SWAP4 DUP5 ADD SWAP4 SWAP1 SWAP2 ADD SWAP1 PUSH1 0x1 ADD PUSH2 0xE00 JUMP JUMPDEST POP SWAP1 SWAP6 SWAP5 POP POP POP POP POP JUMP JUMPDEST PUSH1 0x0 PUSH1 0x40 DUP3 DUP5 SUB SLT ISZERO PUSH2 0xE3C JUMPI PUSH1 0x0 DUP1 REVERT JUMPDEST PUSH1 0x40 MLOAD PUSH1 0x40 DUP2 ADD DUP2 DUP2 LT PUSH8 0xFFFFFFFFFFFFFFFF DUP3 GT OR ISZERO PUSH2 0xE5F JUMPI PUSH2 0xE5F PUSH2 0x107E JUMP JUMPDEST PUSH1 0x40 MSTORE DUP3 CALLDATALOAD DUP2 MSTORE PUSH1 0x20 SWAP3 DUP4 ADD CALLDATALOAD SWAP3 DUP2 ADD SWAP3 SWAP1 SWAP3 MSTORE POP SWAP2 SWAP1 POP JUMP JUMPDEST PUSH1 0x0 DUP1 DUP3 DUP5 SUB PUSH2 0x160 DUP1 DUP3 SLT ISZERO PUSH2 0xE8F JUMPI PUSH1 0x0 DUP1 REVERT JUMPDEST PUSH2 0x100 DUP1 DUP4 SLT ISZERO PUSH2 0xE9F JUMPI PUSH1 0x0 DUP1 REVERT JUMPDEST PUSH2 0xEA7 PUSH2 0xF72 JUMP JUMPDEST PUSH2 0xEB1 DUP9 DUP9 PUSH2 0xE2A JUMP JUMPDEST DUP2 MSTORE PUSH1 0x80 PUSH1 0x3F NOT DUP6 ADD SLT ISZERO PUSH2 0xEC5 JUMPI PUSH1 0x0 DUP1 REVERT JUMPDEST PUSH2 0xECD PUSH2 0xF9B JUMP JUMPDEST SWAP4 POP PUSH2 0xEDC DUP9 PUSH1 0x40 DUP10 ADD PUSH2 0xDD2 JUMP JUMPDEST DUP5 MSTORE PUSH2 0xEEB DUP9 PUSH1 0x80 DUP10 ADD PUSH2 0xDD2 JUMP JUMPDEST PUSH1 0x20 DUP2 DUP2 DUP8 ADD MSTORE DUP6 DUP2 DUP5 ADD MSTORE PUSH2 0xF04 DUP11 PUSH1 0xC0 DUP12 ADD PUSH2 0xE2A JUMP JUMPDEST PUSH1 0x40 DUP5 ADD MSTORE DUP3 SWAP8 POP DUP10 PUSH2 0x11F DUP11 ADD SLT PUSH2 0xF1C JUMPI PUSH1 0x0 DUP1 REVERT JUMPDEST PUSH2 0xF24 PUSH2 0xF72 JUMP JUMPDEST SWAP6 POP DUP6 SWAP3 POP DUP4 DUP10 ADD SWAP4 POP DUP10 DUP6 DUP11 ADD GT ISZERO PUSH2 0xF3D JUMPI PUSH1 0x0 DUP1 REVERT JUMPDEST PUSH1 0x0 SWAP5 POP JUMPDEST PUSH1 0x3 DUP6 LT ISZERO PUSH2 0xF63 JUMPI DUP4 CALLDATALOAD DUP7 MSTORE SWAP5 DUP6 ADD SWAP5 PUSH1 0x1 SWAP5 SWAP1 SWAP5 ADD SWAP4 SWAP3 DUP4 ADD SWAP3 PUSH2 0xF42 JUMP JUMPDEST POP SWAP6 SWAP9 SWAP1 SWAP8 POP SWAP6 POP POP POP POP POP POP JUMP JUMPDEST PUSH1 0x40 MLOAD PUSH1 0x60 DUP2 ADD PUSH8 0xFFFFFFFFFFFFFFFF DUP2 GT DUP3 DUP3 LT OR ISZERO PUSH2 0xF95 JUMPI PUSH2 0xF95 PUSH2 0x107E JUMP JUMPDEST PUSH1 0x40 MSTORE SWAP1 JUMP JUMPDEST PUSH1 0x40 DUP1 MLOAD SWAP1 DUP2 ADD PUSH8 0xFFFFFFFFFFFFFFFF DUP2 GT DUP3 DUP3 LT OR ISZERO PUSH2 0xF95 JUMPI PUSH2 0xF95 PUSH2 0x107E JUMP JUMPDEST PUSH1 0x0 DUP3 NOT DUP3 GT ISZERO PUSH2 0xFD1 JUMPI PUSH2 0xFD1 PUSH2 0x104C JUMP JUMPDEST POP ADD SWAP1 JUMP JUMPDEST PUSH1 0x0 DUP2 PUSH1 0x0 NOT DIV DUP4 GT DUP3 ISZERO ISZERO AND ISZERO PUSH2 0xFF0 JUMPI PUSH2 0xFF0 PUSH2 0x104C JUMP JUMPDEST POP MUL SWAP1 JUMP JUMPDEST PUSH1 0x0 DUP3 DUP3 LT ISZERO PUSH2 0x1007 JUMPI PUSH2 0x1007 PUSH2 0x104C JUMP JUMPDEST POP SUB SWAP1 JUMP JUMPDEST PUSH1 0x0 PUSH1 0x0 NOT DUP3 EQ ISZERO PUSH2 0x1020 JUMPI PUSH2 0x1020 PUSH2 0x104C JUMP JUMPDEST POP PUSH1 0x1 ADD SWAP1 JUMP JUMPDEST PUSH1 0x0 DUP3 PUSH2 0x1047 JUMPI PUSH1 0xE0 PUSH1 0x2 EXP PUSH4 0x4E487B71 MUL PUSH1 0x0 MSTORE PUSH1 0x12 PUSH1 0x4 MSTORE PUSH1 0x24 PUSH1 0x0 REVERT JUMPDEST POP MOD SWAP1 JUMP JUMPDEST PUSH1 0xE0 PUSH1 0x2 EXP PUSH4 0x4E487B71 MUL PUSH1 0x0 MSTORE PUSH1 0x11 PUSH1 0x4 MSTORE PUSH1 0x24 PUSH1 0x0 REVERT JUMPDEST PUSH1 0xE0 PUSH1 0x2 EXP PUSH4 0x4E487B71 MUL PUSH1 0x0 MSTORE PUSH1 0x32 PUSH1 0x4 MSTORE PUSH1 0x24 PUSH1 0x0 REVERT JUMPDEST PUSH1 0xE0 PUSH1 0x2 EXP PUSH4 0x4E487B71 MUL PUSH1 0x0 MSTORE PUSH1 0x41 PUSH1 0x4 MSTORE PUSH1 0x24 PUSH1 0x0 REVERT INVALID LOG2 PUSH5 0x6970667358 0x22 SLT KECCAK256 PUSH14 0x6BA93D7C78379257CEA4FCD5348 0x23 PUSH14 0xC7C8FB8921E18D4B712C25381696 0xB7 PUSH5 0x736F6C6343 STOP ADDMOD SMOD STOP CALLER "
		},
		"gasEstimates": {
			"creation": {
				"codeDepositCost": "860200",
				"executionCost": "896",
				"totalCost": "861096"
			},
			"external": {
				"verifyTx(((uint256,uint256),(uint256[2],uint256[2]),(uint256,uint256)),uint256[3])": "infinite"
			},
			"internal": {
				"verify(uint256[] memory,struct Verifier.Proof memory)": "infinite",
				"verifyingKey()": "infinite"
			}
		},
		"methodIdentifiers": {
			"verifyTx(((uint256,uint256),(uint256[2],uint256[2]),(uint256,uint256)),uint256[3])": "0f9c5d49"
		}
	},
	"abi": [
		{
			"inputs": [
				{
					"components": [
						{
							"components": [
								{
									"internalType": "uint256",
									"name": "X",
									"type": "uint256"
								},
								{
									"internalType": "uint256",
									"name": "Y",
									"type": "uint256"
								}
							],
							"internalType": "struct Pairing.G1Point",
							"name": "a",
							"type": "tuple"
						},
						{
							"components": [
								{
									"internalType": "uint256[2]",
									"name": "X",
									"type": "uint256[2]"
								},
								{
									"internalType": "uint256[2]",
									"name": "Y",
									"type": "uint256[2]"
								}
							],
							"internalType": "struct Pairing.G2Point",
							"name": "b",
							"type": "tuple"
						},
						{
							"components": [
								{
									"internalType": "uint256",
									"name": "X",
									"type": "uint256"
								},
								{
									"internalType": "uint256",
									"name": "Y",
									"type": "uint256"
								}
							],
							"internalType": "struct Pairing.G1Point",
							"name": "c",
							"type": "tuple"
						}
					],
					"internalType": "struct Verifier.Proof",
					"name": "proof",
					"type": "tuple"
				},
				{
					"internalType": "uint256[3]",
					"name": "input",
					"type": "uint256[3]"
				}
			],
			"name": "verifyTx",
			"outputs": [
				{
					"internalType": "bool",
					"name": "r",
					"type": "bool"
				}
			],
			"stateMutability": "view",
			"type": "function"
		}
	]
}